{
  "address": "0xa488F8453e15dfCd21394DFBE1DCdBb3af8a4344",
  "abi": [
    {
      "inputs": [
        {
          "internalType": "contract IFire",
          "name": "_fire",
          "type": "address"
        },
        {
          "internalType": "contract IERC20Metadata",
          "name": "_lpToken",
          "type": "address"
        }
      ],
      "stateMutability": "nonpayable",
      "type": "constructor"
    },
    {
      "anonymous": false,
      "inputs": [
        {
          "indexed": true,
          "internalType": "address",
          "name": "user",
          "type": "address"
        },
        {
          "indexed": true,
          "internalType": "contract IERC20Metadata",
          "name": "pool",
          "type": "address"
        },
        {
          "indexed": false,
          "internalType": "uint256",
          "name": "amount",
          "type": "uint256"
        }
      ],
      "name": "Claim",
      "type": "event"
    },
    {
      "anonymous": false,
      "inputs": [
        {
          "indexed": true,
          "internalType": "address",
          "name": "user",
          "type": "address"
        },
        {
          "indexed": true,
          "internalType": "contract IERC20Metadata",
          "name": "pool",
          "type": "address"
        },
        {
          "indexed": false,
          "internalType": "uint256",
          "name": "amount",
          "type": "uint256"
        }
      ],
      "name": "Deposit",
      "type": "event"
    },
    {
      "anonymous": false,
      "inputs": [
        {
          "indexed": true,
          "internalType": "address",
          "name": "previousOwner",
          "type": "address"
        },
        {
          "indexed": true,
          "internalType": "address",
          "name": "newOwner",
          "type": "address"
        }
      ],
      "name": "OwnershipTransferred",
      "type": "event"
    },
    {
      "anonymous": false,
      "inputs": [
        {
          "indexed": true,
          "internalType": "address",
          "name": "user",
          "type": "address"
        },
        {
          "indexed": true,
          "internalType": "contract IERC20Metadata",
          "name": "pool",
          "type": "address"
        },
        {
          "indexed": false,
          "internalType": "uint256",
          "name": "amount",
          "type": "uint256"
        }
      ],
      "name": "Withdraw",
      "type": "event"
    },
    {
      "inputs": [],
      "name": "FIRE_MAX_SUPPLY",
      "outputs": [
        {
          "internalType": "uint256",
          "name": "",
          "type": "uint256"
        }
      ],
      "stateMutability": "view",
      "type": "function"
    },
    {
      "inputs": [],
      "name": "FIRE_PER_BLOCK",
      "outputs": [
        {
          "internalType": "uint256",
          "name": "",
          "type": "uint256"
        }
      ],
      "stateMutability": "view",
      "type": "function"
    },
    {
      "inputs": [],
      "name": "START_BLOCK",
      "outputs": [
        {
          "internalType": "uint256",
          "name": "",
          "type": "uint256"
        }
      ],
      "stateMutability": "view",
      "type": "function"
    },
    {
      "inputs": [
        {
          "internalType": "contract IERC20Metadata",
          "name": "token",
          "type": "address"
        },
        {
          "internalType": "uint256",
          "name": "allocPoint",
          "type": "uint256"
        }
      ],
      "name": "addPool",
      "outputs": [],
      "stateMutability": "nonpayable",
      "type": "function"
    },
    {
      "inputs": [
        {
          "internalType": "contract IVault",
          "name": "vault",
          "type": "address"
        }
      ],
      "name": "addVault",
      "outputs": [],
      "stateMutability": "nonpayable",
      "type": "function"
    },
    {
      "inputs": [
        {
          "internalType": "contract IERC20Metadata",
          "name": "token",
          "type": "address"
        }
      ],
      "name": "claim",
      "outputs": [],
      "stateMutability": "nonpayable",
      "type": "function"
    },
    {
      "inputs": [
        {
          "internalType": "address",
          "name": "account",
          "type": "address"
        },
        {
          "internalType": "uint256",
          "name": "amount",
          "type": "uint256"
        }
      ],
      "name": "deposit",
      "outputs": [],
      "stateMutability": "nonpayable",
      "type": "function"
    },
    {
      "inputs": [
        {
          "internalType": "uint256",
          "name": "amount",
          "type": "uint256"
        }
      ],
      "name": "depositLpTokens",
      "outputs": [],
      "stateMutability": "nonpayable",
      "type": "function"
    },
    {
      "inputs": [],
      "name": "fire",
      "outputs": [
        {
          "internalType": "contract IFire",
          "name": "",
          "type": "address"
        }
      ],
      "stateMutability": "view",
      "type": "function"
    },
    {
      "inputs": [
        {
          "internalType": "uint256",
          "name": "from",
          "type": "uint256"
        },
        {
          "internalType": "uint256",
          "name": "to",
          "type": "uint256"
        }
      ],
      "name": "getMultiplier",
      "outputs": [
        {
          "internalType": "uint256",
          "name": "",
          "type": "uint256"
        }
      ],
      "stateMutability": "view",
      "type": "function"
    },
    {
      "inputs": [],
      "name": "lpToken",
      "outputs": [
        {
          "internalType": "contract IERC20Metadata",
          "name": "",
          "type": "address"
        }
      ],
      "stateMutability": "view",
      "type": "function"
    },
    {
      "inputs": [],
      "name": "owner",
      "outputs": [
        {
          "internalType": "address",
          "name": "",
          "type": "address"
        }
      ],
      "stateMutability": "view",
      "type": "function"
    },
    {
      "inputs": [
        {
          "internalType": "contract IERC20Metadata",
          "name": "token",
          "type": "address"
        },
        {
          "internalType": "address",
          "name": "account",
          "type": "address"
        }
      ],
      "name": "pendingFire",
      "outputs": [
        {
          "internalType": "uint256",
          "name": "",
          "type": "uint256"
        }
      ],
      "stateMutability": "view",
      "type": "function"
    },
    {
      "inputs": [
        {
          "internalType": "contract IERC20Metadata",
          "name": "",
          "type": "address"
        }
      ],
      "name": "pools",
      "outputs": [
        {
          "internalType": "contract IERC20",
          "name": "token",
          "type": "address"
        },
        {
          "internalType": "uint256",
          "name": "sharesTotal",
          "type": "uint256"
        },
        {
          "internalType": "uint256",
          "name": "allocPoint",
          "type": "uint256"
        },
        {
          "internalType": "uint256",
          "name": "lastRewardBlock",
          "type": "uint256"
        },
        {
          "internalType": "uint256",
          "name": "accFirePerShare",
          "type": "uint256"
        }
      ],
      "stateMutability": "view",
      "type": "function"
    },
    {
      "inputs": [],
      "name": "renounceOwnership",
      "outputs": [],
      "stateMutability": "nonpayable",
      "type": "function"
    },
    {
      "inputs": [
        {
          "internalType": "contract IERC20Metadata",
          "name": "token",
          "type": "address"
        },
        {
          "internalType": "uint256",
          "name": "allocPoint",
          "type": "uint256"
        }
      ],
      "name": "setPool",
      "outputs": [],
      "stateMutability": "nonpayable",
      "type": "function"
    },
    {
      "inputs": [
        {
          "internalType": "contract IERC20Metadata",
          "name": "token",
          "type": "address"
        }
      ],
      "name": "sweep",
      "outputs": [],
      "stateMutability": "nonpayable",
      "type": "function"
    },
    {
      "inputs": [],
      "name": "totalAllocPoint",
      "outputs": [
        {
          "internalType": "uint256",
          "name": "",
          "type": "uint256"
        }
      ],
      "stateMutability": "view",
      "type": "function"
    },
    {
      "inputs": [
        {
          "internalType": "address",
          "name": "sender",
          "type": "address"
        },
        {
          "internalType": "address",
          "name": "recipient",
          "type": "address"
        },
        {
          "internalType": "uint256",
          "name": "amount",
          "type": "uint256"
        }
      ],
      "name": "transfer",
      "outputs": [],
      "stateMutability": "nonpayable",
      "type": "function"
    },
    {
      "inputs": [
        {
          "internalType": "address",
          "name": "newOwner",
          "type": "address"
        }
      ],
      "name": "transferOwnership",
      "outputs": [],
      "stateMutability": "nonpayable",
      "type": "function"
    },
    {
      "inputs": [
        {
          "internalType": "contract IERC20Metadata",
          "name": "token",
          "type": "address"
        }
      ],
      "name": "updatePool",
      "outputs": [],
      "stateMutability": "nonpayable",
      "type": "function"
    },
    {
      "inputs": [
        {
          "internalType": "contract IERC20Metadata",
          "name": "",
          "type": "address"
        },
        {
          "internalType": "address",
          "name": "",
          "type": "address"
        }
      ],
      "name": "users",
      "outputs": [
        {
          "internalType": "uint256",
          "name": "shares",
          "type": "uint256"
        },
        {
          "internalType": "uint256",
          "name": "rewardDebt",
          "type": "uint256"
        }
      ],
      "stateMutability": "view",
      "type": "function"
    },
    {
      "inputs": [
        {
          "internalType": "contract IVault",
          "name": "",
          "type": "address"
        }
      ],
      "name": "vaultStatuses",
      "outputs": [
        {
          "internalType": "bool",
          "name": "",
          "type": "bool"
        }
      ],
      "stateMutability": "view",
      "type": "function"
    },
    {
      "inputs": [
        {
          "internalType": "contract IERC20Metadata",
          "name": "",
          "type": "address"
        },
        {
          "internalType": "contract IERC20Metadata",
          "name": "",
          "type": "address"
        }
      ],
      "name": "vaults",
      "outputs": [
        {
          "internalType": "contract IVault",
          "name": "",
          "type": "address"
        }
      ],
      "stateMutability": "view",
      "type": "function"
    },
    {
      "inputs": [],
      "name": "vaultsCount",
      "outputs": [
        {
          "internalType": "uint256",
          "name": "",
          "type": "uint256"
        }
      ],
      "stateMutability": "view",
      "type": "function"
    },
    {
      "inputs": [
        {
          "internalType": "address",
          "name": "account",
          "type": "address"
        },
        {
          "internalType": "uint256",
          "name": "amount",
          "type": "uint256"
        }
      ],
      "name": "withdraw",
      "outputs": [],
      "stateMutability": "nonpayable",
      "type": "function"
    },
    {
      "inputs": [
        {
          "internalType": "uint256",
          "name": "amount",
          "type": "uint256"
        }
      ],
      "name": "withdrawLpTokens",
      "outputs": [],
      "stateMutability": "nonpayable",
      "type": "function"
    }
  ],
  "transactionHash": "0x714a65e4a9e7e21f384096def4fd76a8ecd3b808b4a6bf0f98640b5bf443ca9b",
  "args": [
    "0xE39a52CEAC273472aD1A6e6C9b5523B443142eb3",
    "0xA39Af17CE4a8eb807E076805Da1e2B8EA7D0755b"
  ],
  "solcInputHash": "ca6e7034620ca148a6b71843e0192d8a",
  "bytecode": "0x60c06040523480156200001157600080fd5b50604051620021b6380380620021b6833981016040819052620000349162000098565b600080546001600160a01b031916339081178255604051909182917f8be0079c531659141344cd1fd0a4f28419497f9722a3daafe3b4186f6b6457e0908290a350600180556001600160601b0319606092831b8116608052911b1660a052620000ef565b60008060408385031215620000ab578182fd5b8251620000b881620000d6565b6020840151909250620000cb81620000d6565b809150509250929050565b6001600160a01b0381168114620000ec57600080fd5b50565b60805160601c60a05160601c612024620001926000396000818161031a0152818161067e015281816106ac0152818161086a015281816109070152818161095e0152818161107f015281816110ad015281816111ad015261121d01526000818161023a015281816104e5015281816107f901528181610a7501528181610ee601528181611171015281816114dc01528181611594015261196301526120246000f3fe608060405234801561001057600080fd5b50600436106101a95760003560e01c80636a8c2d2f116100f95780638dbb1e3a11610097578063cae48cac11610071578063cae48cac14610448578063dfba81f81461047b578063f2fde38b1461048a578063f3fef3a31461049d57600080fd5b80638dbb1e3a146103a9578063a4063dbc146103bc578063beabacc81461043557600080fd5b80637b46c54f116100d35780637b46c54f1461036a5780637d38a2b41461037d578063889777381461038f5780638da5cb5b1461039857600080fd5b80636a8c2d2f1461033c578063715018a61461034f57806371881f341461035757600080fd5b806339b3e826116101665780634d635e70116101405780634d635e70146102875780635c48360f146102bb5780635e80536a146102ce5780635fcbd2851461031557600080fd5b806339b3e8261461022b578063457094cc1461023557806347e7ef241461027457600080fd5b806301681a62146101ae57806305bba6bd146101c357806317caf6f1146101d65780631e83409a146101f2578063256b5a021461020557806332a9caba14610218575b600080fd5b6101c16101bc366004611d07565b6104b0565b005b6101c16101d1366004611e02565b610621565b6101df60075481565b6040519081526020015b60405180910390f35b6101c1610200366004611d07565b6109c1565b6101c1610213366004611d07565b610acb565b6101c1610226366004611d63565b610cb0565b6101df6298968081565b61025c7f000000000000000000000000000000000000000000000000000000000000000081565b6040516001600160a01b0390911681526020016101e9565b6101c1610282366004611d63565b610d7f565b61025c610295366004611dca565b60036020908152600092835260408084209091529082529020546001600160a01b031681565b6101c16102c9366004611d63565b610fa2565b6103006102dc366004611dca565b60066020908152600092835260408084209091529082529020805460019091015482565b604080519283526020830191909152016101e9565b61025c7f000000000000000000000000000000000000000000000000000000000000000081565b6101c161034a366004611e02565b611022565b6101c1611272565b6101df610365366004611dca565b6112e6565b6101c1610378366004611d07565b61142f565b6101df6a015d66ade20554e340000081565b6101df60025481565b6000546001600160a01b031661025c565b6101df6103b7366004611e32565b611584565b6104036103ca366004611d07565b600560205260009081526040902080546001820154600283015460038401546004909401546001600160a01b0390931693919290919085565b604080516001600160a01b0390961686526020860194909452928401919091526060830152608082015260a0016101e9565b6101c1610443366004611d23565b611641565b61046b610456366004611d07565b60046020526000908152604090205460ff1681565b60405190151581526020016101e9565b6101df671a80b23e3339a38e81565b6101c1610498366004611d07565b611689565b6101c16104ab366004611d63565b611773565b6000546001600160a01b031633146104e35760405162461bcd60e51b81526004016104da90611ed9565b60405180910390fd5b7f00000000000000000000000000000000000000000000000000000000000000006001600160a01b0316816001600160a01b031614156105815760405162461bcd60e51b815260206004820152603360248201527f4c69717569646974794d696e696e673a207377656570696e67206f662046495260448201527211481d1bdad95b881b9bdd08185b1b1bddd959606a1b60648201526084016104da565b61061e6105966000546001600160a01b031690565b6040516370a0823160e01b81523060048201526001600160a01b038416906370a082319060240160206040518083038186803b1580156105d557600080fd5b505afa1580156105e9573d6000803e3d6000fd5b505050506040513d601f19601f8201168201806040525081019061060d9190611e1a565b6001600160a01b0384169190611a1c565b50565b600260015414156106745760405162461bcd60e51b815260206004820152601f60248201527f5265656e7472616e637947756172643a207265656e7472616e742063616c6c0060448201526064016104da565b60026001556106a27f000000000000000000000000000000000000000000000000000000000000000061142f565b6001600160a01b037f000000000000000000000000000000000000000000000000000000000000000081166000818152600560209081526040808320815160a08101835281549096168652600181015486840152600281015486830152600381015460608701526004015460808601529282526006815282822033835290522080546107635760405162461bcd60e51b815260206004820152601060248201526f0757365722e73686172657320697320360841b60448201526064016104da565b60008260200151116107af5760405162461bcd60e51b81526020600482015260156024820152740706f6f6c2e736861726573546f74616c206973203605c1b60448201526064016104da565b6000816001015464e8d4a51000846080015184600001546107d09190611f46565b6107da9190611f26565b6107e49190611f65565b90508015610820576108206001600160a01b037f0000000000000000000000000000000000000000000000000000000000000000163383611a1c565b83156109305781548411156108385760008255610852565b8382600001600082825461084c9190611f65565b90915550505b6040516370a0823160e01b81523060048201526000907f00000000000000000000000000000000000000000000000000000000000000006001600160a01b0316906370a082319060240160206040518083038186803b1580156108b457600080fd5b505afa1580156108c8573d6000803e3d6000fd5b505050506040513d601f19601f820116820180604052508101906108ec9190611e1a565b9050848110156108fa578094505b61092e6001600160a01b037f0000000000000000000000000000000000000000000000000000000000000000163387611a1c565b505b6080830151825464e8d4a510009161094791611f46565b6109519190611f26565b60018301556040518481527f00000000000000000000000000000000000000000000000000000000000000006001600160a01b03169033907f9b1bfa7fa9ee420a16e124f794c35ac9f90472acc99140eb2f6447c714cad8eb906020015b60405180910390a35050600180555050565b6109ca8161142f565b6001600160a01b038082166000818152600560209081526040808320815160a08101835281549096168652600180820154878501526002820154878401526003820154606088015260049091015460808701908152948452600683528184203385529092528220908101549251815491939164e8d4a5100091610a4c91611f46565b610a569190611f26565b610a609190611f65565b90508015610a9c57610a9c6001600160a01b037f0000000000000000000000000000000000000000000000000000000000000000163383611a1c565b6080830151825464e8d4a5100091610ab391611f46565b610abd9190611f26565b826001018190555050505050565b6000546001600160a01b03163314610af55760405162461bcd60e51b81526004016104da90611ed9565b6001600160a01b03811660009081526004602052604090205460ff1615610b5e5760405162461bcd60e51b815260206004820152601d60248201527f4649524544414f3a205661756c7420616c72656164792065786973747300000060448201526064016104da565b6000816001600160a01b0316636f307dc36040518163ffffffff1660e01b815260040160206040518083038186803b158015610b9957600080fd5b505afa158015610bad573d6000803e3d6000fd5b505050506040513d601f19601f82011682018060405250810190610bd19190611dae565b90506000826001600160a01b031663d4b839926040518163ffffffff1660e01b815260040160206040518083038186803b158015610c0e57600080fd5b505afa158015610c22573d6000803e3d6000fd5b505050506040513d601f19601f82011682018060405250810190610c469190611dae565b6001600160a01b0383811660009081526003602090815260408083208585168452825280832080546001600160a01b031916948916948517905592825260049052908120805460ff191660011790556002805492935090610ca683611fa8565b9190505550505050565b6000546001600160a01b03163314610cda5760405162461bcd60e51b81526004016104da90611ed9565b6000629896804311610cef5762989680610cf1565b435b90508160076000828254610d059190611f0e565b90915550506040805160a0810182526001600160a01b039485168082526000602080840182815284860197885260608501968752608085018381529383526005909152939020915182546001600160a01b031916961695909517815590516001820155915160028301555160038201559051600490910155565b3360009081526004602052604090205460ff16610dae5760405162461bcd60e51b81526004016104da90611ea2565b60003390506000816001600160a01b0316636f307dc36040518163ffffffff1660e01b815260040160206040518083038186803b158015610dee57600080fd5b505afa158015610e02573d6000803e3d6000fd5b505050506040513d601f19601f82011682018060405250810190610e269190611dae565b9050610e318161142f565b6001600160a01b038082166000818152600560209081526040808320815160a0810183528154871681526001820154818501526002820154818401526003820154606082015260049091015460808201529383526006825280832094891683529390529190912080548015610f0f576000826001015464e8d4a51000856080015184610ebd9190611f46565b610ec79190611f26565b610ed19190611f65565b90508015610f0d57610f0d6001600160a01b037f0000000000000000000000000000000000000000000000000000000000000000168983611a1c565b505b8515610f2f5785826000016000828254610f299190611f0e565b90915550505b6080830151825464e8d4a5100091610f4691611f46565b610f509190611f26565b60018301556040518681526001600160a01b0380861691908916907f5548c837ab068cf56a2c2479df0882a4922fd203edb7517321831d95078c5f62906020015b60405180910390a350505050505050565b6000546001600160a01b03163314610fcc5760405162461bcd60e51b81526004016104da90611ed9565b6001600160a01b0382166000908152600560205260409020600201546007548291610ff691611f65565b6110009190611f0e565b6007556001600160a01b03909116600090815260056020526040902060020155565b600260015414156110755760405162461bcd60e51b815260206004820152601f60248201527f5265656e7472616e637947756172643a207265656e7472616e742063616c6c0060448201526064016104da565b60026001556110a37f000000000000000000000000000000000000000000000000000000000000000061142f565b6001600160a01b037f000000000000000000000000000000000000000000000000000000000000000081166000818152600560209081526040808320815160a0810183528154909616865260018101548684015260028101548683015260038101546060870152600401546080860152928252600681528282203383529052208054801561119a576000826001015464e8d4a510008560800151846111489190611f46565b6111529190611f26565b61115c9190611f65565b90508015611198576111986001600160a01b037f0000000000000000000000000000000000000000000000000000000000000000163383611a1c565b505b83156111ef576111d56001600160a01b037f000000000000000000000000000000000000000000000000000000000000000016333087611a7f565b838260000160008282546111e99190611f0e565b90915550505b6080830151825464e8d4a510009161120691611f46565b6112109190611f26565b60018301556040518481527f00000000000000000000000000000000000000000000000000000000000000006001600160a01b03169033907f5548c837ab068cf56a2c2479df0882a4922fd203edb7517321831d95078c5f62906020016109af565b6000546001600160a01b0316331461129c5760405162461bcd60e51b81526004016104da90611ed9565b600080546040516001600160a01b03909116907f8be0079c531659141344cd1fd0a4f28419497f9722a3daafe3b4186f6b6457e0908390a3600080546001600160a01b0319169055565b6001600160a01b038083166000818152600560209081526040808320815160a0810183528154871681526001808301548286019081526002840154838601526003840154606084019081526004909401546080840190815297875260068652848720988a1687529785528386208451808601909552805485520154938301939093529351945193519294919390924311801561138157508015155b156113f5576000611396856060015143611584565b905060006007548660400151671a80b23e3339a38e846113b69190611f46565b6113c09190611f46565b6113ca9190611f26565b9050826113dc8264e8d4a51000611f46565b6113e69190611f26565b6113f09085611f0e565b935050505b6020830151835164e8d4a510009061140e908590611f46565b6114189190611f26565b6114229190611f65565b9450505050505b92915050565b6001600160a01b038116600090815260056020526040902060038101544311611456575050565b60018101548061146b57504360039091015550565b600061147b836003015443611584565b90506000811161148b5750505050565b60006007548460020154671a80b23e3339a38e846114a99190611f46565b6114b39190611f46565b6114bd9190611f26565b6040516340c10f1960e01b8152306004820152602481018290529091507f00000000000000000000000000000000000000000000000000000000000000006001600160a01b0316906340c10f1990604401600060405180830381600087803b15801561152857600080fd5b505af115801561153c573d6000803e3d6000fd5b50505050828164e8d4a510006115529190611f46565b61155c9190611f26565b84600401600082825461156f9190611f0e565b90915550504360039094019390935550505050565b60006a015d66ade20554e34000007f00000000000000000000000000000000000000000000000000000000000000006001600160a01b03166318160ddd6040518163ffffffff1660e01b815260040160206040518083038186803b1580156115eb57600080fd5b505afa1580156115ff573d6000803e3d6000fd5b505050506040513d601f19601f820116820180604052508101906116239190611e1a565b1061163057506000611429565b61163a8383611f65565b9392505050565b3360009081526004602052604090205460ff166116705760405162461bcd60e51b81526004016104da90611ea2565b61167a8382611773565b6116848282610d7f565b505050565b6000546001600160a01b031633146116b35760405162461bcd60e51b81526004016104da90611ed9565b6001600160a01b0381166117185760405162461bcd60e51b815260206004820152602660248201527f4f776e61626c653a206e6577206f776e657220697320746865207a65726f206160448201526564647265737360d01b60648201526084016104da565b600080546040516001600160a01b03808516939216917f8be0079c531659141344cd1fd0a4f28419497f9722a3daafe3b4186f6b6457e091a3600080546001600160a01b0319166001600160a01b0392909216919091179055565b3360009081526004602052604090205460ff166117a25760405162461bcd60e51b81526004016104da90611ea2565b60003390506000816001600160a01b0316636f307dc36040518163ffffffff1660e01b815260040160206040518083038186803b1580156117e257600080fd5b505afa1580156117f6573d6000803e3d6000fd5b505050506040513d601f19601f8201168201806040525081019061181a9190611dae565b90506118258161142f565b6001600160a01b038082166000818152600560209081526040808320815160a0810183528154871681526001820154818501526002820154818401526003820154606082015260049091015460808201529383526006825280832094891683529390529190912080546118cd5760405162461bcd60e51b815260206004820152601060248201526f0757365722e73686172657320697320360841b60448201526064016104da565b60008260200151116119195760405162461bcd60e51b81526020600482015260156024820152740706f6f6c2e736861726573546f74616c206973203605c1b60448201526064016104da565b6000816001015464e8d4a510008460800151846000015461193a9190611f46565b6119449190611f26565b61194e9190611f65565b9050801561198a5761198a6001600160a01b037f0000000000000000000000000000000000000000000000000000000000000000168883611a1c565b815486111561199c57600082556119b6565b858260000160008282546119b09190611f65565b90915550505b6080830151825464e8d4a51000916119cd91611f46565b6119d79190611f26565b60018301556040518681526001600160a01b0380861691908916907f9b1bfa7fa9ee420a16e124f794c35ac9f90472acc99140eb2f6447c714cad8eb90602001610f91565b6040516001600160a01b03831660248201526044810182905261168490849063a9059cbb60e01b906064015b60408051601f198184030181529190526020810180516001600160e01b03166001600160e01b031990931692909217909152611abd565b6040516001600160a01b0380851660248301528316604482015260648101829052611ab79085906323b872dd60e01b90608401611a48565b50505050565b6000611b12826040518060400160405280602081526020017f5361666545524332303a206c6f772d6c6576656c2063616c6c206661696c6564815250856001600160a01b0316611b8f9092919063ffffffff16565b8051909150156116845780806020019051810190611b309190611d8e565b6116845760405162461bcd60e51b815260206004820152602a60248201527f5361666545524332303a204552433230206f7065726174696f6e20646964206e6044820152691bdd081cdd58d8d9595960b21b60648201526084016104da565b6060611b9e8484600085611ba6565b949350505050565b606082471015611c075760405162461bcd60e51b815260206004820152602660248201527f416464726573733a20696e73756666696369656e742062616c616e636520666f6044820152651c8818d85b1b60d21b60648201526084016104da565b843b611c555760405162461bcd60e51b815260206004820152601d60248201527f416464726573733a2063616c6c20746f206e6f6e2d636f6e747261637400000060448201526064016104da565b600080866001600160a01b03168587604051611c719190611e53565b60006040518083038185875af1925050503d8060008114611cae576040519150601f19603f3d011682016040523d82523d6000602084013e611cb3565b606091505b5091509150611cc3828286611cce565b979650505050505050565b60608315611cdd57508161163a565b825115611ced5782518084602001fd5b8160405162461bcd60e51b81526004016104da9190611e6f565b600060208284031215611d18578081fd5b813561163a81611fd9565b600080600060608486031215611d37578182fd5b8335611d4281611fd9565b92506020840135611d5281611fd9565b929592945050506040919091013590565b60008060408385031215611d75578182fd5b8235611d8081611fd9565b946020939093013593505050565b600060208284031215611d9f578081fd5b8151801515811461163a578182fd5b600060208284031215611dbf578081fd5b815161163a81611fd9565b60008060408385031215611ddc578182fd5b8235611de781611fd9565b91506020830135611df781611fd9565b809150509250929050565b600060208284031215611e13578081fd5b5035919050565b600060208284031215611e2b578081fd5b5051919050565b60008060408385031215611e44578182fd5b50508035926020909101359150565b60008251611e65818460208701611f7c565b9190910192915050565b6020815260008251806020840152611e8e816040850160208701611f7c565b601f01601f19169190910160400192915050565b6020808252601b908201527f4649524544414f3a204f6e6c79207661756c7420616c6c6f7765640000000000604082015260600190565b6020808252818101527f4f776e61626c653a2063616c6c6572206973206e6f7420746865206f776e6572604082015260600190565b60008219821115611f2157611f21611fc3565b500190565b600082611f4157634e487b7160e01b81526012600452602481fd5b500490565b6000816000190483118215151615611f6057611f60611fc3565b500290565b600082821015611f7757611f77611fc3565b500390565b60005b83811015611f97578181015183820152602001611f7f565b83811115611ab75750506000910152565b6000600019821415611fbc57611fbc611fc3565b5060010190565b634e487b7160e01b600052601160045260246000fd5b6001600160a01b038116811461061e57600080fdfea2646970667358221220a116d02425272531c4bb4bebac073933c0f80ae99f0b9e4da33966afc31adeaa64736f6c63430008040033",
  "devdoc": {
    "kind": "dev",
    "methods": {
      "owner()": {
        "details": "Returns the address of the current owner."
      },
      "renounceOwnership()": {
        "details": "Leaves the contract without owner. It will not be possible to call `onlyOwner` functions anymore. Can only be called by the current owner. NOTE: Renouncing ownership will leave the contract without an owner, thereby removing any functionality that is only available to the owner."
      },
      "transferOwnership(address)": {
        "details": "Transfers ownership of the contract to a new account (`newOwner`). Can only be called by the current owner."
      }
    },
    "version": 1
  },
  "userdoc": {
    "kind": "user",
    "methods": {},
    "version": 1
  },
  "storageLayout": {
    "storage": [
      {
        "astId": 375,
        "contract": "contracts/Farm.sol:Farm",
        "label": "_owner",
        "offset": 0,
        "slot": "0",
        "type": "t_address"
      },
      {
        "astId": 580,
        "contract": "contracts/Farm.sol:Farm",
        "label": "_status",
        "offset": 0,
        "slot": "1",
        "type": "t_uint256"
      },
      {
        "astId": 2810,
        "contract": "contracts/Farm.sol:Farm",
        "label": "vaultsCount",
        "offset": 0,
        "slot": "2",
        "type": "t_uint256"
      },
      {
        "astId": 2825,
        "contract": "contracts/Farm.sol:Farm",
        "label": "vaults",
        "offset": 0,
        "slot": "3",
        "type": "t_mapping(t_contract(IERC20Metadata)1219,t_mapping(t_contract(IERC20Metadata)1219,t_contract(IVault)4308))"
      },
      {
        "astId": 2830,
        "contract": "contracts/Farm.sol:Farm",
        "label": "vaultStatuses",
        "offset": 0,
        "slot": "4",
        "type": "t_mapping(t_contract(IVault)4308,t_bool)"
      },
      {
        "astId": 2836,
        "contract": "contracts/Farm.sol:Farm",
        "label": "pools",
        "offset": 0,
        "slot": "5",
        "type": "t_mapping(t_contract(IERC20Metadata)1219,t_struct(Pool)2799_storage)"
      },
      {
        "astId": 2844,
        "contract": "contracts/Farm.sol:Farm",
        "label": "users",
        "offset": 0,
        "slot": "6",
        "type": "t_mapping(t_contract(IERC20Metadata)1219,t_mapping(t_address,t_struct(User)2787_storage))"
      },
      {
        "astId": 2846,
        "contract": "contracts/Farm.sol:Farm",
        "label": "totalAllocPoint",
        "offset": 0,
        "slot": "7",
        "type": "t_uint256"
      }
    ],
    "types": {
      "t_address": {
        "encoding": "inplace",
        "label": "address",
        "numberOfBytes": "20"
      },
      "t_bool": {
        "encoding": "inplace",
        "label": "bool",
        "numberOfBytes": "1"
      },
      "t_contract(IERC20)1194": {
        "encoding": "inplace",
        "label": "contract IERC20",
        "numberOfBytes": "20"
      },
      "t_contract(IERC20Metadata)1219": {
        "encoding": "inplace",
        "label": "contract IERC20Metadata",
        "numberOfBytes": "20"
      },
      "t_contract(IVault)4308": {
        "encoding": "inplace",
        "label": "contract IVault",
        "numberOfBytes": "20"
      },
      "t_mapping(t_address,t_struct(User)2787_storage)": {
        "encoding": "mapping",
        "key": "t_address",
        "label": "mapping(address => struct Farm.User)",
        "numberOfBytes": "32",
        "value": "t_struct(User)2787_storage"
      },
      "t_mapping(t_contract(IERC20Metadata)1219,t_contract(IVault)4308)": {
        "encoding": "mapping",
        "key": "t_contract(IERC20Metadata)1219",
        "label": "mapping(contract IERC20Metadata => contract IVault)",
        "numberOfBytes": "32",
        "value": "t_contract(IVault)4308"
      },
      "t_mapping(t_contract(IERC20Metadata)1219,t_mapping(t_address,t_struct(User)2787_storage))": {
        "encoding": "mapping",
        "key": "t_contract(IERC20Metadata)1219",
        "label": "mapping(contract IERC20Metadata => mapping(address => struct Farm.User))",
        "numberOfBytes": "32",
        "value": "t_mapping(t_address,t_struct(User)2787_storage)"
      },
      "t_mapping(t_contract(IERC20Metadata)1219,t_mapping(t_contract(IERC20Metadata)1219,t_contract(IVault)4308))": {
        "encoding": "mapping",
        "key": "t_contract(IERC20Metadata)1219",
        "label": "mapping(contract IERC20Metadata => mapping(contract IERC20Metadata => contract IVault))",
        "numberOfBytes": "32",
        "value": "t_mapping(t_contract(IERC20Metadata)1219,t_contract(IVault)4308)"
      },
      "t_mapping(t_contract(IERC20Metadata)1219,t_struct(Pool)2799_storage)": {
        "encoding": "mapping",
        "key": "t_contract(IERC20Metadata)1219",
        "label": "mapping(contract IERC20Metadata => struct Farm.Pool)",
        "numberOfBytes": "32",
        "value": "t_struct(Pool)2799_storage"
      },
      "t_mapping(t_contract(IVault)4308,t_bool)": {
        "encoding": "mapping",
        "key": "t_contract(IVault)4308",
        "label": "mapping(contract IVault => bool)",
        "numberOfBytes": "32",
        "value": "t_bool"
      },
      "t_struct(Pool)2799_storage": {
        "encoding": "inplace",
        "label": "struct Farm.Pool",
        "members": [
          {
            "astId": 2790,
            "contract": "contracts/Farm.sol:Farm",
            "label": "token",
            "offset": 0,
            "slot": "0",
            "type": "t_contract(IERC20)1194"
          },
          {
            "astId": 2792,
            "contract": "contracts/Farm.sol:Farm",
            "label": "sharesTotal",
            "offset": 0,
            "slot": "1",
            "type": "t_uint256"
          },
          {
            "astId": 2794,
            "contract": "contracts/Farm.sol:Farm",
            "label": "allocPoint",
            "offset": 0,
            "slot": "2",
            "type": "t_uint256"
          },
          {
            "astId": 2796,
            "contract": "contracts/Farm.sol:Farm",
            "label": "lastRewardBlock",
            "offset": 0,
            "slot": "3",
            "type": "t_uint256"
          },
          {
            "astId": 2798,
            "contract": "contracts/Farm.sol:Farm",
            "label": "accFirePerShare",
            "offset": 0,
            "slot": "4",
            "type": "t_uint256"
          }
        ],
        "numberOfBytes": "160"
      },
      "t_struct(User)2787_storage": {
        "encoding": "inplace",
        "label": "struct Farm.User",
        "members": [
          {
            "astId": 2784,
            "contract": "contracts/Farm.sol:Farm",
            "label": "shares",
            "offset": 0,
            "slot": "0",
            "type": "t_uint256"
          },
          {
            "astId": 2786,
            "contract": "contracts/Farm.sol:Farm",
            "label": "rewardDebt",
            "offset": 0,
            "slot": "1",
            "type": "t_uint256"
          }
        ],
        "numberOfBytes": "64"
      },
      "t_uint256": {
        "encoding": "inplace",
        "label": "uint256",
        "numberOfBytes": "32"
      }
    }
  }
}