{
  "address": "0xA04f06Be62687CcfE7A525c091Eb1D67306C738C",
  "abi": [
    {
      "inputs": [
        {
          "internalType": "address",
          "name": "account",
          "type": "address"
        }
      ],
      "stateMutability": "nonpayable",
      "type": "constructor"
    },
    {
      "anonymous": false,
      "inputs": [
        {
          "indexed": true,
          "internalType": "address",
          "name": "owner",
          "type": "address"
        },
        {
          "indexed": true,
          "internalType": "address",
          "name": "spender",
          "type": "address"
        },
        {
          "indexed": false,
          "internalType": "uint256",
          "name": "amount",
          "type": "uint256"
        }
      ],
      "name": "Approval",
      "type": "event"
    },
    {
      "anonymous": false,
      "inputs": [
        {
          "indexed": true,
          "internalType": "address",
          "name": "delegator",
          "type": "address"
        },
        {
          "indexed": true,
          "internalType": "address",
          "name": "fromDelegate",
          "type": "address"
        },
        {
          "indexed": true,
          "internalType": "address",
          "name": "toDelegate",
          "type": "address"
        }
      ],
      "name": "DelegateChanged",
      "type": "event"
    },
    {
      "anonymous": false,
      "inputs": [
        {
          "indexed": true,
          "internalType": "address",
          "name": "delegate",
          "type": "address"
        },
        {
          "indexed": false,
          "internalType": "uint256",
          "name": "previousBalance",
          "type": "uint256"
        },
        {
          "indexed": false,
          "internalType": "uint256",
          "name": "newBalance",
          "type": "uint256"
        }
      ],
      "name": "DelegateVotesChanged",
      "type": "event"
    },
    {
      "anonymous": false,
      "inputs": [
        {
          "indexed": false,
          "internalType": "address",
          "name": "owner",
          "type": "address"
        },
        {
          "indexed": false,
          "internalType": "address",
          "name": "newOwner",
          "type": "address"
        }
      ],
      "name": "OwnerChanged",
      "type": "event"
    },
    {
      "anonymous": false,
      "inputs": [
        {
          "indexed": true,
          "internalType": "address",
          "name": "from",
          "type": "address"
        },
        {
          "indexed": true,
          "internalType": "address",
          "name": "to",
          "type": "address"
        },
        {
          "indexed": false,
          "internalType": "uint256",
          "name": "amount",
          "type": "uint256"
        }
      ],
      "name": "Transfer",
      "type": "event"
    },
    {
      "inputs": [],
      "name": "DELEGATION_TYPEHASH",
      "outputs": [
        {
          "internalType": "bytes32",
          "name": "",
          "type": "bytes32"
        }
      ],
      "stateMutability": "view",
      "type": "function"
    },
    {
      "inputs": [],
      "name": "DOMAIN_TYPEHASH",
      "outputs": [
        {
          "internalType": "bytes32",
          "name": "",
          "type": "bytes32"
        }
      ],
      "stateMutability": "view",
      "type": "function"
    },
    {
      "inputs": [],
      "name": "PERMIT_TYPEHASH",
      "outputs": [
        {
          "internalType": "bytes32",
          "name": "",
          "type": "bytes32"
        }
      ],
      "stateMutability": "view",
      "type": "function"
    },
    {
      "inputs": [],
      "name": "abolishSeizing",
      "outputs": [],
      "stateMutability": "nonpayable",
      "type": "function"
    },
    {
      "inputs": [
        {
          "internalType": "address",
          "name": "_user",
          "type": "address"
        }
      ],
      "name": "addToWhitelist",
      "outputs": [],
      "stateMutability": "nonpayable",
      "type": "function"
    },
    {
      "inputs": [
        {
          "internalType": "address",
          "name": "account",
          "type": "address"
        },
        {
          "internalType": "address",
          "name": "spender",
          "type": "address"
        }
      ],
      "name": "allowance",
      "outputs": [
        {
          "internalType": "uint256",
          "name": "",
          "type": "uint256"
        }
      ],
      "stateMutability": "view",
      "type": "function"
    },
    {
      "inputs": [
        {
          "internalType": "address",
          "name": "spender",
          "type": "address"
        },
        {
          "internalType": "uint256",
          "name": "rawAmount",
          "type": "uint256"
        }
      ],
      "name": "approve",
      "outputs": [
        {
          "internalType": "bool",
          "name": "",
          "type": "bool"
        }
      ],
      "stateMutability": "nonpayable",
      "type": "function"
    },
    {
      "inputs": [
        {
          "internalType": "address",
          "name": "account",
          "type": "address"
        }
      ],
      "name": "balanceOf",
      "outputs": [
        {
          "internalType": "uint256",
          "name": "",
          "type": "uint256"
        }
      ],
      "stateMutability": "view",
      "type": "function"
    },
    {
      "inputs": [
        {
          "internalType": "address",
          "name": "",
          "type": "address"
        },
        {
          "internalType": "uint32",
          "name": "",
          "type": "uint32"
        }
      ],
      "name": "checkpoints",
      "outputs": [
        {
          "internalType": "uint32",
          "name": "fromBlock",
          "type": "uint32"
        },
        {
          "internalType": "uint96",
          "name": "votes",
          "type": "uint96"
        }
      ],
      "stateMutability": "view",
      "type": "function"
    },
    {
      "inputs": [],
      "name": "closeTheGates",
      "outputs": [],
      "stateMutability": "nonpayable",
      "type": "function"
    },
    {
      "inputs": [],
      "name": "decimals",
      "outputs": [
        {
          "internalType": "uint8",
          "name": "",
          "type": "uint8"
        }
      ],
      "stateMutability": "view",
      "type": "function"
    },
    {
      "inputs": [
        {
          "internalType": "address",
          "name": "delegatee",
          "type": "address"
        }
      ],
      "name": "delegate",
      "outputs": [],
      "stateMutability": "nonpayable",
      "type": "function"
    },
    {
      "inputs": [
        {
          "internalType": "address",
          "name": "delegatee",
          "type": "address"
        },
        {
          "internalType": "uint256",
          "name": "nonce",
          "type": "uint256"
        },
        {
          "internalType": "uint256",
          "name": "expiry",
          "type": "uint256"
        },
        {
          "internalType": "uint8",
          "name": "v",
          "type": "uint8"
        },
        {
          "internalType": "bytes32",
          "name": "r",
          "type": "bytes32"
        },
        {
          "internalType": "bytes32",
          "name": "s",
          "type": "bytes32"
        }
      ],
      "name": "delegateBySig",
      "outputs": [],
      "stateMutability": "nonpayable",
      "type": "function"
    },
    {
      "inputs": [
        {
          "internalType": "address",
          "name": "",
          "type": "address"
        }
      ],
      "name": "delegates",
      "outputs": [
        {
          "internalType": "address",
          "name": "",
          "type": "address"
        }
      ],
      "stateMutability": "view",
      "type": "function"
    },
    {
      "inputs": [
        {
          "internalType": "address",
          "name": "account",
          "type": "address"
        }
      ],
      "name": "getCurrentVotes",
      "outputs": [
        {
          "internalType": "uint96",
          "name": "",
          "type": "uint96"
        }
      ],
      "stateMutability": "view",
      "type": "function"
    },
    {
      "inputs": [
        {
          "internalType": "address",
          "name": "account",
          "type": "address"
        },
        {
          "internalType": "uint256",
          "name": "blockNumber",
          "type": "uint256"
        }
      ],
      "name": "getPriorVotes",
      "outputs": [
        {
          "internalType": "uint96",
          "name": "",
          "type": "uint96"
        }
      ],
      "stateMutability": "view",
      "type": "function"
    },
    {
      "inputs": [
        {
          "internalType": "address",
          "name": "dst",
          "type": "address"
        },
        {
          "internalType": "uint256",
          "name": "rawAmount",
          "type": "uint256"
        }
      ],
      "name": "mint",
      "outputs": [],
      "stateMutability": "nonpayable",
      "type": "function"
    },
    {
      "inputs": [],
      "name": "name",
      "outputs": [
        {
          "internalType": "string",
          "name": "",
          "type": "string"
        }
      ],
      "stateMutability": "view",
      "type": "function"
    },
    {
      "inputs": [
        {
          "internalType": "address",
          "name": "",
          "type": "address"
        }
      ],
      "name": "nonces",
      "outputs": [
        {
          "internalType": "uint256",
          "name": "",
          "type": "uint256"
        }
      ],
      "stateMutability": "view",
      "type": "function"
    },
    {
      "inputs": [
        {
          "internalType": "address",
          "name": "",
          "type": "address"
        }
      ],
      "name": "numCheckpoints",
      "outputs": [
        {
          "internalType": "uint32",
          "name": "",
          "type": "uint32"
        }
      ],
      "stateMutability": "view",
      "type": "function"
    },
    {
      "inputs": [],
      "name": "openTheGates",
      "outputs": [],
      "stateMutability": "nonpayable",
      "type": "function"
    },
    {
      "inputs": [],
      "name": "owner",
      "outputs": [
        {
          "internalType": "address",
          "name": "",
          "type": "address"
        }
      ],
      "stateMutability": "view",
      "type": "function"
    },
    {
      "inputs": [
        {
          "internalType": "address",
          "name": "_owner",
          "type": "address"
        },
        {
          "internalType": "address",
          "name": "spender",
          "type": "address"
        },
        {
          "internalType": "uint256",
          "name": "rawAmount",
          "type": "uint256"
        },
        {
          "internalType": "uint256",
          "name": "deadline",
          "type": "uint256"
        },
        {
          "internalType": "uint8",
          "name": "v",
          "type": "uint8"
        },
        {
          "internalType": "bytes32",
          "name": "r",
          "type": "bytes32"
        },
        {
          "internalType": "bytes32",
          "name": "s",
          "type": "bytes32"
        }
      ],
      "name": "permit",
      "outputs": [],
      "stateMutability": "nonpayable",
      "type": "function"
    },
    {
      "inputs": [
        {
          "internalType": "address",
          "name": "_user",
          "type": "address"
        }
      ],
      "name": "removeFromWhitelist",
      "outputs": [],
      "stateMutability": "nonpayable",
      "type": "function"
    },
    {
      "inputs": [],
      "name": "seizable",
      "outputs": [
        {
          "internalType": "bool",
          "name": "",
          "type": "bool"
        }
      ],
      "stateMutability": "view",
      "type": "function"
    },
    {
      "inputs": [
        {
          "internalType": "address",
          "name": "src",
          "type": "address"
        },
        {
          "internalType": "uint256",
          "name": "rawAmount",
          "type": "uint256"
        }
      ],
      "name": "seize",
      "outputs": [],
      "stateMutability": "nonpayable",
      "type": "function"
    },
    {
      "inputs": [
        {
          "internalType": "address",
          "name": "owner_",
          "type": "address"
        }
      ],
      "name": "setOwner",
      "outputs": [],
      "stateMutability": "nonpayable",
      "type": "function"
    },
    {
      "inputs": [],
      "name": "symbol",
      "outputs": [
        {
          "internalType": "string",
          "name": "",
          "type": "string"
        }
      ],
      "stateMutability": "view",
      "type": "function"
    },
    {
      "inputs": [],
      "name": "totalSupply",
      "outputs": [
        {
          "internalType": "uint256",
          "name": "",
          "type": "uint256"
        }
      ],
      "stateMutability": "view",
      "type": "function"
    },
    {
      "inputs": [],
      "name": "tradable",
      "outputs": [
        {
          "internalType": "bool",
          "name": "",
          "type": "bool"
        }
      ],
      "stateMutability": "view",
      "type": "function"
    },
    {
      "inputs": [
        {
          "internalType": "address",
          "name": "dst",
          "type": "address"
        },
        {
          "internalType": "uint256",
          "name": "rawAmount",
          "type": "uint256"
        }
      ],
      "name": "transfer",
      "outputs": [
        {
          "internalType": "bool",
          "name": "",
          "type": "bool"
        }
      ],
      "stateMutability": "nonpayable",
      "type": "function"
    },
    {
      "inputs": [
        {
          "internalType": "address",
          "name": "src",
          "type": "address"
        },
        {
          "internalType": "address",
          "name": "dst",
          "type": "address"
        },
        {
          "internalType": "uint256",
          "name": "rawAmount",
          "type": "uint256"
        }
      ],
      "name": "transferFrom",
      "outputs": [
        {
          "internalType": "bool",
          "name": "",
          "type": "bool"
        }
      ],
      "stateMutability": "nonpayable",
      "type": "function"
    },
    {
      "inputs": [
        {
          "internalType": "address",
          "name": "",
          "type": "address"
        }
      ],
      "name": "whitelist",
      "outputs": [
        {
          "internalType": "bool",
          "name": "",
          "type": "bool"
        }
      ],
      "stateMutability": "view",
      "type": "function"
    }
  ],
  "transactionHash": "0x4dfd56a0dbdc26dbb1c37d6ffece46bd058cf03de37d7cd39cd59d32cad3970d",
  "args": [
    "0xd709bC69486eEf434D3CC1d88762fB948B68BB35"
  ],
  "solcInputHash": "72a0d4d7f1852d7c2e3bd271cf0f00ff",
  "bytecode": "0x608060405269152d02c7e14af68000006000556001805460ff60a81b1916600160a81b17905534801561003157600080fd5b50604051620027743803806200277483398101604081905261005291610142565b600080546001600160a01b03831680835260046020908152604080852080546001600160601b0319166001600160601b0390951694909417909355835492519283529092917fddf252ad1be2c89b69c2b068fc378daa952ba7f163c4a11628f55a4df523b3ef910160405180910390a3600180546001600160a01b0319166001600160a01b038316908117909155604080516000815260208101929092527fb532073b38c83145e3e5135377a08bf9aab55bc0fd7c1179cd4fb995d2a5159c910160405180910390a16001600160a01b03166000908152600260205260409020805460ff19166001179055610170565b600060208284031215610153578081fd5b81516001600160a01b0381168114610169578182fd5b9392505050565b6125f480620001806000396000f3fe608060405234801561001057600080fd5b50600436106101fb5760003560e01c80637bbdad111161011a578063b4b5ea57116100ad578063dd62ed3e1161007c578063dd62ed3e146104fe578063e43252d714610540578063e7a324dc14610553578063eb9253c01461057a578063f1127ed81461058d576101fb565b8063b4b5ea57146104bd578063b74ca805146104d0578063c3cda520146104d8578063d505accf146104eb576101fb565b80638eeb1017116100e95780638eeb10171461045c57806395d89b41146104645780639b19251a14610487578063a9059cbb146104aa576101fb565b80637bbdad111461040e5780637ecebe00146104165780638ab1d681146104365780638da5cb5b14610449576101fb565b80633ecd4255116101925780635c19a95c116101615780635c19a95c146103825780636fcfff451461039557806370a08231146103d0578063782d6fe1146103e3576101fb565b80633ecd42551461030657806340c10f191461031a57806354840c6e1461032d578063587cde1e14610341576101fb565b806320606b70116101ce57806320606b701461028b57806323b872dd146102b257806330adf81f146102c5578063313ce567146102ec576101fb565b806306fdde0314610200578063095ea7b31461023c57806313af40351461025f57806318160ddd14610274575b600080fd5b610226604051806040016040528060078152602001664649524544414f60c81b81525081565b6040516102339190612190565b60405180910390f35b61024f61024a3660046120d2565b6105f4565b6040519015158152602001610233565b61027261026d366004611fe2565b6106b5565b005b61027d60005481565b604051908152602001610233565b61027d7f8cad95687ba82c2ce50e74f7b754645e5117c3a5bec8151c0726d5857980a86681565b61024f6102c036600461202e565b610751565b61027d7f6e71edae12b1b97f4d1f60370fef10105fa2faae0126114a169c64845d6126c981565b6102f4601281565b60405160ff9091168152602001610233565b60015461024f90600160a81b900460ff1681565b6102726103283660046120d2565b610896565b60015461024f90600160a01b900460ff1681565b61036a61034f366004611fe2565b6005602052600090815260409020546001600160a01b031681565b6040516001600160a01b039091168152602001610233565b610272610390366004611fe2565b610aae565b6103bb6103a3366004611fe2565b60076020526000908152604090205463ffffffff1681565b60405163ffffffff9091168152602001610233565b61027d6103de366004611fe2565b610abb565b6103f66103f13660046120d2565b610ae3565b6040516001600160601b039091168152602001610233565b610272610d6a565b61027d610424366004611fe2565b60086020526000908152604090205481565b610272610444366004611fe2565b610daa565b60015461036a906001600160a01b031681565b610272610df5565b610226604051806040016040528060048152602001634649524560e01b81525081565b61024f610495366004611fe2565b60026020526000908152604090205460ff1681565b61024f6104b83660046120d2565b610e2e565b6103f66104cb366004611fe2565b610e6a565b610272610ee8565b6102726104e63660046120fb565b610f21565b6102726104f9366004612069565b61120c565b61027d61050c366004611ffc565b6001600160a01b0391821660009081526003602090815260408083209390941682529190915220546001600160601b031690565b61027261054e366004611fe2565b6115fb565b61027d7fe48329057bfd03d55e49b547132e39cffd9c1820ad7b9d4c5307691425d15adf81565b6102726105883660046120d2565b611649565b6105d061059b366004612152565b600660209081526000928352604080842090915290825290205463ffffffff811690600160201b90046001600160601b031682565b6040805163ffffffff90931683526001600160601b03909116602083015201610233565b60008060001983141561060f57506001600160601b03610634565b61063183604051806060016040528060258152602001612399602591396117c7565b90505b3360008181526003602090815260408083206001600160a01b0389168085529083529281902080546001600160601b0319166001600160601b03871690811790915590519081529192917f8c5be1e5ebec7d5bd14f71427d1e84f3dd0314c0f7b2291e5b200ac8c7c3b925910160405180910390a360019150505b92915050565b6001546001600160a01b031633146106e85760405162461bcd60e51b81526004016106df906121e3565b60405180910390fd5b600154604080516001600160a01b03928316815291831660208301527fb532073b38c83145e3e5135377a08bf9aab55bc0fd7c1179cd4fb995d2a5159c910160405180910390a1600180546001600160a01b0319166001600160a01b0392909216919091179055565b6001600160a01b03831660009081526003602090815260408083203380855290835281842054825160608101909352602580845291936001600160601b039091169285926107a99288929190612399908301396117c7565b9050866001600160a01b0316836001600160a01b0316141580156107d657506001600160601b0382811614155b1561087e57600061080083836040518060600160405280603d81526020016124f5603d91396117f6565b6001600160a01b038981166000818152600360209081526040808320948a168084529482529182902080546001600160601b0319166001600160601b0387169081179091559151918252939450919290917f8c5be1e5ebec7d5bd14f71427d1e84f3dd0314c0f7b2291e5b200ac8c7c3b925910160405180910390a3505b610889878783611840565b5060019695505050505050565b6001546001600160a01b031633146108fc5760405162461bcd60e51b815260206004820152602360248201527f464952453a3a6d696e743a206f6e6c7920746865206f776e65722063616e206d6044820152621a5b9d60ea1b60648201526084016106df565b6001600160a01b03821661096a5760405162461bcd60e51b815260206004820152602f60248201527f464952453a3a6d696e743a2063616e6e6f74207472616e7366657220746f207460448201526e6865207a65726f206164647265737360881b60648201526084016106df565b600061098e826040518060600160405280602281526020016124ae602291396117c7565b90506109c8816001600160601b03166000546109aa919061222c565b60405180606001604052806027815260200161240a602791396117c7565b6001600160601b0390811660009081556001600160a01b038516815260046020908152604091829020548251606081019093526025808452610a1a94919091169285929091906124d090830139611b18565b6001600160a01b038416600081815260046020908152604080832080546001600160601b0319166001600160601b03968716179055519385168452919290917fddf252ad1be2c89b69c2b068fc378daa952ba7f163c4a11628f55a4df523b3ef910160405180910390a36001600160a01b03808416600090815260056020526040812054610aa9921683611b65565b505050565b610ab83382611d11565b50565b6001600160a01b0381166000908152600460205260409020546001600160601b03165b919050565b6000438210610b445760405162461bcd60e51b815260206004820152602760248201527f464952453a3a6765745072696f72566f7465733a206e6f742079657420646574604482015266195c9b5a5b995960ca1b60648201526084016106df565b6001600160a01b03831660009081526007602052604090205463ffffffff1680610b725760009150506106af565b6001600160a01b03841660009081526006602052604081208491610b976001856122d4565b63ffffffff90811682526020820192909252604001600020541611610c0a576001600160a01b038416600090815260066020526040812090610bda6001846122d4565b63ffffffff168152602081019190915260400160002054600160201b90046001600160601b031691506106af9050565b6001600160a01b038416600090815260066020908152604080832083805290915290205463ffffffff16831015610c455760009150506106af565b600080610c536001846122d4565b90505b8163ffffffff168163ffffffff161115610d255760006002610c7884846122d4565b610c82919061228e565b610c8c90836122d4565b6001600160a01b038816600090815260066020908152604080832063ffffffff858116855290835292819020815180830190925254928316808252600160201b9093046001600160601b031691810191909152919250871415610cf9576020015194506106af9350505050565b805163ffffffff16871115610d1057819350610d1e565b610d1b6001836122d4565b92505b5050610c56565b506001600160a01b038516600090815260066020908152604080832063ffffffff909416835292905220546001600160601b03600160201b9091041691505092915050565b6001546001600160a01b03163314610d945760405162461bcd60e51b81526004016106df906121e3565b6001805461ffff60a01b1916600160a01b179055565b6001546001600160a01b03163314610dd45760405162461bcd60e51b81526004016106df906121e3565b6001600160a01b03166000908152600260205260409020805460ff19169055565b6001546001600160a01b03163314610e1f5760405162461bcd60e51b81526004016106df906121e3565b6001805460ff60a01b19169055565b600080610e5383604051806060016040528060268152602001612431602691396117c7565b9050610e60338583611840565b5060019392505050565b6001600160a01b03811660009081526007602052604081205463ffffffff1680610e95576000610ee1565b6001600160a01b038316600090815260066020526040812090610eb96001846122d4565b63ffffffff168152602081019190915260400160002054600160201b90046001600160601b03165b9392505050565b6001546001600160a01b03163314610f125760405162461bcd60e51b81526004016106df906121e3565b6001805460ff60a81b19169055565b60408051808201825260078152664649524544414f60c81b60209182015281517f8cad95687ba82c2ce50e74f7b754645e5117c3a5bec8151c0726d5857980a866818301527f8721f01dd880f48d9dd2a263f655f9ce032bc6afd7e5f2268aeef528ba4ba2ad81840152466060820152306080808301919091528351808303909101815260a0820184528051908301207fe48329057bfd03d55e49b547132e39cffd9c1820ad7b9d4c5307691425d15adf60c08301526001600160a01b038a1660e083015261010082018990526101208083018990528451808403909101815261014083019094528351939092019290922061190160f01b6101608401526101628301829052610182830181905290916000906101a20160408051601f198184030181528282528051602091820120600080855291840180845281905260ff8a169284019290925260608301889052608083018790529092509060019060a0016020604051602081039080840390855afa1580156110a3573d6000803e3d6000fd5b5050604051601f1901519150506001600160a01b0381166111155760405162461bcd60e51b815260206004820152602660248201527f464952453a3a64656c656761746542795369673a20696e76616c6964207369676044820152656e617475726560d01b60648201526084016106df565b6001600160a01b038116600090815260086020526040812080549161113983612319565b9190505589146111965760405162461bcd60e51b815260206004820152602260248201527f464952453a3a64656c656761746542795369673a20696e76616c6964206e6f6e604482015261636560f01b60648201526084016106df565b874211156111f55760405162461bcd60e51b815260206004820152602660248201527f464952453a3a64656c656761746542795369673a207369676e617475726520656044820152651e1c1a5c995960d21b60648201526084016106df565b6111ff818b611d11565b505050505b505050505050565b600060001986141561122657506001600160601b0361124b565b611248866040518060600160405280602481526020016123e6602491396117c7565b90505b60408051808201825260078152664649524544414f60c81b60209182015281517f8cad95687ba82c2ce50e74f7b754645e5117c3a5bec8151c0726d5857980a866818301527f8721f01dd880f48d9dd2a263f655f9ce032bc6afd7e5f2268aeef528ba4ba2ad81840152466060820152306080808301919091528351808303909101815260a090910183528051908201206001600160a01b038b166000908152600890925291812080547f6e71edae12b1b97f4d1f60370fef10105fa2faae0126114a169c64845d6126c9918c918c918c91908661132883612319565b909155506040805160208101969096526001600160a01b0394851690860152929091166060840152608083015260a082015260c0810188905260e001604051602081830303815290604052805190602001209050600082826040516020016113a792919061190160f01b81526002810192909252602282015260420190565b60408051601f198184030181528282528051602091820120600080855291840180845281905260ff8b169284019290925260608301899052608083018890529092509060019060a0016020604051602081039080840390855afa158015611412573d6000803e3d6000fd5b5050604051601f1901519150506001600160a01b0381166114755760405162461bcd60e51b815260206004820152601f60248201527f464952453a3a7065726d69743a20696e76616c6964207369676e61747572650060448201526064016106df565b8b6001600160a01b0316816001600160a01b0316146114d65760405162461bcd60e51b815260206004820152601a60248201527f464952453a3a7065726d69743a20756e617574686f72697a656400000000000060448201526064016106df565b884211156115265760405162461bcd60e51b815260206004820152601f60248201527f464952453a3a7065726d69743a207369676e617475726520657870697265640060448201526064016106df565b84600360008e6001600160a01b03166001600160a01b0316815260200190815260200160002060008d6001600160a01b03166001600160a01b0316815260200190815260200160002060006101000a8154816001600160601b0302191690836001600160601b031602179055508a6001600160a01b03168c6001600160a01b03167f8c5be1e5ebec7d5bd14f71427d1e84f3dd0314c0f7b2291e5b200ac8c7c3b925876040516115e591906001600160601b0391909116815260200190565b60405180910390a3505050505050505050505050565b6001546001600160a01b031633146116255760405162461bcd60e51b81526004016106df906121e3565b6001600160a01b03166000908152600260205260409020805460ff19166001179055565b6001546001600160a01b031633146116735760405162461bcd60e51b81526004016106df906121e3565b600154600160a81b900460ff1661168957600080fd5b60006116ad82604051806060016040528060238152602001612457602391396117c7565b90506116e7816001600160601b03166000546116c991906122bd565b604051806060016040528060288152602001612371602891396117c7565b6001600160601b0390811660009081556001600160a01b038516815260046020908152604091829020548251606081019093526026808452611739949190911692859290919061234b908301396117f6565b6001600160a01b038416600081815260046020908152604080832080546001600160601b0319166001600160601b0396871617905551938516845290927fddf252ad1be2c89b69c2b068fc378daa952ba7f163c4a11628f55a4df523b3ef910160405180910390a36001600160a01b03808416600090815260056020526040812054610aa992169083611b65565b600081600160601b84106117ee5760405162461bcd60e51b81526004016106df9190612190565b509192915050565b6000836001600160601b0316836001600160601b03161115829061182d5760405162461bcd60e51b81526004016106df9190612190565b5061183883856122f9565b949350505050565b6001600160a01b0383166118bc5760405162461bcd60e51b815260206004820152603c60248201527f464952453a3a5f7472616e73666572546f6b656e733a2063616e6e6f7420747260448201527f616e736665722066726f6d20746865207a65726f20616464726573730000000060648201526084016106df565b6001600160a01b0382166119385760405162461bcd60e51b815260206004820152603a60248201527f464952453a3a5f7472616e73666572546f6b656e733a2063616e6e6f7420747260448201527f616e7366657220746f20746865207a65726f206164647265737300000000000060648201526084016106df565b600154600160a01b900460ff166119c4576001600160a01b03831660009081526002602052604090205460ff166119c45760405162461bcd60e51b815260206004820152602a60248201527f464952453a3a5f7472616e73666572546f6b656e733a20737263206e6f7420776044820152691a1a5d195b1a5cdd195960b21b60648201526084016106df565b6001600160a01b038316600090815260046020908152604091829020548251606081019093526036808452611a0f936001600160601b039092169285929190612559908301396117f6565b6001600160a01b03848116600090815260046020908152604080832080546001600160601b0319166001600160601b03968716179055928616825290829020548251606081019093526030808452611a77949190911692859290919061258f90830139611b18565b6001600160a01b0383811660008181526004602090815260409182902080546001600160601b0319166001600160601b03968716179055905193851684529092918616917fddf252ad1be2c89b69c2b068fc378daa952ba7f163c4a11628f55a4df523b3ef910160405180910390a36001600160a01b03808416600090815260056020526040808220548584168352912054610aa992918216911683611b65565b600080611b25848661226c565b9050846001600160601b0316816001600160601b031610158390611b5c5760405162461bcd60e51b81526004016106df9190612190565b50949350505050565b816001600160a01b0316836001600160a01b031614158015611b9057506000816001600160601b0316115b15610aa9576001600160a01b03831615611c55576001600160a01b03831660009081526007602052604081205463ffffffff169081611bd0576000611c1c565b6001600160a01b038516600090815260066020526040812090611bf46001856122d4565b63ffffffff168152602081019190915260400160002054600160201b90046001600160601b03165b90506000611c4382856040518060600160405280602881526020016123be602891396117f6565b9050611c5186848484611d9b565b5050505b6001600160a01b03821615610aa9576001600160a01b03821660009081526007602052604081205463ffffffff169081611c90576000611cdc565b6001600160a01b038416600090815260066020526040812090611cb46001856122d4565b63ffffffff168152602081019190915260400160002054600160201b90046001600160601b03165b90506000611d03828560405180606001604052806027815260200161253260279139611b18565b905061120485848484611d9b565b6001600160a01b03808316600081815260056020818152604080842080546004845282862054949093528787166001600160a01b031984168117909155905191909516946001600160601b039092169391928592917f3134e8a2e6d97e929a7e54011ea5485d7d196dd5f0ba4d4ef95803e8e3fc257f9190a4611d95828483611b65565b50505050565b6000611dbf4360405180606001604052806034815260200161247a60349139611f93565b905060008463ffffffff16118015611e1957506001600160a01b038516600090815260066020526040812063ffffffff831691611dfd6001886122d4565b63ffffffff908116825260208201929092526040016000205416145b15611e8d576001600160a01b03851660009081526006602052604081208391611e436001886122d4565b63ffffffff168152602081019190915260400160002080546001600160601b0392909216600160201b026fffffffffffffffffffffffff0000000019909216919091179055611f3e565b60408051808201825263ffffffff80841682526001600160601b0380861660208085019182526001600160a01b038b166000908152600682528681208b8616825290915294909420925183549451909116600160201b026fffffffffffffffffffffffffffffffff19909416911617919091179055611f0d846001612244565b6001600160a01b0386166000908152600760205260409020805463ffffffff191663ffffffff929092169190911790555b604080516001600160601b038086168252841660208201526001600160a01b038716917fdec2bacdd2f05b59de34da9b523dff8be42e5e38e818c82fdb0bae774387a724910160405180910390a25050505050565b600081600160201b84106117ee5760405162461bcd60e51b81526004016106df9190612190565b80356001600160a01b0381168114610ade57600080fd5b803560ff81168114610ade57600080fd5b600060208284031215611ff3578081fd5b610ee182611fba565b6000806040838503121561200e578081fd5b61201783611fba565b915061202560208401611fba565b90509250929050565b600080600060608486031215612042578081fd5b61204b84611fba565b925061205960208501611fba565b9150604084013590509250925092565b600080600080600080600060e0888a031215612083578283fd5b61208c88611fba565b965061209a60208901611fba565b955060408801359450606088013593506120b660808901611fd1565b925060a0880135915060c0880135905092959891949750929550565b600080604083850312156120e4578182fd5b6120ed83611fba565b946020939093013593505050565b60008060008060008060c08789031215612113578182fd5b61211c87611fba565b9550602087013594506040870135935061213860608801611fd1565b92506080870135915060a087013590509295509295509295565b60008060408385031215612164578182fd5b61216d83611fba565b9150602083013563ffffffff81168114612185578182fd5b809150509250929050565b6000602080835283518082850152825b818110156121bc578581018301518582016040015282016121a0565b818111156121cd5783604083870101525b50601f01601f1916929092016040019392505050565b60208082526029908201527f464952453a206f6e6c7920746865206f776e65722063616e2063616c6c2074686040820152681a5cc81b595d1a1bd960ba1b606082015260800190565b6000821982111561223f5761223f612334565b500190565b600063ffffffff80831681851680830382111561226357612263612334565b01949350505050565b60006001600160601b0380831681851680830382111561226357612263612334565b600063ffffffff808416806122b157634e487b7160e01b83526012600452602483fd5b92169190910492915050565b6000828210156122cf576122cf612334565b500390565b600063ffffffff838116908316818110156122f1576122f1612334565b039392505050565b60006001600160601b03838116908316818110156122f1576122f1612334565b600060001982141561232d5761232d612334565b5060010190565b634e487b7160e01b600052601160045260246000fdfe464952453a3a7365697a653a207472616e7366657220616d6f756e74206f766572666c6f7773464952453a3a7365697a653a20746f74616c537570706c7920657863656564732039362062697473464952453a3a617070726f76653a20616d6f756e7420657863656564732039362062697473464952453a3a5f6d6f7665566f7465733a20766f746520616d6f756e7420756e646572666c6f7773464952453a3a7065726d69743a20616d6f756e7420657863656564732039362062697473464952453a3a6d696e743a20746f74616c537570706c7920657863656564732039362062697473464952453a3a7472616e736665723a20616d6f756e7420657863656564732039362062697473464952453a3a7365697a653a20616d6f756e7420657863656564732039362062697473464952453a3a5f7772697465436865636b706f696e743a20626c6f636b206e756d62657220657863656564732033322062697473464952453a3a6d696e743a20616d6f756e7420657863656564732039362062697473464952453a3a6d696e743a207472616e7366657220616d6f756e74206f766572666c6f7773464952453a3a7472616e7366657246726f6d3a207472616e7366657220616d6f756e742065786365656473207370656e64657220616c6c6f77616e6365464952453a3a5f6d6f7665566f7465733a20766f746520616d6f756e74206f766572666c6f7773464952453a3a5f7472616e73666572546f6b656e733a207472616e7366657220616d6f756e7420657863656564732062616c616e6365464952453a3a5f7472616e73666572546f6b656e733a207472616e7366657220616d6f756e74206f766572666c6f7773a2646970667358221220fd2c1eabaa670c53e81bb0821b20fd3fb8b99691125ddf429f2da3ffeafb93f464736f6c63430008030033",
  "devdoc": {
    "kind": "dev",
    "methods": {
      "allowance(address,address)": {
        "params": {
          "account": "The address of the account holding the funds",
          "spender": "The address of the account spending the funds"
        },
        "returns": {
          "_0": "The number of tokens approved"
        }
      },
      "approve(address,uint256)": {
        "details": "This will overwrite the approval amount for `spender`  and is subject to issues noted [here](https://eips.ethereum.org/EIPS/eip-20#approve)",
        "params": {
          "rawAmount": "The number of tokens that are approved (2^256-1 means infinite)",
          "spender": "The address of the account which may transfer tokens"
        },
        "returns": {
          "_0": "Whether or not the approval succeeded"
        }
      },
      "balanceOf(address)": {
        "params": {
          "account": "The address of the account to get the balance of"
        },
        "returns": {
          "_0": "The number of tokens held"
        }
      },
      "constructor": {
        "params": {
          "account": "The initial account to grant all the tokens"
        }
      },
      "delegate(address)": {
        "params": {
          "delegatee": "The address to delegate votes to"
        }
      },
      "delegateBySig(address,uint256,uint256,uint8,bytes32,bytes32)": {
        "params": {
          "delegatee": "The address to delegate votes to",
          "expiry": "The time at which to expire the signature",
          "nonce": "The contract state required to match the signature",
          "r": "Half of the ECDSA signature pair",
          "s": "Half of the ECDSA signature pair",
          "v": "The recovery byte of the signature"
        }
      },
      "getCurrentVotes(address)": {
        "params": {
          "account": "The address to get votes balance"
        },
        "returns": {
          "_0": "The number of current votes for `account`"
        }
      },
      "getPriorVotes(address,uint256)": {
        "details": "Block number must be a finalized block or else this function will revert to prevent misinformation.",
        "params": {
          "account": "The address of the account to check",
          "blockNumber": "The block number to get the vote balance at"
        },
        "returns": {
          "_0": "The number of votes the account had as of the given block"
        }
      },
      "mint(address,uint256)": {
        "params": {
          "dst": "The address of the destination account",
          "rawAmount": "The number of tokens to be minted"
        }
      },
      "permit(address,address,uint256,uint256,uint8,bytes32,bytes32)": {
        "params": {
          "_owner": "The address to approve from",
          "deadline": "The time at which to expire the signature",
          "r": "Half of the ECDSA signature pair",
          "rawAmount": "The number of tokens that are approved (2^256-1 means infinite)",
          "s": "Half of the ECDSA signature pair",
          "spender": "The address to be approved",
          "v": "The recovery byte of the signature"
        }
      },
      "setOwner(address)": {
        "params": {
          "owner_": "The address of the new owner"
        }
      },
      "transfer(address,uint256)": {
        "params": {
          "dst": "The address of the destination account",
          "rawAmount": "The number of tokens to transfer"
        },
        "returns": {
          "_0": "Whether or not the transfer succeeded"
        }
      },
      "transferFrom(address,address,uint256)": {
        "params": {
          "dst": "The address of the destination account",
          "rawAmount": "The number of tokens to transfer",
          "src": "The address of the source account"
        },
        "returns": {
          "_0": "Whether or not the transfer succeeded"
        }
      }
    },
    "version": 1
  },
  "userdoc": {
    "events": {
      "Approval(address,address,uint256)": {
        "notice": "The standard EIP-20 approval event"
      },
      "DelegateChanged(address,address,address)": {
        "notice": "An event thats emitted when an account changes its delegate"
      },
      "DelegateVotesChanged(address,uint256,uint256)": {
        "notice": "An event thats emitted when a delegate account's vote balance changes"
      },
      "OwnerChanged(address,address)": {
        "notice": "An event thats emitted when the owner address is changed"
      },
      "Transfer(address,address,uint256)": {
        "notice": "The standard EIP-20 transfer event"
      }
    },
    "kind": "user",
    "methods": {
      "DELEGATION_TYPEHASH()": {
        "notice": "The EIP-712 typehash for the delegation struct used by the contract"
      },
      "DOMAIN_TYPEHASH()": {
        "notice": "The EIP-712 typehash for the contract's domain"
      },
      "PERMIT_TYPEHASH()": {
        "notice": "The EIP-712 typehash for the permit struct used by the contract"
      },
      "allowance(address,address)": {
        "notice": "Get the number of tokens `spender` is approved to spend on behalf of `account`"
      },
      "approve(address,uint256)": {
        "notice": "Approve `spender` to transfer up to `amount` from `src`"
      },
      "balanceOf(address)": {
        "notice": "Get the number of tokens held by the `account`"
      },
      "checkpoints(address,uint32)": {
        "notice": "A record of votes checkpoints for each account, by index"
      },
      "constructor": {
        "notice": "Construct a new token"
      },
      "decimals()": {
        "notice": "EIP-20 token decimals for this token"
      },
      "delegate(address)": {
        "notice": "Delegate votes from `msg.sender` to `delegatee`"
      },
      "delegateBySig(address,uint256,uint256,uint8,bytes32,bytes32)": {
        "notice": "Delegates votes from signatory to `delegatee`"
      },
      "getCurrentVotes(address)": {
        "notice": "Gets the current votes balance for `account`"
      },
      "getPriorVotes(address,uint256)": {
        "notice": "Determine the prior number of votes for an account as of a block number"
      },
      "mint(address,uint256)": {
        "notice": "Mint new tokens"
      },
      "name()": {
        "notice": "EIP-20 token name for this token"
      },
      "nonces(address)": {
        "notice": "A record of states for signing / validating signatures"
      },
      "numCheckpoints(address)": {
        "notice": "The number of checkpoints for each account"
      },
      "owner()": {
        "notice": "Address which may mint new tokens"
      },
      "permit(address,address,uint256,uint256,uint8,bytes32,bytes32)": {
        "notice": "Triggers an approval from owner to spends"
      },
      "setOwner(address)": {
        "notice": "Change the owner address"
      },
      "symbol()": {
        "notice": "EIP-20 token symbol for this token"
      },
      "totalSupply()": {
        "notice": "Total number of tokens in circulation"
      },
      "transfer(address,uint256)": {
        "notice": "Transfer `amount` tokens from `msg.sender` to `dst`"
      },
      "transferFrom(address,address,uint256)": {
        "notice": "Transfer `amount` tokens from `src` to `dst`"
      }
    },
    "version": 1
  },
  "storageLayout": {
    "storage": [
      {
        "astId": 17,
        "contract": "contracts/governance/FIRE.sol:FIRE",
        "label": "totalSupply",
        "offset": 0,
        "slot": "0",
        "type": "t_uint256"
      },
      {
        "astId": 20,
        "contract": "contracts/governance/FIRE.sol:FIRE",
        "label": "owner",
        "offset": 0,
        "slot": "1",
        "type": "t_address"
      },
      {
        "astId": 22,
        "contract": "contracts/governance/FIRE.sol:FIRE",
        "label": "tradable",
        "offset": 20,
        "slot": "1",
        "type": "t_bool"
      },
      {
        "astId": 25,
        "contract": "contracts/governance/FIRE.sol:FIRE",
        "label": "seizable",
        "offset": 21,
        "slot": "1",
        "type": "t_bool"
      },
      {
        "astId": 29,
        "contract": "contracts/governance/FIRE.sol:FIRE",
        "label": "whitelist",
        "offset": 0,
        "slot": "2",
        "type": "t_mapping(t_address,t_bool)"
      },
      {
        "astId": 35,
        "contract": "contracts/governance/FIRE.sol:FIRE",
        "label": "allowances",
        "offset": 0,
        "slot": "3",
        "type": "t_mapping(t_address,t_mapping(t_address,t_uint96))"
      },
      {
        "astId": 39,
        "contract": "contracts/governance/FIRE.sol:FIRE",
        "label": "balances",
        "offset": 0,
        "slot": "4",
        "type": "t_mapping(t_address,t_uint96)"
      },
      {
        "astId": 43,
        "contract": "contracts/governance/FIRE.sol:FIRE",
        "label": "delegates",
        "offset": 0,
        "slot": "5",
        "type": "t_mapping(t_address,t_address)"
      },
      {
        "astId": 56,
        "contract": "contracts/governance/FIRE.sol:FIRE",
        "label": "checkpoints",
        "offset": 0,
        "slot": "6",
        "type": "t_mapping(t_address,t_mapping(t_uint32,t_struct(Checkpoint)48_storage))"
      },
      {
        "astId": 61,
        "contract": "contracts/governance/FIRE.sol:FIRE",
        "label": "numCheckpoints",
        "offset": 0,
        "slot": "7",
        "type": "t_mapping(t_address,t_uint32)"
      },
      {
        "astId": 84,
        "contract": "contracts/governance/FIRE.sol:FIRE",
        "label": "nonces",
        "offset": 0,
        "slot": "8",
        "type": "t_mapping(t_address,t_uint256)"
      }
    ],
    "types": {
      "t_address": {
        "encoding": "inplace",
        "label": "address",
        "numberOfBytes": "20"
      },
      "t_bool": {
        "encoding": "inplace",
        "label": "bool",
        "numberOfBytes": "1"
      },
      "t_mapping(t_address,t_address)": {
        "encoding": "mapping",
        "key": "t_address",
        "label": "mapping(address => address)",
        "numberOfBytes": "32",
        "value": "t_address"
      },
      "t_mapping(t_address,t_bool)": {
        "encoding": "mapping",
        "key": "t_address",
        "label": "mapping(address => bool)",
        "numberOfBytes": "32",
        "value": "t_bool"
      },
      "t_mapping(t_address,t_mapping(t_address,t_uint96))": {
        "encoding": "mapping",
        "key": "t_address",
        "label": "mapping(address => mapping(address => uint96))",
        "numberOfBytes": "32",
        "value": "t_mapping(t_address,t_uint96)"
      },
      "t_mapping(t_address,t_mapping(t_uint32,t_struct(Checkpoint)48_storage))": {
        "encoding": "mapping",
        "key": "t_address",
        "label": "mapping(address => mapping(uint32 => struct FIRE.Checkpoint))",
        "numberOfBytes": "32",
        "value": "t_mapping(t_uint32,t_struct(Checkpoint)48_storage)"
      },
      "t_mapping(t_address,t_uint256)": {
        "encoding": "mapping",
        "key": "t_address",
        "label": "mapping(address => uint256)",
        "numberOfBytes": "32",
        "value": "t_uint256"
      },
      "t_mapping(t_address,t_uint32)": {
        "encoding": "mapping",
        "key": "t_address",
        "label": "mapping(address => uint32)",
        "numberOfBytes": "32",
        "value": "t_uint32"
      },
      "t_mapping(t_address,t_uint96)": {
        "encoding": "mapping",
        "key": "t_address",
        "label": "mapping(address => uint96)",
        "numberOfBytes": "32",
        "value": "t_uint96"
      },
      "t_mapping(t_uint32,t_struct(Checkpoint)48_storage)": {
        "encoding": "mapping",
        "key": "t_uint32",
        "label": "mapping(uint32 => struct FIRE.Checkpoint)",
        "numberOfBytes": "32",
        "value": "t_struct(Checkpoint)48_storage"
      },
      "t_struct(Checkpoint)48_storage": {
        "encoding": "inplace",
        "label": "struct FIRE.Checkpoint",
        "members": [
          {
            "astId": 45,
            "contract": "contracts/governance/FIRE.sol:FIRE",
            "label": "fromBlock",
            "offset": 0,
            "slot": "0",
            "type": "t_uint32"
          },
          {
            "astId": 47,
            "contract": "contracts/governance/FIRE.sol:FIRE",
            "label": "votes",
            "offset": 4,
            "slot": "0",
            "type": "t_uint96"
          }
        ],
        "numberOfBytes": "32"
      },
      "t_uint256": {
        "encoding": "inplace",
        "label": "uint256",
        "numberOfBytes": "32"
      },
      "t_uint32": {
        "encoding": "inplace",
        "label": "uint32",
        "numberOfBytes": "4"
      },
      "t_uint96": {
        "encoding": "inplace",
        "label": "uint96",
        "numberOfBytes": "12"
      }
    }
  }
}