{
  "address": "0x430372402D2E40a4b50258Bd7163d6e1934f53af",
  "abi": [
    {
      "inputs": [
        {
          "internalType": "contract IPancakeRouter",
          "name": "_pancakeRouter",
          "type": "address"
        },
        {
          "internalType": "address",
          "name": "_treasury",
          "type": "address"
        }
      ],
      "stateMutability": "nonpayable",
      "type": "constructor"
    },
    {
      "anonymous": false,
      "inputs": [
        {
          "indexed": true,
          "internalType": "address",
          "name": "previousOwner",
          "type": "address"
        },
        {
          "indexed": true,
          "internalType": "address",
          "name": "newOwner",
          "type": "address"
        }
      ],
      "name": "OwnershipTransferred",
      "type": "event"
    },
    {
      "anonymous": false,
      "inputs": [
        {
          "indexed": true,
          "internalType": "bytes32",
          "name": "role",
          "type": "bytes32"
        },
        {
          "indexed": true,
          "internalType": "bytes32",
          "name": "previousAdminRole",
          "type": "bytes32"
        },
        {
          "indexed": true,
          "internalType": "bytes32",
          "name": "newAdminRole",
          "type": "bytes32"
        }
      ],
      "name": "RoleAdminChanged",
      "type": "event"
    },
    {
      "anonymous": false,
      "inputs": [
        {
          "indexed": true,
          "internalType": "bytes32",
          "name": "role",
          "type": "bytes32"
        },
        {
          "indexed": true,
          "internalType": "address",
          "name": "account",
          "type": "address"
        },
        {
          "indexed": true,
          "internalType": "address",
          "name": "sender",
          "type": "address"
        }
      ],
      "name": "RoleGranted",
      "type": "event"
    },
    {
      "anonymous": false,
      "inputs": [
        {
          "indexed": true,
          "internalType": "bytes32",
          "name": "role",
          "type": "bytes32"
        },
        {
          "indexed": true,
          "internalType": "address",
          "name": "account",
          "type": "address"
        },
        {
          "indexed": true,
          "internalType": "address",
          "name": "sender",
          "type": "address"
        }
      ],
      "name": "RoleRevoked",
      "type": "event"
    },
    {
      "inputs": [],
      "name": "DEFAULT_ADMIN_ROLE",
      "outputs": [
        {
          "internalType": "bytes32",
          "name": "",
          "type": "bytes32"
        }
      ],
      "stateMutability": "view",
      "type": "function"
    },
    {
      "inputs": [],
      "name": "HARVESTER_ROLE",
      "outputs": [
        {
          "internalType": "bytes32",
          "name": "",
          "type": "bytes32"
        }
      ],
      "stateMutability": "view",
      "type": "function"
    },
    {
      "inputs": [],
      "name": "fireBuyBack",
      "outputs": [
        {
          "internalType": "uint256",
          "name": "",
          "type": "uint256"
        }
      ],
      "stateMutability": "view",
      "type": "function"
    },
    {
      "inputs": [
        {
          "internalType": "bytes32",
          "name": "role",
          "type": "bytes32"
        }
      ],
      "name": "getRoleAdmin",
      "outputs": [
        {
          "internalType": "bytes32",
          "name": "",
          "type": "bytes32"
        }
      ],
      "stateMutability": "view",
      "type": "function"
    },
    {
      "inputs": [
        {
          "internalType": "bytes32",
          "name": "role",
          "type": "bytes32"
        },
        {
          "internalType": "address",
          "name": "account",
          "type": "address"
        }
      ],
      "name": "grantRole",
      "outputs": [],
      "stateMutability": "nonpayable",
      "type": "function"
    },
    {
      "inputs": [
        {
          "internalType": "contract IVault",
          "name": "vault",
          "type": "address"
        },
        {
          "internalType": "uint256",
          "name": "amountIn",
          "type": "uint256"
        },
        {
          "internalType": "uint256",
          "name": "amountOutMin",
          "type": "uint256"
        },
        {
          "internalType": "address[]",
          "name": "path",
          "type": "address[]"
        },
        {
          "internalType": "address[]",
          "name": "targetToFirePath",
          "type": "address[]"
        },
        {
          "internalType": "uint256",
          "name": "deadline",
          "type": "uint256"
        }
      ],
      "name": "harvestVault",
      "outputs": [],
      "stateMutability": "nonpayable",
      "type": "function"
    },
    {
      "inputs": [
        {
          "internalType": "bytes32",
          "name": "role",
          "type": "bytes32"
        },
        {
          "internalType": "address",
          "name": "account",
          "type": "address"
        }
      ],
      "name": "hasRole",
      "outputs": [
        {
          "internalType": "bool",
          "name": "",
          "type": "bool"
        }
      ],
      "stateMutability": "view",
      "type": "function"
    },
    {
      "inputs": [],
      "name": "owner",
      "outputs": [
        {
          "internalType": "address",
          "name": "",
          "type": "address"
        }
      ],
      "stateMutability": "view",
      "type": "function"
    },
    {
      "inputs": [],
      "name": "pancakeRouter",
      "outputs": [
        {
          "internalType": "contract IPancakeRouter",
          "name": "",
          "type": "address"
        }
      ],
      "stateMutability": "view",
      "type": "function"
    },
    {
      "inputs": [],
      "name": "performanceFee",
      "outputs": [
        {
          "internalType": "uint256",
          "name": "",
          "type": "uint256"
        }
      ],
      "stateMutability": "view",
      "type": "function"
    },
    {
      "inputs": [
        {
          "internalType": "contract IVault",
          "name": "",
          "type": "address"
        }
      ],
      "name": "ratePerToken",
      "outputs": [
        {
          "internalType": "uint256",
          "name": "",
          "type": "uint256"
        }
      ],
      "stateMutability": "view",
      "type": "function"
    },
    {
      "inputs": [],
      "name": "renounceOwnership",
      "outputs": [],
      "stateMutability": "nonpayable",
      "type": "function"
    },
    {
      "inputs": [
        {
          "internalType": "bytes32",
          "name": "role",
          "type": "bytes32"
        },
        {
          "internalType": "address",
          "name": "account",
          "type": "address"
        }
      ],
      "name": "renounceRole",
      "outputs": [],
      "stateMutability": "nonpayable",
      "type": "function"
    },
    {
      "inputs": [
        {
          "internalType": "bytes32",
          "name": "role",
          "type": "bytes32"
        },
        {
          "internalType": "address",
          "name": "account",
          "type": "address"
        }
      ],
      "name": "revokeRole",
      "outputs": [],
      "stateMutability": "nonpayable",
      "type": "function"
    },
    {
      "inputs": [
        {
          "internalType": "uint256",
          "name": "_fireBuyBack",
          "type": "uint256"
        }
      ],
      "name": "setFireBuyBack",
      "outputs": [],
      "stateMutability": "nonpayable",
      "type": "function"
    },
    {
      "inputs": [
        {
          "internalType": "uint256",
          "name": "_performanceFee",
          "type": "uint256"
        }
      ],
      "name": "setPerformanceFee",
      "outputs": [],
      "stateMutability": "nonpayable",
      "type": "function"
    },
    {
      "inputs": [
        {
          "internalType": "address",
          "name": "_treasury",
          "type": "address"
        }
      ],
      "name": "setTreasury",
      "outputs": [],
      "stateMutability": "nonpayable",
      "type": "function"
    },
    {
      "inputs": [
        {
          "internalType": "bytes4",
          "name": "interfaceId",
          "type": "bytes4"
        }
      ],
      "name": "supportsInterface",
      "outputs": [
        {
          "internalType": "bool",
          "name": "",
          "type": "bool"
        }
      ],
      "stateMutability": "view",
      "type": "function"
    },
    {
      "inputs": [
        {
          "internalType": "contract IERC20Metadata",
          "name": "token",
          "type": "address"
        }
      ],
      "name": "sweep",
      "outputs": [],
      "stateMutability": "nonpayable",
      "type": "function"
    },
    {
      "inputs": [
        {
          "internalType": "address",
          "name": "newOwner",
          "type": "address"
        }
      ],
      "name": "transferOwnership",
      "outputs": [],
      "stateMutability": "nonpayable",
      "type": "function"
    },
    {
      "inputs": [],
      "name": "treasury",
      "outputs": [
        {
          "internalType": "address",
          "name": "",
          "type": "address"
        }
      ],
      "stateMutability": "view",
      "type": "function"
    }
  ],
  "transactionHash": "0xc55e4f1fff32e7edaa221739e7b159f7ecd9542755961891ccb0a506be238ddd",
  "args": [
    "0x05fF2B0DB69458A0750badebc4f9e13aDd608C7F",
    "0x98080901E43aD337501afa1215e117E5da78A2f9"
  ],
  "solcInputHash": "7d8d3471a305d292daa3333ebeac1e83",
  "bytecode": "0x60806040526103e86004556103e86005553480156200001d57600080fd5b5060405162001dd038038062001dd083398101604081905262000040916200019f565b600180546001600160a01b0319163390811790915560405181906000907f8be0079c531659141344cd1fd0a4f28419497f9722a3daafe3b4186f6b6457e0908290a350620000916000335b620000ef565b620000bd7f3fc733b4d20d27a28452ddf0e9351aced28242fe03389a653cdb783955316b9b336200008b565b600280546001600160a01b039384166001600160a01b03199182161790915560038054929093169116179055620001f6565b620000fb8282620000ff565b5050565b6000828152602081815260408083206001600160a01b038516845290915290205460ff16620000fb576000828152602081815260408083206001600160a01b03851684529091529020805460ff191660011790556200015b3390565b6001600160a01b0316816001600160a01b0316837f2f8788117e7eff1d82e926ec794901d17c78024a50270940304540a733656f0d60405160405180910390a45050565b60008060408385031215620001b2578182fd5b8251620001bf81620001dd565b6020840151909250620001d281620001dd565b809150509250929050565b6001600160a01b0381168114620001f357600080fd5b50565b611bca80620002066000396000f3fe608060405234801561001057600080fd5b50600436106101375760003560e01c80638733b2c7116100b8578063b15039751161007c578063b15039751461028e578063c21ebd07146102a1578063d547741f146102b4578063d883def7146102c7578063f0f44260146102e7578063f2fde38b146102fa57610137565b80638733b2c71461024657806387788782146102595780638da5cb5b1461026257806391d1485414610273578063a217fddf1461028657610137565b806361d027b3116100ff57806361d027b3146101d057806363a560ec146101fb57806366e03cab1461022257806370897b231461022b578063715018a61461023e57610137565b806301681a621461013c57806301ffc9a714610151578063248a9ca3146101795780632f2ff15d146101aa57806336568abe146101bd575b600080fd5b61014f61014a36600461158b565b61030d565b005b61016461015f3660046116ce565b6103e0565b60405190151581526020015b60405180910390f35b61019c610187366004611687565b60009081526020819052604090206001015490565b604051908152602001610170565b61014f6101b836600461169f565b610417565b61014f6101cb36600461169f565b610443565b6003546101e3906001600160a01b031681565b6040516001600160a01b039091168152602001610170565b61019c7f3fc733b4d20d27a28452ddf0e9351aced28242fe03389a653cdb783955316b9b81565b61019c60055481565b61014f610239366004611687565b6104c1565b61014f61054d565b61014f610254366004611687565b6105c1565b61019c60045481565b6001546001600160a01b03166101e3565b61016461028136600461169f565b610653565b61019c600081565b61014f61029c366004611712565b61067c565b6002546101e3906001600160a01b031681565b61014f6102c236600461169f565b610e12565b61019c6102d536600461158b565b60066020526000908152604090205481565b61014f6102f536600461158b565b610e38565b61014f61030836600461158b565b610e84565b6001546001600160a01b031633146103405760405162461bcd60e51b8152600401610337906118f1565b60405180910390fd5b6103dd6103556001546001600160a01b031690565b6040516370a0823160e01b81523060048201526001600160a01b038416906370a082319060240160206040518083038186803b15801561039457600080fd5b505afa1580156103a8573d6000803e3d6000fd5b505050506040513d601f19601f820116820180604052508101906103cc91906117ac565b6001600160a01b0384169190610f6f565b50565b60006001600160e01b03198216637965db0b60e01b148061041157506301ffc9a760e01b6001600160e01b03198316145b92915050565b60008281526020819052604090206001015461043481335b610fc1565b61043e8383611025565b505050565b6001600160a01b03811633146104b35760405162461bcd60e51b815260206004820152602f60248201527f416363657373436f6e74726f6c3a2063616e206f6e6c792072656e6f756e636560448201526e103937b632b9903337b91039b2b63360891b6064820152608401610337565b6104bd82826110a9565b5050565b6001546001600160a01b031633146104eb5760405162461bcd60e51b8152600401610337906118f1565b61271081106105485760405162461bcd60e51b815260206004820152602360248201527f4861727665737465723a20706572666f726d616e63652066656520746f6f20686044820152620d2ced60eb1b6064820152608401610337565b600455565b6001546001600160a01b031633146105775760405162461bcd60e51b8152600401610337906118f1565b6001546040516000916001600160a01b0316907f8be0079c531659141344cd1fd0a4f28419497f9722a3daafe3b4186f6b6457e0908390a3600180546001600160a01b0319169055565b6001546001600160a01b031633146105eb5760405162461bcd60e51b8152600401610337906118f1565b612710811061064e5760405162461bcd60e51b815260206004820152602960248201527f4861727665737465723a206669726520627579206261636b2070657263656e74604482015268040e8dede40d0d2ced60bb1b6064820152608401610337565b600555565b6000918252602082815260408084206001600160a01b0393909316845291905290205460ff1690565b6106a67f3fc733b4d20d27a28452ddf0e9351aced28242fe03389a653cdb783955316b9b33610281565b6106f25760405162461bcd60e51b815260206004820152601a60248201527f4861727665737465723a206e6f742077686974656c69737465640000000000006044820152606401610337565b60008790506000896001600160a01b0316636f307dc36040518163ffffffff1660e01b815260040160206040518083038186803b15801561073257600080fd5b505afa158015610746573d6000803e3d6000fd5b505050506040513d601f19601f8201168201806040525081019061076a91906116f6565b905060006127106005546004546107819190611964565b61078b9085611ab3565b610795919061197c565b61079f9084611ad2565b905060008b6001600160a01b031663903550876040518163ffffffff1660e01b815260040160206040518083038186803b1580156107dc57600080fd5b505afa1580156107f0573d6000803e3d6000fd5b505050506040513d601f19601f8201168201806040525081019061081491906117ac565b61081e9042611ad2565b9050808c6001600160a01b03166318160ddd6040518163ffffffff1660e01b815260040160206040518083038186803b15801561085a57600080fd5b505afa15801561086e573d6000803e3d6000fd5b505050506040513d601f19601f8201168201806040525081019061089291906117ac565b846001600160a01b031663313ce5676040518163ffffffff1660e01b815260040160206040518083038186803b1580156108cb57600080fd5b505afa1580156108df573d6000803e3d6000fd5b505050506040513d601f19601f8201168201806040525081019061090391906117c4565b61090e906024611ae9565b61091990600a6119e2565b6109239085611ab3565b61092d919061197c565b610937919061197c565b6001600160a01b038d1660008181526006602052604090819020929092559051636ee3193160e11b81526004810186905263ddc6326290602401600060405180830381600087803b15801561098b57600080fd5b505af115801561099f573d6000803e3d6000fd5b5050505060008c6001600160a01b031663d4b839926040518163ffffffff1660e01b815260040160206040518083038186803b1580156109de57600080fd5b505afa1580156109f2573d6000803e3d6000fd5b505050506040513d601f19601f82011682018060405250810190610a1691906116f6565b9050806001600160a01b0316846001600160a01b031614610b7c5760025460405163095ea7b360e01b81526001600160a01b039182166004820152602481018790529085169063095ea7b390604401602060405180830381600087803b158015610a7f57600080fd5b505af1158015610a93573d6000803e3d6000fd5b505050506040513d601f19601f82011682018060405250810190610ab79190611667565b506002546040516338ed173960e01b81526001600160a01b03909116906338ed173990610af29088908f908f908f9030908e90600401611926565b600060405180830381600087803b158015610b0c57600080fd5b505af1158015610b20573d6000803e3d6000fd5b505050506040513d6000823e601f3d908101601f19168201604052610b4891908101906115a7565b610b5360018b611ad2565b81518110610b7157634e487b7160e01b600052603260045260246000fd5b602002602001015194505b60055485935015610cd657600061271060055487610b9a9190611ab3565b610ba4919061197c565b60025460405163095ea7b360e01b81526001600160a01b0391821660048201526024810183905291925083169063095ea7b390604401602060405180830381600087803b158015610bf457600080fd5b505af1158015610c08573d6000803e3d6000fd5b505050506040513d601f19601f82011682018060405250810190610c2c9190611667565b506002546001600160a01b03166338ed17398260008c8c30610c5042610708611964565b6040518763ffffffff1660e01b8152600401610c7196959493929190611926565b600060405180830381600087803b158015610c8b57600080fd5b505af1158015610c9f573d6000803e3d6000fd5b505050506040513d6000823e601f3d908101601f19168201604052610cc791908101906115a7565b50610cd28185611ad2565b9350505b60045415610d2657600061271060045487610cf19190611ab3565b610cfb919061197c565b9050610d078185611ad2565b600354909450610d24906001600160a01b03848116911683610f6f565b505b60405163095ea7b360e01b81526001600160a01b038e811660048301526024820185905282169063095ea7b390604401602060405180830381600087803b158015610d7057600080fd5b505af1158015610d84573d6000803e3d6000fd5b505050506040513d601f19601f82011682018060405250810190610da89190611667565b50604051633243c79160e01b8152600481018490526001600160a01b038e1690633243c79190602401600060405180830381600087803b158015610deb57600080fd5b505af1158015610dff573d6000803e3d6000fd5b5050505050505050505050505050505050565b600082815260208190526040902060010154610e2e813361042f565b61043e83836110a9565b6001546001600160a01b03163314610e625760405162461bcd60e51b8152600401610337906118f1565b600380546001600160a01b0319166001600160a01b0392909216919091179055565b6001546001600160a01b03163314610eae5760405162461bcd60e51b8152600401610337906118f1565b6001600160a01b038116610f135760405162461bcd60e51b815260206004820152602660248201527f4f776e61626c653a206e6577206f776e657220697320746865207a65726f206160448201526564647265737360d01b6064820152608401610337565b6001546040516001600160a01b038084169216907f8be0079c531659141344cd1fd0a4f28419497f9722a3daafe3b4186f6b6457e090600090a3600180546001600160a01b0319166001600160a01b0392909216919091179055565b604080516001600160a01b038416602482015260448082018490528251808303909101815260649091019091526020810180516001600160e01b031663a9059cbb60e01b17905261043e90849061110e565b610fcb8282610653565b6104bd57610fe3816001600160a01b031660146111e0565b610fee8360206111e0565b604051602001610fff929190611849565b60408051601f198184030181529082905262461bcd60e51b8252610337916004016118be565b61102f8282610653565b6104bd576000828152602081815260408083206001600160a01b03851684529091529020805460ff191660011790556110653390565b6001600160a01b0316816001600160a01b0316837f2f8788117e7eff1d82e926ec794901d17c78024a50270940304540a733656f0d60405160405180910390a45050565b6110b38282610653565b156104bd576000828152602081815260408083206001600160a01b0385168085529252808320805460ff1916905551339285917ff6391f5c32d9c69d2a47ea670b442974b53935d1edc7fd64eb21e047a839171b9190a45050565b6000611163826040518060400160405280602081526020017f5361666545524332303a206c6f772d6c6576656c2063616c6c206661696c6564815250856001600160a01b03166113c99092919063ffffffff16565b80519091501561043e57808060200190518101906111819190611667565b61043e5760405162461bcd60e51b815260206004820152602a60248201527f5361666545524332303a204552433230206f7065726174696f6e20646964206e6044820152691bdd081cdd58d8d9595960b21b6064820152608401610337565b606060006111ef836002611ab3565b6111fa906002611964565b67ffffffffffffffff81111561122057634e487b7160e01b600052604160045260246000fd5b6040519080825280601f01601f19166020018201604052801561124a576020820181803683370190505b509050600360fc1b8160008151811061127357634e487b7160e01b600052603260045260246000fd5b60200101906001600160f81b031916908160001a905350600f60fb1b816001815181106112b057634e487b7160e01b600052603260045260246000fd5b60200101906001600160f81b031916908160001a90535060006112d4846002611ab3565b6112df906001611964565b90505b6001811115611373576f181899199a1a9b1b9c1cb0b131b232b360811b85600f166010811061132157634e487b7160e01b600052603260045260246000fd5b1a60f81b82828151811061134557634e487b7160e01b600052603260045260246000fd5b60200101906001600160f81b031916908160001a90535060049490941c9361136c81611b3c565b90506112e2565b5083156113c25760405162461bcd60e51b815260206004820181905260248201527f537472696e67733a20686578206c656e67746820696e73756666696369656e746044820152606401610337565b9392505050565b60606113d884846000856113e0565b949350505050565b6060824710156114415760405162461bcd60e51b815260206004820152602660248201527f416464726573733a20696e73756666696369656e742062616c616e636520666f6044820152651c8818d85b1b60d21b6064820152608401610337565b843b61148f5760405162461bcd60e51b815260206004820152601d60248201527f416464726573733a2063616c6c20746f206e6f6e2d636f6e74726163740000006044820152606401610337565b600080866001600160a01b031685876040516114ab919061182d565b60006040518083038185875af1925050503d80600081146114e8576040519150601f19603f3d011682016040523d82523d6000602084013e6114ed565b606091505b50915091506114fd828286611508565b979650505050505050565b606083156115175750816113c2565b8251156115275782518084602001fd5b8160405162461bcd60e51b815260040161033791906118be565b60008083601f840112611552578081fd5b50813567ffffffffffffffff811115611569578182fd5b6020830191508360208260051b850101111561158457600080fd5b9250929050565b60006020828403121561159c578081fd5b81356113c281611b7f565b600060208083850312156115b9578182fd5b825167ffffffffffffffff808211156115d0578384fd5b818501915085601f8301126115e3578384fd5b8151818111156115f5576115f5611b69565b8060051b604051601f19603f8301168101818110858211171561161a5761161a611b69565b604052828152858101935084860182860187018a1015611638578788fd5b8795505b8386101561165a57805185526001959095019493860193860161163c565b5098975050505050505050565b600060208284031215611678578081fd5b815180151581146113c2578182fd5b600060208284031215611698578081fd5b5035919050565b600080604083850312156116b1578081fd5b8235915060208301356116c381611b7f565b809150509250929050565b6000602082840312156116df578081fd5b81356001600160e01b0319811681146113c2578182fd5b600060208284031215611707578081fd5b81516113c281611b7f565b60008060008060008060008060c0898b03121561172d578384fd5b883561173881611b7f565b97506020890135965060408901359550606089013567ffffffffffffffff80821115611762578586fd5b61176e8c838d01611541565b909750955060808b0135915080821115611786578485fd5b506117938b828c01611541565b999c989b50969995989497949560a00135949350505050565b6000602082840312156117bd578081fd5b5051919050565b6000602082840312156117d5578081fd5b815160ff811681146113c2578182fd5b60008284526020808501945082825b8581101561182257813561180781611b7f565b6001600160a01b0316875295820195908201906001016117f4565b509495945050505050565b6000825161183f818460208701611b0c565b9190910192915050565b60007f416363657373436f6e74726f6c3a206163636f756e742000000000000000000082528351611881816017850160208801611b0c565b7001034b99036b4b9b9b4b733903937b6329607d1b60179184019182015283516118b2816028840160208801611b0c565b01602801949350505050565b60006020825282518060208401526118dd816040850160208701611b0c565b601f01601f19169190910160400192915050565b6020808252818101527f4f776e61626c653a2063616c6c6572206973206e6f7420746865206f776e6572604082015260600190565b600087825286602083015260a0604083015261194660a0830186886117e5565b6001600160a01b039490941660608301525060800152949350505050565b6000821982111561197757611977611b53565b500190565b60008261199757634e487b7160e01b81526012600452602481fd5b500490565b80825b60018086116119ae57506119d9565b8187048211156119c0576119c0611b53565b808616156119cd57918102915b9490941c93800261199f565b94509492505050565b60006113c260001960ff8516846000826119fe575060016113c2565b81611a0b575060006113c2565b8160018114611a215760028114611a2b57611a58565b60019150506113c2565b60ff841115611a3c57611a3c611b53565b6001841b915084821115611a5257611a52611b53565b506113c2565b5060208310610133831016604e8410600b8410161715611a8b575081810a83811115611a8657611a86611b53565b6113c2565b611a98848484600161199c565b808604821115611aaa57611aaa611b53565b02949350505050565b6000816000190483118215151615611acd57611acd611b53565b500290565b600082821015611ae457611ae4611b53565b500390565b600060ff821660ff841680821015611b0357611b03611b53565b90039392505050565b60005b83811015611b27578181015183820152602001611b0f565b83811115611b36576000848401525b50505050565b600081611b4b57611b4b611b53565b506000190190565b634e487b7160e01b600052601160045260246000fd5b634e487b7160e01b600052604160045260246000fd5b6001600160a01b03811681146103dd57600080fdfea26469706673582212203f27b2e939ac3721553b078febcc449e18eb855bd8db9d3fed7ac9f66720177864736f6c63430008030033",
  "devdoc": {
    "kind": "dev",
    "methods": {
      "getRoleAdmin(bytes32)": {
        "details": "Returns the admin role that controls `role`. See {grantRole} and {revokeRole}. To change a role's admin, use {_setRoleAdmin}."
      },
      "grantRole(bytes32,address)": {
        "details": "Grants `role` to `account`. If `account` had not been already granted `role`, emits a {RoleGranted} event. Requirements: - the caller must have ``role``'s admin role."
      },
      "hasRole(bytes32,address)": {
        "details": "Returns `true` if `account` has been granted `role`."
      },
      "owner()": {
        "details": "Returns the address of the current owner."
      },
      "renounceOwnership()": {
        "details": "Leaves the contract without owner. It will not be possible to call `onlyOwner` functions anymore. Can only be called by the current owner. NOTE: Renouncing ownership will leave the contract without an owner, thereby removing any functionality that is only available to the owner."
      },
      "renounceRole(bytes32,address)": {
        "details": "Revokes `role` from the calling account. Roles are often managed via {grantRole} and {revokeRole}: this function's purpose is to provide a mechanism for accounts to lose their privileges if they are compromised (such as when a trusted device is misplaced). If the calling account had been granted `role`, emits a {RoleRevoked} event. Requirements: - the caller must be `account`."
      },
      "revokeRole(bytes32,address)": {
        "details": "Revokes `role` from `account`. If `account` had been granted `role`, emits a {RoleRevoked} event. Requirements: - the caller must have ``role``'s admin role."
      },
      "supportsInterface(bytes4)": {
        "details": "See {IERC165-supportsInterface}."
      },
      "transferOwnership(address)": {
        "details": "Transfers ownership of the contract to a new account (`newOwner`). Can only be called by the current owner."
      }
    },
    "version": 1
  },
  "userdoc": {
    "kind": "user",
    "methods": {},
    "version": 1
  },
  "storageLayout": {
    "storage": [
      {
        "astId": 62,
        "contract": "contracts/Harvester.sol:Harvester",
        "label": "_roles",
        "offset": 0,
        "slot": "0",
        "type": "t_mapping(t_bytes32,t_struct(RoleData)57_storage)"
      },
      {
        "astId": 375,
        "contract": "contracts/Harvester.sol:Harvester",
        "label": "_owner",
        "offset": 0,
        "slot": "1",
        "type": "t_address"
      },
      {
        "astId": 2727,
        "contract": "contracts/Harvester.sol:Harvester",
        "label": "pancakeRouter",
        "offset": 0,
        "slot": "2",
        "type": "t_contract(IPancakeRouter)3882"
      },
      {
        "astId": 2729,
        "contract": "contracts/Harvester.sol:Harvester",
        "label": "treasury",
        "offset": 0,
        "slot": "3",
        "type": "t_address"
      },
      {
        "astId": 2732,
        "contract": "contracts/Harvester.sol:Harvester",
        "label": "performanceFee",
        "offset": 0,
        "slot": "4",
        "type": "t_uint256"
      },
      {
        "astId": 2735,
        "contract": "contracts/Harvester.sol:Harvester",
        "label": "fireBuyBack",
        "offset": 0,
        "slot": "5",
        "type": "t_uint256"
      },
      {
        "astId": 2740,
        "contract": "contracts/Harvester.sol:Harvester",
        "label": "ratePerToken",
        "offset": 0,
        "slot": "6",
        "type": "t_mapping(t_contract(IVault)3134,t_uint256)"
      }
    ],
    "types": {
      "t_address": {
        "encoding": "inplace",
        "label": "address",
        "numberOfBytes": "20"
      },
      "t_bool": {
        "encoding": "inplace",
        "label": "bool",
        "numberOfBytes": "1"
      },
      "t_bytes32": {
        "encoding": "inplace",
        "label": "bytes32",
        "numberOfBytes": "32"
      },
      "t_contract(IPancakeRouter)3882": {
        "encoding": "inplace",
        "label": "contract IPancakeRouter",
        "numberOfBytes": "20"
      },
      "t_contract(IVault)3134": {
        "encoding": "inplace",
        "label": "contract IVault",
        "numberOfBytes": "20"
      },
      "t_mapping(t_address,t_bool)": {
        "encoding": "mapping",
        "key": "t_address",
        "label": "mapping(address => bool)",
        "numberOfBytes": "32",
        "value": "t_bool"
      },
      "t_mapping(t_bytes32,t_struct(RoleData)57_storage)": {
        "encoding": "mapping",
        "key": "t_bytes32",
        "label": "mapping(bytes32 => struct AccessControl.RoleData)",
        "numberOfBytes": "32",
        "value": "t_struct(RoleData)57_storage"
      },
      "t_mapping(t_contract(IVault)3134,t_uint256)": {
        "encoding": "mapping",
        "key": "t_contract(IVault)3134",
        "label": "mapping(contract IVault => uint256)",
        "numberOfBytes": "32",
        "value": "t_uint256"
      },
      "t_struct(RoleData)57_storage": {
        "encoding": "inplace",
        "label": "struct AccessControl.RoleData",
        "members": [
          {
            "astId": 54,
            "contract": "contracts/Harvester.sol:Harvester",
            "label": "members",
            "offset": 0,
            "slot": "0",
            "type": "t_mapping(t_address,t_bool)"
          },
          {
            "astId": 56,
            "contract": "contracts/Harvester.sol:Harvester",
            "label": "adminRole",
            "offset": 0,
            "slot": "1",
            "type": "t_bytes32"
          }
        ],
        "numberOfBytes": "64"
      },
      "t_uint256": {
        "encoding": "inplace",
        "label": "uint256",
        "numberOfBytes": "32"
      }
    }
  }
}