{
  "address": "0x97608f85D94F0DC6F66180aD895C88eC71EdB8C8",
  "abi": [
    {
      "inputs": [
        {
          "internalType": "contract IERC20Metadata",
          "name": "_underlying",
          "type": "address"
        },
        {
          "internalType": "contract IERC20Metadata",
          "name": "_target",
          "type": "address"
        },
        {
          "internalType": "contract IHarvester",
          "name": "_harvester",
          "type": "address"
        },
        {
          "internalType": "address",
          "name": "_timelock",
          "type": "address"
        }
      ],
      "stateMutability": "nonpayable",
      "type": "constructor"
    },
    {
      "anonymous": false,
      "inputs": [
        {
          "indexed": true,
          "internalType": "address",
          "name": "owner",
          "type": "address"
        },
        {
          "indexed": true,
          "internalType": "address",
          "name": "spender",
          "type": "address"
        },
        {
          "indexed": false,
          "internalType": "uint256",
          "name": "value",
          "type": "uint256"
        }
      ],
      "name": "Approval",
      "type": "event"
    },
    {
      "anonymous": false,
      "inputs": [
        {
          "indexed": true,
          "internalType": "address",
          "name": "account",
          "type": "address"
        },
        {
          "indexed": false,
          "internalType": "uint256",
          "name": "amount",
          "type": "uint256"
        }
      ],
      "name": "DividendWithdrawn",
      "type": "event"
    },
    {
      "anonymous": false,
      "inputs": [
        {
          "indexed": true,
          "internalType": "address",
          "name": "account",
          "type": "address"
        },
        {
          "indexed": false,
          "internalType": "uint256",
          "name": "amount",
          "type": "uint256"
        }
      ],
      "name": "DividendsDistributed",
      "type": "event"
    },
    {
      "anonymous": false,
      "inputs": [
        {
          "indexed": true,
          "internalType": "address",
          "name": "previousOwner",
          "type": "address"
        },
        {
          "indexed": true,
          "internalType": "address",
          "name": "newOwner",
          "type": "address"
        }
      ],
      "name": "OwnershipTransferred",
      "type": "event"
    },
    {
      "anonymous": false,
      "inputs": [
        {
          "indexed": false,
          "internalType": "address",
          "name": "account",
          "type": "address"
        }
      ],
      "name": "Paused",
      "type": "event"
    },
    {
      "anonymous": false,
      "inputs": [
        {
          "indexed": true,
          "internalType": "bytes32",
          "name": "role",
          "type": "bytes32"
        },
        {
          "indexed": true,
          "internalType": "bytes32",
          "name": "previousAdminRole",
          "type": "bytes32"
        },
        {
          "indexed": true,
          "internalType": "bytes32",
          "name": "newAdminRole",
          "type": "bytes32"
        }
      ],
      "name": "RoleAdminChanged",
      "type": "event"
    },
    {
      "anonymous": false,
      "inputs": [
        {
          "indexed": true,
          "internalType": "bytes32",
          "name": "role",
          "type": "bytes32"
        },
        {
          "indexed": true,
          "internalType": "address",
          "name": "account",
          "type": "address"
        },
        {
          "indexed": true,
          "internalType": "address",
          "name": "sender",
          "type": "address"
        }
      ],
      "name": "RoleGranted",
      "type": "event"
    },
    {
      "anonymous": false,
      "inputs": [
        {
          "indexed": true,
          "internalType": "bytes32",
          "name": "role",
          "type": "bytes32"
        },
        {
          "indexed": true,
          "internalType": "address",
          "name": "account",
          "type": "address"
        },
        {
          "indexed": true,
          "internalType": "address",
          "name": "sender",
          "type": "address"
        }
      ],
      "name": "RoleRevoked",
      "type": "event"
    },
    {
      "anonymous": false,
      "inputs": [
        {
          "indexed": true,
          "internalType": "address",
          "name": "from",
          "type": "address"
        },
        {
          "indexed": true,
          "internalType": "address",
          "name": "to",
          "type": "address"
        },
        {
          "indexed": false,
          "internalType": "uint256",
          "name": "value",
          "type": "uint256"
        }
      ],
      "name": "Transfer",
      "type": "event"
    },
    {
      "anonymous": false,
      "inputs": [
        {
          "indexed": false,
          "internalType": "address",
          "name": "account",
          "type": "address"
        }
      ],
      "name": "Unpaused",
      "type": "event"
    },
    {
      "inputs": [],
      "name": "DEFAULT_ADMIN_ROLE",
      "outputs": [
        {
          "internalType": "bytes32",
          "name": "",
          "type": "bytes32"
        }
      ],
      "stateMutability": "view",
      "type": "function"
    },
    {
      "inputs": [],
      "name": "EARNER_ROLE",
      "outputs": [
        {
          "internalType": "bytes32",
          "name": "",
          "type": "bytes32"
        }
      ],
      "stateMutability": "view",
      "type": "function"
    },
    {
      "inputs": [
        {
          "internalType": "address",
          "name": "account",
          "type": "address"
        }
      ],
      "name": "accumulativeDividendOf",
      "outputs": [
        {
          "internalType": "uint256",
          "name": "",
          "type": "uint256"
        }
      ],
      "stateMutability": "view",
      "type": "function"
    },
    {
      "inputs": [
        {
          "internalType": "address",
          "name": "owner",
          "type": "address"
        },
        {
          "internalType": "address",
          "name": "spender",
          "type": "address"
        }
      ],
      "name": "allowance",
      "outputs": [
        {
          "internalType": "uint256",
          "name": "",
          "type": "uint256"
        }
      ],
      "stateMutability": "view",
      "type": "function"
    },
    {
      "inputs": [
        {
          "internalType": "address",
          "name": "spender",
          "type": "address"
        },
        {
          "internalType": "uint256",
          "name": "amount",
          "type": "uint256"
        }
      ],
      "name": "approve",
      "outputs": [
        {
          "internalType": "bool",
          "name": "",
          "type": "bool"
        }
      ],
      "stateMutability": "nonpayable",
      "type": "function"
    },
    {
      "inputs": [
        {
          "internalType": "address",
          "name": "account",
          "type": "address"
        }
      ],
      "name": "balanceOf",
      "outputs": [
        {
          "internalType": "uint256",
          "name": "",
          "type": "uint256"
        }
      ],
      "stateMutability": "view",
      "type": "function"
    },
    {
      "inputs": [],
      "name": "barrier",
      "outputs": [
        {
          "internalType": "uint256",
          "name": "",
          "type": "uint256"
        }
      ],
      "stateMutability": "view",
      "type": "function"
    },
    {
      "inputs": [],
      "name": "calcTotalValue",
      "outputs": [
        {
          "internalType": "uint256",
          "name": "",
          "type": "uint256"
        }
      ],
      "stateMutability": "nonpayable",
      "type": "function"
    },
    {
      "inputs": [],
      "name": "claim",
      "outputs": [],
      "stateMutability": "nonpayable",
      "type": "function"
    },
    {
      "inputs": [
        {
          "internalType": "address",
          "name": "account",
          "type": "address"
        }
      ],
      "name": "claimOnBehalf",
      "outputs": [],
      "stateMutability": "nonpayable",
      "type": "function"
    },
    {
      "inputs": [],
      "name": "decimals",
      "outputs": [
        {
          "internalType": "uint8",
          "name": "",
          "type": "uint8"
        }
      ],
      "stateMutability": "view",
      "type": "function"
    },
    {
      "inputs": [
        {
          "internalType": "address",
          "name": "spender",
          "type": "address"
        },
        {
          "internalType": "uint256",
          "name": "subtractedValue",
          "type": "uint256"
        }
      ],
      "name": "decreaseAllowance",
      "outputs": [
        {
          "internalType": "bool",
          "name": "",
          "type": "bool"
        }
      ],
      "stateMutability": "nonpayable",
      "type": "function"
    },
    {
      "inputs": [
        {
          "internalType": "uint256",
          "name": "amount",
          "type": "uint256"
        }
      ],
      "name": "deposit",
      "outputs": [],
      "stateMutability": "nonpayable",
      "type": "function"
    },
    {
      "inputs": [],
      "name": "depositLimit",
      "outputs": [
        {
          "internalType": "uint256",
          "name": "",
          "type": "uint256"
        }
      ],
      "stateMutability": "view",
      "type": "function"
    },
    {
      "inputs": [
        {
          "internalType": "uint256",
          "name": "amount",
          "type": "uint256"
        }
      ],
      "name": "distributeDividends",
      "outputs": [],
      "stateMutability": "nonpayable",
      "type": "function"
    },
    {
      "inputs": [],
      "name": "earn",
      "outputs": [],
      "stateMutability": "nonpayable",
      "type": "function"
    },
    {
      "inputs": [
        {
          "internalType": "bytes32",
          "name": "role",
          "type": "bytes32"
        }
      ],
      "name": "getRoleAdmin",
      "outputs": [
        {
          "internalType": "bytes32",
          "name": "",
          "type": "bytes32"
        }
      ],
      "stateMutability": "view",
      "type": "function"
    },
    {
      "inputs": [
        {
          "internalType": "bytes32",
          "name": "role",
          "type": "bytes32"
        },
        {
          "internalType": "address",
          "name": "account",
          "type": "address"
        }
      ],
      "name": "grantRole",
      "outputs": [],
      "stateMutability": "nonpayable",
      "type": "function"
    },
    {
      "inputs": [
        {
          "internalType": "uint256",
          "name": "amount",
          "type": "uint256"
        }
      ],
      "name": "harvest",
      "outputs": [],
      "stateMutability": "nonpayable",
      "type": "function"
    },
    {
      "inputs": [],
      "name": "harvester",
      "outputs": [
        {
          "internalType": "contract IHarvester",
          "name": "",
          "type": "address"
        }
      ],
      "stateMutability": "view",
      "type": "function"
    },
    {
      "inputs": [
        {
          "internalType": "bytes32",
          "name": "role",
          "type": "bytes32"
        },
        {
          "internalType": "address",
          "name": "account",
          "type": "address"
        }
      ],
      "name": "hasRole",
      "outputs": [
        {
          "internalType": "bool",
          "name": "",
          "type": "bool"
        }
      ],
      "stateMutability": "view",
      "type": "function"
    },
    {
      "inputs": [
        {
          "internalType": "address",
          "name": "spender",
          "type": "address"
        },
        {
          "internalType": "uint256",
          "name": "addedValue",
          "type": "uint256"
        }
      ],
      "name": "increaseAllowance",
      "outputs": [
        {
          "internalType": "bool",
          "name": "",
          "type": "bool"
        }
      ],
      "stateMutability": "nonpayable",
      "type": "function"
    },
    {
      "inputs": [],
      "name": "lastDistributionAt",
      "outputs": [
        {
          "internalType": "uint256",
          "name": "",
          "type": "uint256"
        }
      ],
      "stateMutability": "view",
      "type": "function"
    },
    {
      "inputs": [],
      "name": "name",
      "outputs": [
        {
          "internalType": "string",
          "name": "",
          "type": "string"
        }
      ],
      "stateMutability": "view",
      "type": "function"
    },
    {
      "inputs": [],
      "name": "owner",
      "outputs": [
        {
          "internalType": "address",
          "name": "",
          "type": "address"
        }
      ],
      "stateMutability": "view",
      "type": "function"
    },
    {
      "inputs": [
        {
          "internalType": "bool",
          "name": "pause",
          "type": "bool"
        }
      ],
      "name": "pauseDeposits",
      "outputs": [],
      "stateMutability": "nonpayable",
      "type": "function"
    },
    {
      "inputs": [],
      "name": "paused",
      "outputs": [
        {
          "internalType": "bool",
          "name": "",
          "type": "bool"
        }
      ],
      "stateMutability": "view",
      "type": "function"
    },
    {
      "inputs": [],
      "name": "renounceOwnership",
      "outputs": [],
      "stateMutability": "nonpayable",
      "type": "function"
    },
    {
      "inputs": [
        {
          "internalType": "bytes32",
          "name": "role",
          "type": "bytes32"
        },
        {
          "internalType": "address",
          "name": "account",
          "type": "address"
        }
      ],
      "name": "renounceRole",
      "outputs": [],
      "stateMutability": "nonpayable",
      "type": "function"
    },
    {
      "inputs": [
        {
          "internalType": "bytes32",
          "name": "role",
          "type": "bytes32"
        },
        {
          "internalType": "address",
          "name": "account",
          "type": "address"
        }
      ],
      "name": "revokeRole",
      "outputs": [],
      "stateMutability": "nonpayable",
      "type": "function"
    },
    {
      "inputs": [
        {
          "internalType": "uint256",
          "name": "_barrier",
          "type": "uint256"
        }
      ],
      "name": "setBarrier",
      "outputs": [],
      "stateMutability": "nonpayable",
      "type": "function"
    },
    {
      "inputs": [
        {
          "internalType": "uint256",
          "name": "_depositLimit",
          "type": "uint256"
        }
      ],
      "name": "setDepositLimit",
      "outputs": [],
      "stateMutability": "nonpayable",
      "type": "function"
    },
    {
      "inputs": [
        {
          "internalType": "contract IHarvester",
          "name": "_harvester",
          "type": "address"
        }
      ],
      "name": "setHarvester",
      "outputs": [],
      "stateMutability": "nonpayable",
      "type": "function"
    },
    {
      "inputs": [
        {
          "internalType": "contract IStrategy",
          "name": "_strategy",
          "type": "address"
        },
        {
          "internalType": "bool",
          "name": "force",
          "type": "bool"
        }
      ],
      "name": "setStrategy",
      "outputs": [],
      "stateMutability": "nonpayable",
      "type": "function"
    },
    {
      "inputs": [
        {
          "internalType": "uint256",
          "name": "_withdrawalFee",
          "type": "uint256"
        }
      ],
      "name": "setWithdrawalFee",
      "outputs": [],
      "stateMutability": "nonpayable",
      "type": "function"
    },
    {
      "inputs": [],
      "name": "strategy",
      "outputs": [
        {
          "internalType": "contract IStrategy",
          "name": "",
          "type": "address"
        }
      ],
      "stateMutability": "view",
      "type": "function"
    },
    {
      "inputs": [
        {
          "internalType": "bytes4",
          "name": "interfaceId",
          "type": "bytes4"
        }
      ],
      "name": "supportsInterface",
      "outputs": [
        {
          "internalType": "bool",
          "name": "",
          "type": "bool"
        }
      ],
      "stateMutability": "view",
      "type": "function"
    },
    {
      "inputs": [
        {
          "internalType": "contract IERC20Metadata",
          "name": "token",
          "type": "address"
        }
      ],
      "name": "sweep",
      "outputs": [],
      "stateMutability": "nonpayable",
      "type": "function"
    },
    {
      "inputs": [],
      "name": "symbol",
      "outputs": [
        {
          "internalType": "string",
          "name": "",
          "type": "string"
        }
      ],
      "stateMutability": "view",
      "type": "function"
    },
    {
      "inputs": [],
      "name": "target",
      "outputs": [
        {
          "internalType": "contract IERC20Metadata",
          "name": "",
          "type": "address"
        }
      ],
      "stateMutability": "view",
      "type": "function"
    },
    {
      "inputs": [],
      "name": "targetToken",
      "outputs": [
        {
          "internalType": "contract IERC20Metadata",
          "name": "",
          "type": "address"
        }
      ],
      "stateMutability": "view",
      "type": "function"
    },
    {
      "inputs": [],
      "name": "timelock",
      "outputs": [
        {
          "internalType": "address",
          "name": "",
          "type": "address"
        }
      ],
      "stateMutability": "view",
      "type": "function"
    },
    {
      "inputs": [],
      "name": "totalSupply",
      "outputs": [
        {
          "internalType": "uint256",
          "name": "",
          "type": "uint256"
        }
      ],
      "stateMutability": "view",
      "type": "function"
    },
    {
      "inputs": [
        {
          "internalType": "address",
          "name": "recipient",
          "type": "address"
        },
        {
          "internalType": "uint256",
          "name": "amount",
          "type": "uint256"
        }
      ],
      "name": "transfer",
      "outputs": [
        {
          "internalType": "bool",
          "name": "",
          "type": "bool"
        }
      ],
      "stateMutability": "nonpayable",
      "type": "function"
    },
    {
      "inputs": [
        {
          "internalType": "address",
          "name": "sender",
          "type": "address"
        },
        {
          "internalType": "address",
          "name": "recipient",
          "type": "address"
        },
        {
          "internalType": "uint256",
          "name": "amount",
          "type": "uint256"
        }
      ],
      "name": "transferFrom",
      "outputs": [
        {
          "internalType": "bool",
          "name": "",
          "type": "bool"
        }
      ],
      "stateMutability": "nonpayable",
      "type": "function"
    },
    {
      "inputs": [
        {
          "internalType": "address",
          "name": "newOwner",
          "type": "address"
        }
      ],
      "name": "transferOwnership",
      "outputs": [],
      "stateMutability": "nonpayable",
      "type": "function"
    },
    {
      "inputs": [
        {
          "internalType": "address",
          "name": "account",
          "type": "address"
        }
      ],
      "name": "unclaimedProfit",
      "outputs": [
        {
          "internalType": "uint256",
          "name": "",
          "type": "uint256"
        }
      ],
      "stateMutability": "view",
      "type": "function"
    },
    {
      "inputs": [],
      "name": "underlying",
      "outputs": [
        {
          "internalType": "contract IERC20Metadata",
          "name": "",
          "type": "address"
        }
      ],
      "stateMutability": "view",
      "type": "function"
    },
    {
      "inputs": [],
      "name": "underlyingYield",
      "outputs": [
        {
          "internalType": "uint256",
          "name": "",
          "type": "uint256"
        }
      ],
      "stateMutability": "nonpayable",
      "type": "function"
    },
    {
      "inputs": [
        {
          "internalType": "uint256",
          "name": "amount",
          "type": "uint256"
        }
      ],
      "name": "withdraw",
      "outputs": [],
      "stateMutability": "nonpayable",
      "type": "function"
    },
    {
      "inputs": [
        {
          "internalType": "address",
          "name": "account",
          "type": "address"
        }
      ],
      "name": "withdrawableDividendOf",
      "outputs": [
        {
          "internalType": "uint256",
          "name": "",
          "type": "uint256"
        }
      ],
      "stateMutability": "view",
      "type": "function"
    },
    {
      "inputs": [],
      "name": "withdrawalFee",
      "outputs": [
        {
          "internalType": "uint256",
          "name": "",
          "type": "uint256"
        }
      ],
      "stateMutability": "view",
      "type": "function"
    },
    {
      "inputs": [
        {
          "internalType": "address",
          "name": "account",
          "type": "address"
        }
      ],
      "name": "withdrawnDividendOf",
      "outputs": [
        {
          "internalType": "uint256",
          "name": "",
          "type": "uint256"
        }
      ],
      "stateMutability": "view",
      "type": "function"
    }
  ],
  "transactionHash": "0xba13ce60cde02db96820352f685400cbb40c7e464389d25631a19657419f4c0f",
  "args": [
    "0x1AF3F329e8BE154074D8769D1FFa4eE058B1DBc3",
    "0x0E09FaBB73Bd3Ade0a17ECC321fD13a19e81cE82",
    "0x430372402D2E40a4b50258Bd7163d6e1934f53af",
    "0x4a1D75f75B00b05ABd2a2D376f77413D1cC5cAD1"
  ],
  "solcInputHash": "7d8d3471a305d292daa3333ebeac1e83",
  "bytecode": "0x60e06040526103e8600d556001600e553480156200001c57600080fd5b5060405162003cba38038062003cba8339810160408190526200003f91620006d9565b836001600160a01b03166395d89b416040518163ffffffff1660e01b815260040160006040518083038186803b1580156200007957600080fd5b505afa1580156200008e573d6000803e3d6000fd5b505050506040513d6000823e601f3d908101601f19168201604052620000b8919081019062000740565b836001600160a01b03166395d89b416040518163ffffffff1660e01b815260040160006040518083038186803b158015620000f257600080fd5b505afa15801562000107573d6000803e3d6000fd5b505050506040513d6000823e601f3d908101601f1916820160405262000131919081019062000740565b604051602001620001449291906200081e565b604051602081830303815290604052846001600160a01b03166395d89b416040518163ffffffff1660e01b815260040160006040518083038186803b1580156200018d57600080fd5b505afa158015620001a2573d6000803e3d6000fd5b505050506040513d6000823e601f3d908101601f19168201604052620001cc919081019062000740565b846001600160a01b03166395d89b416040518163ffffffff1660e01b815260040160006040518083038186803b1580156200020657600080fd5b505afa1580156200021b573d6000803e3d6000fd5b505050506040513d6000823e601f3d908101601f1916820160405262000245919081019062000740565b604051602001620002589291906200088e565b60408051601f1981840301815290829052600180546001600160a01b0319163390811790915590918691849184919081906000907f8be0079c531659141344cd1fd0a4f28419497f9722a3daafe3b4186f6b6457e0908290a3506001805460ff60a01b191690558151620002d490600590602085019062000633565b508051620002ea90600690602084019062000633565b50505060601b6001600160601b0319166080525062000314905060006200030e3390565b620004d1565b620003407faf5cd33eb1dcf39cc29f1cbee3b3dc4dd5921cf8f497f81b237cdb211029a258336200030e565b836001600160a01b031660a0816001600160a01b031660601b81525050836001600160a01b031663313ce5676040518163ffffffff1660e01b815260040160206040518083038186803b1580156200039757600080fd5b505afa158015620003ac573d6000803e3d6000fd5b505050506040513d601f19601f82011682018060405250810190620003d29190620007f4565b60f81b7fff000000000000000000000000000000000000000000000000000000000000001660c052600a80546001600160a01b03199081166001600160a01b0385811691909117909255600b80549091168383161790556040805163313ce56760e01b815290519186169163313ce56791600480820192602092909190829003018186803b1580156200046457600080fd5b505afa15801562000479573d6000803e3d6000fd5b505050506040513d601f19601f820116820180604052508101906200049f9190620007f4565b620004ac90600a6200092a565b620004ba90614e2062000a15565b600f55620004c7620004e1565b5050505062000aec565b620004dd828262000593565b5050565b620004f5600154600160a01b900460ff1690565b156200053a5760405162461bcd60e51b815260206004820152601060248201526f14185d5cd8589b194e881c185d5cd95960821b604482015260640160405180910390fd5b6001805460ff60a01b1916600160a01b1790557f62e78cea01bee320cd4e420270b5ea74000d11b0c9f74754ebdbfc544b05a258620005763390565b6040516001600160a01b03909116815260200160405180910390a1565b6000828152602081815260408083206001600160a01b038516845290915290205460ff16620004dd576000828152602081815260408083206001600160a01b03851684529091529020805460ff19166001179055620005ef3390565b6001600160a01b0316816001600160a01b0316837f2f8788117e7eff1d82e926ec794901d17c78024a50270940304540a733656f0d60405160405180910390a45050565b828054620006419062000a6a565b90600052602060002090601f016020900481019282620006655760008555620006b0565b82601f106200068057805160ff1916838001178555620006b0565b82800160010185558215620006b0579182015b82811115620006b057825182559160200191906001019062000693565b50620006be929150620006c2565b5090565b5b80821115620006be5760008155600101620006c3565b60008060008060808587031215620006ef578384fd5b8451620006fc8162000ad3565b60208601519094506200070f8162000ad3565b6040860151909350620007228162000ad3565b6060860151909250620007358162000ad3565b939692955090935050565b60006020828403121562000752578081fd5b81516001600160401b038082111562000769578283fd5b818401915084601f8301126200077d578283fd5b81518181111562000792576200079262000abd565b604051601f8201601f19908116603f01168101908382118183101715620007bd57620007bd62000abd565b81604052828152876020848701011115620007d6578586fd5b620007e983602083016020880162000a37565b979650505050505050565b60006020828403121562000806578081fd5b815160ff8116811462000817578182fd5b9392505050565b60006702324a922a220a7960c51b825283516200084381600885016020880162000a37565b630103a37960e51b60089184019182015283516200086981600c84016020880162000a37565b6b102cb4b2b632102a37b5b2b760a11b600c9290910191820152601801949350505050565b600061666960f01b82528351620008ad81600285016020880162000a37565b61169f60f11b6002918401918201528351620008d181600484016020880162000a37565b01600401949350505050565b80825b6001808611620008f1575062000921565b81870482111562000906576200090662000aa7565b808616156200091457918102915b9490941c938002620008e0565b94509492505050565b60006200081760001960ff851684600082620009495750600162000817565b81620009585750600062000817565b81600181146200097157600281146200097c57620009b0565b600191505062000817565b60ff84111562000990576200099062000aa7565b6001841b915084821115620009a957620009a962000aa7565b5062000817565b5060208310610133831016604e8410600b8410161715620009e8575081810a83811115620009e257620009e262000aa7565b62000817565b620009f78484846001620008dd565b80860482111562000a0c5762000a0c62000aa7565b02949350505050565b600081600019048311821515161562000a325762000a3262000aa7565b500290565b60005b8381101562000a5457818101518382015260200162000a3a565b8381111562000a64576000848401525b50505050565b600181811c9082168062000a7f57607f821691505b6020821081141562000aa157634e487b7160e01b600052602260045260246000fd5b50919050565b634e487b7160e01b600052601160045260246000fd5b634e487b7160e01b600052604160045260246000fd5b6001600160a01b038116811462000ae957600080fd5b50565b60805160601c60a05160601c60c05160f81c61314162000b79600039600061044c01526000818161054f01528181610b7801528181610ca701528181611065015281816113550152818161150301528181611826015281816118e50152611ada01526000818161048e01528181610708015281816107dc01528181612100015261227c01526131416000f3fe608060405234801561001057600080fd5b50600436106103275760003560e01c8063715018a6116101b8578063a9059cbb11610104578063d389800f116100a2578063dd62ed3e1161007c578063dd62ed3e1461073f578063ddc6326214610778578063ecf708581461078b578063f2fde38b1461079457610327565b8063d389800f146106fe578063d4b8399214610706578063d547741f1461072c57610327565b8063b6b55f25116100de578063b6b55f25146106b2578063baa82a34146106c5578063bdc8144b146106d8578063d33219b4146106eb57610327565b8063a9059cbb14610663578063aafd847a14610676578063ac1e50251461069f57610327565b806395d89b4111610171578063a217fddf1161014b578063a217fddf14610622578063a457c2d71461062a578063a8b9d2401461063d578063a8c62e761461065057610327565b806395d89b41146105eb578063993e6339146105f3578063a00251c61461061a57610327565b8063715018a61461059a578063738b62e5146105a25780638bc7e8c4146105b55780638da5cb5b146105be57806390355087146105cf57806391d14854146105d857610327565b8063313ce5671161027757806344bd5dcb116102305780635c975abb1161020a5780635c975abb146105245780636466f45e146105375780636f307dc31461054a57806370a082311461057157610327565b806344bd5dcb146104f65780634bdaeac1146105095780634e71d92d1461051c57610327565b8063313ce567146104455780633243c79114610476578063327107f71461048957806336568abe146104c857806339509351146104db5780633d8bb517146104ee57610327565b806315de1daa116102e4578063248a9ca3116102be578063248a9ca3146103e957806327ce01471461040c5780632e1a7d4d1461041f5780632f2ff15d1461043257610327565b806315de1daa146103bb57806318160ddd146103ce57806323b872dd146103d657610327565b806301681a621461032c57806301ffc9a71461034157806306fdde0314610369578063095ea7b31461037e5780630b3c57d81461039157806312b6e8ff146103b2575b600080fd5b61033f61033a366004612ccd565b6107a7565b005b61035461034f366004612e00565b610910565b60405190151581526020015b60405180910390f35b610371610947565b6040516103609190612efe565b61035461038c366004612d61565b6109d9565b6103a461039f366004612ccd565b6109ef565b604051908152602001610360565b6103a4600d5481565b61033f6103c9366004612ccd565b6109fa565b6004546103a4565b6103546103e4366004612d21565b610a46565b6103a46103f7366004612dc4565b60009081526020819052604090206001015490565b6103a461041a366004612ccd565b610af9565b61033f61042d366004612dc4565b610b56565b61033f610440366004612ddc565b610cd3565b60405160ff7f0000000000000000000000000000000000000000000000000000000000000000168152602001610360565b61033f610484366004612dc4565b610cfa565b6104b07f000000000000000000000000000000000000000000000000000000000000000081565b6040516001600160a01b039091168152602001610360565b61033f6104d6366004612ddc565b610d6d565b6103546104e9366004612d61565b610deb565b6103a4610e22565b61033f610504366004612dc4565b610e44565b600a546104b0906001600160a01b031681565b61033f610ec4565b610354600154600160a01b900460ff1690565b61033f610545366004612ccd565b610ecf565b6104b07f000000000000000000000000000000000000000000000000000000000000000081565b6103a461057f366004612ccd565b6001600160a01b031660009081526002602052604090205490565b61033f610f5c565b61033f6105b0366004612d8c565b610fd0565b6103a4600e5481565b6001546001600160a01b03166104b0565b6103a460105481565b6103546105e6366004612ddc565b611015565b61037161103e565b6103a47faf5cd33eb1dcf39cc29f1cbee3b3dc4dd5921cf8f497f81b237cdb211029a25881565b6103a461104d565b6103a4600081565b610354610638366004612d61565b611179565b6103a461064b366004612ccd565b611214565b600c546104b0906001600160a01b031681565b610354610671366004612d61565b611240565b6103a4610684366004612ccd565b6001600160a01b031660009081526009602052604090205490565b61033f6106ad366004612dc4565b61124d565b61033f6106c0366004612dc4565b6112cd565b61033f6106d3366004612e28565b61138f565b61033f6106e6366004612dc4565b611770565b600b546104b0906001600160a01b031681565b61033f61179f565b7f00000000000000000000000000000000000000000000000000000000000000006104b0565b61033f61073a366004612ddc565b61197a565b6103a461074d366004612ce9565b6001600160a01b03918216600090815260036020908152604080832093909416825291909152205490565b61033f610786366004612dc4565b6119a0565b6103a4600f5481565b61033f6107a2366004612ccd565b611b04565b6001546001600160a01b031633146107da5760405162461bcd60e51b81526004016107d190612f31565b60405180910390fd5b7f00000000000000000000000000000000000000000000000000000000000000006001600160a01b0316816001600160a01b031614156108705760405162461bcd60e51b815260206004820152602b60248201527f5661756c743a207377656570696e67206f662074617267657420746f6b656e2060448201526a1b9bdd08185b1b1bddd95960aa1b60648201526084016107d1565b61090d6108856001546001600160a01b031690565b6040516370a0823160e01b81523060048201526001600160a01b038416906370a082319060240160206040518083038186803b1580156108c457600080fd5b505afa1580156108d8573d6000803e3d6000fd5b505050506040513d601f19601f820116820180604052508101906108fc9190612e55565b6001600160a01b0384169190611bef565b50565b60006001600160e01b03198216637965db0b60e01b148061094157506301ffc9a760e01b6001600160e01b03198316145b92915050565b60606005805461095690613097565b80601f016020809104026020016040519081016040528092919081815260200182805461098290613097565b80156109cf5780601f106109a4576101008083540402835291602001916109cf565b820191906000526020600020905b8154815290600101906020018083116109b257829003601f168201915b5050505050905090565b60006109e6338484611c52565b50600192915050565b600061094182611214565b6001546001600160a01b03163314610a245760405162461bcd60e51b81526004016107d190612f31565b600a80546001600160a01b0319166001600160a01b0392909216919091179055565b6000610a53848484611d77565b6001600160a01b038416600090815260036020908152604080832033845290915290205482811015610ad85760405162461bcd60e51b815260206004820152602860248201527f45524332303a207472616e7366657220616d6f756e74206578636565647320616044820152676c6c6f77616e636560c01b60648201526084016107d1565b610aec8533610ae7868561303d565b611c52565b60019150505b9392505050565b6001600160a01b0381166000908152600860209081526040808320546002909252822054600160801b91610b4c91610b3d90600754610b389190612fdf565b611e0e565b610b479190612f66565b611e78565b6109419190612fbf565b610b603382611eca565b6040516370a0823160e01b81523060048201526000907f00000000000000000000000000000000000000000000000000000000000000006001600160a01b0316906370a082319060240160206040518083038186803b158015610bc257600080fd5b505afa158015610bd6573d6000803e3d6000fd5b505050506040513d601f19601f82011682018060405250810190610bfa9190612e55565b905080821115610c7057600c546001600160a01b0316638ca17995610c1f838561303d565b6040518263ffffffff1660e01b8152600401610c3d91815260200190565b600060405180830381600087803b158015610c5757600080fd5b505af1158015610c6b573d6000803e3d6000fd5b505050505b6000612710600e5484610c839190612fdf565b610c8d9190612fbf565b9050610cce33610c9d838661303d565b6001600160a01b037f0000000000000000000000000000000000000000000000000000000000000000169190611bef565b505050565b600082815260208190526040902060010154610cf081335b611f28565b610cce8383611f8c565b600a546001600160a01b0316336001600160a01b031614610d5d5760405162461bcd60e51b815260206004820152601d60248201527f5661756c743a206f6e6c792068617276657374657220616c6c6f77656400000060448201526064016107d1565b610d6681612010565b5042601055565b6001600160a01b0381163314610ddd5760405162461bcd60e51b815260206004820152602f60248201527f416363657373436f6e74726f6c3a2063616e206f6e6c792072656e6f756e636560448201526e103937b632b9903337b91039b2b63360891b60648201526084016107d1565b610de78282612168565b5050565b3360008181526003602090815260408083206001600160a01b038716845290915281205490916109e6918590610ae7908690612fa7565b6000610e2d60045490565b610e3561104d565b610e3f919061303d565b905090565b6001546001600160a01b03163314610e6e5760405162461bcd60e51b81526004016107d190612f31565b6127108110610ebf5760405162461bcd60e51b815260206004820152601760248201527f5661756c743a206261727269657220746f6f206869676800000000000000000060448201526064016107d1565b600d55565b610ecd336121cd565b565b600a546001600160a01b0316336001600160a01b03161480610efb57506001546001600160a01b031633145b610f535760405162461bcd60e51b8152602060048201526024808201527f5661756c743a206f6e6c7920686172766573746572206f7220676f7620616c6c6044820152631bddd95960e21b60648201526084016107d1565b61090d816121cd565b6001546001600160a01b03163314610f865760405162461bcd60e51b81526004016107d190612f31565b6001546040516000916001600160a01b0316907f8be0079c531659141344cd1fd0a4f28419497f9722a3daafe3b4186f6b6457e0908390a3600180546001600160a01b0319169055565b6001546001600160a01b03163314610ffa5760405162461bcd60e51b81526004016107d190612f31565b801561100d576110086122ea565b61090d565b61090d612395565b6000918252602082815260408084206001600160a01b0393909316845291905290205460ff1690565b60606006805461095690613097565b6040516370a0823160e01b81523060048201526000907f00000000000000000000000000000000000000000000000000000000000000006001600160a01b0316906370a082319060240160206040518083038186803b1580156110af57600080fd5b505afa1580156110c3573d6000803e3d6000fd5b505050506040513d601f19601f820116820180604052508101906110e79190612e55565b600c60009054906101000a90046001600160a01b03166001600160a01b031663a00251c66040518163ffffffff1660e01b8152600401602060405180830381600087803b15801561113757600080fd5b505af115801561114b573d6000803e3d6000fd5b505050506040513d601f19601f8201168201806040525081019061116f9190612e55565b610e3f9190612fa7565b3360009081526003602090815260408083206001600160a01b0386168452909152812054828110156111fb5760405162461bcd60e51b815260206004820152602560248201527f45524332303a2064656372656173656420616c6c6f77616e63652062656c6f77604482015264207a65726f60d81b60648201526084016107d1565b61120a3385610ae7868561303d565b5060019392505050565b6001600160a01b03811660009081526009602052604081205461123683610af9565b610941919061303d565b60006109e6338484611d77565b6001546001600160a01b031633146112775760405162461bcd60e51b81526004016107d190612f31565b61271081106112c85760405162461bcd60e51b815260206004820152601e60248201527f5661756c743a207769746864726177616c2066656520746f6f2068696768000060448201526064016107d1565b600e55565b600f541561135057600f54816112e260045490565b6112ec9190612fa7565b11156113505760405162461bcd60e51b815260206004820152602d60248201527f5661756c743a20746f74616c20737570706c792077696c6c206578636565642060448201526c19195c1bdcda5d081b1a5b5a5d609a1b60648201526084016107d1565b6113857f00000000000000000000000000000000000000000000000000000000000000006001600160a01b031633308461241f565b61090d338261245d565b600c546001600160a01b0316156116eb57600b546001600160a01b0316336001600160a01b0316146114035760405162461bcd60e51b815260206004820152601c60248201527f5661756c743a206f6e6c792074696d656c6f636b20616c6c6f7765640000000060448201526064016107d1565b600c546040805163500128e360e11b815290516000926001600160a01b03169163a00251c691600480830192602092919082900301818787803b15801561144957600080fd5b505af115801561145d573d6000803e3d6000fd5b505050506040513d601f19601f820116820180604052508101906114819190612e55565b600c54604051638ca1799560e01b8152600481018390529192506001600160a01b031690638ca1799590602401600060405180830381600087803b1580156114c857600080fd5b505af11580156114dc573d6000803e3d6000fd5b50506040516370a0823160e01b815230600482015261157d92508591506001600160a01b037f000000000000000000000000000000000000000000000000000000000000000016906370a082319060240160206040518083038186803b15801561154557600080fd5b505afa158015611559573d6000803e3d6000fd5b505050506040513d601f19601f82011682018060405250810190610c9d9190612e55565b826001600160a01b031663e8b5e51f6040518163ffffffff1660e01b8152600401600060405180830381600087803b1580156115b857600080fd5b505af11580156115cc573d6000803e3d6000fd5b50505050816116e55780836001600160a01b031663a00251c66040518163ffffffff1660e01b8152600401602060405180830381600087803b15801561161157600080fd5b505af1158015611625573d6000803e3d6000fd5b505050506040513d601f19601f820116820180604052508101906116499190612e55565b101580156116dc5750600c60009054906101000a90046001600160a01b03166001600160a01b031663a00251c66040518163ffffffff1660e01b8152600401602060405180830381600087803b1580156116a257600080fd5b505af11580156116b6573d6000803e3d6000fd5b505050506040513d601f19601f820116820180604052508101906116da9190612e55565b155b6116e557600080fd5b5061174d565b6001546001600160a01b031633146117455760405162461bcd60e51b815260206004820152601760248201527f5661756c743a206f6e6c7920676f7620616c6c6f77656400000000000000000060448201526064016107d1565b61174d612395565b50600c80546001600160a01b0319166001600160a01b0392909216919091179055565b6001546001600160a01b0316331461179a5760405162461bcd60e51b81526004016107d190612f31565b600f55565b6117c97faf5cd33eb1dcf39cc29f1cbee3b3dc4dd5921cf8f497f81b237cdb211029a258336105e6565b61180e5760405162461bcd60e51b815260206004820152601660248201527515985d5b1d0e881b9bdd081dda1a5d195b1a5cdd195960521b60448201526064016107d1565b6040516370a0823160e01b81523060048201526000907f00000000000000000000000000000000000000000000000000000000000000006001600160a01b0316906370a082319060240160206040518083038186803b15801561187057600080fd5b505afa158015611884573d6000803e3d6000fd5b505050506040513d601f19601f820116820180604052508101906118a89190612e55565b90506000612710600d54836118bd9190612fdf565b6118c79190612fbf565b6118d1908361303d565b600c5490915061190e906001600160a01b037f00000000000000000000000000000000000000000000000000000000000000008116911683611bef565b600c60009054906101000a90046001600160a01b03166001600160a01b031663e8b5e51f6040518163ffffffff1660e01b8152600401600060405180830381600087803b15801561195e57600080fd5b505af1158015611972573d6000803e3d6000fd5b505050505050565b6000828152602081905260409020600101546119968133610ceb565b610cce8383612168565b600a546001600160a01b0316336001600160a01b031614611a035760405162461bcd60e51b815260206004820152601d60248201527f5661756c743a206f6e6c792068617276657374657220616c6c6f77656400000060448201526064016107d1565b611a0b610e22565b811115611a6c5760405162461bcd60e51b815260206004820152602960248201527f5661756c743a20616d6f756e74206c6172676572207468616e2067656e6572616044820152681d1959081e5a595b1960ba1b60648201526084016107d1565b600c54604051638ca1799560e01b8152600481018390526001600160a01b0390911690638ca1799590602401600060405180830381600087803b158015611ab257600080fd5b505af1158015611ac6573d6000803e3d6000fd5b5050600a5461090d92506001600160a01b037f0000000000000000000000000000000000000000000000000000000000000000811692501683611bef565b6001546001600160a01b03163314611b2e5760405162461bcd60e51b81526004016107d190612f31565b6001600160a01b038116611b935760405162461bcd60e51b815260206004820152602660248201527f4f776e61626c653a206e6577206f776e657220697320746865207a65726f206160448201526564647265737360d01b60648201526084016107d1565b6001546040516001600160a01b038084169216907f8be0079c531659141344cd1fd0a4f28419497f9722a3daafe3b4186f6b6457e090600090a3600180546001600160a01b0319166001600160a01b0392909216919091179055565b6040516001600160a01b038316602482015260448101829052610cce90849063a9059cbb60e01b906064015b60408051601f198184030181529190526020810180516001600160e01b03166001600160e01b03199093169290921790915261249b565b6001600160a01b038316611cb45760405162461bcd60e51b8152602060048201526024808201527f45524332303a20617070726f76652066726f6d20746865207a65726f206164646044820152637265737360e01b60648201526084016107d1565b6001600160a01b038216611d155760405162461bcd60e51b815260206004820152602260248201527f45524332303a20617070726f766520746f20746865207a65726f206164647265604482015261737360f01b60648201526084016107d1565b6001600160a01b0383811660008181526003602090815260408083209487168084529482529182902085905590518481527f8c5be1e5ebec7d5bd14f71427d1e84f3dd0314c0f7b2291e5b200ac8c7c3b92591015b60405180910390a3505050565b611d8283838361256d565b6000611d9582600754610b389190612fdf565b6001600160a01b038516600090815260086020526040902054909150611dbc908290612f66565b6001600160a01b038086166000908152600860205260408082209390935590851681522054611dec908290612ffe565b6001600160a01b03909316600090815260086020526040902092909255505050565b6000600160ff1b8210611e745760405162461bcd60e51b815260206004820152602860248201527f53616665436173743a2076616c756520646f65736e27742066697420696e2061604482015267371034b73a191a9b60c11b60648201526084016107d1565b5090565b600080821215611e745760405162461bcd60e51b815260206004820181905260248201527f53616665436173743a2076616c7565206d75737420626520706f73697469766560448201526064016107d1565b611ed48282612745565b611ee581600754610b389190612fdf565b6001600160a01b038316600090815260086020526040902054611f089190612f66565b6001600160a01b0390921660009081526008602052604090209190915550565b611f328282611015565b610de757611f4a816001600160a01b03166014612894565b611f55836020612894565b604051602001611f66929190612e89565b60408051601f198184030181529082905262461bcd60e51b82526107d191600401612efe565b611f968282611015565b610de7576000828152602081815260408083206001600160a01b03851684529091529020805460ff19166001179055611fcc3390565b6001600160a01b0316816001600160a01b0316837f2f8788117e7eff1d82e926ec794901d17c78024a50270940304540a733656f0d60405160405180910390a45050565b600061201b60045490565b116120745760405162461bcd60e51b815260206004820152602360248201527f4469766964656e64546f6b656e3a20746f74616c20737570706c79206973207a60448201526265726f60e81b60648201526084016107d1565b600081116120d05760405162461bcd60e51b8152602060048201526024808201527f4469766964656e64546f6b656e3a206e6f7468696e6720746f206469737472696044820152636275746560e01b60648201526084016107d1565b6004546120e1600160801b83612fdf565b6120eb9190612fbf565b6007546120f89190612fa7565b6007556121307f00000000000000000000000000000000000000000000000000000000000000006001600160a01b031633308461241f565b60405181815233907fa493a9229478c3fcd73f66d2cdeb7f94fd0f341da924d1054236d784541165119060200160405180910390a250565b6121728282611015565b15610de7576000828152602081815260408083206001600160a01b0385168085529252808320805460ff1916905551339285917ff6391f5c32d9c69d2a47ea670b442974b53935d1edc7fd64eb21e047a839171b9190a45050565b60006121d882611214565b9050600081116122355760405162461bcd60e51b815260206004820152602260248201527f4469766964656e64546f6b656e3a206e6f7468696e6720746f20776974686472604482015261617760f01b60648201526084016107d1565b6001600160a01b038216600090815260096020526040902054612259908290612fa7565b6001600160a01b038084166000908152600960205260409020919091556122a3907f0000000000000000000000000000000000000000000000000000000000000000168383611bef565b816001600160a01b03167fee503bee2bb6a87e57bc57db795f98137327401a0e7b7ce42e37926cc1a9ca4d826040516122de91815260200190565b60405180910390a25050565b6122fd600154600160a01b900460ff1690565b1561233d5760405162461bcd60e51b815260206004820152601060248201526f14185d5cd8589b194e881c185d5cd95960821b60448201526064016107d1565b6001805460ff60a01b1916600160a01b1790557f62e78cea01bee320cd4e420270b5ea74000d11b0c9f74754ebdbfc544b05a2586123783390565b6040516001600160a01b03909116815260200160405180910390a1565b6123a8600154600160a01b900460ff1690565b6123eb5760405162461bcd60e51b815260206004820152601460248201527314185d5cd8589b194e881b9bdd081c185d5cd95960621b60448201526064016107d1565b6001805460ff60a01b191690557f5db9ee0a495bf2e6ff9c91a7834c1ba4fdd244a5e8aa4e537bd38aeae4b073aa33612378565b6040516001600160a01b03808516602483015283166044820152606481018290526124579085906323b872dd60e01b90608401611c1b565b50505050565b6124678282612a76565b61247881600754610b389190612fdf565b6001600160a01b038316600090815260086020526040902054611f089190612ffe565b60006124f0826040518060400160405280602081526020017f5361666545524332303a206c6f772d6c6576656c2063616c6c206661696c6564815250856001600160a01b0316612b559092919063ffffffff16565b805190915015610cce578080602001905181019061250e9190612da8565b610cce5760405162461bcd60e51b815260206004820152602a60248201527f5361666545524332303a204552433230206f7065726174696f6e20646964206e6044820152691bdd081cdd58d8d9595960b21b60648201526084016107d1565b6001600160a01b0383166125d15760405162461bcd60e51b815260206004820152602560248201527f45524332303a207472616e736665722066726f6d20746865207a65726f206164604482015264647265737360d81b60648201526084016107d1565b6001600160a01b0382166126335760405162461bcd60e51b815260206004820152602360248201527f45524332303a207472616e7366657220746f20746865207a65726f206164647260448201526265737360e81b60648201526084016107d1565b6001600160a01b038316600090815260026020526040902054818110156126ab5760405162461bcd60e51b815260206004820152602660248201527f45524332303a207472616e7366657220616d6f756e7420657863656564732062604482015265616c616e636560d01b60648201526084016107d1565b6126b5828261303d565b6001600160a01b0380861660009081526002602052604080822093909355908516815290812080548492906126eb908490612fa7565b92505081905550826001600160a01b0316846001600160a01b03167fddf252ad1be2c89b69c2b068fc378daa952ba7f163c4a11628f55a4df523b3ef8460405161273791815260200190565b60405180910390a350505050565b6001600160a01b0382166127a55760405162461bcd60e51b815260206004820152602160248201527f45524332303a206275726e2066726f6d20746865207a65726f206164647265736044820152607360f81b60648201526084016107d1565b6001600160a01b038216600090815260026020526040902054818110156128195760405162461bcd60e51b815260206004820152602260248201527f45524332303a206275726e20616d6f756e7420657863656564732062616c616e604482015261636560f01b60648201526084016107d1565b612823828261303d565b6001600160a01b0384166000908152600260205260408120919091556004805484929061285190849061303d565b90915550506040518281526000906001600160a01b038516907fddf252ad1be2c89b69c2b068fc378daa952ba7f163c4a11628f55a4df523b3ef90602001611d6a565b606060006128a3836002612fdf565b6128ae906002612fa7565b67ffffffffffffffff8111156128d457634e487b7160e01b600052604160045260246000fd5b6040519080825280601f01601f1916602001820160405280156128fe576020820181803683370190505b509050600360fc1b8160008151811061292757634e487b7160e01b600052603260045260246000fd5b60200101906001600160f81b031916908160001a905350600f60fb1b8160018151811061296457634e487b7160e01b600052603260045260246000fd5b60200101906001600160f81b031916908160001a9053506000612988846002612fdf565b612993906001612fa7565b90505b6001811115612a27576f181899199a1a9b1b9c1cb0b131b232b360811b85600f16601081106129d557634e487b7160e01b600052603260045260246000fd5b1a60f81b8282815181106129f957634e487b7160e01b600052603260045260246000fd5b60200101906001600160f81b031916908160001a90535060049490941c93612a2081613080565b9050612996565b508315610af25760405162461bcd60e51b815260206004820181905260248201527f537472696e67733a20686578206c656e67746820696e73756666696369656e7460448201526064016107d1565b6001600160a01b038216612acc5760405162461bcd60e51b815260206004820152601f60248201527f45524332303a206d696e7420746f20746865207a65726f20616464726573730060448201526064016107d1565b8060046000828254612ade9190612fa7565b90915550506001600160a01b03821660009081526002602052604081208054839290612b0b908490612fa7565b90915550506040518181526001600160a01b038316906000907fddf252ad1be2c89b69c2b068fc378daa952ba7f163c4a11628f55a4df523b3ef9060200160405180910390a35050565b6060612b648484600085612b6c565b949350505050565b606082471015612bcd5760405162461bcd60e51b815260206004820152602660248201527f416464726573733a20696e73756666696369656e742062616c616e636520666f6044820152651c8818d85b1b60d21b60648201526084016107d1565b843b612c1b5760405162461bcd60e51b815260206004820152601d60248201527f416464726573733a2063616c6c20746f206e6f6e2d636f6e747261637400000060448201526064016107d1565b600080866001600160a01b03168587604051612c379190612e6d565b60006040518083038185875af1925050503d8060008114612c74576040519150601f19603f3d011682016040523d82523d6000602084013e612c79565b606091505b5091509150612c89828286612c94565b979650505050505050565b60608315612ca3575081610af2565b825115612cb35782518084602001fd5b8160405162461bcd60e51b81526004016107d19190612efe565b600060208284031215612cde578081fd5b8135610af2816130e8565b60008060408385031215612cfb578081fd5b8235612d06816130e8565b91506020830135612d16816130e8565b809150509250929050565b600080600060608486031215612d35578081fd5b8335612d40816130e8565b92506020840135612d50816130e8565b929592945050506040919091013590565b60008060408385031215612d73578182fd5b8235612d7e816130e8565b946020939093013593505050565b600060208284031215612d9d578081fd5b8135610af2816130fd565b600060208284031215612db9578081fd5b8151610af2816130fd565b600060208284031215612dd5578081fd5b5035919050565b60008060408385031215612dee578182fd5b823591506020830135612d16816130e8565b600060208284031215612e11578081fd5b81356001600160e01b031981168114610af2578182fd5b60008060408385031215612e3a578182fd5b8235612e45816130e8565b91506020830135612d16816130fd565b600060208284031215612e66578081fd5b5051919050565b60008251612e7f818460208701613054565b9190910192915050565b60007f416363657373436f6e74726f6c3a206163636f756e742000000000000000000082528351612ec1816017850160208801613054565b7001034b99036b4b9b9b4b733903937b6329607d1b6017918401918201528351612ef2816028840160208801613054565b01602801949350505050565b6000602082528251806020840152612f1d816040850160208701613054565b601f01601f19169190910160400192915050565b6020808252818101527f4f776e61626c653a2063616c6c6572206973206e6f7420746865206f776e6572604082015260600190565b600080821280156001600160ff1b0384900385131615612f8857612f886130d2565b600160ff1b8390038412811615612fa157612fa16130d2565b50500190565b60008219821115612fba57612fba6130d2565b500190565b600082612fda57634e487b7160e01b81526012600452602481fd5b500490565b6000816000190483118215151615612ff957612ff96130d2565b500290565b60008083128015600160ff1b85018412161561301c5761301c6130d2565b6001600160ff1b0384018313811615613037576130376130d2565b50500390565b60008282101561304f5761304f6130d2565b500390565b60005b8381101561306f578181015183820152602001613057565b838111156124575750506000910152565b60008161308f5761308f6130d2565b506000190190565b600181811c908216806130ab57607f821691505b602082108114156130cc57634e487b7160e01b600052602260045260246000fd5b50919050565b634e487b7160e01b600052601160045260246000fd5b6001600160a01b038116811461090d57600080fd5b801515811461090d57600080fdfea264697066735822122050608701ae106547e6ba1647e8cdc838e8cd6bc9cd9a960a482aba24a258588c64736f6c63430008030033",
  "devdoc": {
    "kind": "dev",
    "methods": {
      "allowance(address,address)": {
        "details": "See {IERC20-allowance}."
      },
      "approve(address,uint256)": {
        "details": "See {IERC20-approve}. Requirements: - `spender` cannot be the zero address."
      },
      "balanceOf(address)": {
        "details": "See {IERC20-balanceOf}."
      },
      "decimals()": {
        "details": "Returns the number of decimals used to get its user representation. For example, if `decimals` equals `2`, a balance of `505` tokens should be displayed to a user as `5,05` (`505 / 10 ** 2`). Tokens usually opt for a value of 18, imitating the relationship between Ether and Wei. This is the value {ERC20} uses, unless this function is overridden; NOTE: This information is only used for _display_ purposes: it in no way affects any of the arithmetic of the contract, including {IERC20-balanceOf} and {IERC20-transfer}."
      },
      "decreaseAllowance(address,uint256)": {
        "details": "Atomically decreases the allowance granted to `spender` by the caller. This is an alternative to {approve} that can be used as a mitigation for problems described in {IERC20-approve}. Emits an {Approval} event indicating the updated allowance. Requirements: - `spender` cannot be the zero address. - `spender` must have allowance for the caller of at least `subtractedValue`."
      },
      "getRoleAdmin(bytes32)": {
        "details": "Returns the admin role that controls `role`. See {grantRole} and {revokeRole}. To change a role's admin, use {_setRoleAdmin}."
      },
      "grantRole(bytes32,address)": {
        "details": "Grants `role` to `account`. If `account` had not been already granted `role`, emits a {RoleGranted} event. Requirements: - the caller must have ``role``'s admin role."
      },
      "hasRole(bytes32,address)": {
        "details": "Returns `true` if `account` has been granted `role`."
      },
      "increaseAllowance(address,uint256)": {
        "details": "Atomically increases the allowance granted to `spender` by the caller. This is an alternative to {approve} that can be used as a mitigation for problems described in {IERC20-approve}. Emits an {Approval} event indicating the updated allowance. Requirements: - `spender` cannot be the zero address."
      },
      "name()": {
        "details": "Returns the name of the token."
      },
      "owner()": {
        "details": "Returns the address of the current owner."
      },
      "paused()": {
        "details": "Returns true if the contract is paused, and false otherwise."
      },
      "renounceOwnership()": {
        "details": "Leaves the contract without owner. It will not be possible to call `onlyOwner` functions anymore. Can only be called by the current owner. NOTE: Renouncing ownership will leave the contract without an owner, thereby removing any functionality that is only available to the owner."
      },
      "renounceRole(bytes32,address)": {
        "details": "Revokes `role` from the calling account. Roles are often managed via {grantRole} and {revokeRole}: this function's purpose is to provide a mechanism for accounts to lose their privileges if they are compromised (such as when a trusted device is misplaced). If the calling account had been granted `role`, emits a {RoleRevoked} event. Requirements: - the caller must be `account`."
      },
      "revokeRole(bytes32,address)": {
        "details": "Revokes `role` from `account`. If `account` had been granted `role`, emits a {RoleRevoked} event. Requirements: - the caller must have ``role``'s admin role."
      },
      "supportsInterface(bytes4)": {
        "details": "See {IERC165-supportsInterface}."
      },
      "symbol()": {
        "details": "Returns the symbol of the token, usually a shorter version of the name."
      },
      "totalSupply()": {
        "details": "See {IERC20-totalSupply}."
      },
      "transfer(address,uint256)": {
        "details": "See {IERC20-transfer}. Requirements: - `recipient` cannot be the zero address. - the caller must have a balance of at least `amount`."
      },
      "transferFrom(address,address,uint256)": {
        "details": "See {IERC20-transferFrom}. Emits an {Approval} event indicating the updated allowance. This is not required by the EIP. See the note at the beginning of {ERC20}. Requirements: - `sender` and `recipient` cannot be the zero address. - `sender` must have a balance of at least `amount`. - the caller must have allowance for ``sender``'s tokens of at least `amount`."
      },
      "transferOwnership(address)": {
        "details": "Transfers ownership of the contract to a new account (`newOwner`). Can only be called by the current owner."
      }
    },
    "version": 1
  },
  "userdoc": {
    "kind": "user",
    "methods": {},
    "version": 1
  },
  "storageLayout": {
    "storage": [
      {
        "astId": 62,
        "contract": "contracts/Vault.sol:Vault",
        "label": "_roles",
        "offset": 0,
        "slot": "0",
        "type": "t_mapping(t_bytes32,t_struct(RoleData)57_storage)"
      },
      {
        "astId": 375,
        "contract": "contracts/Vault.sol:Vault",
        "label": "_owner",
        "offset": 0,
        "slot": "1",
        "type": "t_address"
      },
      {
        "astId": 495,
        "contract": "contracts/Vault.sol:Vault",
        "label": "_paused",
        "offset": 20,
        "slot": "1",
        "type": "t_bool"
      },
      {
        "astId": 585,
        "contract": "contracts/Vault.sol:Vault",
        "label": "_balances",
        "offset": 0,
        "slot": "2",
        "type": "t_mapping(t_address,t_uint256)"
      },
      {
        "astId": 591,
        "contract": "contracts/Vault.sol:Vault",
        "label": "_allowances",
        "offset": 0,
        "slot": "3",
        "type": "t_mapping(t_address,t_mapping(t_address,t_uint256))"
      },
      {
        "astId": 593,
        "contract": "contracts/Vault.sol:Vault",
        "label": "_totalSupply",
        "offset": 0,
        "slot": "4",
        "type": "t_uint256"
      },
      {
        "astId": 595,
        "contract": "contracts/Vault.sol:Vault",
        "label": "_name",
        "offset": 0,
        "slot": "5",
        "type": "t_string_storage"
      },
      {
        "astId": 597,
        "contract": "contracts/Vault.sol:Vault",
        "label": "_symbol",
        "offset": 0,
        "slot": "6",
        "type": "t_string_storage"
      },
      {
        "astId": 2381,
        "contract": "contracts/Vault.sol:Vault",
        "label": "magnifiedDividendPerShare",
        "offset": 0,
        "slot": "7",
        "type": "t_uint256"
      },
      {
        "astId": 2385,
        "contract": "contracts/Vault.sol:Vault",
        "label": "magnifiedDividendCorrections",
        "offset": 0,
        "slot": "8",
        "type": "t_mapping(t_address,t_int256)"
      },
      {
        "astId": 2389,
        "contract": "contracts/Vault.sol:Vault",
        "label": "withdrawnDividends",
        "offset": 0,
        "slot": "9",
        "type": "t_mapping(t_address,t_uint256)"
      },
      {
        "astId": 3159,
        "contract": "contracts/Vault.sol:Vault",
        "label": "harvester",
        "offset": 0,
        "slot": "10",
        "type": "t_contract(IHarvester)2706"
      },
      {
        "astId": 3161,
        "contract": "contracts/Vault.sol:Vault",
        "label": "timelock",
        "offset": 0,
        "slot": "11",
        "type": "t_address"
      },
      {
        "astId": 3164,
        "contract": "contracts/Vault.sol:Vault",
        "label": "strategy",
        "offset": 0,
        "slot": "12",
        "type": "t_contract(IStrategy)3898"
      },
      {
        "astId": 3171,
        "contract": "contracts/Vault.sol:Vault",
        "label": "barrier",
        "offset": 0,
        "slot": "13",
        "type": "t_uint256"
      },
      {
        "astId": 3174,
        "contract": "contracts/Vault.sol:Vault",
        "label": "withdrawalFee",
        "offset": 0,
        "slot": "14",
        "type": "t_uint256"
      },
      {
        "astId": 3176,
        "contract": "contracts/Vault.sol:Vault",
        "label": "depositLimit",
        "offset": 0,
        "slot": "15",
        "type": "t_uint256"
      },
      {
        "astId": 3179,
        "contract": "contracts/Vault.sol:Vault",
        "label": "lastDistributionAt",
        "offset": 0,
        "slot": "16",
        "type": "t_uint256"
      }
    ],
    "types": {
      "t_address": {
        "encoding": "inplace",
        "label": "address",
        "numberOfBytes": "20"
      },
      "t_bool": {
        "encoding": "inplace",
        "label": "bool",
        "numberOfBytes": "1"
      },
      "t_bytes32": {
        "encoding": "inplace",
        "label": "bytes32",
        "numberOfBytes": "32"
      },
      "t_contract(IHarvester)2706": {
        "encoding": "inplace",
        "label": "contract IHarvester",
        "numberOfBytes": "20"
      },
      "t_contract(IStrategy)3898": {
        "encoding": "inplace",
        "label": "contract IStrategy",
        "numberOfBytes": "20"
      },
      "t_int256": {
        "encoding": "inplace",
        "label": "int256",
        "numberOfBytes": "32"
      },
      "t_mapping(t_address,t_bool)": {
        "encoding": "mapping",
        "key": "t_address",
        "label": "mapping(address => bool)",
        "numberOfBytes": "32",
        "value": "t_bool"
      },
      "t_mapping(t_address,t_int256)": {
        "encoding": "mapping",
        "key": "t_address",
        "label": "mapping(address => int256)",
        "numberOfBytes": "32",
        "value": "t_int256"
      },
      "t_mapping(t_address,t_mapping(t_address,t_uint256))": {
        "encoding": "mapping",
        "key": "t_address",
        "label": "mapping(address => mapping(address => uint256))",
        "numberOfBytes": "32",
        "value": "t_mapping(t_address,t_uint256)"
      },
      "t_mapping(t_address,t_uint256)": {
        "encoding": "mapping",
        "key": "t_address",
        "label": "mapping(address => uint256)",
        "numberOfBytes": "32",
        "value": "t_uint256"
      },
      "t_mapping(t_bytes32,t_struct(RoleData)57_storage)": {
        "encoding": "mapping",
        "key": "t_bytes32",
        "label": "mapping(bytes32 => struct AccessControl.RoleData)",
        "numberOfBytes": "32",
        "value": "t_struct(RoleData)57_storage"
      },
      "t_string_storage": {
        "encoding": "bytes",
        "label": "string",
        "numberOfBytes": "32"
      },
      "t_struct(RoleData)57_storage": {
        "encoding": "inplace",
        "label": "struct AccessControl.RoleData",
        "members": [
          {
            "astId": 54,
            "contract": "contracts/Vault.sol:Vault",
            "label": "members",
            "offset": 0,
            "slot": "0",
            "type": "t_mapping(t_address,t_bool)"
          },
          {
            "astId": 56,
            "contract": "contracts/Vault.sol:Vault",
            "label": "adminRole",
            "offset": 0,
            "slot": "1",
            "type": "t_bytes32"
          }
        ],
        "numberOfBytes": "64"
      },
      "t_uint256": {
        "encoding": "inplace",
        "label": "uint256",
        "numberOfBytes": "32"
      }
    }
  }
}