{
  "address": "0xD2eBC790747De2A170bAF7DD091050a7c6711447",
  "abi": [
    {
      "inputs": [
        {
          "internalType": "contract IERC20Metadata",
          "name": "_underlying",
          "type": "address"
        },
        {
          "internalType": "contract IHarvester",
          "name": "_harvester",
          "type": "address"
        },
        {
          "internalType": "address",
          "name": "_timelock",
          "type": "address"
        }
      ],
      "stateMutability": "nonpayable",
      "type": "constructor"
    },
    {
      "anonymous": false,
      "inputs": [
        {
          "indexed": true,
          "internalType": "address",
          "name": "owner",
          "type": "address"
        },
        {
          "indexed": true,
          "internalType": "address",
          "name": "spender",
          "type": "address"
        },
        {
          "indexed": false,
          "internalType": "uint256",
          "name": "value",
          "type": "uint256"
        }
      ],
      "name": "Approval",
      "type": "event"
    },
    {
      "anonymous": false,
      "inputs": [
        {
          "indexed": true,
          "internalType": "address",
          "name": "account",
          "type": "address"
        },
        {
          "indexed": false,
          "internalType": "uint256",
          "name": "amount",
          "type": "uint256"
        }
      ],
      "name": "DividendWithdrawn",
      "type": "event"
    },
    {
      "anonymous": false,
      "inputs": [
        {
          "indexed": true,
          "internalType": "address",
          "name": "account",
          "type": "address"
        },
        {
          "indexed": false,
          "internalType": "uint256",
          "name": "amount",
          "type": "uint256"
        }
      ],
      "name": "DividendsDistributed",
      "type": "event"
    },
    {
      "anonymous": false,
      "inputs": [
        {
          "indexed": true,
          "internalType": "address",
          "name": "previousOwner",
          "type": "address"
        },
        {
          "indexed": true,
          "internalType": "address",
          "name": "newOwner",
          "type": "address"
        }
      ],
      "name": "OwnershipTransferred",
      "type": "event"
    },
    {
      "anonymous": false,
      "inputs": [
        {
          "indexed": false,
          "internalType": "address",
          "name": "account",
          "type": "address"
        }
      ],
      "name": "Paused",
      "type": "event"
    },
    {
      "anonymous": false,
      "inputs": [
        {
          "indexed": true,
          "internalType": "bytes32",
          "name": "role",
          "type": "bytes32"
        },
        {
          "indexed": true,
          "internalType": "bytes32",
          "name": "previousAdminRole",
          "type": "bytes32"
        },
        {
          "indexed": true,
          "internalType": "bytes32",
          "name": "newAdminRole",
          "type": "bytes32"
        }
      ],
      "name": "RoleAdminChanged",
      "type": "event"
    },
    {
      "anonymous": false,
      "inputs": [
        {
          "indexed": true,
          "internalType": "bytes32",
          "name": "role",
          "type": "bytes32"
        },
        {
          "indexed": true,
          "internalType": "address",
          "name": "account",
          "type": "address"
        },
        {
          "indexed": true,
          "internalType": "address",
          "name": "sender",
          "type": "address"
        }
      ],
      "name": "RoleGranted",
      "type": "event"
    },
    {
      "anonymous": false,
      "inputs": [
        {
          "indexed": true,
          "internalType": "bytes32",
          "name": "role",
          "type": "bytes32"
        },
        {
          "indexed": true,
          "internalType": "address",
          "name": "account",
          "type": "address"
        },
        {
          "indexed": true,
          "internalType": "address",
          "name": "sender",
          "type": "address"
        }
      ],
      "name": "RoleRevoked",
      "type": "event"
    },
    {
      "anonymous": false,
      "inputs": [
        {
          "indexed": true,
          "internalType": "address",
          "name": "from",
          "type": "address"
        },
        {
          "indexed": true,
          "internalType": "address",
          "name": "to",
          "type": "address"
        },
        {
          "indexed": false,
          "internalType": "uint256",
          "name": "value",
          "type": "uint256"
        }
      ],
      "name": "Transfer",
      "type": "event"
    },
    {
      "anonymous": false,
      "inputs": [
        {
          "indexed": false,
          "internalType": "address",
          "name": "account",
          "type": "address"
        }
      ],
      "name": "Unpaused",
      "type": "event"
    },
    {
      "inputs": [],
      "name": "DEFAULT_ADMIN_ROLE",
      "outputs": [
        {
          "internalType": "bytes32",
          "name": "",
          "type": "bytes32"
        }
      ],
      "stateMutability": "view",
      "type": "function"
    },
    {
      "inputs": [],
      "name": "EARNER_ROLE",
      "outputs": [
        {
          "internalType": "bytes32",
          "name": "",
          "type": "bytes32"
        }
      ],
      "stateMutability": "view",
      "type": "function"
    },
    {
      "inputs": [
        {
          "internalType": "address",
          "name": "account",
          "type": "address"
        }
      ],
      "name": "accumulativeDividendOf",
      "outputs": [
        {
          "internalType": "uint256",
          "name": "",
          "type": "uint256"
        }
      ],
      "stateMutability": "view",
      "type": "function"
    },
    {
      "inputs": [
        {
          "internalType": "address",
          "name": "owner",
          "type": "address"
        },
        {
          "internalType": "address",
          "name": "spender",
          "type": "address"
        }
      ],
      "name": "allowance",
      "outputs": [
        {
          "internalType": "uint256",
          "name": "",
          "type": "uint256"
        }
      ],
      "stateMutability": "view",
      "type": "function"
    },
    {
      "inputs": [
        {
          "internalType": "address",
          "name": "spender",
          "type": "address"
        },
        {
          "internalType": "uint256",
          "name": "amount",
          "type": "uint256"
        }
      ],
      "name": "approve",
      "outputs": [
        {
          "internalType": "bool",
          "name": "",
          "type": "bool"
        }
      ],
      "stateMutability": "nonpayable",
      "type": "function"
    },
    {
      "inputs": [
        {
          "internalType": "address",
          "name": "account",
          "type": "address"
        }
      ],
      "name": "balanceOf",
      "outputs": [
        {
          "internalType": "uint256",
          "name": "",
          "type": "uint256"
        }
      ],
      "stateMutability": "view",
      "type": "function"
    },
    {
      "inputs": [],
      "name": "barrier",
      "outputs": [
        {
          "internalType": "uint256",
          "name": "",
          "type": "uint256"
        }
      ],
      "stateMutability": "view",
      "type": "function"
    },
    {
      "inputs": [],
      "name": "calcTotalValue",
      "outputs": [
        {
          "internalType": "uint256",
          "name": "",
          "type": "uint256"
        }
      ],
      "stateMutability": "nonpayable",
      "type": "function"
    },
    {
      "inputs": [],
      "name": "claim",
      "outputs": [],
      "stateMutability": "nonpayable",
      "type": "function"
    },
    {
      "inputs": [
        {
          "internalType": "address",
          "name": "account",
          "type": "address"
        }
      ],
      "name": "claimOnBehalf",
      "outputs": [],
      "stateMutability": "nonpayable",
      "type": "function"
    },
    {
      "inputs": [],
      "name": "decimals",
      "outputs": [
        {
          "internalType": "uint8",
          "name": "",
          "type": "uint8"
        }
      ],
      "stateMutability": "view",
      "type": "function"
    },
    {
      "inputs": [
        {
          "internalType": "address",
          "name": "spender",
          "type": "address"
        },
        {
          "internalType": "uint256",
          "name": "subtractedValue",
          "type": "uint256"
        }
      ],
      "name": "decreaseAllowance",
      "outputs": [
        {
          "internalType": "bool",
          "name": "",
          "type": "bool"
        }
      ],
      "stateMutability": "nonpayable",
      "type": "function"
    },
    {
      "inputs": [
        {
          "internalType": "uint256",
          "name": "amount",
          "type": "uint256"
        }
      ],
      "name": "deposit",
      "outputs": [],
      "stateMutability": "nonpayable",
      "type": "function"
    },
    {
      "inputs": [],
      "name": "depositLimit",
      "outputs": [
        {
          "internalType": "uint256",
          "name": "",
          "type": "uint256"
        }
      ],
      "stateMutability": "view",
      "type": "function"
    },
    {
      "inputs": [
        {
          "internalType": "uint256",
          "name": "amount",
          "type": "uint256"
        }
      ],
      "name": "distributeDividends",
      "outputs": [],
      "stateMutability": "nonpayable",
      "type": "function"
    },
    {
      "inputs": [],
      "name": "earn",
      "outputs": [],
      "stateMutability": "nonpayable",
      "type": "function"
    },
    {
      "inputs": [
        {
          "internalType": "bytes32",
          "name": "role",
          "type": "bytes32"
        }
      ],
      "name": "getRoleAdmin",
      "outputs": [
        {
          "internalType": "bytes32",
          "name": "",
          "type": "bytes32"
        }
      ],
      "stateMutability": "view",
      "type": "function"
    },
    {
      "inputs": [
        {
          "internalType": "bytes32",
          "name": "role",
          "type": "bytes32"
        },
        {
          "internalType": "address",
          "name": "account",
          "type": "address"
        }
      ],
      "name": "grantRole",
      "outputs": [],
      "stateMutability": "nonpayable",
      "type": "function"
    },
    {
      "inputs": [
        {
          "internalType": "uint256",
          "name": "amount",
          "type": "uint256"
        }
      ],
      "name": "harvest",
      "outputs": [],
      "stateMutability": "nonpayable",
      "type": "function"
    },
    {
      "inputs": [],
      "name": "harvester",
      "outputs": [
        {
          "internalType": "contract IHarvester",
          "name": "",
          "type": "address"
        }
      ],
      "stateMutability": "view",
      "type": "function"
    },
    {
      "inputs": [
        {
          "internalType": "bytes32",
          "name": "role",
          "type": "bytes32"
        },
        {
          "internalType": "address",
          "name": "account",
          "type": "address"
        }
      ],
      "name": "hasRole",
      "outputs": [
        {
          "internalType": "bool",
          "name": "",
          "type": "bool"
        }
      ],
      "stateMutability": "view",
      "type": "function"
    },
    {
      "inputs": [
        {
          "internalType": "address",
          "name": "spender",
          "type": "address"
        },
        {
          "internalType": "uint256",
          "name": "addedValue",
          "type": "uint256"
        }
      ],
      "name": "increaseAllowance",
      "outputs": [
        {
          "internalType": "bool",
          "name": "",
          "type": "bool"
        }
      ],
      "stateMutability": "nonpayable",
      "type": "function"
    },
    {
      "inputs": [],
      "name": "lastDistributionAt",
      "outputs": [
        {
          "internalType": "uint256",
          "name": "",
          "type": "uint256"
        }
      ],
      "stateMutability": "view",
      "type": "function"
    },
    {
      "inputs": [],
      "name": "name",
      "outputs": [
        {
          "internalType": "string",
          "name": "",
          "type": "string"
        }
      ],
      "stateMutability": "view",
      "type": "function"
    },
    {
      "inputs": [],
      "name": "owner",
      "outputs": [
        {
          "internalType": "address",
          "name": "",
          "type": "address"
        }
      ],
      "stateMutability": "view",
      "type": "function"
    },
    {
      "inputs": [
        {
          "internalType": "bool",
          "name": "pause",
          "type": "bool"
        }
      ],
      "name": "pauseDeposits",
      "outputs": [],
      "stateMutability": "nonpayable",
      "type": "function"
    },
    {
      "inputs": [],
      "name": "paused",
      "outputs": [
        {
          "internalType": "bool",
          "name": "",
          "type": "bool"
        }
      ],
      "stateMutability": "view",
      "type": "function"
    },
    {
      "inputs": [],
      "name": "renounceOwnership",
      "outputs": [],
      "stateMutability": "nonpayable",
      "type": "function"
    },
    {
      "inputs": [
        {
          "internalType": "bytes32",
          "name": "role",
          "type": "bytes32"
        },
        {
          "internalType": "address",
          "name": "account",
          "type": "address"
        }
      ],
      "name": "renounceRole",
      "outputs": [],
      "stateMutability": "nonpayable",
      "type": "function"
    },
    {
      "inputs": [
        {
          "internalType": "bytes32",
          "name": "role",
          "type": "bytes32"
        },
        {
          "internalType": "address",
          "name": "account",
          "type": "address"
        }
      ],
      "name": "revokeRole",
      "outputs": [],
      "stateMutability": "nonpayable",
      "type": "function"
    },
    {
      "inputs": [
        {
          "internalType": "uint256",
          "name": "_barrier",
          "type": "uint256"
        }
      ],
      "name": "setBarrier",
      "outputs": [],
      "stateMutability": "nonpayable",
      "type": "function"
    },
    {
      "inputs": [
        {
          "internalType": "uint256",
          "name": "_depositLimit",
          "type": "uint256"
        }
      ],
      "name": "setDepositLimit",
      "outputs": [],
      "stateMutability": "nonpayable",
      "type": "function"
    },
    {
      "inputs": [
        {
          "internalType": "contract IHarvester",
          "name": "_harvester",
          "type": "address"
        }
      ],
      "name": "setHarvester",
      "outputs": [],
      "stateMutability": "nonpayable",
      "type": "function"
    },
    {
      "inputs": [
        {
          "internalType": "contract IStrategy",
          "name": "_strategy",
          "type": "address"
        },
        {
          "internalType": "bool",
          "name": "force",
          "type": "bool"
        }
      ],
      "name": "setStrategy",
      "outputs": [],
      "stateMutability": "nonpayable",
      "type": "function"
    },
    {
      "inputs": [
        {
          "internalType": "uint256",
          "name": "_withdrawalFee",
          "type": "uint256"
        }
      ],
      "name": "setWithdrawalFee",
      "outputs": [],
      "stateMutability": "nonpayable",
      "type": "function"
    },
    {
      "inputs": [],
      "name": "strategy",
      "outputs": [
        {
          "internalType": "contract IStrategy",
          "name": "",
          "type": "address"
        }
      ],
      "stateMutability": "view",
      "type": "function"
    },
    {
      "inputs": [
        {
          "internalType": "bytes4",
          "name": "interfaceId",
          "type": "bytes4"
        }
      ],
      "name": "supportsInterface",
      "outputs": [
        {
          "internalType": "bool",
          "name": "",
          "type": "bool"
        }
      ],
      "stateMutability": "view",
      "type": "function"
    },
    {
      "inputs": [
        {
          "internalType": "contract IERC20Metadata",
          "name": "token",
          "type": "address"
        }
      ],
      "name": "sweep",
      "outputs": [],
      "stateMutability": "nonpayable",
      "type": "function"
    },
    {
      "inputs": [],
      "name": "symbol",
      "outputs": [
        {
          "internalType": "string",
          "name": "",
          "type": "string"
        }
      ],
      "stateMutability": "view",
      "type": "function"
    },
    {
      "inputs": [],
      "name": "target",
      "outputs": [
        {
          "internalType": "contract IERC20Metadata",
          "name": "",
          "type": "address"
        }
      ],
      "stateMutability": "view",
      "type": "function"
    },
    {
      "inputs": [],
      "name": "targetToken",
      "outputs": [
        {
          "internalType": "contract IERC20Metadata",
          "name": "",
          "type": "address"
        }
      ],
      "stateMutability": "view",
      "type": "function"
    },
    {
      "inputs": [],
      "name": "timelock",
      "outputs": [
        {
          "internalType": "address",
          "name": "",
          "type": "address"
        }
      ],
      "stateMutability": "view",
      "type": "function"
    },
    {
      "inputs": [],
      "name": "totalSupply",
      "outputs": [
        {
          "internalType": "uint256",
          "name": "",
          "type": "uint256"
        }
      ],
      "stateMutability": "view",
      "type": "function"
    },
    {
      "inputs": [
        {
          "internalType": "address",
          "name": "recipient",
          "type": "address"
        },
        {
          "internalType": "uint256",
          "name": "amount",
          "type": "uint256"
        }
      ],
      "name": "transfer",
      "outputs": [
        {
          "internalType": "bool",
          "name": "",
          "type": "bool"
        }
      ],
      "stateMutability": "nonpayable",
      "type": "function"
    },
    {
      "inputs": [
        {
          "internalType": "address",
          "name": "sender",
          "type": "address"
        },
        {
          "internalType": "address",
          "name": "recipient",
          "type": "address"
        },
        {
          "internalType": "uint256",
          "name": "amount",
          "type": "uint256"
        }
      ],
      "name": "transferFrom",
      "outputs": [
        {
          "internalType": "bool",
          "name": "",
          "type": "bool"
        }
      ],
      "stateMutability": "nonpayable",
      "type": "function"
    },
    {
      "inputs": [
        {
          "internalType": "address",
          "name": "newOwner",
          "type": "address"
        }
      ],
      "name": "transferOwnership",
      "outputs": [],
      "stateMutability": "nonpayable",
      "type": "function"
    },
    {
      "inputs": [
        {
          "internalType": "address",
          "name": "account",
          "type": "address"
        }
      ],
      "name": "unclaimedProfit",
      "outputs": [
        {
          "internalType": "uint256",
          "name": "",
          "type": "uint256"
        }
      ],
      "stateMutability": "view",
      "type": "function"
    },
    {
      "inputs": [],
      "name": "underlying",
      "outputs": [
        {
          "internalType": "contract IERC20Metadata",
          "name": "",
          "type": "address"
        }
      ],
      "stateMutability": "view",
      "type": "function"
    },
    {
      "inputs": [],
      "name": "underlyingYield",
      "outputs": [
        {
          "internalType": "uint256",
          "name": "",
          "type": "uint256"
        }
      ],
      "stateMutability": "nonpayable",
      "type": "function"
    },
    {
      "inputs": [
        {
          "internalType": "uint256",
          "name": "amount",
          "type": "uint256"
        }
      ],
      "name": "withdraw",
      "outputs": [],
      "stateMutability": "nonpayable",
      "type": "function"
    },
    {
      "inputs": [
        {
          "internalType": "address",
          "name": "account",
          "type": "address"
        }
      ],
      "name": "withdrawableDividendOf",
      "outputs": [
        {
          "internalType": "uint256",
          "name": "",
          "type": "uint256"
        }
      ],
      "stateMutability": "view",
      "type": "function"
    },
    {
      "inputs": [],
      "name": "withdrawalFee",
      "outputs": [
        {
          "internalType": "uint256",
          "name": "",
          "type": "uint256"
        }
      ],
      "stateMutability": "view",
      "type": "function"
    },
    {
      "inputs": [
        {
          "internalType": "address",
          "name": "account",
          "type": "address"
        }
      ],
      "name": "withdrawnDividendOf",
      "outputs": [
        {
          "internalType": "uint256",
          "name": "",
          "type": "uint256"
        }
      ],
      "stateMutability": "view",
      "type": "function"
    }
  ],
  "transactionHash": "0x8d73e3ea94a5b5f3a0540f606664b42d0942981511fbad4a41085c9cc6f40916",
  "args": [
    "0xA11c8D9DC9b66E209Ef60F0C8D969D3CD988782c",
    "0x8e33D3a2A160Ba993649E7c7Bc48D2A4985729C2",
    "0x7C4e688f82B00351ef21a61382361E77c68A3BEd"
  ],
  "solcInputHash": "4cf7c2e8c4ff938c1888a007784c021a",
  "bytecode": "0x60e06040526103e8600d556001600e553480156200001c57600080fd5b5060405162003c7d38038062003c7d8339810160408190526200003f91620006f3565b82838383836001600160a01b03166395d89b416040518163ffffffff1660e01b815260040160006040518083038186803b1580156200007d57600080fd5b505afa15801562000092573d6000803e3d6000fd5b505050506040513d6000823e601f3d908101601f19168201604052620000bc919081019062000746565b836001600160a01b03166395d89b416040518163ffffffff1660e01b815260040160006040518083038186803b158015620000f657600080fd5b505afa1580156200010b573d6000803e3d6000fd5b505050506040513d6000823e601f3d908101601f1916820160405262000135919081019062000746565b6040516020016200014892919062000824565b604051602081830303815290604052846001600160a01b03166395d89b416040518163ffffffff1660e01b815260040160006040518083038186803b1580156200019157600080fd5b505afa158015620001a6573d6000803e3d6000fd5b505050506040513d6000823e601f3d908101601f19168201604052620001d0919081019062000746565b846001600160a01b03166395d89b416040518163ffffffff1660e01b815260040160006040518083038186803b1580156200020a57600080fd5b505afa1580156200021f573d6000803e3d6000fd5b505050506040513d6000823e601f3d908101601f1916820160405262000249919081019062000746565b6040516020016200025c92919062000894565b60408051601f1981840301815290829052600180546001600160a01b0319163390811790915590918691849184919081906000907f8be0079c531659141344cd1fd0a4f28419497f9722a3daafe3b4186f6b6457e0908290a3506001805460ff60a01b191690558151620002d89060059060208501906200064d565b508051620002ee9060069060208401906200064d565b50505060601b6001600160601b031916608052506200031890506000620003123390565b620004d8565b620003447faf5cd33eb1dcf39cc29f1cbee3b3dc4dd5921cf8f497f81b237cdb211029a25833620004d8565b836001600160a01b031660a0816001600160a01b031660601b81525050836001600160a01b031663313ce5676040518163ffffffff1660e01b815260040160206040518083038186803b1580156200039b57600080fd5b505afa158015620003b0573d6000803e3d6000fd5b505050506040513d601f19601f82011682018060405250810190620003d69190620007fa565b60f81b7fff000000000000000000000000000000000000000000000000000000000000001660c052600a80546001600160a01b03199081166001600160a01b0385811691909117909255600b80549091168383161790556040805163313ce56760e01b815290519186169163313ce56791600480820192602092909190829003018186803b1580156200046857600080fd5b505afa1580156200047d573d6000803e3d6000fd5b505050506040513d601f19601f82011682018060405250810190620004a39190620007fa565b620004b090600a6200092c565b620004be90614e20620009eb565b600f55620004cb620004e8565b5050505050505062000ac2565b620004e482826200059a565b5050565b620004fc600154600160a01b900460ff1690565b15620005415760405162461bcd60e51b815260206004820152601060248201526f14185d5cd8589b194e881c185d5cd95960821b604482015260640160405180910390fd5b6001805460ff60a01b1916600160a01b1790557f62e78cea01bee320cd4e420270b5ea74000d11b0c9f74754ebdbfc544b05a2586200057d3390565b6040516001600160a01b03909116815260200160405180910390a1565b620005a6828262000622565b620004e4576000828152602081815260408083206001600160a01b03851684529091529020805460ff19166001179055620005de3390565b6001600160a01b0316816001600160a01b0316837f2f8788117e7eff1d82e926ec794901d17c78024a50270940304540a733656f0d60405160405180910390a45050565b6000828152602081815260408083206001600160a01b038516845290915290205460ff165b92915050565b8280546200065b9062000a40565b90600052602060002090601f0160209004810192826200067f5760008555620006ca565b82601f106200069a57805160ff1916838001178555620006ca565b82800160010185558215620006ca579182015b82811115620006ca578251825591602001919060010190620006ad565b50620006d8929150620006dc565b5090565b5b80821115620006d85760008155600101620006dd565b60008060006060848603121562000708578283fd5b8351620007158162000aa9565b6020850151909350620007288162000aa9565b60408501519092506200073b8162000aa9565b809150509250925092565b60006020828403121562000758578081fd5b81516001600160401b03808211156200076f578283fd5b818401915084601f83011262000783578283fd5b81518181111562000798576200079862000a93565b604051601f8201601f19908116603f01168101908382118183101715620007c357620007c362000a93565b81604052828152876020848701011115620007dc578586fd5b620007ef83602083016020880162000a0d565b979650505050505050565b6000602082840312156200080c578081fd5b815160ff811681146200081d578182fd5b9392505050565b6702324a922a220a7960c51b8152600083516200084981600885016020880162000a0d565b630103a37960e51b60089184019182015283516200086f81600c84016020880162000a0d565b6b102cb4b2b632102a37b5b2b760a11b600c9290910191820152601801949350505050565b61666960f01b815260008351620008b381600285016020880162000a0d565b61169f60f11b6002918401918201528351620008d781600484016020880162000a0d565b01600401949350505050565b600181815b808511156200092457816000190482111562000908576200090862000a7d565b808516156200091657918102915b93841c9390800290620008e8565b509250929050565b60006200081d60ff841683600082620009485750600162000647565b81620009575750600062000647565b81600181146200097057600281146200097b576200099b565b600191505062000647565b60ff8411156200098f576200098f62000a7d565b50506001821b62000647565b5060208310610133831016604e8410600b8410161715620009c0575081810a62000647565b620009cc8383620008e3565b8060001904821115620009e357620009e362000a7d565b029392505050565b600081600019048311821515161562000a085762000a0862000a7d565b500290565b60005b8381101562000a2a57818101518382015260200162000a10565b8381111562000a3a576000848401525b50505050565b600181811c9082168062000a5557607f821691505b6020821081141562000a7757634e487b7160e01b600052602260045260246000fd5b50919050565b634e487b7160e01b600052601160045260246000fd5b634e487b7160e01b600052604160045260246000fd5b6001600160a01b038116811462000abf57600080fd5b50565b60805160601c60a05160601c60c05160f81c61312e62000b4f600039600061044c01526000818161054e01528181610b7701528181610ca60152818161105e0152818161134e015281816114fc0152818161181f015281816118de0152611ad301526000818161048e01528181610707015281816107db015281816120f90152612275015261312e6000f3fe608060405234801561001057600080fd5b50600436106103275760003560e01c8063715018a6116101b8578063a9059cbb11610104578063d389800f116100a2578063dd62ed3e1161007c578063dd62ed3e1461073e578063ddc6326214610777578063ecf708581461078a578063f2fde38b1461079357600080fd5b8063d389800f146106fd578063d4b8399214610705578063d547741f1461072b57600080fd5b8063b6b55f25116100de578063b6b55f25146106b1578063baa82a34146106c4578063bdc8144b146106d7578063d33219b4146106ea57600080fd5b8063a9059cbb14610662578063aafd847a14610675578063ac1e50251461069e57600080fd5b806395d89b4111610171578063a217fddf1161014b578063a217fddf14610621578063a457c2d714610629578063a8b9d2401461063c578063a8c62e761461064f57600080fd5b806395d89b41146105ea578063993e6339146105f2578063a00251c61461061957600080fd5b8063715018a614610599578063738b62e5146105a15780638bc7e8c4146105b45780638da5cb5b146105bd57806390355087146105ce57806391d14854146105d757600080fd5b8063313ce5671161027757806344bd5dcb116102305780635c975abb1161020a5780635c975abb146105245780636466f45e146105365780636f307dc31461054957806370a082311461057057600080fd5b806344bd5dcb146104f65780634bdaeac1146105095780634e71d92d1461051c57600080fd5b8063313ce567146104455780633243c79114610476578063327107f71461048957806336568abe146104c857806339509351146104db5780633d8bb517146104ee57600080fd5b806315de1daa116102e4578063248a9ca3116102be578063248a9ca3146103e957806327ce01471461040c5780632e1a7d4d1461041f5780632f2ff15d1461043257600080fd5b806315de1daa146103bb57806318160ddd146103ce57806323b872dd146103d657600080fd5b806301681a621461032c57806301ffc9a71461034157806306fdde0314610369578063095ea7b31461037e5780630b3c57d81461039157806312b6e8ff146103b2575b600080fd5b61033f61033a366004612cba565b6107a6565b005b61035461034f366004612ded565b61090f565b60405190151581526020015b60405180910390f35b610371610946565b6040516103609190612eeb565b61035461038c366004612d4e565b6109d8565b6103a461039f366004612cba565b6109ee565b604051908152602001610360565b6103a4600d5481565b61033f6103c9366004612cba565b6109f9565b6004546103a4565b6103546103e4366004612d0e565b610a45565b6103a46103f7366004612db1565b60009081526020819052604090206001015490565b6103a461041a366004612cba565b610af8565b61033f61042d366004612db1565b610b55565b61033f610440366004612dc9565b610cd2565b60405160ff7f0000000000000000000000000000000000000000000000000000000000000000168152602001610360565b61033f610484366004612db1565b610cf8565b6104b07f000000000000000000000000000000000000000000000000000000000000000081565b6040516001600160a01b039091168152602001610360565b61033f6104d6366004612dc9565b610d6b565b6103546104e9366004612d4e565b610de9565b6103a4610e20565b61033f610504366004612db1565b610e42565b600a546104b0906001600160a01b031681565b61033f610ec2565b600154600160a01b900460ff16610354565b61033f610544366004612cba565b610ecd565b6104b07f000000000000000000000000000000000000000000000000000000000000000081565b6103a461057e366004612cba565b6001600160a01b031660009081526002602052604090205490565b61033f610f5a565b61033f6105af366004612d79565b610fce565b6103a4600e5481565b6001546001600160a01b03166104b0565b6103a460105481565b6103546105e5366004612dc9565b61100e565b610371611037565b6103a47faf5cd33eb1dcf39cc29f1cbee3b3dc4dd5921cf8f497f81b237cdb211029a25881565b6103a4611046565b6103a4600081565b610354610637366004612d4e565b611172565b6103a461064a366004612cba565b61120d565b600c546104b0906001600160a01b031681565b610354610670366004612d4e565b611239565b6103a4610683366004612cba565b6001600160a01b031660009081526009602052604090205490565b61033f6106ac366004612db1565b611246565b61033f6106bf366004612db1565b6112c6565b61033f6106d2366004612e15565b611388565b61033f6106e5366004612db1565b611769565b600b546104b0906001600160a01b031681565b61033f611798565b7f00000000000000000000000000000000000000000000000000000000000000006104b0565b61033f610739366004612dc9565b611973565b6103a461074c366004612cd6565b6001600160a01b03918216600090815260036020908152604080832093909416825291909152205490565b61033f610785366004612db1565b611999565b6103a4600f5481565b61033f6107a1366004612cba565b611afd565b6001546001600160a01b031633146107d95760405162461bcd60e51b81526004016107d090612f1e565b60405180910390fd5b7f00000000000000000000000000000000000000000000000000000000000000006001600160a01b0316816001600160a01b0316141561086f5760405162461bcd60e51b815260206004820152602b60248201527f5661756c743a207377656570696e67206f662074617267657420746f6b656e2060448201526a1b9bdd08185b1b1bddd95960aa1b60648201526084016107d0565b61090c6108846001546001600160a01b031690565b6040516370a0823160e01b81523060048201526001600160a01b038416906370a082319060240160206040518083038186803b1580156108c357600080fd5b505afa1580156108d7573d6000803e3d6000fd5b505050506040513d601f19601f820116820180604052508101906108fb9190612e42565b6001600160a01b0384169190611be8565b50565b60006001600160e01b03198216637965db0b60e01b148061094057506301ffc9a760e01b6001600160e01b03198316145b92915050565b60606005805461095590613084565b80601f016020809104026020016040519081016040528092919081815260200182805461098190613084565b80156109ce5780601f106109a3576101008083540402835291602001916109ce565b820191906000526020600020905b8154815290600101906020018083116109b157829003601f168201915b5050505050905090565b60006109e5338484611c4b565b50600192915050565b60006109408261120d565b6001546001600160a01b03163314610a235760405162461bcd60e51b81526004016107d090612f1e565b600a80546001600160a01b0319166001600160a01b0392909216919091179055565b6000610a52848484611d70565b6001600160a01b038416600090815260036020908152604080832033845290915290205482811015610ad75760405162461bcd60e51b815260206004820152602860248201527f45524332303a207472616e7366657220616d6f756e74206578636565647320616044820152676c6c6f77616e636560c01b60648201526084016107d0565b610aeb8533610ae6868561302a565b611c4b565b60019150505b9392505050565b6001600160a01b0381166000908152600860209081526040808320546002909252822054600160801b91610b4b91610b3c90600754610b379190612fcc565b611e07565b610b469190612f53565b611e71565b6109409190612fac565b610b5f3382611ec3565b6040516370a0823160e01b81523060048201526000907f00000000000000000000000000000000000000000000000000000000000000006001600160a01b0316906370a082319060240160206040518083038186803b158015610bc157600080fd5b505afa158015610bd5573d6000803e3d6000fd5b505050506040513d601f19601f82011682018060405250810190610bf99190612e42565b905080821115610c6f57600c546001600160a01b0316638ca17995610c1e838561302a565b6040518263ffffffff1660e01b8152600401610c3c91815260200190565b600060405180830381600087803b158015610c5657600080fd5b505af1158015610c6a573d6000803e3d6000fd5b505050505b6000612710600e5484610c829190612fcc565b610c8c9190612fac565b9050610ccd33610c9c838661302a565b6001600160a01b037f0000000000000000000000000000000000000000000000000000000000000000169190611be8565b505050565b600082815260208190526040902060010154610cee8133611f21565b610ccd8383611f85565b600a546001600160a01b0316336001600160a01b031614610d5b5760405162461bcd60e51b815260206004820152601d60248201527f5661756c743a206f6e6c792068617276657374657220616c6c6f77656400000060448201526064016107d0565b610d6481612009565b5042601055565b6001600160a01b0381163314610ddb5760405162461bcd60e51b815260206004820152602f60248201527f416363657373436f6e74726f6c3a2063616e206f6e6c792072656e6f756e636560448201526e103937b632b9903337b91039b2b63360891b60648201526084016107d0565b610de58282612161565b5050565b3360008181526003602090815260408083206001600160a01b038716845290915281205490916109e5918590610ae6908690612f94565b6000610e2b60045490565b610e33611046565b610e3d919061302a565b905090565b6001546001600160a01b03163314610e6c5760405162461bcd60e51b81526004016107d090612f1e565b6127108110610ebd5760405162461bcd60e51b815260206004820152601760248201527f5661756c743a206261727269657220746f6f206869676800000000000000000060448201526064016107d0565b600d55565b610ecb336121c6565b565b600a546001600160a01b0316336001600160a01b03161480610ef957506001546001600160a01b031633145b610f515760405162461bcd60e51b8152602060048201526024808201527f5661756c743a206f6e6c7920686172766573746572206f7220676f7620616c6c6044820152631bddd95960e21b60648201526084016107d0565b61090c816121c6565b6001546001600160a01b03163314610f845760405162461bcd60e51b81526004016107d090612f1e565b6001546040516000916001600160a01b0316907f8be0079c531659141344cd1fd0a4f28419497f9722a3daafe3b4186f6b6457e0908390a3600180546001600160a01b0319169055565b6001546001600160a01b03163314610ff85760405162461bcd60e51b81526004016107d090612f1e565b80156110065761090c6122e3565b61090c612388565b6000918252602082815260408084206001600160a01b0393909316845291905290205460ff1690565b60606006805461095590613084565b6040516370a0823160e01b81523060048201526000907f00000000000000000000000000000000000000000000000000000000000000006001600160a01b0316906370a082319060240160206040518083038186803b1580156110a857600080fd5b505afa1580156110bc573d6000803e3d6000fd5b505050506040513d601f19601f820116820180604052508101906110e09190612e42565b600c60009054906101000a90046001600160a01b03166001600160a01b031663a00251c66040518163ffffffff1660e01b8152600401602060405180830381600087803b15801561113057600080fd5b505af1158015611144573d6000803e3d6000fd5b505050506040513d601f19601f820116820180604052508101906111689190612e42565b610e3d9190612f94565b3360009081526003602090815260408083206001600160a01b0386168452909152812054828110156111f45760405162461bcd60e51b815260206004820152602560248201527f45524332303a2064656372656173656420616c6c6f77616e63652062656c6f77604482015264207a65726f60d81b60648201526084016107d0565b6112033385610ae6868561302a565b5060019392505050565b6001600160a01b03811660009081526009602052604081205461122f83610af8565b610940919061302a565b60006109e5338484611d70565b6001546001600160a01b031633146112705760405162461bcd60e51b81526004016107d090612f1e565b61271081106112c15760405162461bcd60e51b815260206004820152601e60248201527f5661756c743a207769746864726177616c2066656520746f6f2068696768000060448201526064016107d0565b600e55565b600f541561134957600f54816112db60045490565b6112e59190612f94565b11156113495760405162461bcd60e51b815260206004820152602d60248201527f5661756c743a20746f74616c20737570706c792077696c6c206578636565642060448201526c19195c1bdcda5d081b1a5b5a5d609a1b60648201526084016107d0565b61137e7f00000000000000000000000000000000000000000000000000000000000000006001600160a01b031633308461240c565b61090c338261244a565b600c546001600160a01b0316156116e457600b546001600160a01b0316336001600160a01b0316146113fc5760405162461bcd60e51b815260206004820152601c60248201527f5661756c743a206f6e6c792074696d656c6f636b20616c6c6f7765640000000060448201526064016107d0565b600c546040805163500128e360e11b815290516000926001600160a01b03169163a00251c691600480830192602092919082900301818787803b15801561144257600080fd5b505af1158015611456573d6000803e3d6000fd5b505050506040513d601f19601f8201168201806040525081019061147a9190612e42565b600c54604051638ca1799560e01b8152600481018390529192506001600160a01b031690638ca1799590602401600060405180830381600087803b1580156114c157600080fd5b505af11580156114d5573d6000803e3d6000fd5b50506040516370a0823160e01b815230600482015261157692508591506001600160a01b037f000000000000000000000000000000000000000000000000000000000000000016906370a082319060240160206040518083038186803b15801561153e57600080fd5b505afa158015611552573d6000803e3d6000fd5b505050506040513d601f19601f82011682018060405250810190610c9c9190612e42565b826001600160a01b031663e8b5e51f6040518163ffffffff1660e01b8152600401600060405180830381600087803b1580156115b157600080fd5b505af11580156115c5573d6000803e3d6000fd5b50505050816116de5780836001600160a01b031663a00251c66040518163ffffffff1660e01b8152600401602060405180830381600087803b15801561160a57600080fd5b505af115801561161e573d6000803e3d6000fd5b505050506040513d601f19601f820116820180604052508101906116429190612e42565b101580156116d55750600c60009054906101000a90046001600160a01b03166001600160a01b031663a00251c66040518163ffffffff1660e01b8152600401602060405180830381600087803b15801561169b57600080fd5b505af11580156116af573d6000803e3d6000fd5b505050506040513d601f19601f820116820180604052508101906116d39190612e42565b155b6116de57600080fd5b50611746565b6001546001600160a01b0316331461173e5760405162461bcd60e51b815260206004820152601760248201527f5661756c743a206f6e6c7920676f7620616c6c6f77656400000000000000000060448201526064016107d0565b611746612388565b50600c80546001600160a01b0319166001600160a01b0392909216919091179055565b6001546001600160a01b031633146117935760405162461bcd60e51b81526004016107d090612f1e565b600f55565b6117c27faf5cd33eb1dcf39cc29f1cbee3b3dc4dd5921cf8f497f81b237cdb211029a2583361100e565b6118075760405162461bcd60e51b815260206004820152601660248201527515985d5b1d0e881b9bdd081dda1a5d195b1a5cdd195960521b60448201526064016107d0565b6040516370a0823160e01b81523060048201526000907f00000000000000000000000000000000000000000000000000000000000000006001600160a01b0316906370a082319060240160206040518083038186803b15801561186957600080fd5b505afa15801561187d573d6000803e3d6000fd5b505050506040513d601f19601f820116820180604052508101906118a19190612e42565b90506000612710600d54836118b69190612fcc565b6118c09190612fac565b6118ca908361302a565b600c54909150611907906001600160a01b037f00000000000000000000000000000000000000000000000000000000000000008116911683611be8565b600c60009054906101000a90046001600160a01b03166001600160a01b031663e8b5e51f6040518163ffffffff1660e01b8152600401600060405180830381600087803b15801561195757600080fd5b505af115801561196b573d6000803e3d6000fd5b505050505050565b60008281526020819052604090206001015461198f8133611f21565b610ccd8383612161565b600a546001600160a01b0316336001600160a01b0316146119fc5760405162461bcd60e51b815260206004820152601d60248201527f5661756c743a206f6e6c792068617276657374657220616c6c6f77656400000060448201526064016107d0565b611a04610e20565b811115611a655760405162461bcd60e51b815260206004820152602960248201527f5661756c743a20616d6f756e74206c6172676572207468616e2067656e6572616044820152681d1959081e5a595b1960ba1b60648201526084016107d0565b600c54604051638ca1799560e01b8152600481018390526001600160a01b0390911690638ca1799590602401600060405180830381600087803b158015611aab57600080fd5b505af1158015611abf573d6000803e3d6000fd5b5050600a5461090c92506001600160a01b037f0000000000000000000000000000000000000000000000000000000000000000811692501683611be8565b6001546001600160a01b03163314611b275760405162461bcd60e51b81526004016107d090612f1e565b6001600160a01b038116611b8c5760405162461bcd60e51b815260206004820152602660248201527f4f776e61626c653a206e6577206f776e657220697320746865207a65726f206160448201526564647265737360d01b60648201526084016107d0565b6001546040516001600160a01b038084169216907f8be0079c531659141344cd1fd0a4f28419497f9722a3daafe3b4186f6b6457e090600090a3600180546001600160a01b0319166001600160a01b0392909216919091179055565b6040516001600160a01b038316602482015260448101829052610ccd90849063a9059cbb60e01b906064015b60408051601f198184030181529190526020810180516001600160e01b03166001600160e01b031990931692909217909152612488565b6001600160a01b038316611cad5760405162461bcd60e51b8152602060048201526024808201527f45524332303a20617070726f76652066726f6d20746865207a65726f206164646044820152637265737360e01b60648201526084016107d0565b6001600160a01b038216611d0e5760405162461bcd60e51b815260206004820152602260248201527f45524332303a20617070726f766520746f20746865207a65726f206164647265604482015261737360f01b60648201526084016107d0565b6001600160a01b0383811660008181526003602090815260408083209487168084529482529182902085905590518481527f8c5be1e5ebec7d5bd14f71427d1e84f3dd0314c0f7b2291e5b200ac8c7c3b92591015b60405180910390a3505050565b611d7b83838361255a565b6000611d8e82600754610b379190612fcc565b6001600160a01b038516600090815260086020526040902054909150611db5908290612f53565b6001600160a01b038086166000908152600860205260408082209390935590851681522054611de5908290612feb565b6001600160a01b03909316600090815260086020526040902092909255505050565b6000600160ff1b8210611e6d5760405162461bcd60e51b815260206004820152602860248201527f53616665436173743a2076616c756520646f65736e27742066697420696e2061604482015267371034b73a191a9b60c11b60648201526084016107d0565b5090565b600080821215611e6d5760405162461bcd60e51b815260206004820181905260248201527f53616665436173743a2076616c7565206d75737420626520706f73697469766560448201526064016107d0565b611ecd8282612732565b611ede81600754610b379190612fcc565b6001600160a01b038316600090815260086020526040902054611f019190612f53565b6001600160a01b0390921660009081526008602052604090209190915550565b611f2b828261100e565b610de557611f43816001600160a01b03166014612881565b611f4e836020612881565b604051602001611f5f929190612e76565b60408051601f198184030181529082905262461bcd60e51b82526107d091600401612eeb565b611f8f828261100e565b610de5576000828152602081815260408083206001600160a01b03851684529091529020805460ff19166001179055611fc53390565b6001600160a01b0316816001600160a01b0316837f2f8788117e7eff1d82e926ec794901d17c78024a50270940304540a733656f0d60405160405180910390a45050565b600061201460045490565b1161206d5760405162461bcd60e51b815260206004820152602360248201527f4469766964656e64546f6b656e3a20746f74616c20737570706c79206973207a60448201526265726f60e81b60648201526084016107d0565b600081116120c95760405162461bcd60e51b8152602060048201526024808201527f4469766964656e64546f6b656e3a206e6f7468696e6720746f206469737472696044820152636275746560e01b60648201526084016107d0565b6004546120da600160801b83612fcc565b6120e49190612fac565b6007546120f19190612f94565b6007556121297f00000000000000000000000000000000000000000000000000000000000000006001600160a01b031633308461240c565b60405181815233907fa493a9229478c3fcd73f66d2cdeb7f94fd0f341da924d1054236d784541165119060200160405180910390a250565b61216b828261100e565b15610de5576000828152602081815260408083206001600160a01b0385168085529252808320805460ff1916905551339285917ff6391f5c32d9c69d2a47ea670b442974b53935d1edc7fd64eb21e047a839171b9190a45050565b60006121d18261120d565b90506000811161222e5760405162461bcd60e51b815260206004820152602260248201527f4469766964656e64546f6b656e3a206e6f7468696e6720746f20776974686472604482015261617760f01b60648201526084016107d0565b6001600160a01b038216600090815260096020526040902054612252908290612f94565b6001600160a01b0380841660009081526009602052604090209190915561229c907f0000000000000000000000000000000000000000000000000000000000000000168383611be8565b816001600160a01b03167fee503bee2bb6a87e57bc57db795f98137327401a0e7b7ce42e37926cc1a9ca4d826040516122d791815260200190565b60405180910390a25050565b600154600160a01b900460ff16156123305760405162461bcd60e51b815260206004820152601060248201526f14185d5cd8589b194e881c185d5cd95960821b60448201526064016107d0565b6001805460ff60a01b1916600160a01b1790557f62e78cea01bee320cd4e420270b5ea74000d11b0c9f74754ebdbfc544b05a25861236b3390565b6040516001600160a01b03909116815260200160405180910390a1565b600154600160a01b900460ff166123d85760405162461bcd60e51b815260206004820152601460248201527314185d5cd8589b194e881b9bdd081c185d5cd95960621b60448201526064016107d0565b6001805460ff60a01b191690557f5db9ee0a495bf2e6ff9c91a7834c1ba4fdd244a5e8aa4e537bd38aeae4b073aa3361236b565b6040516001600160a01b03808516602483015283166044820152606481018290526124449085906323b872dd60e01b90608401611c14565b50505050565b6124548282612a63565b61246581600754610b379190612fcc565b6001600160a01b038316600090815260086020526040902054611f019190612feb565b60006124dd826040518060400160405280602081526020017f5361666545524332303a206c6f772d6c6576656c2063616c6c206661696c6564815250856001600160a01b0316612b429092919063ffffffff16565b805190915015610ccd57808060200190518101906124fb9190612d95565b610ccd5760405162461bcd60e51b815260206004820152602a60248201527f5361666545524332303a204552433230206f7065726174696f6e20646964206e6044820152691bdd081cdd58d8d9595960b21b60648201526084016107d0565b6001600160a01b0383166125be5760405162461bcd60e51b815260206004820152602560248201527f45524332303a207472616e736665722066726f6d20746865207a65726f206164604482015264647265737360d81b60648201526084016107d0565b6001600160a01b0382166126205760405162461bcd60e51b815260206004820152602360248201527f45524332303a207472616e7366657220746f20746865207a65726f206164647260448201526265737360e81b60648201526084016107d0565b6001600160a01b038316600090815260026020526040902054818110156126985760405162461bcd60e51b815260206004820152602660248201527f45524332303a207472616e7366657220616d6f756e7420657863656564732062604482015265616c616e636560d01b60648201526084016107d0565b6126a2828261302a565b6001600160a01b0380861660009081526002602052604080822093909355908516815290812080548492906126d8908490612f94565b92505081905550826001600160a01b0316846001600160a01b03167fddf252ad1be2c89b69c2b068fc378daa952ba7f163c4a11628f55a4df523b3ef8460405161272491815260200190565b60405180910390a350505050565b6001600160a01b0382166127925760405162461bcd60e51b815260206004820152602160248201527f45524332303a206275726e2066726f6d20746865207a65726f206164647265736044820152607360f81b60648201526084016107d0565b6001600160a01b038216600090815260026020526040902054818110156128065760405162461bcd60e51b815260206004820152602260248201527f45524332303a206275726e20616d6f756e7420657863656564732062616c616e604482015261636560f01b60648201526084016107d0565b612810828261302a565b6001600160a01b0384166000908152600260205260408120919091556004805484929061283e90849061302a565b90915550506040518281526000906001600160a01b038516907fddf252ad1be2c89b69c2b068fc378daa952ba7f163c4a11628f55a4df523b3ef90602001611d63565b60606000612890836002612fcc565b61289b906002612f94565b67ffffffffffffffff8111156128c157634e487b7160e01b600052604160045260246000fd5b6040519080825280601f01601f1916602001820160405280156128eb576020820181803683370190505b509050600360fc1b8160008151811061291457634e487b7160e01b600052603260045260246000fd5b60200101906001600160f81b031916908160001a905350600f60fb1b8160018151811061295157634e487b7160e01b600052603260045260246000fd5b60200101906001600160f81b031916908160001a9053506000612975846002612fcc565b612980906001612f94565b90505b6001811115612a14576f181899199a1a9b1b9c1cb0b131b232b360811b85600f16601081106129c257634e487b7160e01b600052603260045260246000fd5b1a60f81b8282815181106129e657634e487b7160e01b600052603260045260246000fd5b60200101906001600160f81b031916908160001a90535060049490941c93612a0d8161306d565b9050612983565b508315610af15760405162461bcd60e51b815260206004820181905260248201527f537472696e67733a20686578206c656e67746820696e73756666696369656e7460448201526064016107d0565b6001600160a01b038216612ab95760405162461bcd60e51b815260206004820152601f60248201527f45524332303a206d696e7420746f20746865207a65726f20616464726573730060448201526064016107d0565b8060046000828254612acb9190612f94565b90915550506001600160a01b03821660009081526002602052604081208054839290612af8908490612f94565b90915550506040518181526001600160a01b038316906000907fddf252ad1be2c89b69c2b068fc378daa952ba7f163c4a11628f55a4df523b3ef9060200160405180910390a35050565b6060612b518484600085612b59565b949350505050565b606082471015612bba5760405162461bcd60e51b815260206004820152602660248201527f416464726573733a20696e73756666696369656e742062616c616e636520666f6044820152651c8818d85b1b60d21b60648201526084016107d0565b843b612c085760405162461bcd60e51b815260206004820152601d60248201527f416464726573733a2063616c6c20746f206e6f6e2d636f6e747261637400000060448201526064016107d0565b600080866001600160a01b03168587604051612c249190612e5a565b60006040518083038185875af1925050503d8060008114612c61576040519150601f19603f3d011682016040523d82523d6000602084013e612c66565b606091505b5091509150612c76828286612c81565b979650505050505050565b60608315612c90575081610af1565b825115612ca05782518084602001fd5b8160405162461bcd60e51b81526004016107d09190612eeb565b600060208284031215612ccb578081fd5b8135610af1816130d5565b60008060408385031215612ce8578081fd5b8235612cf3816130d5565b91506020830135612d03816130d5565b809150509250929050565b600080600060608486031215612d22578081fd5b8335612d2d816130d5565b92506020840135612d3d816130d5565b929592945050506040919091013590565b60008060408385031215612d60578182fd5b8235612d6b816130d5565b946020939093013593505050565b600060208284031215612d8a578081fd5b8135610af1816130ea565b600060208284031215612da6578081fd5b8151610af1816130ea565b600060208284031215612dc2578081fd5b5035919050565b60008060408385031215612ddb578182fd5b823591506020830135612d03816130d5565b600060208284031215612dfe578081fd5b81356001600160e01b031981168114610af1578182fd5b60008060408385031215612e27578182fd5b8235612e32816130d5565b91506020830135612d03816130ea565b600060208284031215612e53578081fd5b5051919050565b60008251612e6c818460208701613041565b9190910192915050565b7f416363657373436f6e74726f6c3a206163636f756e7420000000000000000000815260008351612eae816017850160208801613041565b7001034b99036b4b9b9b4b733903937b6329607d1b6017918401918201528351612edf816028840160208801613041565b01602801949350505050565b6020815260008251806020840152612f0a816040850160208701613041565b601f01601f19169190910160400192915050565b6020808252818101527f4f776e61626c653a2063616c6c6572206973206e6f7420746865206f776e6572604082015260600190565b600080821280156001600160ff1b0384900385131615612f7557612f756130bf565b600160ff1b8390038412811615612f8e57612f8e6130bf565b50500190565b60008219821115612fa757612fa76130bf565b500190565b600082612fc757634e487b7160e01b81526012600452602481fd5b500490565b6000816000190483118215151615612fe657612fe66130bf565b500290565b60008083128015600160ff1b850184121615613009576130096130bf565b6001600160ff1b0384018313811615613024576130246130bf565b50500390565b60008282101561303c5761303c6130bf565b500390565b60005b8381101561305c578181015183820152602001613044565b838111156124445750506000910152565b60008161307c5761307c6130bf565b506000190190565b600181811c9082168061309857607f821691505b602082108114156130b957634e487b7160e01b600052602260045260246000fd5b50919050565b634e487b7160e01b600052601160045260246000fd5b6001600160a01b038116811461090c57600080fd5b801515811461090c57600080fdfea264697066735822122005de126594fc844d000a20dd88a8a1d6b3230aa9b870d03b9910c674bb380a5c64736f6c63430008040033",
  "devdoc": {
    "kind": "dev",
    "methods": {
      "allowance(address,address)": {
        "details": "See {IERC20-allowance}."
      },
      "approve(address,uint256)": {
        "details": "See {IERC20-approve}. Requirements: - `spender` cannot be the zero address."
      },
      "balanceOf(address)": {
        "details": "See {IERC20-balanceOf}."
      },
      "decimals()": {
        "details": "Returns the number of decimals used to get its user representation. For example, if `decimals` equals `2`, a balance of `505` tokens should be displayed to a user as `5,05` (`505 / 10 ** 2`). Tokens usually opt for a value of 18, imitating the relationship between Ether and Wei. This is the value {ERC20} uses, unless this function is overridden; NOTE: This information is only used for _display_ purposes: it in no way affects any of the arithmetic of the contract, including {IERC20-balanceOf} and {IERC20-transfer}."
      },
      "decreaseAllowance(address,uint256)": {
        "details": "Atomically decreases the allowance granted to `spender` by the caller. This is an alternative to {approve} that can be used as a mitigation for problems described in {IERC20-approve}. Emits an {Approval} event indicating the updated allowance. Requirements: - `spender` cannot be the zero address. - `spender` must have allowance for the caller of at least `subtractedValue`."
      },
      "getRoleAdmin(bytes32)": {
        "details": "Returns the admin role that controls `role`. See {grantRole} and {revokeRole}. To change a role's admin, use {_setRoleAdmin}."
      },
      "grantRole(bytes32,address)": {
        "details": "Grants `role` to `account`. If `account` had not been already granted `role`, emits a {RoleGranted} event. Requirements: - the caller must have ``role``'s admin role."
      },
      "hasRole(bytes32,address)": {
        "details": "Returns `true` if `account` has been granted `role`."
      },
      "increaseAllowance(address,uint256)": {
        "details": "Atomically increases the allowance granted to `spender` by the caller. This is an alternative to {approve} that can be used as a mitigation for problems described in {IERC20-approve}. Emits an {Approval} event indicating the updated allowance. Requirements: - `spender` cannot be the zero address."
      },
      "name()": {
        "details": "Returns the name of the token."
      },
      "owner()": {
        "details": "Returns the address of the current owner."
      },
      "paused()": {
        "details": "Returns true if the contract is paused, and false otherwise."
      },
      "renounceOwnership()": {
        "details": "Leaves the contract without owner. It will not be possible to call `onlyOwner` functions anymore. Can only be called by the current owner. NOTE: Renouncing ownership will leave the contract without an owner, thereby removing any functionality that is only available to the owner."
      },
      "renounceRole(bytes32,address)": {
        "details": "Revokes `role` from the calling account. Roles are often managed via {grantRole} and {revokeRole}: this function's purpose is to provide a mechanism for accounts to lose their privileges if they are compromised (such as when a trusted device is misplaced). If the calling account had been granted `role`, emits a {RoleRevoked} event. Requirements: - the caller must be `account`."
      },
      "revokeRole(bytes32,address)": {
        "details": "Revokes `role` from `account`. If `account` had been granted `role`, emits a {RoleRevoked} event. Requirements: - the caller must have ``role``'s admin role."
      },
      "supportsInterface(bytes4)": {
        "details": "See {IERC165-supportsInterface}."
      },
      "symbol()": {
        "details": "Returns the symbol of the token, usually a shorter version of the name."
      },
      "totalSupply()": {
        "details": "See {IERC20-totalSupply}."
      },
      "transfer(address,uint256)": {
        "details": "See {IERC20-transfer}. Requirements: - `recipient` cannot be the zero address. - the caller must have a balance of at least `amount`."
      },
      "transferFrom(address,address,uint256)": {
        "details": "See {IERC20-transferFrom}. Emits an {Approval} event indicating the updated allowance. This is not required by the EIP. See the note at the beginning of {ERC20}. Requirements: - `sender` and `recipient` cannot be the zero address. - `sender` must have a balance of at least `amount`. - the caller must have allowance for ``sender``'s tokens of at least `amount`."
      },
      "transferOwnership(address)": {
        "details": "Transfers ownership of the contract to a new account (`newOwner`). Can only be called by the current owner."
      }
    },
    "version": 1
  },
  "userdoc": {
    "kind": "user",
    "methods": {},
    "version": 1
  },
  "storageLayout": {
    "storage": [
      {
        "astId": 62,
        "contract": "contracts/Vault.sol:CompoundVault",
        "label": "_roles",
        "offset": 0,
        "slot": "0",
        "type": "t_mapping(t_bytes32,t_struct(RoleData)57_storage)"
      },
      {
        "astId": 375,
        "contract": "contracts/Vault.sol:CompoundVault",
        "label": "_owner",
        "offset": 0,
        "slot": "1",
        "type": "t_address"
      },
      {
        "astId": 495,
        "contract": "contracts/Vault.sol:CompoundVault",
        "label": "_paused",
        "offset": 20,
        "slot": "1",
        "type": "t_bool"
      },
      {
        "astId": 585,
        "contract": "contracts/Vault.sol:CompoundVault",
        "label": "_balances",
        "offset": 0,
        "slot": "2",
        "type": "t_mapping(t_address,t_uint256)"
      },
      {
        "astId": 591,
        "contract": "contracts/Vault.sol:CompoundVault",
        "label": "_allowances",
        "offset": 0,
        "slot": "3",
        "type": "t_mapping(t_address,t_mapping(t_address,t_uint256))"
      },
      {
        "astId": 593,
        "contract": "contracts/Vault.sol:CompoundVault",
        "label": "_totalSupply",
        "offset": 0,
        "slot": "4",
        "type": "t_uint256"
      },
      {
        "astId": 595,
        "contract": "contracts/Vault.sol:CompoundVault",
        "label": "_name",
        "offset": 0,
        "slot": "5",
        "type": "t_string_storage"
      },
      {
        "astId": 597,
        "contract": "contracts/Vault.sol:CompoundVault",
        "label": "_symbol",
        "offset": 0,
        "slot": "6",
        "type": "t_string_storage"
      },
      {
        "astId": 2381,
        "contract": "contracts/Vault.sol:CompoundVault",
        "label": "magnifiedDividendPerShare",
        "offset": 0,
        "slot": "7",
        "type": "t_uint256"
      },
      {
        "astId": 2385,
        "contract": "contracts/Vault.sol:CompoundVault",
        "label": "magnifiedDividendCorrections",
        "offset": 0,
        "slot": "8",
        "type": "t_mapping(t_address,t_int256)"
      },
      {
        "astId": 2389,
        "contract": "contracts/Vault.sol:CompoundVault",
        "label": "withdrawnDividends",
        "offset": 0,
        "slot": "9",
        "type": "t_mapping(t_address,t_uint256)"
      },
      {
        "astId": 3159,
        "contract": "contracts/Vault.sol:CompoundVault",
        "label": "harvester",
        "offset": 0,
        "slot": "10",
        "type": "t_contract(IHarvester)2706"
      },
      {
        "astId": 3161,
        "contract": "contracts/Vault.sol:CompoundVault",
        "label": "timelock",
        "offset": 0,
        "slot": "11",
        "type": "t_address"
      },
      {
        "astId": 3164,
        "contract": "contracts/Vault.sol:CompoundVault",
        "label": "strategy",
        "offset": 0,
        "slot": "12",
        "type": "t_contract(IStrategy)4429"
      },
      {
        "astId": 3171,
        "contract": "contracts/Vault.sol:CompoundVault",
        "label": "barrier",
        "offset": 0,
        "slot": "13",
        "type": "t_uint256"
      },
      {
        "astId": 3174,
        "contract": "contracts/Vault.sol:CompoundVault",
        "label": "withdrawalFee",
        "offset": 0,
        "slot": "14",
        "type": "t_uint256"
      },
      {
        "astId": 3176,
        "contract": "contracts/Vault.sol:CompoundVault",
        "label": "depositLimit",
        "offset": 0,
        "slot": "15",
        "type": "t_uint256"
      },
      {
        "astId": 3179,
        "contract": "contracts/Vault.sol:CompoundVault",
        "label": "lastDistributionAt",
        "offset": 0,
        "slot": "16",
        "type": "t_uint256"
      }
    ],
    "types": {
      "t_address": {
        "encoding": "inplace",
        "label": "address",
        "numberOfBytes": "20"
      },
      "t_bool": {
        "encoding": "inplace",
        "label": "bool",
        "numberOfBytes": "1"
      },
      "t_bytes32": {
        "encoding": "inplace",
        "label": "bytes32",
        "numberOfBytes": "32"
      },
      "t_contract(IHarvester)2706": {
        "encoding": "inplace",
        "label": "contract IHarvester",
        "numberOfBytes": "20"
      },
      "t_contract(IStrategy)4429": {
        "encoding": "inplace",
        "label": "contract IStrategy",
        "numberOfBytes": "20"
      },
      "t_int256": {
        "encoding": "inplace",
        "label": "int256",
        "numberOfBytes": "32"
      },
      "t_mapping(t_address,t_bool)": {
        "encoding": "mapping",
        "key": "t_address",
        "label": "mapping(address => bool)",
        "numberOfBytes": "32",
        "value": "t_bool"
      },
      "t_mapping(t_address,t_int256)": {
        "encoding": "mapping",
        "key": "t_address",
        "label": "mapping(address => int256)",
        "numberOfBytes": "32",
        "value": "t_int256"
      },
      "t_mapping(t_address,t_mapping(t_address,t_uint256))": {
        "encoding": "mapping",
        "key": "t_address",
        "label": "mapping(address => mapping(address => uint256))",
        "numberOfBytes": "32",
        "value": "t_mapping(t_address,t_uint256)"
      },
      "t_mapping(t_address,t_uint256)": {
        "encoding": "mapping",
        "key": "t_address",
        "label": "mapping(address => uint256)",
        "numberOfBytes": "32",
        "value": "t_uint256"
      },
      "t_mapping(t_bytes32,t_struct(RoleData)57_storage)": {
        "encoding": "mapping",
        "key": "t_bytes32",
        "label": "mapping(bytes32 => struct AccessControl.RoleData)",
        "numberOfBytes": "32",
        "value": "t_struct(RoleData)57_storage"
      },
      "t_string_storage": {
        "encoding": "bytes",
        "label": "string",
        "numberOfBytes": "32"
      },
      "t_struct(RoleData)57_storage": {
        "encoding": "inplace",
        "label": "struct AccessControl.RoleData",
        "members": [
          {
            "astId": 54,
            "contract": "contracts/Vault.sol:CompoundVault",
            "label": "members",
            "offset": 0,
            "slot": "0",
            "type": "t_mapping(t_address,t_bool)"
          },
          {
            "astId": 56,
            "contract": "contracts/Vault.sol:CompoundVault",
            "label": "adminRole",
            "offset": 0,
            "slot": "1",
            "type": "t_bytes32"
          }
        ],
        "numberOfBytes": "64"
      },
      "t_uint256": {
        "encoding": "inplace",
        "label": "uint256",
        "numberOfBytes": "32"
      }
    }
  }
}