{
  "address": "0x63f35b0e55740c9e4d8796480A326C06Acc39cC5",
  "abi": [
    {
      "inputs": [
        {
          "internalType": "address",
          "name": "fire_",
          "type": "address"
        }
      ],
      "stateMutability": "nonpayable",
      "type": "constructor"
    },
    {
      "anonymous": false,
      "inputs": [
        {
          "indexed": false,
          "internalType": "uint256",
          "name": "id",
          "type": "uint256"
        }
      ],
      "name": "ProposalCanceled",
      "type": "event"
    },
    {
      "anonymous": false,
      "inputs": [
        {
          "indexed": false,
          "internalType": "uint256",
          "name": "id",
          "type": "uint256"
        },
        {
          "indexed": false,
          "internalType": "address",
          "name": "proposer",
          "type": "address"
        },
        {
          "indexed": false,
          "internalType": "address[]",
          "name": "targets",
          "type": "address[]"
        },
        {
          "indexed": false,
          "internalType": "uint256[]",
          "name": "values",
          "type": "uint256[]"
        },
        {
          "indexed": false,
          "internalType": "string[]",
          "name": "signatures",
          "type": "string[]"
        },
        {
          "indexed": false,
          "internalType": "bytes[]",
          "name": "calldatas",
          "type": "bytes[]"
        },
        {
          "indexed": false,
          "internalType": "uint256",
          "name": "startBlock",
          "type": "uint256"
        },
        {
          "indexed": false,
          "internalType": "uint256",
          "name": "endBlock",
          "type": "uint256"
        },
        {
          "indexed": false,
          "internalType": "string",
          "name": "description",
          "type": "string"
        }
      ],
      "name": "ProposalCreated",
      "type": "event"
    },
    {
      "anonymous": false,
      "inputs": [
        {
          "indexed": false,
          "internalType": "uint256",
          "name": "id",
          "type": "uint256"
        }
      ],
      "name": "ProposalExecuted",
      "type": "event"
    },
    {
      "anonymous": false,
      "inputs": [
        {
          "indexed": false,
          "internalType": "uint256",
          "name": "id",
          "type": "uint256"
        },
        {
          "indexed": false,
          "internalType": "uint256",
          "name": "eta",
          "type": "uint256"
        }
      ],
      "name": "ProposalQueued",
      "type": "event"
    },
    {
      "anonymous": false,
      "inputs": [
        {
          "indexed": false,
          "internalType": "address",
          "name": "voter",
          "type": "address"
        },
        {
          "indexed": false,
          "internalType": "uint256",
          "name": "proposalId",
          "type": "uint256"
        },
        {
          "indexed": false,
          "internalType": "bool",
          "name": "support",
          "type": "bool"
        },
        {
          "indexed": false,
          "internalType": "uint256",
          "name": "votes",
          "type": "uint256"
        }
      ],
      "name": "VoteCast",
      "type": "event"
    },
    {
      "inputs": [],
      "name": "BALLOT_TYPEHASH",
      "outputs": [
        {
          "internalType": "bytes32",
          "name": "",
          "type": "bytes32"
        }
      ],
      "stateMutability": "view",
      "type": "function"
    },
    {
      "inputs": [],
      "name": "DOMAIN_TYPEHASH",
      "outputs": [
        {
          "internalType": "bytes32",
          "name": "",
          "type": "bytes32"
        }
      ],
      "stateMutability": "view",
      "type": "function"
    },
    {
      "inputs": [
        {
          "internalType": "uint256",
          "name": "proposalId",
          "type": "uint256"
        }
      ],
      "name": "cancel",
      "outputs": [],
      "stateMutability": "nonpayable",
      "type": "function"
    },
    {
      "inputs": [
        {
          "internalType": "uint256",
          "name": "proposalId",
          "type": "uint256"
        },
        {
          "internalType": "bool",
          "name": "support",
          "type": "bool"
        }
      ],
      "name": "castVote",
      "outputs": [],
      "stateMutability": "nonpayable",
      "type": "function"
    },
    {
      "inputs": [
        {
          "internalType": "uint256",
          "name": "proposalId",
          "type": "uint256"
        },
        {
          "internalType": "bool",
          "name": "support",
          "type": "bool"
        },
        {
          "internalType": "uint8",
          "name": "v",
          "type": "uint8"
        },
        {
          "internalType": "bytes32",
          "name": "r",
          "type": "bytes32"
        },
        {
          "internalType": "bytes32",
          "name": "s",
          "type": "bytes32"
        }
      ],
      "name": "castVoteBySig",
      "outputs": [],
      "stateMutability": "nonpayable",
      "type": "function"
    },
    {
      "inputs": [
        {
          "internalType": "uint256",
          "name": "proposalId",
          "type": "uint256"
        }
      ],
      "name": "execute",
      "outputs": [],
      "stateMutability": "nonpayable",
      "type": "function"
    },
    {
      "inputs": [],
      "name": "fire",
      "outputs": [
        {
          "internalType": "contract FireInterface",
          "name": "",
          "type": "address"
        }
      ],
      "stateMutability": "view",
      "type": "function"
    },
    {
      "inputs": [
        {
          "internalType": "uint256",
          "name": "proposalId",
          "type": "uint256"
        }
      ],
      "name": "getActions",
      "outputs": [
        {
          "internalType": "address[]",
          "name": "targets",
          "type": "address[]"
        },
        {
          "internalType": "uint256[]",
          "name": "values",
          "type": "uint256[]"
        },
        {
          "internalType": "string[]",
          "name": "signatures",
          "type": "string[]"
        },
        {
          "internalType": "bytes[]",
          "name": "calldatas",
          "type": "bytes[]"
        }
      ],
      "stateMutability": "view",
      "type": "function"
    },
    {
      "inputs": [
        {
          "internalType": "uint256",
          "name": "proposalId",
          "type": "uint256"
        },
        {
          "internalType": "address",
          "name": "voter",
          "type": "address"
        }
      ],
      "name": "getReceipt",
      "outputs": [
        {
          "components": [
            {
              "internalType": "bool",
              "name": "hasVoted",
              "type": "bool"
            },
            {
              "internalType": "bool",
              "name": "support",
              "type": "bool"
            },
            {
              "internalType": "uint96",
              "name": "votes",
              "type": "uint96"
            }
          ],
          "internalType": "struct GovernorAlpha.Receipt",
          "name": "",
          "type": "tuple"
        }
      ],
      "stateMutability": "view",
      "type": "function"
    },
    {
      "inputs": [
        {
          "internalType": "address",
          "name": "",
          "type": "address"
        }
      ],
      "name": "latestProposalIds",
      "outputs": [
        {
          "internalType": "uint256",
          "name": "",
          "type": "uint256"
        }
      ],
      "stateMutability": "view",
      "type": "function"
    },
    {
      "inputs": [],
      "name": "name",
      "outputs": [
        {
          "internalType": "string",
          "name": "",
          "type": "string"
        }
      ],
      "stateMutability": "view",
      "type": "function"
    },
    {
      "inputs": [],
      "name": "proposalCount",
      "outputs": [
        {
          "internalType": "uint256",
          "name": "",
          "type": "uint256"
        }
      ],
      "stateMutability": "view",
      "type": "function"
    },
    {
      "inputs": [],
      "name": "proposalMaxOperations",
      "outputs": [
        {
          "internalType": "uint256",
          "name": "",
          "type": "uint256"
        }
      ],
      "stateMutability": "pure",
      "type": "function"
    },
    {
      "inputs": [
        {
          "internalType": "uint256",
          "name": "",
          "type": "uint256"
        },
        {
          "internalType": "address",
          "name": "",
          "type": "address"
        }
      ],
      "name": "proposalReceipts",
      "outputs": [
        {
          "internalType": "bool",
          "name": "hasVoted",
          "type": "bool"
        },
        {
          "internalType": "bool",
          "name": "support",
          "type": "bool"
        },
        {
          "internalType": "uint96",
          "name": "votes",
          "type": "uint96"
        }
      ],
      "stateMutability": "view",
      "type": "function"
    },
    {
      "inputs": [],
      "name": "proposalThreshold",
      "outputs": [
        {
          "internalType": "uint256",
          "name": "",
          "type": "uint256"
        }
      ],
      "stateMutability": "pure",
      "type": "function"
    },
    {
      "inputs": [
        {
          "internalType": "uint256",
          "name": "",
          "type": "uint256"
        }
      ],
      "name": "proposals",
      "outputs": [
        {
          "internalType": "uint256",
          "name": "id",
          "type": "uint256"
        },
        {
          "internalType": "address",
          "name": "proposer",
          "type": "address"
        },
        {
          "internalType": "uint256",
          "name": "eta",
          "type": "uint256"
        },
        {
          "internalType": "uint256",
          "name": "startBlock",
          "type": "uint256"
        },
        {
          "internalType": "uint256",
          "name": "endBlock",
          "type": "uint256"
        },
        {
          "internalType": "uint256",
          "name": "forVotes",
          "type": "uint256"
        },
        {
          "internalType": "uint256",
          "name": "againstVotes",
          "type": "uint256"
        },
        {
          "internalType": "bool",
          "name": "canceled",
          "type": "bool"
        },
        {
          "internalType": "bool",
          "name": "executed",
          "type": "bool"
        }
      ],
      "stateMutability": "view",
      "type": "function"
    },
    {
      "inputs": [
        {
          "internalType": "address[]",
          "name": "targets",
          "type": "address[]"
        },
        {
          "internalType": "uint256[]",
          "name": "values",
          "type": "uint256[]"
        },
        {
          "internalType": "string[]",
          "name": "signatures",
          "type": "string[]"
        },
        {
          "internalType": "bytes[]",
          "name": "calldatas",
          "type": "bytes[]"
        },
        {
          "internalType": "string",
          "name": "description",
          "type": "string"
        }
      ],
      "name": "propose",
      "outputs": [
        {
          "internalType": "uint256",
          "name": "",
          "type": "uint256"
        }
      ],
      "stateMutability": "nonpayable",
      "type": "function"
    },
    {
      "inputs": [
        {
          "internalType": "uint256",
          "name": "proposalId",
          "type": "uint256"
        }
      ],
      "name": "queue",
      "outputs": [],
      "stateMutability": "nonpayable",
      "type": "function"
    },
    {
      "inputs": [],
      "name": "quorumVotes",
      "outputs": [
        {
          "internalType": "uint256",
          "name": "",
          "type": "uint256"
        }
      ],
      "stateMutability": "pure",
      "type": "function"
    },
    {
      "inputs": [
        {
          "internalType": "uint256",
          "name": "proposalId",
          "type": "uint256"
        }
      ],
      "name": "state",
      "outputs": [
        {
          "internalType": "enum GovernorAlpha.ProposalState",
          "name": "",
          "type": "uint8"
        }
      ],
      "stateMutability": "view",
      "type": "function"
    },
    {
      "inputs": [],
      "name": "timelock",
      "outputs": [
        {
          "internalType": "contract Timelock",
          "name": "",
          "type": "address"
        }
      ],
      "stateMutability": "view",
      "type": "function"
    },
    {
      "inputs": [],
      "name": "votingDelay",
      "outputs": [
        {
          "internalType": "uint256",
          "name": "",
          "type": "uint256"
        }
      ],
      "stateMutability": "pure",
      "type": "function"
    },
    {
      "inputs": [],
      "name": "votingPeriod",
      "outputs": [
        {
          "internalType": "uint256",
          "name": "",
          "type": "uint256"
        }
      ],
      "stateMutability": "pure",
      "type": "function"
    }
  ],
  "transactionHash": "0xdbb4bdb6e4fc363feb882c750c2fb96c3a60725d771898f63746548045e3a031",
  "args": [
    "0xB11Cd085BECa70EDf5ed9c6f2414DE5D7dFeF5e2"
  ],
  "solcInputHash": "042a621839c77ac8100941627fda33aa",
  "bytecode": "0x60806040523480156200001157600080fd5b5060405162003e2438038062003e248339810160408190526200003491620000bd565b306202a3006040516200004790620000af565b6001600160a01b0390921682526020820152604001604051809103906000f08015801562000079573d6000803e3d6000fd5b50600080546001600160a01b039283166001600160a01b03199182161790915560018054939092169216919091179055620000ed565b6110c78062002d5d83390190565b600060208284031215620000cf578081fd5b81516001600160a01b0381168114620000e6578182fd5b9392505050565b612c6080620000fd6000396000f3fe608060405234801561001057600080fd5b506004361061014d5760003560e01c8063457094cc116100c3578063da35c6641161007c578063da35c66414610400578063da95691a14610409578063ddf0b0091461041c578063deaaa7cc1461042f578063e23a9a5214610456578063fe0d94c11461051057600080fd5b8063457094cc1461032a5780634634c61f1461035557806366176743146103685780637bdbe4d0146103d7578063b58131b0146103de578063d33219b4146103ed57600080fd5b806320606b701161011557806320606b701461029757806324bc1a64146102be578063328dd982146102cd5780633932abb1146102f05780633e4f49e6146102f757806340e58ee51461031757600080fd5b8063013cf08b1461015257806302a251a31461020e57806306fdde031461022057806315373e3d1461026257806317977c6114610277575b600080fd5b6101b9610160366004612694565b6003602052600090815260409020805460018201546002830154600784015460088501546009860154600a870154600b9097015495966001600160a01b0390951695939492939192909160ff8082169161010090041689565b60408051998a526001600160a01b0390981660208a0152968801959095526060870193909352608086019190915260a085015260c0840152151560e08301521515610100820152610120015b60405180910390f35b6143805b604051908152602001610205565b610255604051806040016040528060168152602001754649524544414f20476f7665726e6f7220416c70686160501b81525081565b6040516102059190612a19565b6102756102703660046126d7565b610523565b005b610212610285366004612507565b60056020526000908152604090205481565b6102127f8cad95687ba82c2ce50e74f7b754645e5117c3a5bec8151c0726d5857980a86681565b68d8d726b7177a800000610212565b6102e06102db366004612694565b610532565b6040516102059493929190612999565b6001610212565b61030a610305366004612694565b6107c3565b60405161020591906129f1565b610275610325366004612694565b610993565b60015461033d906001600160a01b031681565b6040516001600160a01b039091168152602001610205565b610275610363366004612706565b610cf6565b6103b16103763660046126ac565b600460209081526000928352604080842090915290825290205460ff808216916101008104909116906201000090046001600160601b031683565b60408051931515845291151560208401526001600160601b031690820152606001610205565b6014610212565b683635c9adc5dea00000610212565b60005461033d906001600160a01b031681565b61021260025481565b610212610417366004612521565b610f0c565b61027561042a366004612694565b61159c565b6102127f8e25870c07e0b0b3884c78da52790939a455c275406c44ae8b434b692fb916ee81565b6104e16104643660046126ac565b60408051606081018252600080825260208201819052918101919091525060009182526004602090815260408084206001600160a01b03939093168452918152918190208151606081018352905460ff80821615158352610100820416151593820193909352620100009092046001600160601b03169082015290565b60408051825115158152602080840151151590820152918101516001600160601b031690820152606001610205565b61027561051e366004612694565b6118e0565b61052e338383611b59565b5050565b606080606080600060036000878152602001908152602001600020905080600301816004018260050183600601838054806020026020016040519081016040528092919081815260200182805480156105b457602002820191906000526020600020905b81546001600160a01b03168152600190910190602001808311610596575b505050505093508280548060200260200160405190810160405280929190818152602001828054801561060657602002820191906000526020600020905b8154815260200190600101908083116105f2575b5050505050925081805480602002602001604051908101604052809291908181526020016000905b828210156106da57838290600052602060002001805461064d90612ba0565b80601f016020809104026020016040519081016040528092919081815260200182805461067990612ba0565b80156106c65780601f1061069b576101008083540402835291602001916106c6565b820191906000526020600020905b8154815290600101906020018083116106a957829003601f168201915b50505050508152602001906001019061062e565b50505050915080805480602002602001604051908101604052809291908181526020016000905b828210156107ad57838290600052602060002001805461072090612ba0565b80601f016020809104026020016040519081016040528092919081815260200182805461074c90612ba0565b80156107995780601f1061076e57610100808354040283529160200191610799565b820191906000526020600020905b81548152906001019060200180831161077c57829003601f168201915b505050505081526020019060010190610701565b5050505090509450945094509450509193509193565b600081600254101580156107d75750600082115b61083a5760405162461bcd60e51b815260206004820152602960248201527f476f7665726e6f72416c7068613a3a73746174653a20696e76616c69642070726044820152681bdc1bdcd85b081a5960ba1b60648201526084015b60405180910390fd5b6000828152600360205260409020600b81015460ff161561085e5750600292915050565b806007015443116108725750600092915050565b806008015443116108865750600192915050565b80600a015481600901541115806108a9575068d8d726b7177a8000008160090154105b156108b75750600392915050565b60028101546108c95750600492915050565b600b810154610100900460ff16156108e45750600792915050565b610975816002015460008054906101000a90046001600160a01b03166001600160a01b031663c1a287e26040518163ffffffff1660e01b815260040160206040518083038186803b15801561093857600080fd5b505afa15801561094c573d6000803e3d6000fd5b505050506040513d601f19601f820116820180604052508101906109709190612609565b611de9565b42106109845750600692915050565b50600592915050565b50919050565b600061099e826107c3565b905060078160078111156109c257634e487b7160e01b600052602160045260246000fd5b1415610a2f5760405162461bcd60e51b815260206004820152603660248201527f476f7665726e6f72416c7068613a3a63616e63656c3a2063616e6e6f742063616044820152751b98d95b08195e1958dd5d1959081c1c9bdc1bdcd85b60521b6064820152608401610831565b60008281526003602052604090206001805481830154683635c9adc5dea00000926001600160a01b039283169263782d6fe1921690610a6f904390611e43565b6040516001600160e01b031960e085901b1681526001600160a01b039092166004830152602482015260440160206040518083038186803b158015610ab357600080fd5b505afa158015610ac7573d6000803e3d6000fd5b505050506040513d601f19601f82011682018060405250810190610aeb919061275c565b6001600160601b031610610b595760405162461bcd60e51b815260206004820152602f60248201527f476f7665726e6f72416c7068613a3a63616e63656c3a2070726f706f7365722060448201526e18589bdd99481d1a1c995cda1bdb19608a1b6064820152608401610831565b600b8101805460ff1916600117905560005b6003820154811015610cbc576000546003830180546001600160a01b039092169163591fcdfe919084908110610bb157634e487b7160e01b600052603260045260246000fd5b6000918252602090912001546004850180546001600160a01b039092169185908110610bed57634e487b7160e01b600052603260045260246000fd5b9060005260206000200154856005018581548110610c1b57634e487b7160e01b600052603260045260246000fd5b90600052602060002001866006018681548110610c4857634e487b7160e01b600052603260045260246000fd5b9060005260206000200187600201546040518663ffffffff1660e01b8152600401610c77959493929190612960565b600060405180830381600087803b158015610c9157600080fd5b505af1158015610ca5573d6000803e3d6000fd5b505050508080610cb490612bd5565b915050610b6b565b506040518381527f789cf55be980739dad1d0699b93b58e806b51c9d96619bfa8fe0a28abaa7b30c906020015b60405180910390a1505050565b60408051808201825260168152754649524544414f20476f7665726e6f7220416c70686160501b60209182015281517f8cad95687ba82c2ce50e74f7b754645e5117c3a5bec8151c0726d5857980a866818301527fb591db770ec713134a2eb9e9aee3c37ab0d8618b30a70b77c2be82fa47f9e91a81840152466060820152306080808301919091528351808303909101815260a0820184528051908301207f8e25870c07e0b0b3884c78da52790939a455c275406c44ae8b434b692fb916ee60c083015260e08201899052871515610100808401919091528451808403909101815261012083019094528351939092019290922061190160f01b6101408401526101428301829052610162830181905290916000906101820160408051601f198184030181528282528051602091820120600080855291840180845281905260ff8a169284019290925260608301889052608083018790529092509060019060a0016020604051602081039080840390855afa158015610e7b573d6000803e3d6000fd5b5050604051601f1901519150506001600160a01b038116610ef65760405162461bcd60e51b815260206004820152602f60248201527f476f7665726e6f72416c7068613a3a63617374566f746542795369673a20696e60448201526e76616c6964207369676e617475726560881b6064820152608401610831565b610f01818a8a611b59565b505050505050505050565b6000683635c9adc5dea00000600180546001600160a01b03169063782d6fe1903390610f39904390611e43565b6040516001600160e01b031960e085901b1681526001600160a01b039092166004830152602482015260440160206040518083038186803b158015610f7d57600080fd5b505afa158015610f91573d6000803e3d6000fd5b505050506040513d601f19601f82011682018060405250810190610fb5919061275c565b6001600160601b0316116110315760405162461bcd60e51b815260206004820152603f60248201527f476f7665726e6f72416c7068613a3a70726f706f73653a2070726f706f73657260448201527f20766f7465732062656c6f772070726f706f73616c207468726573686f6c64006064820152608401610831565b84518651148015611043575083518651145b8015611050575082518651145b6110d05760405162461bcd60e51b8152602060048201526044602482018190527f476f7665726e6f72416c7068613a3a70726f706f73653a2070726f706f73616c908201527f2066756e6374696f6e20696e666f726d6174696f6e206172697479206d69736d6064820152630c2e8c6d60e31b608482015260a401610831565b85516111335760405162461bcd60e51b815260206004820152602c60248201527f476f7665726e6f72416c7068613a3a70726f706f73653a206d7573742070726f60448201526b7669646520616374696f6e7360a01b6064820152608401610831565b6014865111156111965760405162461bcd60e51b815260206004820152602860248201527f476f7665726e6f72416c7068613a3a70726f706f73653a20746f6f206d616e7960448201526720616374696f6e7360c01b6064820152608401610831565b3360009081526005602052604090205480156113335760006111b7826107c3565b905060018160078111156111db57634e487b7160e01b600052602160045260246000fd5b14156112755760405162461bcd60e51b815260206004820152605860248201527f476f7665726e6f72416c7068613a3a70726f706f73653a206f6e65206c69766560448201527f2070726f706f73616c207065722070726f706f7365722c20666f756e6420616e60648201527f20616c7265616479206163746976652070726f706f73616c0000000000000000608482015260a401610831565b600081600781111561129757634e487b7160e01b600052602160045260246000fd5b14156113315760405162461bcd60e51b815260206004820152605960248201527f476f7665726e6f72416c7068613a3a70726f706f73653a206f6e65206c69766560448201527f2070726f706f73616c207065722070726f706f7365722c20666f756e6420616e60648201527f20616c72656164792070656e64696e672070726f706f73616c00000000000000608482015260a401610831565b505b6000611340436001611de9565b9050600061135082614380611de9565b60028054919250600061136283612bd5565b91905055506000604051806101a001604052806002548152602001336001600160a01b03168152602001600081526020018b81526020018a815260200189815260200188815260200184815260200183815260200160008152602001600081526020016000151581526020016000151581525090508060036000836000015181526020019081526020016000206000820151816000015560208201518160010160006101000a8154816001600160a01b0302191690836001600160a01b0316021790555060408201518160020155606082015181600301908051906020019061144c92919061205c565b50608082015180516114689160048401916020909101906120c1565b5060a082015180516114849160058401916020909101906120fc565b5060c082015180516114a0916006840191602090910190612155565b5060e082015181600701556101008201518160080155610120820151816009015561014082015181600a015561016082015181600b0160006101000a81548160ff02191690831515021790555061018082015181600b0160016101000a81548160ff02191690831515021790555090505080600001516005600083602001516001600160a01b03166001600160a01b03168152602001908152602001600020819055507f7d84a6263ae0d98d3329bd7b46bb4e8d6f98cd35a7adb45c274c8b7fd5ebd5e08160000151338c8c8c8c89898e60405161158699989796959493929190612a2c565b60405180910390a1519998505050505050505050565b60046115a7826107c3565b60078111156115c657634e487b7160e01b600052602160045260246000fd5b146116475760405162461bcd60e51b8152602060048201526044602482018190527f476f7665726e6f72416c7068613a3a71756575653a2070726f706f73616c2063908201527f616e206f6e6c79206265207175657565642069662069742069732073756363656064820152631959195960e21b608482015260a401610831565b600081815260036020908152604080832083548251630d48571f60e31b815292519194936116a09342936001600160a01b0390931692636a42b8f892600480840193919291829003018186803b15801561093857600080fd5b905060005b60038301548110156118a2576118908360030182815481106116d757634e487b7160e01b600052603260045260246000fd5b6000918252602090912001546004850180546001600160a01b03909216918490811061171357634e487b7160e01b600052603260045260246000fd5b906000526020600020015485600501848154811061174157634e487b7160e01b600052603260045260246000fd5b90600052602060002001805461175690612ba0565b80601f016020809104026020016040519081016040528092919081815260200182805461178290612ba0565b80156117cf5780601f106117a4576101008083540402835291602001916117cf565b820191906000526020600020905b8154815290600101906020018083116117b257829003601f168201915b50505050508660060185815481106117f757634e487b7160e01b600052603260045260246000fd5b90600052602060002001805461180c90612ba0565b80601f016020809104026020016040519081016040528092919081815260200182805461183890612ba0565b80156118855780601f1061185a57610100808354040283529160200191611885565b820191906000526020600020905b81548152906001019060200180831161186857829003601f168201915b505050505086611e97565b8061189a81612bd5565b9150506116a5565b506002820181905560408051848152602081018390527f9a2e42fd6722813d69113e7d0079d3d940171428df7373df9c7f7617cfda28929101610ce9565b60056118eb826107c3565b600781111561190a57634e487b7160e01b600052602160045260246000fd5b1461198b5760405162461bcd60e51b815260206004820152604560248201527f476f7665726e6f72416c7068613a3a657865637574653a2070726f706f73616c60448201527f2063616e206f6e6c7920626520657865637574656420696620697420697320716064820152641d595d595960da1b608482015260a401610831565b6000818152600360205260408120600b8101805461ff001916610100179055905b6003820154811015611b21576000546003830180546001600160a01b0390921691630825f38f9190849081106119f257634e487b7160e01b600052603260045260246000fd5b6000918252602090912001546004850180546001600160a01b039092169185908110611a2e57634e487b7160e01b600052603260045260246000fd5b9060005260206000200154856005018581548110611a5c57634e487b7160e01b600052603260045260246000fd5b90600052602060002001866006018681548110611a8957634e487b7160e01b600052603260045260246000fd5b9060005260206000200187600201546040518663ffffffff1660e01b8152600401611ab8959493929190612960565b600060405180830381600087803b158015611ad257600080fd5b505af1158015611ae6573d6000803e3d6000fd5b505050506040513d6000823e601f3d908101601f19168201604052611b0e9190810190612621565b5080611b1981612bd5565b9150506119ac565b506040518281527f712ae1383f79ac853f8d882153778e0260ef8f03b504e2866e0593e04d2b291f9060200160405180910390a15050565b6001611b64836107c3565b6007811115611b8357634e487b7160e01b600052602160045260246000fd5b14611be35760405162461bcd60e51b815260206004820152602a60248201527f476f7665726e6f72416c7068613a3a5f63617374566f74653a20766f74696e67604482015269081a5cc818db1bdcd95960b21b6064820152608401610831565b6000828152600360209081526040808320600483528184206001600160a01b0388168552909252909120805460ff1615611c755760405162461bcd60e51b815260206004820152602d60248201527f476f7665726e6f72416c7068613a3a5f63617374566f74653a20766f7465722060448201526c185b1c9958591e481d9bdd1959609a1b6064820152608401610831565b600154600783015460405163782d6fe160e01b81526000926001600160a01b03169163782d6fe191611cbf918a916004016001600160a01b03929092168252602082015260400190565b60206040518083038186803b158015611cd757600080fd5b505afa158015611ceb573d6000803e3d6000fd5b505050506040513d601f19601f82011682018060405250810190611d0f919061275c565b90508315611d3857611d2e8360090154826001600160601b0316611de9565b6009840155611d55565b611d4f83600a0154826001600160601b0316611de9565b600a8401555b81546001600160601b0382166201000081026dffffffffffffffffffffffff000019871515610100810261ffff199095169490941760011716178455604080516001600160a01b038a168152602081018990529081019290925260608201527f877856338e13f63d0c36822ff0ef736b80934cd90574a3a5bc9262c39d217c469060800160405180910390a1505050505050565b600080611df68385612b41565b905083811015611e3c5760405162461bcd60e51b81526020600482015260116024820152706164646974696f6e206f766572666c6f7760781b6044820152606401610831565b9392505050565b600082821115611e8d5760405162461bcd60e51b81526020600482015260156024820152747375627472616374696f6e20756e646572666c6f7760581b6044820152606401610831565b611e3c8284612b59565b6000546040516001600160a01b039091169063f2b0653790611ec59088908890889088908890602001612914565b604051602081830303815290604052805190602001206040518263ffffffff1660e01b8152600401611ef991815260200190565b60206040518083038186803b158015611f1157600080fd5b505afa158015611f25573d6000803e3d6000fd5b505050506040513d601f19601f82011682018060405250810190611f4991906125ed565b15611fca5760405162461bcd60e51b8152602060048201526044602482018190527f476f7665726e6f72416c7068613a3a5f71756575654f725265766572743a2070908201527f726f706f73616c20616374696f6e20616c7265616479207175657565642061746064820152632065746160e01b608482015260a401610831565b600054604051633a66f90160e01b81526001600160a01b0390911690633a66f901906120029088908890889088908890600401612914565b602060405180830381600087803b15801561201c57600080fd5b505af1158015612030573d6000803e3d6000fd5b505050506040513d601f19601f820116820180604052508101906120549190612609565b505050505050565b8280548282559060005260206000209081019282156120b1579160200282015b828111156120b157825182546001600160a01b0319166001600160a01b0390911617825560209092019160019091019061207c565b506120bd9291506121ae565b5090565b8280548282559060005260206000209081019282156120b1579160200282015b828111156120b15782518255916020019190600101906120e1565b828054828255906000526020600020908101928215612149579160200282015b8281111561214957825180516121399184916020909101906121c3565b509160200191906001019061211c565b506120bd929150612236565b8280548282559060005260206000209081019282156121a2579160200282015b828111156121a257825180516121929184916020909101906121c3565b5091602001919060010190612175565b506120bd929150612253565b5b808211156120bd57600081556001016121af565b8280546121cf90612ba0565b90600052602060002090601f0160209004810192826121f157600085556120b1565b82601f1061220a57805160ff19168380011785556120b1565b828001600101855582156120b157918201828111156120b15782518255916020019190600101906120e1565b808211156120bd57600061224a8282612270565b50600101612236565b808211156120bd5760006122678282612270565b50600101612253565b50805461227c90612ba0565b6000825580601f1061228c575050565b601f0160209004906000526020600020908101906122aa91906121ae565b50565b60006122c06122bb84612b19565b612ac4565b90508281528383830111156122d457600080fd5b828260208301376000602084830101529392505050565b80356001600160a01b038116811461230257600080fd5b919050565b600082601f830112612317578081fd5b813560206123276122bb83612af5565b80838252828201915082860187848660051b8901011115612346578586fd5b855b8581101561236b57612359826122eb565b84529284019290840190600101612348565b5090979650505050505050565b600082601f830112612388578081fd5b813560206123986122bb83612af5565b80838252828201915082860187848660051b89010111156123b7578586fd5b855b8581101561236b57813567ffffffffffffffff8111156123d7578788fd5b8801603f81018a136123e7578788fd5b6123f88a87830135604084016122ad565b85525092840192908401906001016123b9565b600082601f83011261241b578081fd5b8135602061242b6122bb83612af5565b80838252828201915082860187848660051b890101111561244a578586fd5b855b8581101561236b57813567ffffffffffffffff81111561246a578788fd5b6124788a87838c01016124e8565b855250928401929084019060010161244c565b600082601f83011261249b578081fd5b813560206124ab6122bb83612af5565b80838252828201915082860187848660051b89010111156124ca578586fd5b855b8581101561236b578135845292840192908401906001016124cc565b600082601f8301126124f8578081fd5b611e3c838335602085016122ad565b600060208284031215612518578081fd5b611e3c826122eb565b600080600080600060a08688031215612538578081fd5b853567ffffffffffffffff8082111561254f578283fd5b61255b89838a01612307565b96506020880135915080821115612570578283fd5b61257c89838a0161248b565b95506040880135915080821115612591578283fd5b61259d89838a0161240b565b945060608801359150808211156125b2578283fd5b6125be89838a01612378565b935060808801359150808211156125d3578283fd5b506125e0888289016124e8565b9150509295509295909350565b6000602082840312156125fe578081fd5b8151611e3c81612c1c565b60006020828403121561261a578081fd5b5051919050565b600060208284031215612632578081fd5b815167ffffffffffffffff811115612648578182fd5b8201601f81018413612658578182fd5b80516126666122bb82612b19565b81815285602083850101111561267a578384fd5b61268b826020830160208601612b70565b95945050505050565b6000602082840312156126a5578081fd5b5035919050565b600080604083850312156126be578182fd5b823591506126ce602084016122eb565b90509250929050565b600080604083850312156126e9578182fd5b8235915060208301356126fb81612c1c565b809150509250929050565b600080600080600060a0868803121561271d578283fd5b85359450602086013561272f81612c1c565b9350604086013560ff81168114612744578384fd5b94979396509394606081013594506080013592915050565b60006020828403121561276d578081fd5b81516001600160601b0381168114611e3c578182fd5b6000815180845260208085019450808401835b838110156127bb5781516001600160a01b031687529582019590820190600101612796565b509495945050505050565b600081518084526020808501808196508360051b81019150828601855b8581101561280d5782840389526127fb848351612849565b988501989350908401906001016127e3565b5091979650505050505050565b6000815180845260208085019450808401835b838110156127bb5781518752958201959082019060010161282d565b60008151808452612861816020860160208601612b70565b601f01601f19169290920160200192915050565b8054600090600181811c908083168061288f57607f831692505b60208084108214156128af57634e487b7160e01b86526022600452602486fd5b8388528180156128c657600181146128da57612908565b60ff19861689830152604089019650612908565b876000528160002060005b868110156129005781548b82018501529085019083016128e5565b8a0183019750505b50505050505092915050565b60018060a01b038616815284602082015260a06040820152600061293b60a0830186612849565b828103606084015261294d8186612849565b9150508260808301529695505050505050565b60018060a01b038616815284602082015260a06040820152600061298760a0830186612875565b828103606084015261294d8186612875565b6080815260006129ac6080830187612783565b82810360208401526129be818761281a565b905082810360408401526129d281866127c6565b905082810360608401526129e681856127c6565b979650505050505050565b6020810160088310612a1357634e487b7160e01b600052602160045260246000fd5b91905290565b602081526000611e3c6020830184612849565b8981526001600160a01b038916602082015261012060408201819052600090612a578382018b612783565b90508281036060840152612a6b818a61281a565b90508281036080840152612a7f81896127c6565b905082810360a0840152612a9381886127c6565b90508560c08401528460e0840152828103610100840152612ab48185612849565b9c9b505050505050505050505050565b604051601f8201601f1916810167ffffffffffffffff81118282101715612aed57612aed612c06565b604052919050565b600067ffffffffffffffff821115612b0f57612b0f612c06565b5060051b60200190565b600067ffffffffffffffff821115612b3357612b33612c06565b50601f01601f191660200190565b60008219821115612b5457612b54612bf0565b500190565b600082821015612b6b57612b6b612bf0565b500390565b60005b83811015612b8b578181015183820152602001612b73565b83811115612b9a576000848401525b50505050565b600181811c90821680612bb457607f821691505b6020821081141561098d57634e487b7160e01b600052602260045260246000fd5b6000600019821415612be957612be9612bf0565b5060010190565b634e487b7160e01b600052601160045260246000fd5b634e487b7160e01b600052604160045260246000fd5b80151581146122aa57600080fdfea26469706673582212206f9aea198fd250181ad2553d72c2f7c8f93d88803327682fcf5023b4ebd3ca6d64736f6c63430008040033608060405234801561001057600080fd5b506040516110c73803806110c783398101604081905261002f9161014f565b6202a3008110156100ad5760405162461bcd60e51b815260206004820152603760248201527f54696d656c6f636b3a3a636f6e7374727563746f723a2044656c6179206d757360448201527f7420657863656564206d696e696d756d2064656c61792e00000000000000000060648201526084015b60405180910390fd5b62278d008111156101265760405162461bcd60e51b815260206004820152603860248201527f54696d656c6f636b3a3a73657444656c61793a2044656c6179206d757374206e60448201527f6f7420657863656564206d6178696d756d2064656c61792e000000000000000060648201526084016100a4565b600080546001600160a01b0319166001600160a01b039390931692909217909155600255610187565b60008060408385031215610161578182fd5b82516001600160a01b0381168114610177578283fd5b6020939093015192949293505050565b610f31806101966000396000f3fe6080604052600436106100c65760003560e01c80636a42b8f81161007f578063c1a287e211610059578063c1a287e214610209578063e177246e14610220578063f2b0653714610240578063f851a4401461028057600080fd5b80636a42b8f8146101c55780637d645fab146101db578063b1b43ae5146101f257600080fd5b80630825f38f146100d25780630e18b68114610108578063267822471461011f5780633a66f901146101575780634dd18bf514610185578063591fcdfe146101a557600080fd5b366100cd57005b600080fd5b3480156100de57600080fd5b506100f26100ed366004610c98565b6102a0565b6040516100ff9190610e21565b60405180910390f35b34801561011457600080fd5b5061011d610611565b005b34801561012b57600080fd5b5060015461013f906001600160a01b031681565b6040516001600160a01b0390911681526020016100ff565b34801561016357600080fd5b50610177610172366004610c98565b6106da565b6040519081526020016100ff565b34801561019157600080fd5b5061011d6101a0366004610c77565b610887565b3480156101b157600080fd5b5061011d6101c0366004610c98565b610946565b3480156101d157600080fd5b5061017760025481565b3480156101e757600080fd5b5061017762278d0081565b3480156101fe57600080fd5b506101776202a30081565b34801561021557600080fd5b506101776212750081565b34801561022c57600080fd5b5061011d61023b366004610d44565b610a60565b34801561024c57600080fd5b5061027061025b366004610d44565b60036020526000908152604090205460ff1681565b60405190151581526020016100ff565b34801561028c57600080fd5b5060005461013f906001600160a01b031681565b6000546060906001600160a01b031633146103285760405162461bcd60e51b815260206004820152603860248201527f54696d656c6f636b3a3a657865637574655472616e73616374696f6e3a20436160448201527f6c6c206d75737420636f6d652066726f6d2061646d696e2e000000000000000060648201526084015b60405180910390fd5b60008686868686604051602001610343959493929190610dd5565b60408051601f1981840301815291815281516020928301206000818152600390935291205490915060ff166103ce5760405162461bcd60e51b815260206004820152603d6024820152600080516020610edc83398151915260448201527f616e73616374696f6e206861736e2774206265656e207175657565642e000000606482015260840161031f565b824210156104405760405162461bcd60e51b81526020600482015260456024820152600080516020610edc83398151915260448201527f616e73616374696f6e206861736e2774207375727061737365642074696d65206064820152643637b1b59760d91b608482015260a40161031f565b61044d6212750084610e71565b4211156104a65760405162461bcd60e51b81526020600482015260336024820152600080516020610edc83398151915260448201527230b739b0b1ba34b7b71034b99039ba30b6329760691b606482015260840161031f565b6000818152600360205260409020805460ff1916905584516060906104cc5750836104f8565b8580519060200120856040516020016104e6929190610d88565b60405160208183030381529060405290505b600080896001600160a01b031689846040516105149190610db9565b60006040518083038185875af1925050503d8060008114610551576040519150601f19603f3d011682016040523d82523d6000602084013e610556565b606091505b5091509150816105bc5760405162461bcd60e51b815260206004820152603d6024820152600080516020610edc83398151915260448201527f616e73616374696f6e20657865637574696f6e2072657665727465642e000000606482015260840161031f565b896001600160a01b0316847fa560e3198060a2f10670c1ec5b403077ea6ae93ca8de1c32b451dc1a943cd6e78b8b8b8b6040516105fc9493929190610e34565b60405180910390a39998505050505050505050565b6001546001600160a01b031633146106915760405162461bcd60e51b815260206004820152603860248201527f54696d656c6f636b3a3a61636365707441646d696e3a2043616c6c206d75737460448201527f20636f6d652066726f6d2070656e64696e6741646d696e2e0000000000000000606482015260840161031f565b60008054336001600160a01b0319918216811783556001805490921690915560405190917f71614071b88dee5e0b2ae578a9dd7b2ebbe9ae832ba419dc0242cd065a290b6c91a2565b600080546001600160a01b031633146107545760405162461bcd60e51b815260206004820152603660248201527f54696d656c6f636b3a3a71756575655472616e73616374696f6e3a2043616c6c6044820152751036bab9ba1031b7b6b290333937b69030b236b4b71760511b606482015260840161031f565b6002546107619042610e71565b8210156107e85760405162461bcd60e51b815260206004820152604960248201527f54696d656c6f636b3a3a71756575655472616e73616374696f6e3a204573746960448201527f6d6174656420657865637574696f6e20626c6f636b206d757374207361746973606482015268333c903232b630bc9760b91b608482015260a40161031f565b60008686868686604051602001610803959493929190610dd5565b60408051601f19818403018152828252805160209182012060008181526003909252919020805460ff1916600117905591506001600160a01b0388169082907f76e2796dc3a81d57b0e8504b647febcbeeb5f4af818e164f11eef8131a6a763f90610875908a908a908a908a90610e34565b60405180910390a39695505050505050565b3330146108fc5760405162461bcd60e51b815260206004820152603860248201527f54696d656c6f636b3a3a73657450656e64696e6741646d696e3a2043616c6c2060448201527f6d75737420636f6d652066726f6d2054696d656c6f636b2e0000000000000000606482015260840161031f565b600180546001600160a01b0319166001600160a01b0383169081179091556040517f69d78e38a01985fbb1462961809b4b2d65531bc93b2b94037f3334b82ca4a75690600090a250565b6000546001600160a01b031633146109c65760405162461bcd60e51b815260206004820152603760248201527f54696d656c6f636b3a3a63616e63656c5472616e73616374696f6e3a2043616c60448201527f6c206d75737420636f6d652066726f6d2061646d696e2e000000000000000000606482015260840161031f565b600085858585856040516020016109e1959493929190610dd5565b60408051601f19818403018152828252805160209182012060008181526003909252919020805460ff1916905591506001600160a01b0387169082907f2fffc091a501fd91bfbff27141450d3acb40fb8e6d8382b243ec7a812a3aaf8790610a50908990899089908990610e34565b60405180910390a3505050505050565b333014610ac95760405162461bcd60e51b815260206004820152603160248201527f54696d656c6f636b3a3a73657444656c61793a2043616c6c206d75737420636f60448201527036b290333937b6902a34b6b2b637b1b59760791b606482015260840161031f565b6202a300811015610b395760405162461bcd60e51b815260206004820152603460248201527f54696d656c6f636b3a3a73657444656c61793a2044656c6179206d75737420656044820152733c31b2b2b21036b4b734b6bab6903232b630bc9760611b606482015260840161031f565b62278d00811115610bb25760405162461bcd60e51b815260206004820152603860248201527f54696d656c6f636b3a3a73657444656c61793a2044656c6179206d757374206e60448201527f6f7420657863656564206d6178696d756d2064656c61792e0000000000000000606482015260840161031f565b600281905560405181907f948b1f6a42ee138b7e34058ba85a37f716d55ff25ff05a763f15bed6a04c8d2c90600090a250565b600067ffffffffffffffff80841115610c0057610c00610ec5565b604051601f8501601f19908116603f01168101908282118183101715610c2857610c28610ec5565b81604052809350858152868686011115610c4157600080fd5b858560208301376000602087830101525050509392505050565b80356001600160a01b0381168114610c7257600080fd5b919050565b600060208284031215610c88578081fd5b610c9182610c5b565b9392505050565b600080600080600060a08688031215610caf578081fd5b610cb886610c5b565b945060208601359350604086013567ffffffffffffffff80821115610cdb578283fd5b818801915088601f830112610cee578283fd5b610cfd89833560208501610be5565b94506060880135915080821115610d12578283fd5b508601601f81018813610d23578182fd5b610d3288823560208401610be5565b95989497509295608001359392505050565b600060208284031215610d55578081fd5b5035919050565b60008151808452610d74816020860160208601610e95565b601f01601f19169290920160200192915050565b6001600160e01b0319831681528151600090610dab816004850160208701610e95565b919091016004019392505050565b60008251610dcb818460208701610e95565b9190910192915050565b60018060a01b038616815284602082015260a060408201526000610dfc60a0830186610d5c565b8281036060840152610e0e8186610d5c565b9150508260808301529695505050505050565b602081526000610c916020830184610d5c565b848152608060208201526000610e4d6080830186610d5c565b8281036040840152610e5f8186610d5c565b91505082606083015295945050505050565b60008219821115610e9057634e487b7160e01b81526011600452602481fd5b500190565b60005b83811015610eb0578181015183820152602001610e98565b83811115610ebf576000848401525b50505050565b634e487b7160e01b600052604160045260246000fdfe54696d656c6f636b3a3a657865637574655472616e73616374696f6e3a205472a2646970667358221220486172d8841d6860939b5b3c6b069f5fe53b156ccf338581ad4a63bae6fcb25c64736f6c63430008040033",
  "devdoc": {
    "kind": "dev",
    "methods": {},
    "version": 1
  },
  "userdoc": {
    "events": {
      "ProposalCanceled(uint256)": {
        "notice": "An event emitted when a proposal has been canceled"
      },
      "ProposalCreated(uint256,address,address[],uint256[],string[],bytes[],uint256,uint256,string)": {
        "notice": "An event emitted when a new proposal is created"
      },
      "ProposalExecuted(uint256)": {
        "notice": "An event emitted when a proposal has been executed in the Timelock"
      },
      "ProposalQueued(uint256,uint256)": {
        "notice": "An event emitted when a proposal has been queued in the Timelock"
      },
      "VoteCast(address,uint256,bool,uint256)": {
        "notice": "An event emitted when a vote has been cast on a proposal"
      }
    },
    "kind": "user",
    "methods": {
      "BALLOT_TYPEHASH()": {
        "notice": "The EIP-712 typehash for the ballot struct used by the contract"
      },
      "DOMAIN_TYPEHASH()": {
        "notice": "The EIP-712 typehash for the contract's domain"
      },
      "fire()": {
        "notice": "The address of the governance token"
      },
      "latestProposalIds(address)": {
        "notice": "The latest proposal for each proposer"
      },
      "name()": {
        "notice": "The name of this contract"
      },
      "proposalCount()": {
        "notice": "The total number of proposals"
      },
      "proposalMaxOperations()": {
        "notice": "The maximum number of actions that can be included in a proposal"
      },
      "proposalThreshold()": {
        "notice": "The number of votes required in order for a voter to become a proposer"
      },
      "proposals(uint256)": {
        "notice": "The official record of all proposals ever proposed"
      },
      "quorumVotes()": {
        "notice": "The number of votes in support of a proposal required in order for a quorum to be reached and for a vote to succeed"
      },
      "timelock()": {
        "notice": "The address of the Protocol Timelock"
      },
      "votingDelay()": {
        "notice": "The delay before voting on a proposal may take place, once proposed"
      },
      "votingPeriod()": {
        "notice": "The duration of voting on a proposal, in blocks"
      }
    },
    "version": 1
  },
  "storageLayout": {
    "storage": [
      {
        "astId": 55,
        "contract": "contracts/governance/GovernorAlpha.sol:GovernorAlpha",
        "label": "timelock",
        "offset": 0,
        "slot": "0",
        "type": "t_contract(Timelock)1558"
      },
      {
        "astId": 59,
        "contract": "contracts/governance/GovernorAlpha.sol:GovernorAlpha",
        "label": "fire",
        "offset": 0,
        "slot": "1",
        "type": "t_contract(FireInterface)1105"
      },
      {
        "astId": 62,
        "contract": "contracts/governance/GovernorAlpha.sol:GovernorAlpha",
        "label": "proposalCount",
        "offset": 0,
        "slot": "2",
        "type": "t_uint256"
      },
      {
        "astId": 115,
        "contract": "contracts/governance/GovernorAlpha.sol:GovernorAlpha",
        "label": "proposals",
        "offset": 0,
        "slot": "3",
        "type": "t_mapping(t_uint256,t_struct(Proposal)93_storage)"
      },
      {
        "astId": 122,
        "contract": "contracts/governance/GovernorAlpha.sol:GovernorAlpha",
        "label": "proposalReceipts",
        "offset": 0,
        "slot": "4",
        "type": "t_mapping(t_uint256,t_mapping(t_address,t_struct(Receipt)100_storage))"
      },
      {
        "astId": 127,
        "contract": "contracts/governance/GovernorAlpha.sol:GovernorAlpha",
        "label": "latestProposalIds",
        "offset": 0,
        "slot": "5",
        "type": "t_mapping(t_address,t_uint256)"
      }
    ],
    "types": {
      "t_address": {
        "encoding": "inplace",
        "label": "address",
        "numberOfBytes": "20"
      },
      "t_array(t_address)dyn_storage": {
        "base": "t_address",
        "encoding": "dynamic_array",
        "label": "address[]",
        "numberOfBytes": "32"
      },
      "t_array(t_bytes_storage)dyn_storage": {
        "base": "t_bytes_storage",
        "encoding": "dynamic_array",
        "label": "bytes[]",
        "numberOfBytes": "32"
      },
      "t_array(t_string_storage)dyn_storage": {
        "base": "t_string_storage",
        "encoding": "dynamic_array",
        "label": "string[]",
        "numberOfBytes": "32"
      },
      "t_array(t_uint256)dyn_storage": {
        "base": "t_uint256",
        "encoding": "dynamic_array",
        "label": "uint256[]",
        "numberOfBytes": "32"
      },
      "t_bool": {
        "encoding": "inplace",
        "label": "bool",
        "numberOfBytes": "1"
      },
      "t_bytes_storage": {
        "encoding": "bytes",
        "label": "bytes",
        "numberOfBytes": "32"
      },
      "t_contract(FireInterface)1105": {
        "encoding": "inplace",
        "label": "contract FireInterface",
        "numberOfBytes": "20"
      },
      "t_contract(Timelock)1558": {
        "encoding": "inplace",
        "label": "contract Timelock",
        "numberOfBytes": "20"
      },
      "t_mapping(t_address,t_struct(Receipt)100_storage)": {
        "encoding": "mapping",
        "key": "t_address",
        "label": "mapping(address => struct GovernorAlpha.Receipt)",
        "numberOfBytes": "32",
        "value": "t_struct(Receipt)100_storage"
      },
      "t_mapping(t_address,t_uint256)": {
        "encoding": "mapping",
        "key": "t_address",
        "label": "mapping(address => uint256)",
        "numberOfBytes": "32",
        "value": "t_uint256"
      },
      "t_mapping(t_uint256,t_mapping(t_address,t_struct(Receipt)100_storage))": {
        "encoding": "mapping",
        "key": "t_uint256",
        "label": "mapping(uint256 => mapping(address => struct GovernorAlpha.Receipt))",
        "numberOfBytes": "32",
        "value": "t_mapping(t_address,t_struct(Receipt)100_storage)"
      },
      "t_mapping(t_uint256,t_struct(Proposal)93_storage)": {
        "encoding": "mapping",
        "key": "t_uint256",
        "label": "mapping(uint256 => struct GovernorAlpha.Proposal)",
        "numberOfBytes": "32",
        "value": "t_struct(Proposal)93_storage"
      },
      "t_string_storage": {
        "encoding": "bytes",
        "label": "string",
        "numberOfBytes": "32"
      },
      "t_struct(Proposal)93_storage": {
        "encoding": "inplace",
        "label": "struct GovernorAlpha.Proposal",
        "members": [
          {
            "astId": 64,
            "contract": "contracts/governance/GovernorAlpha.sol:GovernorAlpha",
            "label": "id",
            "offset": 0,
            "slot": "0",
            "type": "t_uint256"
          },
          {
            "astId": 66,
            "contract": "contracts/governance/GovernorAlpha.sol:GovernorAlpha",
            "label": "proposer",
            "offset": 0,
            "slot": "1",
            "type": "t_address"
          },
          {
            "astId": 68,
            "contract": "contracts/governance/GovernorAlpha.sol:GovernorAlpha",
            "label": "eta",
            "offset": 0,
            "slot": "2",
            "type": "t_uint256"
          },
          {
            "astId": 71,
            "contract": "contracts/governance/GovernorAlpha.sol:GovernorAlpha",
            "label": "targets",
            "offset": 0,
            "slot": "3",
            "type": "t_array(t_address)dyn_storage"
          },
          {
            "astId": 74,
            "contract": "contracts/governance/GovernorAlpha.sol:GovernorAlpha",
            "label": "values",
            "offset": 0,
            "slot": "4",
            "type": "t_array(t_uint256)dyn_storage"
          },
          {
            "astId": 77,
            "contract": "contracts/governance/GovernorAlpha.sol:GovernorAlpha",
            "label": "signatures",
            "offset": 0,
            "slot": "5",
            "type": "t_array(t_string_storage)dyn_storage"
          },
          {
            "astId": 80,
            "contract": "contracts/governance/GovernorAlpha.sol:GovernorAlpha",
            "label": "calldatas",
            "offset": 0,
            "slot": "6",
            "type": "t_array(t_bytes_storage)dyn_storage"
          },
          {
            "astId": 82,
            "contract": "contracts/governance/GovernorAlpha.sol:GovernorAlpha",
            "label": "startBlock",
            "offset": 0,
            "slot": "7",
            "type": "t_uint256"
          },
          {
            "astId": 84,
            "contract": "contracts/governance/GovernorAlpha.sol:GovernorAlpha",
            "label": "endBlock",
            "offset": 0,
            "slot": "8",
            "type": "t_uint256"
          },
          {
            "astId": 86,
            "contract": "contracts/governance/GovernorAlpha.sol:GovernorAlpha",
            "label": "forVotes",
            "offset": 0,
            "slot": "9",
            "type": "t_uint256"
          },
          {
            "astId": 88,
            "contract": "contracts/governance/GovernorAlpha.sol:GovernorAlpha",
            "label": "againstVotes",
            "offset": 0,
            "slot": "10",
            "type": "t_uint256"
          },
          {
            "astId": 90,
            "contract": "contracts/governance/GovernorAlpha.sol:GovernorAlpha",
            "label": "canceled",
            "offset": 0,
            "slot": "11",
            "type": "t_bool"
          },
          {
            "astId": 92,
            "contract": "contracts/governance/GovernorAlpha.sol:GovernorAlpha",
            "label": "executed",
            "offset": 1,
            "slot": "11",
            "type": "t_bool"
          }
        ],
        "numberOfBytes": "384"
      },
      "t_struct(Receipt)100_storage": {
        "encoding": "inplace",
        "label": "struct GovernorAlpha.Receipt",
        "members": [
          {
            "astId": 95,
            "contract": "contracts/governance/GovernorAlpha.sol:GovernorAlpha",
            "label": "hasVoted",
            "offset": 0,
            "slot": "0",
            "type": "t_bool"
          },
          {
            "astId": 97,
            "contract": "contracts/governance/GovernorAlpha.sol:GovernorAlpha",
            "label": "support",
            "offset": 1,
            "slot": "0",
            "type": "t_bool"
          },
          {
            "astId": 99,
            "contract": "contracts/governance/GovernorAlpha.sol:GovernorAlpha",
            "label": "votes",
            "offset": 2,
            "slot": "0",
            "type": "t_uint96"
          }
        ],
        "numberOfBytes": "32"
      },
      "t_uint256": {
        "encoding": "inplace",
        "label": "uint256",
        "numberOfBytes": "32"
      },
      "t_uint96": {
        "encoding": "inplace",
        "label": "uint96",
        "numberOfBytes": "12"
      }
    }
  }
}