{
  "address": "0x8e33D3a2A160Ba993649E7c7Bc48D2A4985729C2",
  "abi": [
    {
      "inputs": [
        {
          "internalType": "contract IPancakeRouter",
          "name": "_pancakeRouter",
          "type": "address"
        },
        {
          "internalType": "address",
          "name": "_treasury",
          "type": "address"
        }
      ],
      "stateMutability": "nonpayable",
      "type": "constructor"
    },
    {
      "anonymous": false,
      "inputs": [
        {
          "indexed": true,
          "internalType": "address",
          "name": "previousOwner",
          "type": "address"
        },
        {
          "indexed": true,
          "internalType": "address",
          "name": "newOwner",
          "type": "address"
        }
      ],
      "name": "OwnershipTransferred",
      "type": "event"
    },
    {
      "anonymous": false,
      "inputs": [
        {
          "indexed": true,
          "internalType": "bytes32",
          "name": "role",
          "type": "bytes32"
        },
        {
          "indexed": true,
          "internalType": "bytes32",
          "name": "previousAdminRole",
          "type": "bytes32"
        },
        {
          "indexed": true,
          "internalType": "bytes32",
          "name": "newAdminRole",
          "type": "bytes32"
        }
      ],
      "name": "RoleAdminChanged",
      "type": "event"
    },
    {
      "anonymous": false,
      "inputs": [
        {
          "indexed": true,
          "internalType": "bytes32",
          "name": "role",
          "type": "bytes32"
        },
        {
          "indexed": true,
          "internalType": "address",
          "name": "account",
          "type": "address"
        },
        {
          "indexed": true,
          "internalType": "address",
          "name": "sender",
          "type": "address"
        }
      ],
      "name": "RoleGranted",
      "type": "event"
    },
    {
      "anonymous": false,
      "inputs": [
        {
          "indexed": true,
          "internalType": "bytes32",
          "name": "role",
          "type": "bytes32"
        },
        {
          "indexed": true,
          "internalType": "address",
          "name": "account",
          "type": "address"
        },
        {
          "indexed": true,
          "internalType": "address",
          "name": "sender",
          "type": "address"
        }
      ],
      "name": "RoleRevoked",
      "type": "event"
    },
    {
      "inputs": [],
      "name": "DEFAULT_ADMIN_ROLE",
      "outputs": [
        {
          "internalType": "bytes32",
          "name": "",
          "type": "bytes32"
        }
      ],
      "stateMutability": "view",
      "type": "function"
    },
    {
      "inputs": [],
      "name": "HARVESTER_ROLE",
      "outputs": [
        {
          "internalType": "bytes32",
          "name": "",
          "type": "bytes32"
        }
      ],
      "stateMutability": "view",
      "type": "function"
    },
    {
      "inputs": [],
      "name": "fireBuyBack",
      "outputs": [
        {
          "internalType": "uint256",
          "name": "",
          "type": "uint256"
        }
      ],
      "stateMutability": "view",
      "type": "function"
    },
    {
      "inputs": [
        {
          "internalType": "bytes32",
          "name": "role",
          "type": "bytes32"
        }
      ],
      "name": "getRoleAdmin",
      "outputs": [
        {
          "internalType": "bytes32",
          "name": "",
          "type": "bytes32"
        }
      ],
      "stateMutability": "view",
      "type": "function"
    },
    {
      "inputs": [
        {
          "internalType": "bytes32",
          "name": "role",
          "type": "bytes32"
        },
        {
          "internalType": "address",
          "name": "account",
          "type": "address"
        }
      ],
      "name": "grantRole",
      "outputs": [],
      "stateMutability": "nonpayable",
      "type": "function"
    },
    {
      "inputs": [
        {
          "internalType": "contract IVault",
          "name": "vault",
          "type": "address"
        },
        {
          "internalType": "uint256",
          "name": "amountIn",
          "type": "uint256"
        },
        {
          "internalType": "uint256",
          "name": "amountOutMin",
          "type": "uint256"
        },
        {
          "internalType": "address[]",
          "name": "path",
          "type": "address[]"
        },
        {
          "internalType": "address[]",
          "name": "targetToFirePath",
          "type": "address[]"
        },
        {
          "internalType": "uint256",
          "name": "deadline",
          "type": "uint256"
        }
      ],
      "name": "harvestVault",
      "outputs": [],
      "stateMutability": "nonpayable",
      "type": "function"
    },
    {
      "inputs": [
        {
          "internalType": "bytes32",
          "name": "role",
          "type": "bytes32"
        },
        {
          "internalType": "address",
          "name": "account",
          "type": "address"
        }
      ],
      "name": "hasRole",
      "outputs": [
        {
          "internalType": "bool",
          "name": "",
          "type": "bool"
        }
      ],
      "stateMutability": "view",
      "type": "function"
    },
    {
      "inputs": [],
      "name": "owner",
      "outputs": [
        {
          "internalType": "address",
          "name": "",
          "type": "address"
        }
      ],
      "stateMutability": "view",
      "type": "function"
    },
    {
      "inputs": [],
      "name": "pancakeRouter",
      "outputs": [
        {
          "internalType": "contract IPancakeRouter",
          "name": "",
          "type": "address"
        }
      ],
      "stateMutability": "view",
      "type": "function"
    },
    {
      "inputs": [],
      "name": "performanceFee",
      "outputs": [
        {
          "internalType": "uint256",
          "name": "",
          "type": "uint256"
        }
      ],
      "stateMutability": "view",
      "type": "function"
    },
    {
      "inputs": [
        {
          "internalType": "contract IVault",
          "name": "",
          "type": "address"
        }
      ],
      "name": "ratePerToken",
      "outputs": [
        {
          "internalType": "uint256",
          "name": "",
          "type": "uint256"
        }
      ],
      "stateMutability": "view",
      "type": "function"
    },
    {
      "inputs": [],
      "name": "renounceOwnership",
      "outputs": [],
      "stateMutability": "nonpayable",
      "type": "function"
    },
    {
      "inputs": [
        {
          "internalType": "bytes32",
          "name": "role",
          "type": "bytes32"
        },
        {
          "internalType": "address",
          "name": "account",
          "type": "address"
        }
      ],
      "name": "renounceRole",
      "outputs": [],
      "stateMutability": "nonpayable",
      "type": "function"
    },
    {
      "inputs": [
        {
          "internalType": "bytes32",
          "name": "role",
          "type": "bytes32"
        },
        {
          "internalType": "address",
          "name": "account",
          "type": "address"
        }
      ],
      "name": "revokeRole",
      "outputs": [],
      "stateMutability": "nonpayable",
      "type": "function"
    },
    {
      "inputs": [
        {
          "internalType": "uint256",
          "name": "_fireBuyBack",
          "type": "uint256"
        }
      ],
      "name": "setFireBuyBack",
      "outputs": [],
      "stateMutability": "nonpayable",
      "type": "function"
    },
    {
      "inputs": [
        {
          "internalType": "uint256",
          "name": "_performanceFee",
          "type": "uint256"
        }
      ],
      "name": "setPerformanceFee",
      "outputs": [],
      "stateMutability": "nonpayable",
      "type": "function"
    },
    {
      "inputs": [
        {
          "internalType": "address",
          "name": "_treasury",
          "type": "address"
        }
      ],
      "name": "setTreasury",
      "outputs": [],
      "stateMutability": "nonpayable",
      "type": "function"
    },
    {
      "inputs": [
        {
          "internalType": "bytes4",
          "name": "interfaceId",
          "type": "bytes4"
        }
      ],
      "name": "supportsInterface",
      "outputs": [
        {
          "internalType": "bool",
          "name": "",
          "type": "bool"
        }
      ],
      "stateMutability": "view",
      "type": "function"
    },
    {
      "inputs": [
        {
          "internalType": "contract IERC20Metadata",
          "name": "token",
          "type": "address"
        }
      ],
      "name": "sweep",
      "outputs": [],
      "stateMutability": "nonpayable",
      "type": "function"
    },
    {
      "inputs": [
        {
          "internalType": "address",
          "name": "newOwner",
          "type": "address"
        }
      ],
      "name": "transferOwnership",
      "outputs": [],
      "stateMutability": "nonpayable",
      "type": "function"
    },
    {
      "inputs": [],
      "name": "treasury",
      "outputs": [
        {
          "internalType": "address",
          "name": "",
          "type": "address"
        }
      ],
      "stateMutability": "view",
      "type": "function"
    }
  ],
  "transactionHash": "0xacd4643d673489767db506b08dde96c7d218f83cf52815e6c257a018fedf727a",
  "args": [
    "0xD99D1c33F9fC3444f8101754aBC46c52416550D1",
    "0x98080901E43aD337501afa1215e117E5da78A2f9"
  ],
  "solcInputHash": "4cf7c2e8c4ff938c1888a007784c021a",
  "bytecode": "0x60806040526103e86004556103e86005553480156200001d57600080fd5b5060405162001da538038062001da583398101604081905262000040916200019e565b600180546001600160a01b0319163390811790915560405181906000907f8be0079c531659141344cd1fd0a4f28419497f9722a3daafe3b4186f6b6457e0908290a35062000090600033620000ee565b620000bc7f3fc733b4d20d27a28452ddf0e9351aced28242fe03389a653cdb783955316b9b33620000ee565b600280546001600160a01b039384166001600160a01b03199182161790915560038054929093169116179055620001f5565b620000fa8282620000fe565b5050565b6000828152602081815260408083206001600160a01b038516845290915290205460ff16620000fa576000828152602081815260408083206001600160a01b03851684529091529020805460ff191660011790556200015a3390565b6001600160a01b0316816001600160a01b0316837f2f8788117e7eff1d82e926ec794901d17c78024a50270940304540a733656f0d60405160405180910390a45050565b60008060408385031215620001b1578182fd5b8251620001be81620001dc565b6020840151909250620001d181620001dc565b809150509250929050565b6001600160a01b0381168114620001f257600080fd5b50565b611ba080620002056000396000f3fe608060405234801561001057600080fd5b50600436106101375760003560e01c80638733b2c7116100b8578063b15039751161007c578063b15039751461028e578063c21ebd07146102a1578063d547741f146102b4578063d883def7146102c7578063f0f44260146102e7578063f2fde38b146102fa57600080fd5b80638733b2c71461024657806387788782146102595780638da5cb5b1461026257806391d1485414610273578063a217fddf1461028657600080fd5b806361d027b3116100ff57806361d027b3146101d057806363a560ec146101fb57806366e03cab1461022257806370897b231461022b578063715018a61461023e57600080fd5b806301681a621461013c57806301ffc9a714610151578063248a9ca3146101795780632f2ff15d146101aa57806336568abe146101bd575b600080fd5b61014f61014a36600461158a565b61030d565b005b61016461015f3660046116cd565b6103e0565b60405190151581526020015b60405180910390f35b61019c610187366004611686565b60009081526020819052604090206001015490565b604051908152602001610170565b61014f6101b836600461169e565b610417565b61014f6101cb36600461169e565b610442565b6003546101e3906001600160a01b031681565b6040516001600160a01b039091168152602001610170565b61019c7f3fc733b4d20d27a28452ddf0e9351aced28242fe03389a653cdb783955316b9b81565b61019c60055481565b61014f610239366004611686565b6104c0565b61014f61054c565b61014f610254366004611686565b6105c0565b61019c60045481565b6001546001600160a01b03166101e3565b61016461028136600461169e565b610652565b61019c600081565b61014f61029c366004611711565b61067b565b6002546101e3906001600160a01b031681565b61014f6102c236600461169e565b610e11565b61019c6102d536600461158a565b60066020526000908152604090205481565b61014f6102f536600461158a565b610e37565b61014f61030836600461158a565b610e83565b6001546001600160a01b031633146103405760405162461bcd60e51b8152600401610337906118f0565b60405180910390fd5b6103dd6103556001546001600160a01b031690565b6040516370a0823160e01b81523060048201526001600160a01b038416906370a082319060240160206040518083038186803b15801561039457600080fd5b505afa1580156103a8573d6000803e3d6000fd5b505050506040513d601f19601f820116820180604052508101906103cc91906117ab565b6001600160a01b0384169190610f6e565b50565b60006001600160e01b03198216637965db0b60e01b148061041157506301ffc9a760e01b6001600160e01b03198316145b92915050565b6000828152602081905260409020600101546104338133610fc0565b61043d8383611024565b505050565b6001600160a01b03811633146104b25760405162461bcd60e51b815260206004820152602f60248201527f416363657373436f6e74726f6c3a2063616e206f6e6c792072656e6f756e636560448201526e103937b632b9903337b91039b2b63360891b6064820152608401610337565b6104bc82826110a8565b5050565b6001546001600160a01b031633146104ea5760405162461bcd60e51b8152600401610337906118f0565b61271081106105475760405162461bcd60e51b815260206004820152602360248201527f4861727665737465723a20706572666f726d616e63652066656520746f6f20686044820152620d2ced60eb1b6064820152608401610337565b600455565b6001546001600160a01b031633146105765760405162461bcd60e51b8152600401610337906118f0565b6001546040516000916001600160a01b0316907f8be0079c531659141344cd1fd0a4f28419497f9722a3daafe3b4186f6b6457e0908390a3600180546001600160a01b0319169055565b6001546001600160a01b031633146105ea5760405162461bcd60e51b8152600401610337906118f0565b612710811061064d5760405162461bcd60e51b815260206004820152602960248201527f4861727665737465723a206669726520627579206261636b2070657263656e74604482015268040e8dede40d0d2ced60bb1b6064820152608401610337565b600555565b6000918252602082815260408084206001600160a01b0393909316845291905290205460ff1690565b6106a57f3fc733b4d20d27a28452ddf0e9351aced28242fe03389a653cdb783955316b9b33610652565b6106f15760405162461bcd60e51b815260206004820152601a60248201527f4861727665737465723a206e6f742077686974656c69737465640000000000006044820152606401610337565b60008790506000896001600160a01b0316636f307dc36040518163ffffffff1660e01b815260040160206040518083038186803b15801561073157600080fd5b505afa158015610745573d6000803e3d6000fd5b505050506040513d601f19601f8201168201806040525081019061076991906116f5565b905060006127106005546004546107809190611963565b61078a9085611a89565b610794919061197b565b61079e9084611aa8565b905060008b6001600160a01b031663903550876040518163ffffffff1660e01b815260040160206040518083038186803b1580156107db57600080fd5b505afa1580156107ef573d6000803e3d6000fd5b505050506040513d601f19601f8201168201806040525081019061081391906117ab565b61081d9042611aa8565b9050808c6001600160a01b03166318160ddd6040518163ffffffff1660e01b815260040160206040518083038186803b15801561085957600080fd5b505afa15801561086d573d6000803e3d6000fd5b505050506040513d601f19601f8201168201806040525081019061089191906117ab565b846001600160a01b031663313ce5676040518163ffffffff1660e01b815260040160206040518083038186803b1580156108ca57600080fd5b505afa1580156108de573d6000803e3d6000fd5b505050506040513d601f19601f8201168201806040525081019061090291906117c3565b61090d906024611abf565b61091890600a6119de565b6109229085611a89565b61092c919061197b565b610936919061197b565b6001600160a01b038d1660008181526006602052604090819020929092559051636ee3193160e11b81526004810186905263ddc6326290602401600060405180830381600087803b15801561098a57600080fd5b505af115801561099e573d6000803e3d6000fd5b5050505060008c6001600160a01b031663d4b839926040518163ffffffff1660e01b815260040160206040518083038186803b1580156109dd57600080fd5b505afa1580156109f1573d6000803e3d6000fd5b505050506040513d601f19601f82011682018060405250810190610a1591906116f5565b9050806001600160a01b0316846001600160a01b031614610b7b5760025460405163095ea7b360e01b81526001600160a01b039182166004820152602481018790529085169063095ea7b390604401602060405180830381600087803b158015610a7e57600080fd5b505af1158015610a92573d6000803e3d6000fd5b505050506040513d601f19601f82011682018060405250810190610ab69190611666565b506002546040516338ed173960e01b81526001600160a01b03909116906338ed173990610af19088908f908f908f9030908e90600401611925565b600060405180830381600087803b158015610b0b57600080fd5b505af1158015610b1f573d6000803e3d6000fd5b505050506040513d6000823e601f3d908101601f19168201604052610b4791908101906115a6565b610b5260018b611aa8565b81518110610b7057634e487b7160e01b600052603260045260246000fd5b602002602001015194505b60055485935015610cd557600061271060055487610b999190611a89565b610ba3919061197b565b60025460405163095ea7b360e01b81526001600160a01b0391821660048201526024810183905291925083169063095ea7b390604401602060405180830381600087803b158015610bf357600080fd5b505af1158015610c07573d6000803e3d6000fd5b505050506040513d601f19601f82011682018060405250810190610c2b9190611666565b506002546001600160a01b03166338ed17398260008c8c30610c4f42610708611963565b6040518763ffffffff1660e01b8152600401610c7096959493929190611925565b600060405180830381600087803b158015610c8a57600080fd5b505af1158015610c9e573d6000803e3d6000fd5b505050506040513d6000823e601f3d908101601f19168201604052610cc691908101906115a6565b50610cd18185611aa8565b9350505b60045415610d2557600061271060045487610cf09190611a89565b610cfa919061197b565b9050610d068185611aa8565b600354909450610d23906001600160a01b03848116911683610f6e565b505b60405163095ea7b360e01b81526001600160a01b038e811660048301526024820185905282169063095ea7b390604401602060405180830381600087803b158015610d6f57600080fd5b505af1158015610d83573d6000803e3d6000fd5b505050506040513d601f19601f82011682018060405250810190610da79190611666565b50604051633243c79160e01b8152600481018490526001600160a01b038e1690633243c79190602401600060405180830381600087803b158015610dea57600080fd5b505af1158015610dfe573d6000803e3d6000fd5b5050505050505050505050505050505050565b600082815260208190526040902060010154610e2d8133610fc0565b61043d83836110a8565b6001546001600160a01b03163314610e615760405162461bcd60e51b8152600401610337906118f0565b600380546001600160a01b0319166001600160a01b0392909216919091179055565b6001546001600160a01b03163314610ead5760405162461bcd60e51b8152600401610337906118f0565b6001600160a01b038116610f125760405162461bcd60e51b815260206004820152602660248201527f4f776e61626c653a206e6577206f776e657220697320746865207a65726f206160448201526564647265737360d01b6064820152608401610337565b6001546040516001600160a01b038084169216907f8be0079c531659141344cd1fd0a4f28419497f9722a3daafe3b4186f6b6457e090600090a3600180546001600160a01b0319166001600160a01b0392909216919091179055565b604080516001600160a01b038416602482015260448082018490528251808303909101815260649091019091526020810180516001600160e01b031663a9059cbb60e01b17905261043d90849061110d565b610fca8282610652565b6104bc57610fe2816001600160a01b031660146111df565b610fed8360206111df565b604051602001610ffe929190611848565b60408051601f198184030181529082905262461bcd60e51b8252610337916004016118bd565b61102e8282610652565b6104bc576000828152602081815260408083206001600160a01b03851684529091529020805460ff191660011790556110643390565b6001600160a01b0316816001600160a01b0316837f2f8788117e7eff1d82e926ec794901d17c78024a50270940304540a733656f0d60405160405180910390a45050565b6110b28282610652565b156104bc576000828152602081815260408083206001600160a01b0385168085529252808320805460ff1916905551339285917ff6391f5c32d9c69d2a47ea670b442974b53935d1edc7fd64eb21e047a839171b9190a45050565b6000611162826040518060400160405280602081526020017f5361666545524332303a206c6f772d6c6576656c2063616c6c206661696c6564815250856001600160a01b03166113c89092919063ffffffff16565b80519091501561043d57808060200190518101906111809190611666565b61043d5760405162461bcd60e51b815260206004820152602a60248201527f5361666545524332303a204552433230206f7065726174696f6e20646964206e6044820152691bdd081cdd58d8d9595960b21b6064820152608401610337565b606060006111ee836002611a89565b6111f9906002611963565b67ffffffffffffffff81111561121f57634e487b7160e01b600052604160045260246000fd5b6040519080825280601f01601f191660200182016040528015611249576020820181803683370190505b509050600360fc1b8160008151811061127257634e487b7160e01b600052603260045260246000fd5b60200101906001600160f81b031916908160001a905350600f60fb1b816001815181106112af57634e487b7160e01b600052603260045260246000fd5b60200101906001600160f81b031916908160001a90535060006112d3846002611a89565b6112de906001611963565b90505b6001811115611372576f181899199a1a9b1b9c1cb0b131b232b360811b85600f166010811061132057634e487b7160e01b600052603260045260246000fd5b1a60f81b82828151811061134457634e487b7160e01b600052603260045260246000fd5b60200101906001600160f81b031916908160001a90535060049490941c9361136b81611b12565b90506112e1565b5083156113c15760405162461bcd60e51b815260206004820181905260248201527f537472696e67733a20686578206c656e67746820696e73756666696369656e746044820152606401610337565b9392505050565b60606113d784846000856113df565b949350505050565b6060824710156114405760405162461bcd60e51b815260206004820152602660248201527f416464726573733a20696e73756666696369656e742062616c616e636520666f6044820152651c8818d85b1b60d21b6064820152608401610337565b843b61148e5760405162461bcd60e51b815260206004820152601d60248201527f416464726573733a2063616c6c20746f206e6f6e2d636f6e74726163740000006044820152606401610337565b600080866001600160a01b031685876040516114aa919061182c565b60006040518083038185875af1925050503d80600081146114e7576040519150601f19603f3d011682016040523d82523d6000602084013e6114ec565b606091505b50915091506114fc828286611507565b979650505050505050565b606083156115165750816113c1565b8251156115265782518084602001fd5b8160405162461bcd60e51b815260040161033791906118bd565b60008083601f840112611551578081fd5b50813567ffffffffffffffff811115611568578182fd5b6020830191508360208260051b850101111561158357600080fd5b9250929050565b60006020828403121561159b578081fd5b81356113c181611b55565b600060208083850312156115b8578182fd5b825167ffffffffffffffff808211156115cf578384fd5b818501915085601f8301126115e2578384fd5b8151818111156115f4576115f4611b3f565b8060051b604051601f19603f8301168101818110858211171561161957611619611b3f565b604052828152858101935084860182860187018a1015611637578788fd5b8795505b8386101561165957805185526001959095019493860193860161163b565b5098975050505050505050565b600060208284031215611677578081fd5b815180151581146113c1578182fd5b600060208284031215611697578081fd5b5035919050565b600080604083850312156116b0578081fd5b8235915060208301356116c281611b55565b809150509250929050565b6000602082840312156116de578081fd5b81356001600160e01b0319811681146113c1578182fd5b600060208284031215611706578081fd5b81516113c181611b55565b60008060008060008060008060c0898b03121561172c578384fd5b883561173781611b55565b97506020890135965060408901359550606089013567ffffffffffffffff80821115611761578586fd5b61176d8c838d01611540565b909750955060808b0135915080821115611785578485fd5b506117928b828c01611540565b999c989b50969995989497949560a00135949350505050565b6000602082840312156117bc578081fd5b5051919050565b6000602082840312156117d4578081fd5b815160ff811681146113c1578182fd5b81835260006020808501945082825b8581101561182157813561180681611b55565b6001600160a01b0316875295820195908201906001016117f3565b509495945050505050565b6000825161183e818460208701611ae2565b9190910192915050565b7f416363657373436f6e74726f6c3a206163636f756e7420000000000000000000815260008351611880816017850160208801611ae2565b7001034b99036b4b9b9b4b733903937b6329607d1b60179184019182015283516118b1816028840160208801611ae2565b01602801949350505050565b60208152600082518060208401526118dc816040850160208701611ae2565b601f01601f19169190910160400192915050565b6020808252818101527f4f776e61626c653a2063616c6c6572206973206e6f7420746865206f776e6572604082015260600190565b86815285602082015260a06040820152600061194560a0830186886117e4565b6001600160a01b039490941660608301525060800152949350505050565b6000821982111561197657611976611b29565b500190565b60008261199657634e487b7160e01b81526012600452602481fd5b500490565b600181815b808511156119d65781600019048211156119bc576119bc611b29565b808516156119c957918102915b93841c93908002906119a0565b509250929050565b60006113c160ff8416836000826119f757506001610411565b81611a0457506000610411565b8160018114611a1a5760028114611a2457611a40565b6001915050610411565b60ff841115611a3557611a35611b29565b50506001821b610411565b5060208310610133831016604e8410600b8410161715611a63575081810a610411565b611a6d838361199b565b8060001904821115611a8157611a81611b29565b029392505050565b6000816000190483118215151615611aa357611aa3611b29565b500290565b600082821015611aba57611aba611b29565b500390565b600060ff821660ff841680821015611ad957611ad9611b29565b90039392505050565b60005b83811015611afd578181015183820152602001611ae5565b83811115611b0c576000848401525b50505050565b600081611b2157611b21611b29565b506000190190565b634e487b7160e01b600052601160045260246000fd5b634e487b7160e01b600052604160045260246000fd5b6001600160a01b03811681146103dd57600080fdfea26469706673582212205d396918e90bb1819efe6ca8228dda6ce326bc86c0c5e5584f78f259b602150a64736f6c63430008040033",
  "devdoc": {
    "kind": "dev",
    "methods": {
      "getRoleAdmin(bytes32)": {
        "details": "Returns the admin role that controls `role`. See {grantRole} and {revokeRole}. To change a role's admin, use {_setRoleAdmin}."
      },
      "grantRole(bytes32,address)": {
        "details": "Grants `role` to `account`. If `account` had not been already granted `role`, emits a {RoleGranted} event. Requirements: - the caller must have ``role``'s admin role."
      },
      "hasRole(bytes32,address)": {
        "details": "Returns `true` if `account` has been granted `role`."
      },
      "owner()": {
        "details": "Returns the address of the current owner."
      },
      "renounceOwnership()": {
        "details": "Leaves the contract without owner. It will not be possible to call `onlyOwner` functions anymore. Can only be called by the current owner. NOTE: Renouncing ownership will leave the contract without an owner, thereby removing any functionality that is only available to the owner."
      },
      "renounceRole(bytes32,address)": {
        "details": "Revokes `role` from the calling account. Roles are often managed via {grantRole} and {revokeRole}: this function's purpose is to provide a mechanism for accounts to lose their privileges if they are compromised (such as when a trusted device is misplaced). If the calling account had been granted `role`, emits a {RoleRevoked} event. Requirements: - the caller must be `account`."
      },
      "revokeRole(bytes32,address)": {
        "details": "Revokes `role` from `account`. If `account` had been granted `role`, emits a {RoleRevoked} event. Requirements: - the caller must have ``role``'s admin role."
      },
      "supportsInterface(bytes4)": {
        "details": "See {IERC165-supportsInterface}."
      },
      "transferOwnership(address)": {
        "details": "Transfers ownership of the contract to a new account (`newOwner`). Can only be called by the current owner."
      }
    },
    "version": 1
  },
  "userdoc": {
    "kind": "user",
    "methods": {},
    "version": 1
  },
  "storageLayout": {
    "storage": [
      {
        "astId": 62,
        "contract": "contracts/Harvester.sol:Harvester",
        "label": "_roles",
        "offset": 0,
        "slot": "0",
        "type": "t_mapping(t_bytes32,t_struct(RoleData)57_storage)"
      },
      {
        "astId": 375,
        "contract": "contracts/Harvester.sol:Harvester",
        "label": "_owner",
        "offset": 0,
        "slot": "1",
        "type": "t_address"
      },
      {
        "astId": 2727,
        "contract": "contracts/Harvester.sol:Harvester",
        "label": "pancakeRouter",
        "offset": 0,
        "slot": "2",
        "type": "t_contract(IPancakeRouter)3882"
      },
      {
        "astId": 2729,
        "contract": "contracts/Harvester.sol:Harvester",
        "label": "treasury",
        "offset": 0,
        "slot": "3",
        "type": "t_address"
      },
      {
        "astId": 2732,
        "contract": "contracts/Harvester.sol:Harvester",
        "label": "performanceFee",
        "offset": 0,
        "slot": "4",
        "type": "t_uint256"
      },
      {
        "astId": 2735,
        "contract": "contracts/Harvester.sol:Harvester",
        "label": "fireBuyBack",
        "offset": 0,
        "slot": "5",
        "type": "t_uint256"
      },
      {
        "astId": 2740,
        "contract": "contracts/Harvester.sol:Harvester",
        "label": "ratePerToken",
        "offset": 0,
        "slot": "6",
        "type": "t_mapping(t_contract(IVault)3134,t_uint256)"
      }
    ],
    "types": {
      "t_address": {
        "encoding": "inplace",
        "label": "address",
        "numberOfBytes": "20"
      },
      "t_bool": {
        "encoding": "inplace",
        "label": "bool",
        "numberOfBytes": "1"
      },
      "t_bytes32": {
        "encoding": "inplace",
        "label": "bytes32",
        "numberOfBytes": "32"
      },
      "t_contract(IPancakeRouter)3882": {
        "encoding": "inplace",
        "label": "contract IPancakeRouter",
        "numberOfBytes": "20"
      },
      "t_contract(IVault)3134": {
        "encoding": "inplace",
        "label": "contract IVault",
        "numberOfBytes": "20"
      },
      "t_mapping(t_address,t_bool)": {
        "encoding": "mapping",
        "key": "t_address",
        "label": "mapping(address => bool)",
        "numberOfBytes": "32",
        "value": "t_bool"
      },
      "t_mapping(t_bytes32,t_struct(RoleData)57_storage)": {
        "encoding": "mapping",
        "key": "t_bytes32",
        "label": "mapping(bytes32 => struct AccessControl.RoleData)",
        "numberOfBytes": "32",
        "value": "t_struct(RoleData)57_storage"
      },
      "t_mapping(t_contract(IVault)3134,t_uint256)": {
        "encoding": "mapping",
        "key": "t_contract(IVault)3134",
        "label": "mapping(contract IVault => uint256)",
        "numberOfBytes": "32",
        "value": "t_uint256"
      },
      "t_struct(RoleData)57_storage": {
        "encoding": "inplace",
        "label": "struct AccessControl.RoleData",
        "members": [
          {
            "astId": 54,
            "contract": "contracts/Harvester.sol:Harvester",
            "label": "members",
            "offset": 0,
            "slot": "0",
            "type": "t_mapping(t_address,t_bool)"
          },
          {
            "astId": 56,
            "contract": "contracts/Harvester.sol:Harvester",
            "label": "adminRole",
            "offset": 0,
            "slot": "1",
            "type": "t_bytes32"
          }
        ],
        "numberOfBytes": "64"
      },
      "t_uint256": {
        "encoding": "inplace",
        "label": "uint256",
        "numberOfBytes": "32"
      }
    }
  }
}