{
  "address": "0x587742bd8C985e5549f7c40089F4d3c286B306b5",
  "abi": [
    {
      "inputs": [
        {
          "internalType": "contract FireInterface",
          "name": "_fire",
          "type": "address"
        }
      ],
      "stateMutability": "nonpayable",
      "type": "constructor"
    },
    {
      "inputs": [
        {
          "internalType": "address",
          "name": "delegatee",
          "type": "address"
        },
        {
          "internalType": "uint256[]",
          "name": "nonce",
          "type": "uint256[]"
        },
        {
          "internalType": "uint256[]",
          "name": "expiry",
          "type": "uint256[]"
        },
        {
          "internalType": "uint8[]",
          "name": "v",
          "type": "uint8[]"
        },
        {
          "internalType": "bytes32[]",
          "name": "r",
          "type": "bytes32[]"
        },
        {
          "internalType": "bytes32[]",
          "name": "s",
          "type": "bytes32[]"
        }
      ],
      "name": "delegateBySig",
      "outputs": [],
      "stateMutability": "nonpayable",
      "type": "function"
    },
    {
      "inputs": [],
      "name": "fire",
      "outputs": [
        {
          "internalType": "contract FireInterface",
          "name": "",
          "type": "address"
        }
      ],
      "stateMutability": "view",
      "type": "function"
    }
  ],
  "transactionHash": "0xac7cb0a650cd83534d31ca94a548b2115304dbca2d751352ee169538a4bd4239",
  "args": [
    "0xaaF53D7a61E47dAD94CD3431014E16A3eE0263a8"
  ],
  "solcInputHash": "1df5ef303a97edc2a33505c590086412",
  "bytecode": "0x608060405234801561001057600080fd5b5060405161053038038061053083398101604081905261002f91610054565b600080546001600160a01b0319166001600160a01b0392909216919091179055610082565b600060208284031215610065578081fd5b81516001600160a01b038116811461007b578182fd5b9392505050565b61049f806100916000396000f3fe608060405234801561001057600080fd5b50600436106100365760003560e01c8063378dcfab1461003b578063457094cc14610050575b600080fd5b61004e6100493660046102fc565b61007f565b005b600054610063906001600160a01b031681565b6040516001600160a01b03909116815260200160405180910390f35b60005b85518110156101fd5760005486516001600160a01b039091169063c3cda5209089908990859081106100c457634e487b7160e01b600052603260045260246000fd5b60200260200101518885815181106100ec57634e487b7160e01b600052603260045260246000fd5b602002602001015188868151811061011457634e487b7160e01b600052603260045260246000fd5b602002602001015188878151811061013c57634e487b7160e01b600052603260045260246000fd5b602002602001015188888151811061016457634e487b7160e01b600052603260045260246000fd5b60209081029190910101516040516001600160e01b031960e089901b1681526001600160a01b0390961660048701526024860194909452604485019290925260ff166064840152608483015260a482015260c401600060405180830381600087803b1580156101d257600080fd5b505af11580156101e6573d6000803e3d6000fd5b5050505080806101f59061042c565b915050610082565b50505050505050565b80356001600160a01b038116811461021d57600080fd5b919050565b600082601f830112610232578081fd5b8135602061024761024283610408565b6103d7565b80838252828201915082860187848660051b8901011115610266578586fd5b855b8581101561028457813584529284019290840190600101610268565b5090979650505050505050565b600082601f8301126102a1578081fd5b813560206102b161024283610408565b80838252828201915082860187848660051b89010111156102d0578586fd5b855b8581101561028457813560ff811681146102ea578788fd5b845292840192908401906001016102d2565b60008060008060008060c08789031215610314578182fd5b61031d87610206565b9550602087013567ffffffffffffffff80821115610339578384fd5b6103458a838b01610222565b9650604089013591508082111561035a578384fd5b6103668a838b01610222565b9550606089013591508082111561037b578384fd5b6103878a838b01610291565b9450608089013591508082111561039c578384fd5b6103a88a838b01610222565b935060a08901359150808211156103bd578283fd5b506103ca89828a01610222565b9150509295509295509295565b604051601f8201601f1916810167ffffffffffffffff8111828210171561040057610400610453565b604052919050565b600067ffffffffffffffff82111561042257610422610453565b5060051b60200190565b600060001982141561044c57634e487b7160e01b81526011600452602481fd5b5060010190565b634e487b7160e01b600052604160045260246000fdfea2646970667358221220ab1a750252ef031ddb0455dc25b469250822d567f298e3aac70b8e4cecf46f0564736f6c63430008040033",
  "devdoc": {
    "kind": "dev",
    "methods": {},
    "version": 1
  },
  "userdoc": {
    "kind": "user",
    "methods": {},
    "version": 1
  },
  "storageLayout": {
    "storage": [
      {
        "astId": 20,
        "contract": "contracts/governance/MultiDelegator.sol:MultiDelegator",
        "label": "fire",
        "offset": 0,
        "slot": "0",
        "type": "t_contract(FireInterface)17"
      }
    ],
    "types": {
      "t_contract(FireInterface)17": {
        "encoding": "inplace",
        "label": "contract FireInterface",
        "numberOfBytes": "20"
      }
    }
  }
}