{
  "address": "0x088B01782Cd9D7d742D4aD2e218Fda0A2C619947",
  "abi": [
    {
      "inputs": [
        {
          "internalType": "contract IVault",
          "name": "_vault",
          "type": "address"
        },
        {
          "internalType": "contract IVToken",
          "name": "_vToken",
          "type": "address"
        },
        {
          "internalType": "contract IUnitroller",
          "name": "_unitroller",
          "type": "address"
        },
        {
          "internalType": "contract IERC20Metadata",
          "name": "_xvs",
          "type": "address"
        },
        {
          "internalType": "address",
          "name": "_timelock",
          "type": "address"
        },
        {
          "internalType": "contract IPancakeRouter",
          "name": "_pancakeRouter",
          "type": "address"
        },
        {
          "internalType": "address[]",
          "name": "_xvsToUnderlyingPath",
          "type": "address[]"
        },
        {
          "internalType": "bool",
          "name": "_reinvestXvs",
          "type": "bool"
        }
      ],
      "stateMutability": "nonpayable",
      "type": "constructor"
    },
    {
      "anonymous": false,
      "inputs": [
        {
          "indexed": true,
          "internalType": "address",
          "name": "previousOwner",
          "type": "address"
        },
        {
          "indexed": true,
          "internalType": "address",
          "name": "newOwner",
          "type": "address"
        }
      ],
      "name": "OwnershipTransferred",
      "type": "event"
    },
    {
      "inputs": [],
      "name": "calcTotalValue",
      "outputs": [
        {
          "internalType": "uint256",
          "name": "",
          "type": "uint256"
        }
      ],
      "stateMutability": "nonpayable",
      "type": "function"
    },
    {
      "inputs": [],
      "name": "depositAll",
      "outputs": [],
      "stateMutability": "nonpayable",
      "type": "function"
    },
    {
      "inputs": [
        {
          "internalType": "uint256",
          "name": "amount",
          "type": "uint256"
        }
      ],
      "name": "depositUnderlying",
      "outputs": [],
      "stateMutability": "nonpayable",
      "type": "function"
    },
    {
      "inputs": [
        {
          "internalType": "uint256",
          "name": "amount",
          "type": "uint256"
        }
      ],
      "name": "divest",
      "outputs": [],
      "stateMutability": "nonpayable",
      "type": "function"
    },
    {
      "inputs": [],
      "name": "invest",
      "outputs": [],
      "stateMutability": "nonpayable",
      "type": "function"
    },
    {
      "inputs": [],
      "name": "minWithdrawalCap",
      "outputs": [
        {
          "internalType": "uint256",
          "name": "",
          "type": "uint256"
        }
      ],
      "stateMutability": "view",
      "type": "function"
    },
    {
      "inputs": [],
      "name": "owner",
      "outputs": [
        {
          "internalType": "address",
          "name": "",
          "type": "address"
        }
      ],
      "stateMutability": "view",
      "type": "function"
    },
    {
      "inputs": [],
      "name": "pancakeRouter",
      "outputs": [
        {
          "internalType": "contract IPancakeRouter",
          "name": "",
          "type": "address"
        }
      ],
      "stateMutability": "view",
      "type": "function"
    },
    {
      "inputs": [],
      "name": "reinvestXvs",
      "outputs": [
        {
          "internalType": "bool",
          "name": "",
          "type": "bool"
        }
      ],
      "stateMutability": "view",
      "type": "function"
    },
    {
      "inputs": [],
      "name": "renounceOwnership",
      "outputs": [],
      "stateMutability": "nonpayable",
      "type": "function"
    },
    {
      "inputs": [
        {
          "internalType": "contract IERC20Metadata",
          "name": "token",
          "type": "address"
        },
        {
          "internalType": "address",
          "name": "to",
          "type": "address"
        },
        {
          "internalType": "uint256",
          "name": "amount",
          "type": "uint256"
        }
      ],
      "name": "rescue",
      "outputs": [],
      "stateMutability": "nonpayable",
      "type": "function"
    },
    {
      "inputs": [
        {
          "internalType": "address",
          "name": "_strategist",
          "type": "address"
        }
      ],
      "name": "setStrategist",
      "outputs": [],
      "stateMutability": "nonpayable",
      "type": "function"
    },
    {
      "inputs": [
        {
          "internalType": "uint256",
          "name": "underlyingCap",
          "type": "uint256"
        }
      ],
      "name": "setWithdrawalCap",
      "outputs": [],
      "stateMutability": "nonpayable",
      "type": "function"
    },
    {
      "inputs": [],
      "name": "strategist",
      "outputs": [
        {
          "internalType": "address",
          "name": "",
          "type": "address"
        }
      ],
      "stateMutability": "view",
      "type": "function"
    },
    {
      "inputs": [],
      "name": "totalVenusDeposits",
      "outputs": [
        {
          "internalType": "uint256",
          "name": "",
          "type": "uint256"
        }
      ],
      "stateMutability": "nonpayable",
      "type": "function"
    },
    {
      "inputs": [
        {
          "internalType": "address",
          "name": "newOwner",
          "type": "address"
        }
      ],
      "name": "transferOwnership",
      "outputs": [],
      "stateMutability": "nonpayable",
      "type": "function"
    },
    {
      "inputs": [],
      "name": "underlying",
      "outputs": [
        {
          "internalType": "contract IERC20Metadata",
          "name": "",
          "type": "address"
        }
      ],
      "stateMutability": "view",
      "type": "function"
    },
    {
      "inputs": [],
      "name": "unitroller",
      "outputs": [
        {
          "internalType": "contract IUnitroller",
          "name": "",
          "type": "address"
        }
      ],
      "stateMutability": "view",
      "type": "function"
    },
    {
      "inputs": [],
      "name": "vToken",
      "outputs": [
        {
          "internalType": "contract IVToken",
          "name": "",
          "type": "address"
        }
      ],
      "stateMutability": "view",
      "type": "function"
    },
    {
      "inputs": [],
      "name": "vault",
      "outputs": [
        {
          "internalType": "contract IVault",
          "name": "",
          "type": "address"
        }
      ],
      "stateMutability": "view",
      "type": "function"
    },
    {
      "inputs": [],
      "name": "withdrawAll",
      "outputs": [],
      "stateMutability": "nonpayable",
      "type": "function"
    },
    {
      "inputs": [
        {
          "internalType": "uint256",
          "name": "shares",
          "type": "uint256"
        }
      ],
      "name": "withdrawShares",
      "outputs": [],
      "stateMutability": "nonpayable",
      "type": "function"
    },
    {
      "inputs": [
        {
          "internalType": "uint256",
          "name": "amount",
          "type": "uint256"
        }
      ],
      "name": "withdrawUnderlying",
      "outputs": [],
      "stateMutability": "nonpayable",
      "type": "function"
    },
    {
      "inputs": [],
      "name": "withdrawalCap",
      "outputs": [
        {
          "internalType": "uint256",
          "name": "",
          "type": "uint256"
        }
      ],
      "stateMutability": "view",
      "type": "function"
    },
    {
      "inputs": [],
      "name": "xvs",
      "outputs": [
        {
          "internalType": "contract IERC20Metadata",
          "name": "",
          "type": "address"
        }
      ],
      "stateMutability": "view",
      "type": "function"
    },
    {
      "inputs": [
        {
          "internalType": "uint256",
          "name": "",
          "type": "uint256"
        }
      ],
      "name": "xvsToUnderlyingPath",
      "outputs": [
        {
          "internalType": "address",
          "name": "",
          "type": "address"
        }
      ],
      "stateMutability": "view",
      "type": "function"
    }
  ],
  "transactionHash": "0x971cb490b2c4b0e9bf8ba2f644a202413bd1d73649f37ec838f0f4432624d0c5",
  "args": [
    "0xD2eBC790747De2A170bAF7DD091050a7c6711447",
    "0xb7526572FFE56AB9D7489838Bf2E18e3323b441A",
    "0x94d1820b2D1c7c7452A163983Dc888CEC546b77D",
    "0xB9e0E753630434d7863528cc73CB7AC638a7c8ff",
    "0x7C4e688f82B00351ef21a61382361E77c68A3BEd",
    "0xD99D1c33F9fC3444f8101754aBC46c52416550D1",
    [
      "0xB9e0E753630434d7863528cc73CB7AC638a7c8ff",
      "0xA11c8D9DC9b66E209Ef60F0C8D969D3CD988782c"
    ],
    true
  ],
  "solcInputHash": "4cf7c2e8c4ff938c1888a007784c021a",
  "bytecode": "0x60a06040526000196008553480156200001757600080fd5b5060405162002738380380620027388339810160408190526200003a9162000995565b600080546001600160a01b0319163390811782556040519091829160008051602062002718833981519152908290a350600282511015620000d25760405162461bcd60e51b815260206004820152602760248201527f56656e757353747261746567793a2070617468206c656e677468206d757374206044820152663132901f1e901960c91b60648201526084015b60405180910390fd5b8151620000e790600990602085019062000821565b50600a805460ff1916821515179055620000fe3390565b600780546001600160a01b03199081166001600160a01b03938416179091556002805482168b84161790556003805482168a84169081179091556006805483168985161790556001805490921692861692909217905560408051636f307dc360e01b81529051636f307dc391600481810192602092909190829003018186803b1580156200018b57600080fd5b505afa158015620001a0573d6000803e3d6000fd5b505050506040513d601f19601f82011682018060405250810190620001c69190620008b8565b600580546001600160a01b0319166001600160a01b039290921691821790556040805163313ce56760e01b8152905163313ce56791600480820192602092909190829003018186803b1580156200021c57600080fd5b505afa15801562000231573d6000803e3d6000fd5b505050506040513d601f19601f8201168201806040525081019062000257919062000aec565b6200026490600a62000c6e565b62000272906103e862000d2f565b6080526005546200029c906001600160a01b031688600019620003af602090811b6200118017901c565b600480546001600160a01b0319166001600160a01b038816179055604080516001808252818301909252600091602080830190803683370190505090508781600081518110620002fc57634e487b7160e01b600052603260045260246000fd5b6001600160a01b03928316602091820292909201015260048054604051631853304760e31b815292169163c2998238916200033a9185910162000b2d565b600060405180830381600087803b1580156200035557600080fd5b505af11580156200036a573d6000803e3d6000fd5b505050506040513d6000823e601f3d908101601f19168201604052620003949190810190620008d7565b50620003a085620004a5565b50505050505050505062000dc5565b604051636eb1769f60e11b81523060048201526001600160a01b038381166024830152600091839186169063dd62ed3e9060440160206040518083038186803b158015620003fc57600080fd5b505afa15801562000411573d6000803e3d6000fd5b505050506040513d601f19601f8201168201806040525081019062000437919062000ad3565b62000443919062000c0a565b604080516001600160a01b038616602482015260448082018490528251808303909101815260649091019091526020810180516001600160e01b0390811663095ea7b360e01b179091529192506200049f91869190620005b216565b50505050565b6000546001600160a01b03163314620005015760405162461bcd60e51b815260206004820181905260248201527f4f776e61626c653a2063616c6c6572206973206e6f7420746865206f776e65726044820152606401620000c9565b6001600160a01b038116620005685760405162461bcd60e51b815260206004820152602660248201527f4f776e61626c653a206e6577206f776e657220697320746865207a65726f206160448201526564647265737360d01b6064820152608401620000c9565b600080546040516001600160a01b03808516939216916000805160206200271883398151915291a3600080546001600160a01b0319166001600160a01b0392909216919091179055565b60006200060e826040518060400160405280602081526020017f5361666545524332303a206c6f772d6c6576656c2063616c6c206661696c6564815250856001600160a01b03166200069560201b6200127a179092919060201c565b8051909150156200069057808060200190518101906200062f919062000978565b620006905760405162461bcd60e51b815260206004820152602a60248201527f5361666545524332303a204552433230206f7065726174696f6e20646964206e6044820152691bdd081cdd58d8d9595960b21b6064820152608401620000c9565b505050565b6060620006a68484600085620006b0565b90505b9392505050565b606082471015620007135760405162461bcd60e51b815260206004820152602660248201527f416464726573733a20696e73756666696369656e742062616c616e636520666f6044820152651c8818d85b1b60d21b6064820152608401620000c9565b843b620007635760405162461bcd60e51b815260206004820152601d60248201527f416464726573733a2063616c6c20746f206e6f6e2d636f6e74726163740000006044820152606401620000c9565b600080866001600160a01b0316858760405162000781919062000b0f565b60006040518083038185875af1925050503d8060008114620007c0576040519150601f19603f3d011682016040523d82523d6000602084013e620007c5565b606091505b509092509050620007d8828286620007e3565b979650505050505050565b60608315620007f4575081620006a9565b825115620008055782518084602001fd5b8160405162461bcd60e51b8152600401620000c9919062000b7c565b82805482825590600052602060002090810192821562000879579160200282015b828111156200087957825182546001600160a01b0319166001600160a01b0390911617825560209092019160019091019062000842565b50620008879291506200088b565b5090565b5b808211156200088757600081556001016200088c565b80518015158114620008b357600080fd5b919050565b600060208284031215620008ca578081fd5b8151620006a98162000dac565b60006020808385031215620008ea578182fd5b82516001600160401b0381111562000900578283fd5b8301601f8101851362000911578283fd5b805162000928620009228262000be4565b62000bb1565b80828252848201915084840188868560051b870101111562000948578687fd5b8694505b838510156200096c5780518352600194909401939185019185016200094c565b50979650505050505050565b6000602082840312156200098a578081fd5b620006a982620008a2565b600080600080600080600080610100898b031215620009b2578384fd5b8851620009bf8162000dac565b809850506020808a0151620009d48162000dac565b60408b0151909850620009e78162000dac565b60608b0151909750620009fa8162000dac565b60808b015190965062000a0d8162000dac565b60a08b015190955062000a208162000dac565b60c08b01519094506001600160401b0381111562000a3c578384fd5b8a01601f81018c1362000a4d578384fd5b805162000a5e620009228262000be4565b8082825284820191508484018f868560051b870101111562000a7e578788fd5b8794505b8385101562000aad57805162000a988162000dac565b83526001949094019391850191850162000a82565b50809650505050505062000ac460e08a01620008a2565b90509295985092959890939650565b60006020828403121562000ae5578081fd5b5051919050565b60006020828403121562000afe578081fd5b815160ff81168114620006a9578182fd5b6000825162000b2381846020870162000d51565b9190910192915050565b6020808252825182820181905260009190848201906040850190845b8181101562000b705783516001600160a01b03168352928401929184019160010162000b49565b50909695505050505050565b602081526000825180602084015262000b9d81604085016020870162000d51565b601f01601f19169190910160400192915050565b604051601f8201601f191681016001600160401b038111828210171562000bdc5762000bdc62000d96565b604052919050565b60006001600160401b0382111562000c005762000c0062000d96565b5060051b60200190565b6000821982111562000c205762000c2062000d80565b500190565b600181815b8085111562000c6657816000190482111562000c4a5762000c4a62000d80565b8085161562000c5857918102915b93841c939080029062000c2a565b509250929050565b6000620006a960ff84168360008262000c8a5750600162000d29565b8162000c995750600062000d29565b816001811462000cb2576002811462000cbd5762000cdd565b600191505062000d29565b60ff84111562000cd15762000cd162000d80565b50506001821b62000d29565b5060208310610133831016604e8410600b841016171562000d02575081810a62000d29565b62000d0e838362000c25565b806000190482111562000d255762000d2562000d80565b0290505b92915050565b600081600019048311821515161562000d4c5762000d4c62000d80565b500290565b60005b8381101562000d6e57818101518382015260200162000d54565b838111156200049f5750506000910152565b634e487b7160e01b600052601160045260246000fd5b634e487b7160e01b600052604160045260246000fd5b6001600160a01b038116811462000dc257600080fd5b50565b60805161193062000de86000396000818161023f01526110ff01526119306000f3fe608060405234801561001057600080fd5b506004361061018e5760003560e01c80638ca17995116100de578063c21ebd0711610097578063e8b5e51f11610071578063e8b5e51f1461033d578063f2fde38b14610345578063fbfa77cf14610358578063fff0d8d81461036b57600080fd5b8063c21ebd071461030f578063c7b9d53014610322578063de5f62681461033557600080fd5b80638ca17995146102aa5780638da5cb5b146102bd5780639bb1a99c146102ce578063a00251c6146102e1578063b9f5be41146102e9578063bad1d3da146102fc57600080fd5b80634e79ed3c1161014b578063715018a611610125578063715018a6146102745780637924e9171461027c578063853828b6146102995780638971611c146102a157600080fd5b80634e79ed3c1461022757806355ad9a651461023a5780636f307dc31461026157600080fd5b806306a04fe1146101935780631071a290146101ae57806319810f3c146101c35780631fe4a686146101d657806320ff430b146102015780634d024cc714610214575b600080fd5b61019b61037e565b6040519081526020015b60405180910390f35b6101c16101bc366004611648565b610401565b005b6101c16101d1366004611648565b6104d5565b6007546101e9906001600160a01b031681565b6040516001600160a01b0390911681526020016101a5565b6101c161020f366004611608565b61054e565b6101e9610222366004611648565b610591565b6006546101e9906001600160a01b031681565b61019b7f000000000000000000000000000000000000000000000000000000000000000081565b6005546101e9906001600160a01b031681565b6101c16105bb565b600a546102899060ff1681565b60405190151581526020016101a5565b6101c161062f565b61019b60085481565b6101c16102b8366004611648565b61076e565b6000546001600160a01b03166101e9565b6003546101e9906001600160a01b031681565b61019b610cf6565b6101c16102f7366004611648565b610d00565b6004546101e9906001600160a01b031681565b6001546101e9906001600160a01b031681565b6101c161033036600461150c565b610d79565b6101c1610e2e565b6101c1610eb1565b6101c161035336600461150c565b610fe9565b6002546101e9906001600160a01b031681565b6101c1610379366004611648565b6110d3565b600354604051633af9e66960e01b81523060048201526000916001600160a01b031690633af9e66990602401602060405180830381600087803b1580156103c457600080fd5b505af11580156103d8573d6000803e3d6000fd5b505050506040513d601f19601f820116820180604052508101906103fc9190611660565b905090565b6007546001600160a01b0316336001600160a01b0316148061042d57506000546001600160a01b031633145b6104525760405162461bcd60e51b815260040161044990611723565b60405180910390fd5b60035460405163852a12e360e01b8152600481018390526001600160a01b039091169063852a12e3906024015b602060405180830381600087803b15801561049957600080fd5b505af11580156104ad573d6000803e3d6000fd5b505050506040513d601f19601f820116820180604052508101906104d19190611660565b5050565b6007546001600160a01b0316336001600160a01b0316148061050157506000546001600160a01b031633145b61051d5760405162461bcd60e51b815260040161044990611723565b60035460405163db006a7560e01b8152600481018390526001600160a01b039091169063db006a759060240161047f565b6000546001600160a01b031633146105785760405162461bcd60e51b815260040161044990611775565b61058c6001600160a01b0384168383611293565b505050565b600981815481106105a157600080fd5b6000918252602090912001546001600160a01b0316905081565b6000546001600160a01b031633146105e55760405162461bcd60e51b815260040161044990611775565b600080546040516001600160a01b03909116907f8be0079c531659141344cd1fd0a4f28419497f9722a3daafe3b4186f6b6457e0908390a3600080546001600160a01b0319169055565b6007546001600160a01b0316336001600160a01b0316148061065b57506000546001600160a01b031633145b6106775760405162461bcd60e51b815260040161044990611723565b6003546040516370a0823160e01b81523060048201526001600160a01b039091169063db006a759082906370a08231906024015b60206040518083038186803b1580156106c357600080fd5b505afa1580156106d7573d6000803e3d6000fd5b505050506040513d601f19601f820116820180604052508101906106fb9190611660565b6040518263ffffffff1660e01b815260040161071991815260200190565b602060405180830381600087803b15801561073357600080fd5b505af1158015610747573d6000803e3d6000fd5b505050506040513d601f19601f8201168201806040525081019061076b9190611660565b50565b6002546001600160a01b0316336001600160a01b0316146107a15760405162461bcd60e51b8152600401610449906117aa565b60408051600180825281830190925260009160208083019080368337505060035482519293506001600160a01b0316918391506000906107f157634e487b7160e01b600052603260045260246000fd5b6001600160a01b0392831660209182029290920101526004805460405163436f98f760e11b81529216916386df31ee9161082f913091869101611694565b600060405180830381600087803b15801561084957600080fd5b505af115801561085d573d6000803e3d6000fd5b50506006546040516370a0823160e01b8152306004820152600093506001600160a01b0390911691506370a082319060240160206040518083038186803b1580156108a757600080fd5b505afa1580156108bb573d6000803e3d6000fd5b505050506040513d601f19601f820116820180604052508101906108df9190611660565b90508015610ad75760065460015460405163095ea7b360e01b81526001600160a01b0391821660048201526024810184905291169063095ea7b390604401602060405180830381600087803b15801561093757600080fd5b505af115801561094b573d6000803e3d6000fd5b505050506040513d601f19601f8201168201806040525081019061096f91906115e8565b506001546001600160a01b03166338ed17398260006009306109934261070861185e565b6040518663ffffffff1660e01b81526004016109b39594939291906117eb565b600060405180830381600087803b1580156109cd57600080fd5b505af11580156109e1573d6000803e3d6000fd5b505050506040513d6000823e601f3d908101601f19168201604052610a099190810190611528565b600954610a1890600190611876565b81518110610a3657634e487b7160e01b600052603260045260246000fd5b6020908102919091010151600a5490915060ff1615610ad75760035460405163140e25ad60e31b8152600481018390526001600160a01b039091169063a0712d6890602401602060405180830381600087803b158015610a9557600080fd5b505af1158015610aa9573d6000803e3d6000fd5b505050506040513d601f19601f82011682018060405250810190610acd9190611660565b15610ad757600080fd5b6005546040516370a0823160e01b81523060048201526001600160a01b03909116906370a082319060240160206040518083038186803b158015610b1a57600080fd5b505afa158015610b2e573d6000803e3d6000fd5b505050506040513d601f19601f82011682018060405250810190610b529190611660565b905082811015610c4b576000610b688285611876565b9050600854811115610bca5760405162461bcd60e51b815260206004820152602560248201527f56656e757353747261746567793a20726561636865642077697468647261776160448201526406c206361760dc1b6064820152608401610449565b60035460405163852a12e360e01b8152600481018390526001600160a01b039091169063852a12e390602401602060405180830381600087803b158015610c1057600080fd5b505af1158015610c24573d6000803e3d6000fd5b505050506040513d601f19601f82011682018060405250810190610c489190611660565b50505b6005546040516370a0823160e01b81523060048201526001600160a01b03909116906370a082319060240160206040518083038186803b158015610c8e57600080fd5b505afa158015610ca2573d6000803e3d6000fd5b505050506040513d601f19601f82011682018060405250810190610cc69190611660565b60025490915061058c906001600160a01b0316610ce385846112c3565b6005546001600160a01b03169190611293565b60006103fc61037e565b6007546001600160a01b0316336001600160a01b03161480610d2c57506000546001600160a01b031633145b610d485760405162461bcd60e51b815260040161044990611723565b60035460405163140e25ad60e31b8152600481018390526001600160a01b039091169063a0712d689060240161047f565b6000546001600160a01b03163314610da35760405162461bcd60e51b815260040161044990611775565b6001600160a01b038116610e0c5760405162461bcd60e51b815260206004820152602a60248201527f53747261746567793a20737472617465676973742063616e2774206265207a65604482015269726f206164647265737360b01b6064820152608401610449565b600780546001600160a01b0319166001600160a01b0392909216919091179055565b6007546001600160a01b0316336001600160a01b03161480610e5a57506000546001600160a01b031633145b610e765760405162461bcd60e51b815260040161044990611723565b6003546005546040516370a0823160e01b81523060048201526001600160a01b039283169263a0712d689216906370a08231906024016106ab565b6002546001600160a01b0316336001600160a01b031614610ee45760405162461bcd60e51b8152600401610449906117aa565b6005546040516370a0823160e01b81523060048201526000916001600160a01b0316906370a082319060240160206040518083038186803b158015610f2857600080fd5b505afa158015610f3c573d6000803e3d6000fd5b505050506040513d601f19601f82011682018060405250810190610f609190611660565b60035460405163140e25ad60e31b8152600481018390529192506001600160a01b03169063a0712d6890602401602060405180830381600087803b158015610fa757600080fd5b505af1158015610fbb573d6000803e3d6000fd5b505050506040513d601f19601f82011682018060405250810190610fdf9190611660565b1561076b57600080fd5b6000546001600160a01b031633146110135760405162461bcd60e51b815260040161044990611775565b6001600160a01b0381166110785760405162461bcd60e51b815260206004820152602660248201527f4f776e61626c653a206e6577206f776e657220697320746865207a65726f206160448201526564647265737360d01b6064820152608401610449565b600080546040516001600160a01b03808516939216917f8be0079c531659141344cd1fd0a4f28419497f9722a3daafe3b4186f6b6457e091a3600080546001600160a01b0319166001600160a01b0392909216919091179055565b6000546001600160a01b031633146110fd5760405162461bcd60e51b815260040161044990611775565b7f000000000000000000000000000000000000000000000000000000000000000081101561117b5760405162461bcd60e51b815260206004820152602560248201527f56656e757353747261746567793a207769746864726177616c2063617020746f6044820152646f206c6f7760d81b6064820152608401610449565b600855565b604051636eb1769f60e11b81523060048201526001600160a01b038381166024830152600091839186169063dd62ed3e9060440160206040518083038186803b1580156111cc57600080fd5b505afa1580156111e0573d6000803e3d6000fd5b505050506040513d601f19601f820116820180604052508101906112049190611660565b61120e919061185e565b6040516001600160a01b03851660248201526044810182905290915061127490859063095ea7b360e01b906064015b60408051601f198184030181529190526020810180516001600160e01b03166001600160e01b0319909316929092179091526112d9565b50505050565b606061128984846000856113ab565b90505b9392505050565b6040516001600160a01b03831660248201526044810182905261058c90849063a9059cbb60e01b9060640161123d565b60008183106112d2578161128c565b5090919050565b600061132e826040518060400160405280602081526020017f5361666545524332303a206c6f772d6c6576656c2063616c6c206661696c6564815250856001600160a01b031661127a9092919063ffffffff16565b80519091501561058c578080602001905181019061134c91906115e8565b61058c5760405162461bcd60e51b815260206004820152602a60248201527f5361666545524332303a204552433230206f7065726174696f6e20646964206e6044820152691bdd081cdd58d8d9595960b21b6064820152608401610449565b60608247101561140c5760405162461bcd60e51b815260206004820152602660248201527f416464726573733a20696e73756666696369656e742062616c616e636520666f6044820152651c8818d85b1b60d21b6064820152608401610449565b843b61145a5760405162461bcd60e51b815260206004820152601d60248201527f416464726573733a2063616c6c20746f206e6f6e2d636f6e74726163740000006044820152606401610449565b600080866001600160a01b031685876040516114769190611678565b60006040518083038185875af1925050503d80600081146114b3576040519150601f19603f3d011682016040523d82523d6000602084013e6114b8565b606091505b50915091506114c88282866114d3565b979650505050505050565b606083156114e257508161128c565b8251156114f25782518084602001fd5b8160405162461bcd60e51b815260040161044991906116f0565b60006020828403121561151d578081fd5b813561128c816118e5565b6000602080838503121561153a578182fd5b825167ffffffffffffffff80821115611551578384fd5b818501915085601f830112611564578384fd5b815181811115611576576115766118cf565b8060051b604051601f19603f8301168101818110858211171561159b5761159b6118cf565b604052828152858101935084860182860187018a10156115b9578788fd5b8795505b838610156115db5780518552600195909501949386019386016115bd565b5098975050505050505050565b6000602082840312156115f9578081fd5b8151801515811461128c578182fd5b60008060006060848603121561161c578182fd5b8335611627816118e5565b92506020840135611637816118e5565b929592945050506040919091013590565b600060208284031215611659578081fd5b5035919050565b600060208284031215611671578081fd5b5051919050565b6000825161168a81846020870161188d565b9190910192915050565b6001600160a01b038381168252604060208084018290528451918401829052600092858201929091906060860190855b818110156116e25785518516835294830194918301916001016116c4565b509098975050505050505050565b602081526000825180602084015261170f81604085016020870161188d565b601f01601f19169190910160400192915050565b60208082526032908201527f56656e757353747261746567793a206f6e6c792073747261746567697374206f6040820152711c881d1a5b595b1bd8dac8185b1b1bddd95960721b606082015260800190565b6020808252818101527f4f776e61626c653a2063616c6c6572206973206e6f7420746865206f776e6572604082015260600190565b60208082526021908201527f56656e757353747261746567793a206f6e6c79207661756c7420616c6c6f77656040820152601960fa1b606082015260800190565b600060a082018783526020878185015260a0604085015281875480845260c0860191508885528285209350845b8181101561183d5784546001600160a01b031683526001948501949284019201611818565b50506001600160a01b03969096166060850152505050608001529392505050565b60008219821115611871576118716118b9565b500190565b600082821015611888576118886118b9565b500390565b60005b838110156118a8578181015183820152602001611890565b838111156112745750506000910152565b634e487b7160e01b600052601160045260246000fd5b634e487b7160e01b600052604160045260246000fd5b6001600160a01b038116811461076b57600080fdfea2646970667358221220f28e6ad8a23a8079a7a952da699fe922e6314360f56f33f2fbc46656196a8dd164736f6c634300080400338be0079c531659141344cd1fd0a4f28419497f9722a3daafe3b4186f6b6457e0",
  "devdoc": {
    "kind": "dev",
    "methods": {
      "owner()": {
        "details": "Returns the address of the current owner."
      },
      "renounceOwnership()": {
        "details": "Leaves the contract without owner. It will not be possible to call `onlyOwner` functions anymore. Can only be called by the current owner. NOTE: Renouncing ownership will leave the contract without an owner, thereby removing any functionality that is only available to the owner."
      },
      "transferOwnership(address)": {
        "details": "Transfers ownership of the contract to a new account (`newOwner`). Can only be called by the current owner."
      }
    },
    "version": 1
  },
  "userdoc": {
    "kind": "user",
    "methods": {},
    "version": 1
  },
  "storageLayout": {
    "storage": [
      {
        "astId": 375,
        "contract": "contracts/strategies/VenusStrategy.sol:VenusStrategy",
        "label": "_owner",
        "offset": 0,
        "slot": "0",
        "type": "t_address"
      },
      {
        "astId": 4517,
        "contract": "contracts/strategies/VenusStrategy.sol:VenusStrategy",
        "label": "pancakeRouter",
        "offset": 0,
        "slot": "1",
        "type": "t_contract(IPancakeRouter)3882"
      },
      {
        "astId": 4520,
        "contract": "contracts/strategies/VenusStrategy.sol:VenusStrategy",
        "label": "vault",
        "offset": 0,
        "slot": "2",
        "type": "t_contract(IVault)3134"
      },
      {
        "astId": 4523,
        "contract": "contracts/strategies/VenusStrategy.sol:VenusStrategy",
        "label": "vToken",
        "offset": 0,
        "slot": "3",
        "type": "t_contract(IVToken)4503"
      },
      {
        "astId": 4526,
        "contract": "contracts/strategies/VenusStrategy.sol:VenusStrategy",
        "label": "unitroller",
        "offset": 0,
        "slot": "4",
        "type": "t_contract(IUnitroller)4457"
      },
      {
        "astId": 4529,
        "contract": "contracts/strategies/VenusStrategy.sol:VenusStrategy",
        "label": "underlying",
        "offset": 0,
        "slot": "5",
        "type": "t_contract(IERC20Metadata)1179"
      },
      {
        "astId": 4532,
        "contract": "contracts/strategies/VenusStrategy.sol:VenusStrategy",
        "label": "xvs",
        "offset": 0,
        "slot": "6",
        "type": "t_contract(IERC20Metadata)1179"
      },
      {
        "astId": 4534,
        "contract": "contracts/strategies/VenusStrategy.sol:VenusStrategy",
        "label": "strategist",
        "offset": 0,
        "slot": "7",
        "type": "t_address"
      },
      {
        "astId": 4543,
        "contract": "contracts/strategies/VenusStrategy.sol:VenusStrategy",
        "label": "withdrawalCap",
        "offset": 0,
        "slot": "8",
        "type": "t_uint256"
      },
      {
        "astId": 4546,
        "contract": "contracts/strategies/VenusStrategy.sol:VenusStrategy",
        "label": "xvsToUnderlyingPath",
        "offset": 0,
        "slot": "9",
        "type": "t_array(t_address)dyn_storage"
      },
      {
        "astId": 4548,
        "contract": "contracts/strategies/VenusStrategy.sol:VenusStrategy",
        "label": "reinvestXvs",
        "offset": 0,
        "slot": "10",
        "type": "t_bool"
      }
    ],
    "types": {
      "t_address": {
        "encoding": "inplace",
        "label": "address",
        "numberOfBytes": "20"
      },
      "t_array(t_address)dyn_storage": {
        "base": "t_address",
        "encoding": "dynamic_array",
        "label": "address[]",
        "numberOfBytes": "32"
      },
      "t_bool": {
        "encoding": "inplace",
        "label": "bool",
        "numberOfBytes": "1"
      },
      "t_contract(IERC20Metadata)1179": {
        "encoding": "inplace",
        "label": "contract IERC20Metadata",
        "numberOfBytes": "20"
      },
      "t_contract(IPancakeRouter)3882": {
        "encoding": "inplace",
        "label": "contract IPancakeRouter",
        "numberOfBytes": "20"
      },
      "t_contract(IUnitroller)4457": {
        "encoding": "inplace",
        "label": "contract IUnitroller",
        "numberOfBytes": "20"
      },
      "t_contract(IVToken)4503": {
        "encoding": "inplace",
        "label": "contract IVToken",
        "numberOfBytes": "20"
      },
      "t_contract(IVault)3134": {
        "encoding": "inplace",
        "label": "contract IVault",
        "numberOfBytes": "20"
      },
      "t_uint256": {
        "encoding": "inplace",
        "label": "uint256",
        "numberOfBytes": "32"
      }
    }
  }
}