{
  "address": "0xb0735C49755aae32f63Bb9602589fe6fd89e0bA8",
  "abi": [
    {
      "inputs": [
        {
          "internalType": "contract IERC20Metadata",
          "name": "_underlying",
          "type": "address"
        },
        {
          "internalType": "contract IERC20Metadata",
          "name": "_target",
          "type": "address"
        },
        {
          "internalType": "contract IHarvester",
          "name": "_harvester",
          "type": "address"
        },
        {
          "internalType": "address",
          "name": "_timelock",
          "type": "address"
        }
      ],
      "stateMutability": "nonpayable",
      "type": "constructor"
    },
    {
      "anonymous": false,
      "inputs": [
        {
          "indexed": true,
          "internalType": "address",
          "name": "owner",
          "type": "address"
        },
        {
          "indexed": true,
          "internalType": "address",
          "name": "spender",
          "type": "address"
        },
        {
          "indexed": false,
          "internalType": "uint256",
          "name": "value",
          "type": "uint256"
        }
      ],
      "name": "Approval",
      "type": "event"
    },
    {
      "anonymous": false,
      "inputs": [
        {
          "indexed": true,
          "internalType": "address",
          "name": "account",
          "type": "address"
        },
        {
          "indexed": false,
          "internalType": "uint256",
          "name": "amount",
          "type": "uint256"
        }
      ],
      "name": "DividendWithdrawn",
      "type": "event"
    },
    {
      "anonymous": false,
      "inputs": [
        {
          "indexed": true,
          "internalType": "address",
          "name": "account",
          "type": "address"
        },
        {
          "indexed": false,
          "internalType": "uint256",
          "name": "amount",
          "type": "uint256"
        }
      ],
      "name": "DividendsDistributed",
      "type": "event"
    },
    {
      "anonymous": false,
      "inputs": [
        {
          "indexed": true,
          "internalType": "address",
          "name": "previousOwner",
          "type": "address"
        },
        {
          "indexed": true,
          "internalType": "address",
          "name": "newOwner",
          "type": "address"
        }
      ],
      "name": "OwnershipTransferred",
      "type": "event"
    },
    {
      "anonymous": false,
      "inputs": [
        {
          "indexed": false,
          "internalType": "address",
          "name": "account",
          "type": "address"
        }
      ],
      "name": "Paused",
      "type": "event"
    },
    {
      "anonymous": false,
      "inputs": [
        {
          "indexed": true,
          "internalType": "address",
          "name": "from",
          "type": "address"
        },
        {
          "indexed": true,
          "internalType": "address",
          "name": "to",
          "type": "address"
        },
        {
          "indexed": false,
          "internalType": "uint256",
          "name": "value",
          "type": "uint256"
        }
      ],
      "name": "Transfer",
      "type": "event"
    },
    {
      "anonymous": false,
      "inputs": [
        {
          "indexed": false,
          "internalType": "address",
          "name": "account",
          "type": "address"
        }
      ],
      "name": "Unpaused",
      "type": "event"
    },
    {
      "inputs": [
        {
          "internalType": "address",
          "name": "account",
          "type": "address"
        }
      ],
      "name": "accumulativeDividendOf",
      "outputs": [
        {
          "internalType": "uint256",
          "name": "",
          "type": "uint256"
        }
      ],
      "stateMutability": "view",
      "type": "function"
    },
    {
      "inputs": [
        {
          "internalType": "address",
          "name": "owner",
          "type": "address"
        },
        {
          "internalType": "address",
          "name": "spender",
          "type": "address"
        }
      ],
      "name": "allowance",
      "outputs": [
        {
          "internalType": "uint256",
          "name": "",
          "type": "uint256"
        }
      ],
      "stateMutability": "view",
      "type": "function"
    },
    {
      "inputs": [
        {
          "internalType": "address",
          "name": "spender",
          "type": "address"
        },
        {
          "internalType": "uint256",
          "name": "amount",
          "type": "uint256"
        }
      ],
      "name": "approve",
      "outputs": [
        {
          "internalType": "bool",
          "name": "",
          "type": "bool"
        }
      ],
      "stateMutability": "nonpayable",
      "type": "function"
    },
    {
      "inputs": [
        {
          "internalType": "address",
          "name": "account",
          "type": "address"
        }
      ],
      "name": "balanceOf",
      "outputs": [
        {
          "internalType": "uint256",
          "name": "",
          "type": "uint256"
        }
      ],
      "stateMutability": "view",
      "type": "function"
    },
    {
      "inputs": [],
      "name": "barrier",
      "outputs": [
        {
          "internalType": "uint256",
          "name": "",
          "type": "uint256"
        }
      ],
      "stateMutability": "view",
      "type": "function"
    },
    {
      "inputs": [],
      "name": "calcTotalValue",
      "outputs": [
        {
          "internalType": "uint256",
          "name": "",
          "type": "uint256"
        }
      ],
      "stateMutability": "nonpayable",
      "type": "function"
    },
    {
      "inputs": [],
      "name": "claim",
      "outputs": [],
      "stateMutability": "nonpayable",
      "type": "function"
    },
    {
      "inputs": [
        {
          "internalType": "address",
          "name": "account",
          "type": "address"
        }
      ],
      "name": "claimOnBehalf",
      "outputs": [],
      "stateMutability": "nonpayable",
      "type": "function"
    },
    {
      "inputs": [],
      "name": "decimals",
      "outputs": [
        {
          "internalType": "uint8",
          "name": "",
          "type": "uint8"
        }
      ],
      "stateMutability": "view",
      "type": "function"
    },
    {
      "inputs": [
        {
          "internalType": "address",
          "name": "spender",
          "type": "address"
        },
        {
          "internalType": "uint256",
          "name": "subtractedValue",
          "type": "uint256"
        }
      ],
      "name": "decreaseAllowance",
      "outputs": [
        {
          "internalType": "bool",
          "name": "",
          "type": "bool"
        }
      ],
      "stateMutability": "nonpayable",
      "type": "function"
    },
    {
      "inputs": [
        {
          "internalType": "uint256",
          "name": "amount",
          "type": "uint256"
        }
      ],
      "name": "deposit",
      "outputs": [],
      "stateMutability": "nonpayable",
      "type": "function"
    },
    {
      "inputs": [],
      "name": "depositLimit",
      "outputs": [
        {
          "internalType": "uint256",
          "name": "",
          "type": "uint256"
        }
      ],
      "stateMutability": "view",
      "type": "function"
    },
    {
      "inputs": [
        {
          "internalType": "uint256",
          "name": "amount",
          "type": "uint256"
        }
      ],
      "name": "distributeDividends",
      "outputs": [],
      "stateMutability": "nonpayable",
      "type": "function"
    },
    {
      "inputs": [],
      "name": "earn",
      "outputs": [],
      "stateMutability": "nonpayable",
      "type": "function"
    },
    {
      "inputs": [
        {
          "internalType": "uint256",
          "name": "amount",
          "type": "uint256"
        }
      ],
      "name": "harvest",
      "outputs": [],
      "stateMutability": "nonpayable",
      "type": "function"
    },
    {
      "inputs": [],
      "name": "harvester",
      "outputs": [
        {
          "internalType": "contract IHarvester",
          "name": "",
          "type": "address"
        }
      ],
      "stateMutability": "view",
      "type": "function"
    },
    {
      "inputs": [
        {
          "internalType": "address",
          "name": "spender",
          "type": "address"
        },
        {
          "internalType": "uint256",
          "name": "addedValue",
          "type": "uint256"
        }
      ],
      "name": "increaseAllowance",
      "outputs": [
        {
          "internalType": "bool",
          "name": "",
          "type": "bool"
        }
      ],
      "stateMutability": "nonpayable",
      "type": "function"
    },
    {
      "inputs": [],
      "name": "lastDistributionAt",
      "outputs": [
        {
          "internalType": "uint256",
          "name": "",
          "type": "uint256"
        }
      ],
      "stateMutability": "view",
      "type": "function"
    },
    {
      "inputs": [],
      "name": "name",
      "outputs": [
        {
          "internalType": "string",
          "name": "",
          "type": "string"
        }
      ],
      "stateMutability": "view",
      "type": "function"
    },
    {
      "inputs": [],
      "name": "owner",
      "outputs": [
        {
          "internalType": "address",
          "name": "",
          "type": "address"
        }
      ],
      "stateMutability": "view",
      "type": "function"
    },
    {
      "inputs": [
        {
          "internalType": "bool",
          "name": "pause",
          "type": "bool"
        }
      ],
      "name": "pauseDeposits",
      "outputs": [],
      "stateMutability": "nonpayable",
      "type": "function"
    },
    {
      "inputs": [],
      "name": "paused",
      "outputs": [
        {
          "internalType": "bool",
          "name": "",
          "type": "bool"
        }
      ],
      "stateMutability": "view",
      "type": "function"
    },
    {
      "inputs": [],
      "name": "renounceOwnership",
      "outputs": [],
      "stateMutability": "nonpayable",
      "type": "function"
    },
    {
      "inputs": [
        {
          "internalType": "uint256",
          "name": "_barrier",
          "type": "uint256"
        }
      ],
      "name": "setBarrier",
      "outputs": [],
      "stateMutability": "nonpayable",
      "type": "function"
    },
    {
      "inputs": [
        {
          "internalType": "uint256",
          "name": "_depositLimit",
          "type": "uint256"
        }
      ],
      "name": "setDepositLimit",
      "outputs": [],
      "stateMutability": "nonpayable",
      "type": "function"
    },
    {
      "inputs": [
        {
          "internalType": "contract IHarvester",
          "name": "_harvester",
          "type": "address"
        }
      ],
      "name": "setHarvester",
      "outputs": [],
      "stateMutability": "nonpayable",
      "type": "function"
    },
    {
      "inputs": [
        {
          "internalType": "contract IStrategy",
          "name": "_strategy",
          "type": "address"
        },
        {
          "internalType": "bool",
          "name": "force",
          "type": "bool"
        }
      ],
      "name": "setStrategy",
      "outputs": [],
      "stateMutability": "nonpayable",
      "type": "function"
    },
    {
      "inputs": [],
      "name": "strategy",
      "outputs": [
        {
          "internalType": "contract IStrategy",
          "name": "",
          "type": "address"
        }
      ],
      "stateMutability": "view",
      "type": "function"
    },
    {
      "inputs": [
        {
          "internalType": "contract IERC20Metadata",
          "name": "token",
          "type": "address"
        }
      ],
      "name": "sweep",
      "outputs": [],
      "stateMutability": "nonpayable",
      "type": "function"
    },
    {
      "inputs": [],
      "name": "symbol",
      "outputs": [
        {
          "internalType": "string",
          "name": "",
          "type": "string"
        }
      ],
      "stateMutability": "view",
      "type": "function"
    },
    {
      "inputs": [],
      "name": "target",
      "outputs": [
        {
          "internalType": "contract IERC20Metadata",
          "name": "",
          "type": "address"
        }
      ],
      "stateMutability": "view",
      "type": "function"
    },
    {
      "inputs": [],
      "name": "targetToken",
      "outputs": [
        {
          "internalType": "contract IERC20Metadata",
          "name": "",
          "type": "address"
        }
      ],
      "stateMutability": "view",
      "type": "function"
    },
    {
      "inputs": [],
      "name": "timelock",
      "outputs": [
        {
          "internalType": "address",
          "name": "",
          "type": "address"
        }
      ],
      "stateMutability": "view",
      "type": "function"
    },
    {
      "inputs": [],
      "name": "totalSupply",
      "outputs": [
        {
          "internalType": "uint256",
          "name": "",
          "type": "uint256"
        }
      ],
      "stateMutability": "view",
      "type": "function"
    },
    {
      "inputs": [
        {
          "internalType": "address",
          "name": "recipient",
          "type": "address"
        },
        {
          "internalType": "uint256",
          "name": "amount",
          "type": "uint256"
        }
      ],
      "name": "transfer",
      "outputs": [
        {
          "internalType": "bool",
          "name": "",
          "type": "bool"
        }
      ],
      "stateMutability": "nonpayable",
      "type": "function"
    },
    {
      "inputs": [
        {
          "internalType": "address",
          "name": "sender",
          "type": "address"
        },
        {
          "internalType": "address",
          "name": "recipient",
          "type": "address"
        },
        {
          "internalType": "uint256",
          "name": "amount",
          "type": "uint256"
        }
      ],
      "name": "transferFrom",
      "outputs": [
        {
          "internalType": "bool",
          "name": "",
          "type": "bool"
        }
      ],
      "stateMutability": "nonpayable",
      "type": "function"
    },
    {
      "inputs": [
        {
          "internalType": "address",
          "name": "newOwner",
          "type": "address"
        }
      ],
      "name": "transferOwnership",
      "outputs": [],
      "stateMutability": "nonpayable",
      "type": "function"
    },
    {
      "inputs": [
        {
          "internalType": "address",
          "name": "account",
          "type": "address"
        }
      ],
      "name": "unclaimedProfit",
      "outputs": [
        {
          "internalType": "uint256",
          "name": "",
          "type": "uint256"
        }
      ],
      "stateMutability": "view",
      "type": "function"
    },
    {
      "inputs": [],
      "name": "underlying",
      "outputs": [
        {
          "internalType": "contract IERC20Metadata",
          "name": "",
          "type": "address"
        }
      ],
      "stateMutability": "view",
      "type": "function"
    },
    {
      "inputs": [],
      "name": "underlyingYield",
      "outputs": [
        {
          "internalType": "uint256",
          "name": "",
          "type": "uint256"
        }
      ],
      "stateMutability": "nonpayable",
      "type": "function"
    },
    {
      "inputs": [
        {
          "internalType": "uint256",
          "name": "amount",
          "type": "uint256"
        }
      ],
      "name": "withdraw",
      "outputs": [],
      "stateMutability": "nonpayable",
      "type": "function"
    },
    {
      "inputs": [
        {
          "internalType": "address",
          "name": "account",
          "type": "address"
        }
      ],
      "name": "withdrawableDividendOf",
      "outputs": [
        {
          "internalType": "uint256",
          "name": "",
          "type": "uint256"
        }
      ],
      "stateMutability": "view",
      "type": "function"
    },
    {
      "inputs": [
        {
          "internalType": "address",
          "name": "account",
          "type": "address"
        }
      ],
      "name": "withdrawnDividendOf",
      "outputs": [
        {
          "internalType": "uint256",
          "name": "",
          "type": "uint256"
        }
      ],
      "stateMutability": "view",
      "type": "function"
    }
  ],
  "transactionHash": "0xf93401eed1184da9af9d1c0a091ee11188aeb7c8ad35cac7a946aad98a0b8ff7",
  "args": [
    "0x1AF3F329e8BE154074D8769D1FFa4eE058B1DBc3",
    "0x0E09FaBB73Bd3Ade0a17ECC321fD13a19e81cE82",
    "0xc91e92F5e867CC7F3c1947dac4b5844bbacAEACD",
    "0x4a1D75f75B00b05ABd2a2D376f77413D1cC5cAD1"
  ],
  "solcInputHash": "fa4c455fd6dffea2184409660fd1b65c",
  "bytecode": "0x60e06040526103e8600c553480156200001757600080fd5b506040516200344e3803806200344e8339810160408190526200003a91620005d4565b836001600160a01b03166395d89b416040518163ffffffff1660e01b815260040160006040518083038186803b1580156200007457600080fd5b505afa15801562000089573d6000803e3d6000fd5b505050506040513d6000823e601f3d908101601f19168201604052620000b391908101906200063b565b836001600160a01b03166395d89b416040518163ffffffff1660e01b815260040160006040518083038186803b158015620000ed57600080fd5b505afa15801562000102573d6000803e3d6000fd5b505050506040513d6000823e601f3d908101601f191682016040526200012c91908101906200063b565b6040516020016200013f92919062000719565b604051602081830303815290604052846001600160a01b03166395d89b416040518163ffffffff1660e01b815260040160006040518083038186803b1580156200018857600080fd5b505afa1580156200019d573d6000803e3d6000fd5b505050506040513d6000823e601f3d908101601f19168201604052620001c791908101906200063b565b846001600160a01b03166395d89b416040518163ffffffff1660e01b815260040160006040518083038186803b1580156200020157600080fd5b505afa15801562000216573d6000803e3d6000fd5b505050506040513d6000823e601f3d908101601f191682016040526200024091908101906200063b565b6040516020016200025392919062000789565b60408051601f1981840301815290829052600080546001600160a01b03191633908117825591928792859285928291907f8be0079c531659141344cd1fd0a4f28419497f9722a3daafe3b4186f6b6457e0908290a3506000805460ff60a01b191690558151620002cb9060049060208501906200052e565b508051620002e19060059060208401906200052e565b5050506001600160601b0319606091821b81166080529087901b1660a05250506040805163313ce56760e01b815290516001600160a01b0386169163313ce567916004808301926020929190829003018186803b1580156200034257600080fd5b505afa15801562000357573d6000803e3d6000fd5b505050506040513d601f19601f820116820180604052508101906200037d9190620006ef565b60f81b7fff000000000000000000000000000000000000000000000000000000000000001660c052600980546001600160a01b03199081166001600160a01b0385811691909117909255600a80549091168383161790556040805163313ce56760e01b815290519186169163313ce56791600480820192602092909190829003018186803b1580156200040f57600080fd5b505afa15801562000424573d6000803e3d6000fd5b505050506040513d601f19601f820116820180604052508101906200044a9190620006ef565b6200045790600a62000825565b6200046590614e2062000910565b600d55620004726200047c565b50505050620009e7565b62000490600054600160a01b900460ff1690565b15620004d55760405162461bcd60e51b815260206004820152601060248201526f14185d5cd8589b194e881c185d5cd95960821b604482015260640160405180910390fd5b6000805460ff60a01b1916600160a01b1790557f62e78cea01bee320cd4e420270b5ea74000d11b0c9f74754ebdbfc544b05a258620005113390565b6040516001600160a01b03909116815260200160405180910390a1565b8280546200053c9062000965565b90600052602060002090601f016020900481019282620005605760008555620005ab565b82601f106200057b57805160ff1916838001178555620005ab565b82800160010185558215620005ab579182015b82811115620005ab5782518255916020019190600101906200058e565b50620005b9929150620005bd565b5090565b5b80821115620005b95760008155600101620005be565b60008060008060808587031215620005ea578384fd5b8451620005f781620009ce565b60208601519094506200060a81620009ce565b60408601519093506200061d81620009ce565b60608601519092506200063081620009ce565b939692955090935050565b6000602082840312156200064d578081fd5b81516001600160401b038082111562000664578283fd5b818401915084601f83011262000678578283fd5b8151818111156200068d576200068d620009b8565b604051601f8201601f19908116603f01168101908382118183101715620006b857620006b8620009b8565b81604052828152876020848701011115620006d1578586fd5b620006e483602083016020880162000932565b979650505050505050565b60006020828403121562000701578081fd5b815160ff8116811462000712578182fd5b9392505050565b60006702324a922a220a7960c51b825283516200073e81600885016020880162000932565b630103a37960e51b60089184019182015283516200076481600c84016020880162000932565b6b102cb4b2b632102a37b5b2b760a11b600c9290910191820152601801949350505050565b600061666960f01b82528351620007a881600285016020880162000932565b61169f60f11b6002918401918201528351620007cc81600484016020880162000932565b01600401949350505050565b80825b6001808611620007ec57506200081c565b818704821115620008015762000801620009a2565b808616156200080f57918102915b9490941c938002620007db565b94509492505050565b60006200071260001960ff851684600082620008445750600162000712565b81620008535750600062000712565b81600181146200086c57600281146200087757620008ab565b600191505062000712565b60ff8411156200088b576200088b620009a2565b6001841b915084821115620008a457620008a4620009a2565b5062000712565b5060208310610133831016604e8410600b8410161715620008e3575081810a83811115620008dd57620008dd620009a2565b62000712565b620008f28484846001620007d8565b808604821115620009075762000907620009a2565b02949350505050565b60008160001904831182151516156200092d576200092d620009a2565b500290565b60005b838110156200094f57818101518382015260200162000935565b838111156200095f576000848401525b50505050565b600181811c908216806200097a57607f821691505b602082108114156200099c57634e487b7160e01b600052602260045260246000fd5b50919050565b634e487b7160e01b600052601160045260246000fd5b634e487b7160e01b600052604160045260246000fd5b6001600160a01b0381168114620009e457600080fd5b50565b60805160601c60a05160601c60c05160f81c6129d362000a7b6000396000610349015260008181610439015281816109c001528181610abd01528181610db401528181611024015281816111d201528181611256015281816114e1015281816115a0015261176f01526000818161038b015281816105940152818161065501528181611cb10152611dc801526129d36000f3fe608060405234801561001057600080fd5b50600436106102695760003560e01c806370a0823111610151578063aafd847a116100c3578063d389800f11610087578063d389800f1461058a578063d4b8399214610592578063dd62ed3e146105b8578063ddc63262146105f1578063ecf7085814610604578063f2fde38b1461060d57610269565b8063aafd847a14610515578063b6b55f251461053e578063baa82a3414610551578063bdc8144b14610564578063d33219b41461057757610269565b806395d89b411161011557806395d89b41146104b9578063a00251c6146104c1578063a457c2d7146104c9578063a8b9d240146104dc578063a8c62e76146104ef578063a9059cbb1461050257610269565b806370a082311461045b578063715018a614610484578063738b62e51461048c5780638da5cb5b1461049f57806390355087146104b057610269565b8063313ce567116101ea57806344bd5dcb116101ae57806344bd5dcb146103e05780634bdaeac1146103f35780634e71d92d146104065780635c975abb1461040e5780636466f45e146104215780636f307dc31461043457610269565b8063313ce567146103425780633243c79114610373578063327107f71461038657806339509351146103c55780633d8bb517146103d857610269565b806315de1daa1161023157806315de1daa146102ee57806318160ddd1461030157806323b872dd1461030957806327ce01471461031c5780632e1a7d4d1461032f57610269565b806301681a621461026e57806306fdde0314610283578063095ea7b3146102a15780630b3c57d8146102c457806312b6e8ff146102e5575b600080fd5b61028161027c366004612637565b610620565b005b61028b610789565b60405161029891906127a7565b60405180910390f35b6102b46102af3660046126cb565b61081b565b6040519015158152602001610298565b6102d76102d2366004612637565b610831565b604051908152602001610298565b6102d7600c5481565b6102816102fc366004612637565b610842565b6003546102d7565b6102b461031736600461268b565b61088e565b6102d761032a366004612637565b610941565b61028161033d36600461275b565b61099e565b60405160ff7f0000000000000000000000000000000000000000000000000000000000000000168152602001610298565b61028161038136600461275b565b610af0565b6103ad7f000000000000000000000000000000000000000000000000000000000000000081565b6040516001600160a01b039091168152602001610298565b6102b46103d33660046126cb565b610b63565b6102d7610b9a565b6102816103ee36600461275b565b610bbc565b6009546103ad906001600160a01b031681565b610281610c3c565b6102b4600054600160a01b900460ff1690565b61028161042f366004612637565b610c47565b6103ad7f000000000000000000000000000000000000000000000000000000000000000081565b6102d7610469366004612637565b6001600160a01b031660009081526001602052604090205490565b610281610cd4565b61028161049a3660046126f6565b610d48565b6000546001600160a01b03166103ad565b6102d7600e5481565b61028b610d8d565b6102d7610d9c565b6102b46104d73660046126cb565b610ec8565b6102d76104ea366004612637565b610f63565b600b546103ad906001600160a01b031681565b6102b46105103660046126cb565b610f8f565b6102d7610523366004612637565b6001600160a01b031660009081526008602052604090205490565b61028161054c36600461275b565b610f9c565b61028161055f36600461272e565b61105e565b61028161057236600461275b565b611470565b600a546103ad906001600160a01b031681565b61028161149f565b7f00000000000000000000000000000000000000000000000000000000000000006103ad565b6102d76105c6366004612653565b6001600160a01b03918216600090815260026020908152604080832093909416825291909152205490565b6102816105ff36600461275b565b611635565b6102d7600d5481565b61028161061b366004612637565b611799565b6000546001600160a01b031633146106535760405162461bcd60e51b815260040161064a906127da565b60405180910390fd5b7f00000000000000000000000000000000000000000000000000000000000000006001600160a01b0316816001600160a01b031614156106e95760405162461bcd60e51b815260206004820152602b60248201527f5661756c743a207377656570696e67206f662074617267657420746f6b656e2060448201526a1b9bdd08185b1b1bddd95960aa1b606482015260840161064a565b6107866106fe6000546001600160a01b031690565b6040516370a0823160e01b81523060048201526001600160a01b038416906370a082319060240160206040518083038186803b15801561073d57600080fd5b505afa158015610751573d6000803e3d6000fd5b505050506040513d601f19601f820116820180604052508101906107759190612773565b6001600160a01b0384169190611883565b50565b60606004805461079890612929565b80601f01602080910402602001604051908101604052809291908181526020018280546107c490612929565b80156108115780601f106107e657610100808354040283529160200191610811565b820191906000526020600020905b8154815290600101906020018083116107f457829003601f168201915b5050505050905090565b60006108283384846118eb565b50600192915050565b600061083c82610f63565b92915050565b6000546001600160a01b0316331461086c5760405162461bcd60e51b815260040161064a906127da565b600980546001600160a01b0319166001600160a01b0392909216919091179055565b600061089b848484611a10565b6001600160a01b0384166000908152600260209081526040808320338452909152902054828110156109205760405162461bcd60e51b815260206004820152602860248201527f45524332303a207472616e7366657220616d6f756e74206578636565647320616044820152676c6c6f77616e636560c01b606482015260840161064a565b610934853361092f86856128e6565b6118eb565b60019150505b9392505050565b6001600160a01b0381166000908152600760209081526040808320546001909252822054600160801b9161099491610985906006546109809190612888565b611aa7565b61098f919061280f565b611b11565b61083c9190612868565b6109a83382611b63565b6040516370a0823160e01b81523060048201526000907f00000000000000000000000000000000000000000000000000000000000000006001600160a01b0316906370a082319060240160206040518083038186803b158015610a0a57600080fd5b505afa158015610a1e573d6000803e3d6000fd5b505050506040513d601f19601f82011682018060405250810190610a429190612773565b905080821115610ab857600b546001600160a01b0316638ca17995610a6783856128e6565b6040518263ffffffff1660e01b8152600401610a8591815260200190565b600060405180830381600087803b158015610a9f57600080fd5b505af1158015610ab3573d6000803e3d6000fd5b505050505b610aec7f00000000000000000000000000000000000000000000000000000000000000006001600160a01b03163384611883565b5050565b6009546001600160a01b0316336001600160a01b031614610b535760405162461bcd60e51b815260206004820152601d60248201527f5661756c743a206f6e6c792068617276657374657220616c6c6f776564000000604482015260640161064a565b610b5c81611bc1565b5042600e55565b3360008181526002602090815260408083206001600160a01b0387168452909152812054909161082891859061092f908690612850565b6000610ba560035490565b610bad610d9c565b610bb791906128e6565b905090565b6000546001600160a01b03163314610be65760405162461bcd60e51b815260040161064a906127da565b6127108110610c375760405162461bcd60e51b815260206004820152601760248201527f5661756c743a206261727269657220746f6f2068696768000000000000000000604482015260640161064a565b600c55565b610c4533611d19565b565b6009546001600160a01b0316336001600160a01b03161480610c7357506000546001600160a01b031633145b610ccb5760405162461bcd60e51b8152602060048201526024808201527f5661756c743a206f6e6c7920686172766573746572206f7220676f7620616c6c6044820152631bddd95960e21b606482015260840161064a565b61078681611d19565b6000546001600160a01b03163314610cfe5760405162461bcd60e51b815260040161064a906127da565b600080546040516001600160a01b03909116907f8be0079c531659141344cd1fd0a4f28419497f9722a3daafe3b4186f6b6457e0908390a3600080546001600160a01b0319169055565b6000546001600160a01b03163314610d725760405162461bcd60e51b815260040161064a906127da565b8015610d8557610d80611e36565b610786565b610786611ee1565b60606005805461079890612929565b6040516370a0823160e01b81523060048201526000907f00000000000000000000000000000000000000000000000000000000000000006001600160a01b0316906370a082319060240160206040518083038186803b158015610dfe57600080fd5b505afa158015610e12573d6000803e3d6000fd5b505050506040513d601f19601f82011682018060405250810190610e369190612773565b600b60009054906101000a90046001600160a01b03166001600160a01b031663a00251c66040518163ffffffff1660e01b8152600401602060405180830381600087803b158015610e8657600080fd5b505af1158015610e9a573d6000803e3d6000fd5b505050506040513d601f19601f82011682018060405250810190610ebe9190612773565b610bb79190612850565b3360009081526002602090815260408083206001600160a01b038616845290915281205482811015610f4a5760405162461bcd60e51b815260206004820152602560248201527f45524332303a2064656372656173656420616c6c6f77616e63652062656c6f77604482015264207a65726f60d81b606482015260840161064a565b610f59338561092f86856128e6565b5060019392505050565b6001600160a01b038116600090815260086020526040812054610f8583610941565b61083c91906128e6565b6000610828338484611a10565b600d541561101f57600d5481610fb160035490565b610fbb9190612850565b111561101f5760405162461bcd60e51b815260206004820152602d60248201527f5661756c743a20746f74616c20737570706c792077696c6c206578636565642060448201526c19195c1bdcda5d081b1a5b5a5d609a1b606482015260840161064a565b6110547f00000000000000000000000000000000000000000000000000000000000000006001600160a01b0316333084611f6b565b6107863382611fa9565b600b546001600160a01b0316156113eb57600a546001600160a01b0316336001600160a01b0316146110d25760405162461bcd60e51b815260206004820152601c60248201527f5661756c743a206f6e6c792074696d656c6f636b20616c6c6f77656400000000604482015260640161064a565b600b546040805163500128e360e11b815290516000926001600160a01b03169163a00251c691600480830192602092919082900301818787803b15801561111857600080fd5b505af115801561112c573d6000803e3d6000fd5b505050506040513d601f19601f820116820180604052508101906111509190612773565b600b54604051638ca1799560e01b8152600481018390529192506001600160a01b031690638ca1799590602401600060405180830381600087803b15801561119757600080fd5b505af11580156111ab573d6000803e3d6000fd5b50506040516370a0823160e01b815230600482015261127d92508591506001600160a01b037f000000000000000000000000000000000000000000000000000000000000000016906370a082319060240160206040518083038186803b15801561121457600080fd5b505afa158015611228573d6000803e3d6000fd5b505050506040513d601f19601f8201168201806040525081019061124c9190612773565b6001600160a01b037f0000000000000000000000000000000000000000000000000000000000000000169190611883565b826001600160a01b031663e8b5e51f6040518163ffffffff1660e01b8152600401600060405180830381600087803b1580156112b857600080fd5b505af11580156112cc573d6000803e3d6000fd5b50505050816113e55780836001600160a01b031663a00251c66040518163ffffffff1660e01b8152600401602060405180830381600087803b15801561131157600080fd5b505af1158015611325573d6000803e3d6000fd5b505050506040513d601f19601f820116820180604052508101906113499190612773565b101580156113dc5750600b60009054906101000a90046001600160a01b03166001600160a01b031663a00251c66040518163ffffffff1660e01b8152600401602060405180830381600087803b1580156113a257600080fd5b505af11580156113b6573d6000803e3d6000fd5b505050506040513d601f19601f820116820180604052508101906113da9190612773565b155b6113e557600080fd5b5061144d565b6000546001600160a01b031633146114455760405162461bcd60e51b815260206004820152601760248201527f5661756c743a206f6e6c7920676f7620616c6c6f776564000000000000000000604482015260640161064a565b61144d611ee1565b50600b80546001600160a01b0319166001600160a01b0392909216919091179055565b6000546001600160a01b0316331461149a5760405162461bcd60e51b815260040161064a906127da565b600d55565b6000546001600160a01b031633146114c95760405162461bcd60e51b815260040161064a906127da565b6040516370a0823160e01b81523060048201526000907f00000000000000000000000000000000000000000000000000000000000000006001600160a01b0316906370a082319060240160206040518083038186803b15801561152b57600080fd5b505afa15801561153f573d6000803e3d6000fd5b505050506040513d601f19601f820116820180604052508101906115639190612773565b90506000612710600c54836115789190612888565b6115829190612868565b61158c90836128e6565b600b549091506115c9906001600160a01b037f00000000000000000000000000000000000000000000000000000000000000008116911683611883565b600b60009054906101000a90046001600160a01b03166001600160a01b031663e8b5e51f6040518163ffffffff1660e01b8152600401600060405180830381600087803b15801561161957600080fd5b505af115801561162d573d6000803e3d6000fd5b505050505050565b6009546001600160a01b0316336001600160a01b0316146116985760405162461bcd60e51b815260206004820152601d60248201527f5661756c743a206f6e6c792068617276657374657220616c6c6f776564000000604482015260640161064a565b6116a0610b9a565b8111156117015760405162461bcd60e51b815260206004820152602960248201527f5661756c743a20616d6f756e74206c6172676572207468616e2067656e6572616044820152681d1959081e5a595b1960ba1b606482015260840161064a565b600b54604051638ca1799560e01b8152600481018390526001600160a01b0390911690638ca1799590602401600060405180830381600087803b15801561174757600080fd5b505af115801561175b573d6000803e3d6000fd5b505060095461078692506001600160a01b037f0000000000000000000000000000000000000000000000000000000000000000811692501683611883565b6000546001600160a01b031633146117c35760405162461bcd60e51b815260040161064a906127da565b6001600160a01b0381166118285760405162461bcd60e51b815260206004820152602660248201527f4f776e61626c653a206e6577206f776e657220697320746865207a65726f206160448201526564647265737360d01b606482015260840161064a565b600080546040516001600160a01b03808516939216917f8be0079c531659141344cd1fd0a4f28419497f9722a3daafe3b4186f6b6457e091a3600080546001600160a01b0319166001600160a01b0392909216919091179055565b6040516001600160a01b0383166024820152604481018290526118e690849063a9059cbb60e01b906064015b60408051601f198184030181529190526020810180516001600160e01b03166001600160e01b031990931692909217909152611fe7565b505050565b6001600160a01b03831661194d5760405162461bcd60e51b8152602060048201526024808201527f45524332303a20617070726f76652066726f6d20746865207a65726f206164646044820152637265737360e01b606482015260840161064a565b6001600160a01b0382166119ae5760405162461bcd60e51b815260206004820152602260248201527f45524332303a20617070726f766520746f20746865207a65726f206164647265604482015261737360f01b606482015260840161064a565b6001600160a01b0383811660008181526002602090815260408083209487168084529482529182902085905590518481527f8c5be1e5ebec7d5bd14f71427d1e84f3dd0314c0f7b2291e5b200ac8c7c3b92591015b60405180910390a3505050565b611a1b8383836120b9565b6000611a2e826006546109809190612888565b6001600160a01b038516600090815260076020526040902054909150611a5590829061280f565b6001600160a01b038086166000908152600760205260408082209390935590851681522054611a859082906128a7565b6001600160a01b03909316600090815260076020526040902092909255505050565b6000600160ff1b8210611b0d5760405162461bcd60e51b815260206004820152602860248201527f53616665436173743a2076616c756520646f65736e27742066697420696e2061604482015267371034b73a191a9b60c11b606482015260840161064a565b5090565b600080821215611b0d5760405162461bcd60e51b815260206004820181905260248201527f53616665436173743a2076616c7565206d75737420626520706f736974697665604482015260640161064a565b611b6d8282612291565b611b7e816006546109809190612888565b6001600160a01b038316600090815260076020526040902054611ba1919061280f565b6001600160a01b0390921660009081526007602052604090209190915550565b6000611bcc60035490565b11611c255760405162461bcd60e51b815260206004820152602360248201527f4469766964656e64546f6b656e3a20746f74616c20737570706c79206973207a60448201526265726f60e81b606482015260840161064a565b60008111611c815760405162461bcd60e51b8152602060048201526024808201527f4469766964656e64546f6b656e3a206e6f7468696e6720746f206469737472696044820152636275746560e01b606482015260840161064a565b600354611c92600160801b83612888565b611c9c9190612868565b600654611ca99190612850565b600655611ce17f00000000000000000000000000000000000000000000000000000000000000006001600160a01b0316333084611f6b565b60405181815233907fa493a9229478c3fcd73f66d2cdeb7f94fd0f341da924d1054236d784541165119060200160405180910390a250565b6000611d2482610f63565b905060008111611d815760405162461bcd60e51b815260206004820152602260248201527f4469766964656e64546f6b656e3a206e6f7468696e6720746f20776974686472604482015261617760f01b606482015260840161064a565b6001600160a01b038216600090815260086020526040902054611da5908290612850565b6001600160a01b03808416600090815260086020526040902091909155611def907f0000000000000000000000000000000000000000000000000000000000000000168383611883565b816001600160a01b03167fee503bee2bb6a87e57bc57db795f98137327401a0e7b7ce42e37926cc1a9ca4d82604051611e2a91815260200190565b60405180910390a25050565b611e49600054600160a01b900460ff1690565b15611e895760405162461bcd60e51b815260206004820152601060248201526f14185d5cd8589b194e881c185d5cd95960821b604482015260640161064a565b6000805460ff60a01b1916600160a01b1790557f62e78cea01bee320cd4e420270b5ea74000d11b0c9f74754ebdbfc544b05a258611ec43390565b6040516001600160a01b03909116815260200160405180910390a1565b611ef4600054600160a01b900460ff1690565b611f375760405162461bcd60e51b815260206004820152601460248201527314185d5cd8589b194e881b9bdd081c185d5cd95960621b604482015260640161064a565b6000805460ff60a01b191690557f5db9ee0a495bf2e6ff9c91a7834c1ba4fdd244a5e8aa4e537bd38aeae4b073aa33611ec4565b6040516001600160a01b0380851660248301528316604482015260648101829052611fa39085906323b872dd60e01b906084016118af565b50505050565b611fb382826123e0565b611fc4816006546109809190612888565b6001600160a01b038316600090815260076020526040902054611ba191906128a7565b600061203c826040518060400160405280602081526020017f5361666545524332303a206c6f772d6c6576656c2063616c6c206661696c6564815250856001600160a01b03166124bf9092919063ffffffff16565b8051909150156118e6578080602001905181019061205a9190612712565b6118e65760405162461bcd60e51b815260206004820152602a60248201527f5361666545524332303a204552433230206f7065726174696f6e20646964206e6044820152691bdd081cdd58d8d9595960b21b606482015260840161064a565b6001600160a01b03831661211d5760405162461bcd60e51b815260206004820152602560248201527f45524332303a207472616e736665722066726f6d20746865207a65726f206164604482015264647265737360d81b606482015260840161064a565b6001600160a01b03821661217f5760405162461bcd60e51b815260206004820152602360248201527f45524332303a207472616e7366657220746f20746865207a65726f206164647260448201526265737360e81b606482015260840161064a565b6001600160a01b038316600090815260016020526040902054818110156121f75760405162461bcd60e51b815260206004820152602660248201527f45524332303a207472616e7366657220616d6f756e7420657863656564732062604482015265616c616e636560d01b606482015260840161064a565b61220182826128e6565b6001600160a01b038086166000908152600160205260408082209390935590851681529081208054849290612237908490612850565b92505081905550826001600160a01b0316846001600160a01b03167fddf252ad1be2c89b69c2b068fc378daa952ba7f163c4a11628f55a4df523b3ef8460405161228391815260200190565b60405180910390a350505050565b6001600160a01b0382166122f15760405162461bcd60e51b815260206004820152602160248201527f45524332303a206275726e2066726f6d20746865207a65726f206164647265736044820152607360f81b606482015260840161064a565b6001600160a01b038216600090815260016020526040902054818110156123655760405162461bcd60e51b815260206004820152602260248201527f45524332303a206275726e20616d6f756e7420657863656564732062616c616e604482015261636560f01b606482015260840161064a565b61236f82826128e6565b6001600160a01b0384166000908152600160205260408120919091556003805484929061239d9084906128e6565b90915550506040518281526000906001600160a01b038516907fddf252ad1be2c89b69c2b068fc378daa952ba7f163c4a11628f55a4df523b3ef90602001611a03565b6001600160a01b0382166124365760405162461bcd60e51b815260206004820152601f60248201527f45524332303a206d696e7420746f20746865207a65726f206164647265737300604482015260640161064a565b80600360008282546124489190612850565b90915550506001600160a01b03821660009081526001602052604081208054839290612475908490612850565b90915550506040518181526001600160a01b038316906000907fddf252ad1be2c89b69c2b068fc378daa952ba7f163c4a11628f55a4df523b3ef9060200160405180910390a35050565b60606124ce84846000856124d6565b949350505050565b6060824710156125375760405162461bcd60e51b815260206004820152602660248201527f416464726573733a20696e73756666696369656e742062616c616e636520666f6044820152651c8818d85b1b60d21b606482015260840161064a565b843b6125855760405162461bcd60e51b815260206004820152601d60248201527f416464726573733a2063616c6c20746f206e6f6e2d636f6e7472616374000000604482015260640161064a565b600080866001600160a01b031685876040516125a1919061278b565b60006040518083038185875af1925050503d80600081146125de576040519150601f19603f3d011682016040523d82523d6000602084013e6125e3565b606091505b50915091506125f38282866125fe565b979650505050505050565b6060831561260d57508161093a565b82511561261d5782518084602001fd5b8160405162461bcd60e51b815260040161064a91906127a7565b600060208284031215612648578081fd5b813561093a8161297a565b60008060408385031215612665578081fd5b82356126708161297a565b915060208301356126808161297a565b809150509250929050565b60008060006060848603121561269f578081fd5b83356126aa8161297a565b925060208401356126ba8161297a565b929592945050506040919091013590565b600080604083850312156126dd578182fd5b82356126e88161297a565b946020939093013593505050565b600060208284031215612707578081fd5b813561093a8161298f565b600060208284031215612723578081fd5b815161093a8161298f565b60008060408385031215612740578182fd5b823561274b8161297a565b915060208301356126808161298f565b60006020828403121561276c578081fd5b5035919050565b600060208284031215612784578081fd5b5051919050565b6000825161279d8184602087016128fd565b9190910192915050565b60006020825282518060208401526127c68160408501602087016128fd565b601f01601f19169190910160400192915050565b6020808252818101527f4f776e61626c653a2063616c6c6572206973206e6f7420746865206f776e6572604082015260600190565b600080821280156001600160ff1b038490038513161561283157612831612964565b600160ff1b839003841281161561284a5761284a612964565b50500190565b6000821982111561286357612863612964565b500190565b60008261288357634e487b7160e01b81526012600452602481fd5b500490565b60008160001904831182151516156128a2576128a2612964565b500290565b60008083128015600160ff1b8501841216156128c5576128c5612964565b6001600160ff1b03840183138116156128e0576128e0612964565b50500390565b6000828210156128f8576128f8612964565b500390565b60005b83811015612918578181015183820152602001612900565b83811115611fa35750506000910152565b600181811c9082168061293d57607f821691505b6020821081141561295e57634e487b7160e01b600052602260045260246000fd5b50919050565b634e487b7160e01b600052601160045260246000fd5b6001600160a01b038116811461078657600080fd5b801515811461078657600080fdfea2646970667358221220b19858a68091416666e870bb12976497187f5437d6902b4f8127eb226aa6b2f564736f6c63430008030033",
  "devdoc": {
    "kind": "dev",
    "methods": {
      "allowance(address,address)": {
        "details": "See {IERC20-allowance}."
      },
      "approve(address,uint256)": {
        "details": "See {IERC20-approve}. Requirements: - `spender` cannot be the zero address."
      },
      "balanceOf(address)": {
        "details": "See {IERC20-balanceOf}."
      },
      "decimals()": {
        "details": "Returns the number of decimals used to get its user representation. For example, if `decimals` equals `2`, a balance of `505` tokens should be displayed to a user as `5,05` (`505 / 10 ** 2`). Tokens usually opt for a value of 18, imitating the relationship between Ether and Wei. This is the value {ERC20} uses, unless this function is overloaded; NOTE: This information is only used for _display_ purposes: it in no way affects any of the arithmetic of the contract, including {IERC20-balanceOf} and {IERC20-transfer}."
      },
      "decreaseAllowance(address,uint256)": {
        "details": "Atomically decreases the allowance granted to `spender` by the caller. This is an alternative to {approve} that can be used as a mitigation for problems described in {IERC20-approve}. Emits an {Approval} event indicating the updated allowance. Requirements: - `spender` cannot be the zero address. - `spender` must have allowance for the caller of at least `subtractedValue`."
      },
      "increaseAllowance(address,uint256)": {
        "details": "Atomically increases the allowance granted to `spender` by the caller. This is an alternative to {approve} that can be used as a mitigation for problems described in {IERC20-approve}. Emits an {Approval} event indicating the updated allowance. Requirements: - `spender` cannot be the zero address."
      },
      "name()": {
        "details": "Returns the name of the token."
      },
      "owner()": {
        "details": "Returns the address of the current owner."
      },
      "paused()": {
        "details": "Returns true if the contract is paused, and false otherwise."
      },
      "renounceOwnership()": {
        "details": "Leaves the contract without owner. It will not be possible to call `onlyOwner` functions anymore. Can only be called by the current owner. NOTE: Renouncing ownership will leave the contract without an owner, thereby removing any functionality that is only available to the owner."
      },
      "symbol()": {
        "details": "Returns the symbol of the token, usually a shorter version of the name."
      },
      "totalSupply()": {
        "details": "See {IERC20-totalSupply}."
      },
      "transfer(address,uint256)": {
        "details": "See {IERC20-transfer}. Requirements: - `recipient` cannot be the zero address. - the caller must have a balance of at least `amount`."
      },
      "transferFrom(address,address,uint256)": {
        "details": "See {IERC20-transferFrom}. Emits an {Approval} event indicating the updated allowance. This is not required by the EIP. See the note at the beginning of {ERC20}. Requirements: - `sender` and `recipient` cannot be the zero address. - `sender` must have a balance of at least `amount`. - the caller must have allowance for ``sender``'s tokens of at least `amount`."
      },
      "transferOwnership(address)": {
        "details": "Transfers ownership of the contract to a new account (`newOwner`). Can only be called by the current owner."
      }
    },
    "version": 1
  },
  "userdoc": {
    "kind": "user",
    "methods": {},
    "version": 1
  },
  "storageLayout": {
    "storage": [
      {
        "astId": 7,
        "contract": "contracts/Vault.sol:Vault",
        "label": "_owner",
        "offset": 0,
        "slot": "0",
        "type": "t_address"
      },
      {
        "astId": 127,
        "contract": "contracts/Vault.sol:Vault",
        "label": "_paused",
        "offset": 20,
        "slot": "0",
        "type": "t_bool"
      },
      {
        "astId": 214,
        "contract": "contracts/Vault.sol:Vault",
        "label": "_balances",
        "offset": 0,
        "slot": "1",
        "type": "t_mapping(t_address,t_uint256)"
      },
      {
        "astId": 220,
        "contract": "contracts/Vault.sol:Vault",
        "label": "_allowances",
        "offset": 0,
        "slot": "2",
        "type": "t_mapping(t_address,t_mapping(t_address,t_uint256))"
      },
      {
        "astId": 222,
        "contract": "contracts/Vault.sol:Vault",
        "label": "_totalSupply",
        "offset": 0,
        "slot": "3",
        "type": "t_uint256"
      },
      {
        "astId": 224,
        "contract": "contracts/Vault.sol:Vault",
        "label": "_name",
        "offset": 0,
        "slot": "4",
        "type": "t_string_storage"
      },
      {
        "astId": 226,
        "contract": "contracts/Vault.sol:Vault",
        "label": "_symbol",
        "offset": 0,
        "slot": "5",
        "type": "t_string_storage"
      },
      {
        "astId": 1670,
        "contract": "contracts/Vault.sol:Vault",
        "label": "magnifiedDividendPerShare",
        "offset": 0,
        "slot": "6",
        "type": "t_uint256"
      },
      {
        "astId": 1674,
        "contract": "contracts/Vault.sol:Vault",
        "label": "magnifiedDividendCorrections",
        "offset": 0,
        "slot": "7",
        "type": "t_mapping(t_address,t_int256)"
      },
      {
        "astId": 1678,
        "contract": "contracts/Vault.sol:Vault",
        "label": "withdrawnDividends",
        "offset": 0,
        "slot": "8",
        "type": "t_mapping(t_address,t_uint256)"
      },
      {
        "astId": 2413,
        "contract": "contracts/Vault.sol:Vault",
        "label": "harvester",
        "offset": 0,
        "slot": "9",
        "type": "t_contract(IHarvester)1994"
      },
      {
        "astId": 2415,
        "contract": "contracts/Vault.sol:Vault",
        "label": "timelock",
        "offset": 0,
        "slot": "10",
        "type": "t_address"
      },
      {
        "astId": 2418,
        "contract": "contracts/Vault.sol:Vault",
        "label": "strategy",
        "offset": 0,
        "slot": "11",
        "type": "t_contract(IStrategy)3079"
      },
      {
        "astId": 2425,
        "contract": "contracts/Vault.sol:Vault",
        "label": "barrier",
        "offset": 0,
        "slot": "12",
        "type": "t_uint256"
      },
      {
        "astId": 2427,
        "contract": "contracts/Vault.sol:Vault",
        "label": "depositLimit",
        "offset": 0,
        "slot": "13",
        "type": "t_uint256"
      },
      {
        "astId": 2430,
        "contract": "contracts/Vault.sol:Vault",
        "label": "lastDistributionAt",
        "offset": 0,
        "slot": "14",
        "type": "t_uint256"
      }
    ],
    "types": {
      "t_address": {
        "encoding": "inplace",
        "label": "address",
        "numberOfBytes": "20"
      },
      "t_bool": {
        "encoding": "inplace",
        "label": "bool",
        "numberOfBytes": "1"
      },
      "t_contract(IHarvester)1994": {
        "encoding": "inplace",
        "label": "contract IHarvester",
        "numberOfBytes": "20"
      },
      "t_contract(IStrategy)3079": {
        "encoding": "inplace",
        "label": "contract IStrategy",
        "numberOfBytes": "20"
      },
      "t_int256": {
        "encoding": "inplace",
        "label": "int256",
        "numberOfBytes": "32"
      },
      "t_mapping(t_address,t_int256)": {
        "encoding": "mapping",
        "key": "t_address",
        "label": "mapping(address => int256)",
        "numberOfBytes": "32",
        "value": "t_int256"
      },
      "t_mapping(t_address,t_mapping(t_address,t_uint256))": {
        "encoding": "mapping",
        "key": "t_address",
        "label": "mapping(address => mapping(address => uint256))",
        "numberOfBytes": "32",
        "value": "t_mapping(t_address,t_uint256)"
      },
      "t_mapping(t_address,t_uint256)": {
        "encoding": "mapping",
        "key": "t_address",
        "label": "mapping(address => uint256)",
        "numberOfBytes": "32",
        "value": "t_uint256"
      },
      "t_string_storage": {
        "encoding": "bytes",
        "label": "string",
        "numberOfBytes": "32"
      },
      "t_uint256": {
        "encoding": "inplace",
        "label": "uint256",
        "numberOfBytes": "32"
      }
    }
  }
}