{
  "address": "0xc77ac3200BAa8Dd4b54e253D6d4e230dd9483266",
  "abi": [
    {
      "inputs": [
        {
          "internalType": "contract IVault",
          "name": "_vault",
          "type": "address"
        },
        {
          "internalType": "contract IVToken",
          "name": "_vToken",
          "type": "address"
        },
        {
          "internalType": "contract IUnitroller",
          "name": "_unitroller",
          "type": "address"
        },
        {
          "internalType": "contract IERC20Metadata",
          "name": "_xvs",
          "type": "address"
        },
        {
          "internalType": "address",
          "name": "_timelock",
          "type": "address"
        },
        {
          "internalType": "contract IPancakeRouter",
          "name": "_pancakeRouter",
          "type": "address"
        },
        {
          "internalType": "address[]",
          "name": "_xvsToUnderlyingPath",
          "type": "address[]"
        }
      ],
      "stateMutability": "nonpayable",
      "type": "constructor"
    },
    {
      "anonymous": false,
      "inputs": [
        {
          "indexed": true,
          "internalType": "address",
          "name": "previousOwner",
          "type": "address"
        },
        {
          "indexed": true,
          "internalType": "address",
          "name": "newOwner",
          "type": "address"
        }
      ],
      "name": "OwnershipTransferred",
      "type": "event"
    },
    {
      "inputs": [],
      "name": "calcTotalValue",
      "outputs": [
        {
          "internalType": "uint256",
          "name": "",
          "type": "uint256"
        }
      ],
      "stateMutability": "nonpayable",
      "type": "function"
    },
    {
      "inputs": [],
      "name": "depositAll",
      "outputs": [],
      "stateMutability": "nonpayable",
      "type": "function"
    },
    {
      "inputs": [
        {
          "internalType": "uint256",
          "name": "amount",
          "type": "uint256"
        }
      ],
      "name": "depositUnderlying",
      "outputs": [],
      "stateMutability": "nonpayable",
      "type": "function"
    },
    {
      "inputs": [
        {
          "internalType": "uint256",
          "name": "amount",
          "type": "uint256"
        }
      ],
      "name": "divest",
      "outputs": [],
      "stateMutability": "nonpayable",
      "type": "function"
    },
    {
      "inputs": [],
      "name": "invest",
      "outputs": [],
      "stateMutability": "nonpayable",
      "type": "function"
    },
    {
      "inputs": [],
      "name": "minWithdrawalCap",
      "outputs": [
        {
          "internalType": "uint256",
          "name": "",
          "type": "uint256"
        }
      ],
      "stateMutability": "view",
      "type": "function"
    },
    {
      "inputs": [],
      "name": "owner",
      "outputs": [
        {
          "internalType": "address",
          "name": "",
          "type": "address"
        }
      ],
      "stateMutability": "view",
      "type": "function"
    },
    {
      "inputs": [],
      "name": "pancakeRouter",
      "outputs": [
        {
          "internalType": "contract IPancakeRouter",
          "name": "",
          "type": "address"
        }
      ],
      "stateMutability": "view",
      "type": "function"
    },
    {
      "inputs": [],
      "name": "renounceOwnership",
      "outputs": [],
      "stateMutability": "nonpayable",
      "type": "function"
    },
    {
      "inputs": [
        {
          "internalType": "contract IERC20Metadata",
          "name": "token",
          "type": "address"
        },
        {
          "internalType": "address",
          "name": "to",
          "type": "address"
        },
        {
          "internalType": "uint256",
          "name": "amount",
          "type": "uint256"
        }
      ],
      "name": "rescue",
      "outputs": [],
      "stateMutability": "nonpayable",
      "type": "function"
    },
    {
      "inputs": [
        {
          "internalType": "address",
          "name": "_strategist",
          "type": "address"
        }
      ],
      "name": "setStrategist",
      "outputs": [],
      "stateMutability": "nonpayable",
      "type": "function"
    },
    {
      "inputs": [
        {
          "internalType": "uint256",
          "name": "underlyingCap",
          "type": "uint256"
        }
      ],
      "name": "setWithdrawalCap",
      "outputs": [],
      "stateMutability": "nonpayable",
      "type": "function"
    },
    {
      "inputs": [],
      "name": "strategist",
      "outputs": [
        {
          "internalType": "address",
          "name": "",
          "type": "address"
        }
      ],
      "stateMutability": "view",
      "type": "function"
    },
    {
      "inputs": [],
      "name": "totalVenusDeposits",
      "outputs": [
        {
          "internalType": "uint256",
          "name": "",
          "type": "uint256"
        }
      ],
      "stateMutability": "nonpayable",
      "type": "function"
    },
    {
      "inputs": [
        {
          "internalType": "address",
          "name": "newOwner",
          "type": "address"
        }
      ],
      "name": "transferOwnership",
      "outputs": [],
      "stateMutability": "nonpayable",
      "type": "function"
    },
    {
      "inputs": [],
      "name": "underlying",
      "outputs": [
        {
          "internalType": "contract IERC20Metadata",
          "name": "",
          "type": "address"
        }
      ],
      "stateMutability": "view",
      "type": "function"
    },
    {
      "inputs": [],
      "name": "unitroller",
      "outputs": [
        {
          "internalType": "contract IUnitroller",
          "name": "",
          "type": "address"
        }
      ],
      "stateMutability": "view",
      "type": "function"
    },
    {
      "inputs": [],
      "name": "vToken",
      "outputs": [
        {
          "internalType": "contract IVToken",
          "name": "",
          "type": "address"
        }
      ],
      "stateMutability": "view",
      "type": "function"
    },
    {
      "inputs": [],
      "name": "vault",
      "outputs": [
        {
          "internalType": "contract IVault",
          "name": "",
          "type": "address"
        }
      ],
      "stateMutability": "view",
      "type": "function"
    },
    {
      "inputs": [],
      "name": "withdrawAll",
      "outputs": [],
      "stateMutability": "nonpayable",
      "type": "function"
    },
    {
      "inputs": [
        {
          "internalType": "uint256",
          "name": "shares",
          "type": "uint256"
        }
      ],
      "name": "withdrawShares",
      "outputs": [],
      "stateMutability": "nonpayable",
      "type": "function"
    },
    {
      "inputs": [
        {
          "internalType": "uint256",
          "name": "amount",
          "type": "uint256"
        }
      ],
      "name": "withdrawUnderlying",
      "outputs": [],
      "stateMutability": "nonpayable",
      "type": "function"
    },
    {
      "inputs": [],
      "name": "withdrawalCap",
      "outputs": [
        {
          "internalType": "uint256",
          "name": "",
          "type": "uint256"
        }
      ],
      "stateMutability": "view",
      "type": "function"
    },
    {
      "inputs": [],
      "name": "xvs",
      "outputs": [
        {
          "internalType": "contract IERC20Metadata",
          "name": "",
          "type": "address"
        }
      ],
      "stateMutability": "view",
      "type": "function"
    },
    {
      "inputs": [
        {
          "internalType": "uint256",
          "name": "",
          "type": "uint256"
        }
      ],
      "name": "xvsToUnderlyingPath",
      "outputs": [
        {
          "internalType": "address",
          "name": "",
          "type": "address"
        }
      ],
      "stateMutability": "view",
      "type": "function"
    }
  ],
  "transactionHash": "0xff52cfb8ea07c8da58cd1eac1cc5f519839f4864384c1369ee2ab894d3b99784",
  "args": [
    "0xb0735C49755aae32f63Bb9602589fe6fd89e0bA8",
    "0x334b3eCB4DCa3593BCCC3c7EBD1A1C1d1780FBF1",
    "0xfD36E2c2a6789Db23113685031d7F16329158384",
    "0xcF6BB5389c92Bdda8a3747Ddb454cB7a64626C63",
    "0x4a1D75f75B00b05ABd2a2D376f77413D1cC5cAD1",
    "0x05fF2B0DB69458A0750badebc4f9e13aDd608C7F",
    [
      "0xcF6BB5389c92Bdda8a3747Ddb454cB7a64626C63",
      "0x1AF3F329e8BE154074D8769D1FFa4eE058B1DBc3"
    ]
  ],
  "solcInputHash": "fa4c455fd6dffea2184409660fd1b65c",
  "bytecode": "0x60a06040526000196008553480156200001757600080fd5b5060405162002584380380620025848339810160408190526200003a916200096e565b600080546001600160a01b0319163390811782556040519091829160008051602062002564833981519152908290a350600281511015620000d25760405162461bcd60e51b815260206004820152602760248201527f56656e757353747261746567793a2070617468206c656e677468206d757374206044820152663132901f1e901960c91b60648201526084015b60405180910390fd5b8051620000e79060099060208401906200080b565b5033600780546001600160a01b03199081166001600160a01b03938416179091556002805482168a84161790556003805482168984169081179091556006805483168885161790556001805490921692851692909217905560408051636f307dc360e01b81529051636f307dc391600481810192602092909190829003018186803b1580156200017657600080fd5b505afa1580156200018b573d6000803e3d6000fd5b505050506040513d601f19601f82011682018060405250810190620001b191906200088c565b600580546001600160a01b0319166001600160a01b039290921691821790556040805163313ce56760e01b8152905163313ce56791600480820192602092909190829003018186803b1580156200020757600080fd5b505afa1580156200021c573d6000803e3d6000fd5b505050506040513d601f19601f8201168201806040525081019062000242919062000ab2565b6200024f90600a62000c38565b6200025d906103e862000d23565b60805260055462000287906001600160a01b03168760001962000399602090811b62000fee17901c565b600480546001600160a01b0319166001600160a01b038716179055604080516001808252818301909252600091602080830190803683370190505090508681600081518110620002e757634e487b7160e01b600052603260045260246000fd5b6001600160a01b03928316602091820292909201015260048054604051631853304760e31b815292169163c299823891620003259185910162000af3565b600060405180830381600087803b1580156200034057600080fd5b505af115801562000355573d6000803e3d6000fd5b505050506040513d6000823e601f3d908101601f191682016040526200037f9190810190620008ab565b506200038b846200048f565b505050505050505062000db9565b604051636eb1769f60e11b81523060048201526001600160a01b038381166024830152600091839186169063dd62ed3e9060440160206040518083038186803b158015620003e657600080fd5b505afa158015620003fb573d6000803e3d6000fd5b505050506040513d601f19601f8201168201806040525081019062000421919062000a99565b6200042d919062000bd0565b604080516001600160a01b038616602482015260448082018490528251808303909101815260649091019091526020810180516001600160e01b0390811663095ea7b360e01b1790915291925062000489918691906200059c16565b50505050565b6000546001600160a01b03163314620004eb5760405162461bcd60e51b815260206004820181905260248201527f4f776e61626c653a2063616c6c6572206973206e6f7420746865206f776e65726044820152606401620000c9565b6001600160a01b038116620005525760405162461bcd60e51b815260206004820152602660248201527f4f776e61626c653a206e6577206f776e657220697320746865207a65726f206160448201526564647265737360d01b6064820152608401620000c9565b600080546040516001600160a01b03808516939216916000805160206200256483398151915291a3600080546001600160a01b0319166001600160a01b0392909216919091179055565b6000620005f8826040518060400160405280602081526020017f5361666545524332303a206c6f772d6c6576656c2063616c6c206661696c6564815250856001600160a01b03166200067f60201b620010e8179092919060201c565b8051909150156200067a57808060200190518101906200061991906200094c565b6200067a5760405162461bcd60e51b815260206004820152602a60248201527f5361666545524332303a204552433230206f7065726174696f6e20646964206e6044820152691bdd081cdd58d8d9595960b21b6064820152608401620000c9565b505050565b60606200069084846000856200069a565b90505b9392505050565b606082471015620006fd5760405162461bcd60e51b815260206004820152602660248201527f416464726573733a20696e73756666696369656e742062616c616e636520666f6044820152651c8818d85b1b60d21b6064820152608401620000c9565b843b6200074d5760405162461bcd60e51b815260206004820152601d60248201527f416464726573733a2063616c6c20746f206e6f6e2d636f6e74726163740000006044820152606401620000c9565b600080866001600160a01b031685876040516200076b919062000ad5565b60006040518083038185875af1925050503d8060008114620007aa576040519150601f19603f3d011682016040523d82523d6000602084013e620007af565b606091505b509092509050620007c2828286620007cd565b979650505050505050565b60608315620007de57508162000693565b825115620007ef5782518084602001fd5b8160405162461bcd60e51b8152600401620000c9919062000b42565b82805482825590600052602060002090810192821562000863579160200282015b828111156200086357825182546001600160a01b0319166001600160a01b039091161782556020909201916001909101906200082c565b506200087192915062000875565b5090565b5b8082111562000871576000815560010162000876565b6000602082840312156200089e578081fd5b8151620006938162000da0565b60006020808385031215620008be578182fd5b82516001600160401b03811115620008d4578283fd5b8301601f81018513620008e5578283fd5b8051620008fc620008f68262000baa565b62000b77565b80828252848201915084840188868560051b87010111156200091c578687fd5b8694505b838510156200094057805183526001949094019391850191850162000920565b50979650505050505050565b6000602082840312156200095e578081fd5b8151801515811462000693578182fd5b600080600080600080600060e0888a03121562000989578283fd5b8751620009968162000da0565b80975050602080890151620009ab8162000da0565b60408a0151909750620009be8162000da0565b60608a0151909650620009d18162000da0565b60808a0151909550620009e48162000da0565b60a08a0151909450620009f78162000da0565b60c08a01519093506001600160401b0381111562000a13578283fd5b8901601f81018b1362000a24578283fd5b805162000a35620008f68262000baa565b8082825284820191508484018e868560051b870101111562000a55578687fd5b8694505b8385101562000a8457805162000a6f8162000da0565b83526001949094019391850191850162000a59565b50809550505050505092959891949750929550565b60006020828403121562000aab578081fd5b5051919050565b60006020828403121562000ac4578081fd5b815160ff8116811462000693578182fd5b6000825162000ae981846020870162000d45565b9190910192915050565b6020808252825182820181905260009190848201906040850190845b8181101562000b365783516001600160a01b03168352928401929184019160010162000b0f565b50909695505050505050565b600060208252825180602084015262000b6381604085016020870162000d45565b601f01601f19169190910160400192915050565b604051601f8201601f191681016001600160401b038111828210171562000ba25762000ba262000d8a565b604052919050565b60006001600160401b0382111562000bc65762000bc662000d8a565b5060051b60200190565b6000821982111562000be65762000be662000d74565b500190565b80825b600180861162000bff575062000c2f565b81870482111562000c145762000c1462000d74565b8086161562000c2257918102915b9490941c93800262000bee565b94509492505050565b60006200069360001960ff85168460008262000c575750600162000693565b8162000c665750600062000693565b816001811462000c7f576002811462000c8a5762000cbe565b600191505062000693565b60ff84111562000c9e5762000c9e62000d74565b6001841b91508482111562000cb75762000cb762000d74565b5062000693565b5060208310610133831016604e8410600b841016171562000cf6575081810a8381111562000cf05762000cf062000d74565b62000693565b62000d05848484600162000beb565b80860482111562000d1a5762000d1a62000d74565b02949350505050565b600081600019048311821515161562000d405762000d4062000d74565b500290565b60005b8381101562000d6257818101518382015260200162000d48565b83811115620004895750506000910152565b634e487b7160e01b600052601160045260246000fd5b634e487b7160e01b600052604160045260246000fd5b6001600160a01b038116811462000db657600080fd5b50565b60805161178862000ddc600039600081816102240152610f6d01526117886000f3fe608060405234801561001057600080fd5b50600436106101735760003560e01c80638ca17995116100de578063c21ebd0711610097578063e8b5e51f11610071578063e8b5e51f14610305578063f2fde38b1461030d578063fbfa77cf14610320578063fff0d8d81461033357610173565b8063c21ebd07146102d7578063c7b9d530146102ea578063de5f6268146102fd57610173565b80638ca17995146102725780638da5cb5b146102855780639bb1a99c14610296578063a00251c6146102a9578063b9f5be41146102b1578063bad1d3da146102c457610173565b80634e79ed3c116101305780634e79ed3c1461020c57806355ad9a651461021f5780636f307dc314610246578063715018a614610259578063853828b6146102615780638971611c1461026957610173565b806306a04fe1146101785780631071a2901461019357806319810f3c146101a85780631fe4a686146101bb57806320ff430b146101e65780634d024cc7146101f9575b600080fd5b610180610346565b6040519081526020015b60405180910390f35b6101a66101a13660046114a0565b6103c9565b005b6101a66101b63660046114a0565b61049d565b6007546101ce906001600160a01b031681565b6040516001600160a01b03909116815260200161018a565b6101a66101f4366004611460565b610516565b6101ce6102073660046114a0565b610559565b6006546101ce906001600160a01b031681565b6101807f000000000000000000000000000000000000000000000000000000000000000081565b6005546101ce906001600160a01b031681565b6101a6610583565b6101a66105f7565b61018060085481565b6101a66102803660046114a0565b610736565b6000546001600160a01b03166101ce565b6003546101ce906001600160a01b031681565b610180610b64565b6101a66102bf3660046114a0565b610b6e565b6004546101ce906001600160a01b031681565b6001546101ce906001600160a01b031681565b6101a66102f8366004611364565b610be7565b6101a6610c9c565b6101a6610d1f565b6101a661031b366004611364565b610e57565b6002546101ce906001600160a01b031681565b6101a66103413660046114a0565b610f41565b600354604051633af9e66960e01b81523060048201526000916001600160a01b031690633af9e66990602401602060405180830381600087803b15801561038c57600080fd5b505af11580156103a0573d6000803e3d6000fd5b505050506040513d601f19601f820116820180604052508101906103c491906114b8565b905090565b6007546001600160a01b0316336001600160a01b031614806103f557506000546001600160a01b031633145b61041a5760405162461bcd60e51b81526004016104119061157b565b60405180910390fd5b60035460405163852a12e360e01b8152600481018390526001600160a01b039091169063852a12e3906024015b602060405180830381600087803b15801561046157600080fd5b505af1158015610475573d6000803e3d6000fd5b505050506040513d601f19601f8201168201806040525081019061049991906114b8565b5050565b6007546001600160a01b0316336001600160a01b031614806104c957506000546001600160a01b031633145b6104e55760405162461bcd60e51b81526004016104119061157b565b60035460405163db006a7560e01b8152600481018390526001600160a01b039091169063db006a7590602401610447565b6000546001600160a01b031633146105405760405162461bcd60e51b8152600401610411906115cd565b6105546001600160a01b0384168383611101565b505050565b6009818154811061056957600080fd5b6000918252602090912001546001600160a01b0316905081565b6000546001600160a01b031633146105ad5760405162461bcd60e51b8152600401610411906115cd565b600080546040516001600160a01b03909116907f8be0079c531659141344cd1fd0a4f28419497f9722a3daafe3b4186f6b6457e0908390a3600080546001600160a01b0319169055565b6007546001600160a01b0316336001600160a01b0316148061062357506000546001600160a01b031633145b61063f5760405162461bcd60e51b81526004016104119061157b565b6003546040516370a0823160e01b81523060048201526001600160a01b039091169063db006a759082906370a08231906024015b60206040518083038186803b15801561068b57600080fd5b505afa15801561069f573d6000803e3d6000fd5b505050506040513d601f19601f820116820180604052508101906106c391906114b8565b6040518263ffffffff1660e01b81526004016106e191815260200190565b602060405180830381600087803b1580156106fb57600080fd5b505af115801561070f573d6000803e3d6000fd5b505050506040513d601f19601f8201168201806040525081019061073391906114b8565b50565b6002546001600160a01b0316336001600160a01b0316146107695760405162461bcd60e51b815260040161041190611602565b60408051600180825281830190925260009160208083019080368337505060035482519293506001600160a01b0316918391506000906107b957634e487b7160e01b600052603260045260246000fd5b6001600160a01b0392831660209182029290920101526004805460405163436f98f760e11b81529216916386df31ee916107f79130918691016114ec565b600060405180830381600087803b15801561081157600080fd5b505af1158015610825573d6000803e3d6000fd5b50506006546040516370a0823160e01b8152306004820152600093506001600160a01b0390911691506370a082319060240160206040518083038186803b15801561086f57600080fd5b505afa158015610883573d6000803e3d6000fd5b505050506040513d601f19601f820116820180604052508101906108a791906114b8565b905080156109d35760065460015460405163095ea7b360e01b81526001600160a01b0391821660048201526024810184905291169063095ea7b390604401602060405180830381600087803b1580156108ff57600080fd5b505af1158015610913573d6000803e3d6000fd5b505050506040513d601f19601f820116820180604052508101906109379190611440565b506001546001600160a01b03166338ed173982600060093061095b426107086116b6565b6040518663ffffffff1660e01b815260040161097b959493929190611643565b600060405180830381600087803b15801561099557600080fd5b505af11580156109a9573d6000803e3d6000fd5b505050506040513d6000823e601f3d908101601f191682016040526109d19190810190611380565b505b6005546040516370a0823160e01b81523060048201526001600160a01b03909116906370a082319060240160206040518083038186803b158015610a1657600080fd5b505afa158015610a2a573d6000803e3d6000fd5b505050506040513d601f19601f82011682018060405250810190610a4e91906114b8565b905082811015610b47576000610a6482856116ce565b9050600854811115610ac65760405162461bcd60e51b815260206004820152602560248201527f56656e757353747261746567793a20726561636865642077697468647261776160448201526406c206361760dc1b6064820152608401610411565b60035460405163852a12e360e01b8152600481018390526001600160a01b039091169063852a12e390602401602060405180830381600087803b158015610b0c57600080fd5b505af1158015610b20573d6000803e3d6000fd5b505050506040513d601f19601f82011682018060405250810190610b4491906114b8565b50505b600254600554610554916001600160a01b03918216911685611101565b60006103c4610346565b6007546001600160a01b0316336001600160a01b03161480610b9a57506000546001600160a01b031633145b610bb65760405162461bcd60e51b81526004016104119061157b565b60035460405163140e25ad60e31b8152600481018390526001600160a01b039091169063a0712d6890602401610447565b6000546001600160a01b03163314610c115760405162461bcd60e51b8152600401610411906115cd565b6001600160a01b038116610c7a5760405162461bcd60e51b815260206004820152602a60248201527f53747261746567793a20737472617465676973742063616e2774206265207a65604482015269726f206164647265737360b01b6064820152608401610411565b600780546001600160a01b0319166001600160a01b0392909216919091179055565b6007546001600160a01b0316336001600160a01b03161480610cc857506000546001600160a01b031633145b610ce45760405162461bcd60e51b81526004016104119061157b565b6003546005546040516370a0823160e01b81523060048201526001600160a01b039283169263a0712d689216906370a0823190602401610673565b6002546001600160a01b0316336001600160a01b031614610d525760405162461bcd60e51b815260040161041190611602565b6005546040516370a0823160e01b81523060048201526000916001600160a01b0316906370a082319060240160206040518083038186803b158015610d9657600080fd5b505afa158015610daa573d6000803e3d6000fd5b505050506040513d601f19601f82011682018060405250810190610dce91906114b8565b60035460405163140e25ad60e31b8152600481018390529192506001600160a01b03169063a0712d6890602401602060405180830381600087803b158015610e1557600080fd5b505af1158015610e29573d6000803e3d6000fd5b505050506040513d601f19601f82011682018060405250810190610e4d91906114b8565b1561073357600080fd5b6000546001600160a01b03163314610e815760405162461bcd60e51b8152600401610411906115cd565b6001600160a01b038116610ee65760405162461bcd60e51b815260206004820152602660248201527f4f776e61626c653a206e6577206f776e657220697320746865207a65726f206160448201526564647265737360d01b6064820152608401610411565b600080546040516001600160a01b03808516939216917f8be0079c531659141344cd1fd0a4f28419497f9722a3daafe3b4186f6b6457e091a3600080546001600160a01b0319166001600160a01b0392909216919091179055565b6000546001600160a01b03163314610f6b5760405162461bcd60e51b8152600401610411906115cd565b7f0000000000000000000000000000000000000000000000000000000000000000811015610fe95760405162461bcd60e51b815260206004820152602560248201527f56656e757353747261746567793a207769746864726177616c2063617020746f6044820152646f206c6f7760d81b6064820152608401610411565b600855565b604051636eb1769f60e11b81523060048201526001600160a01b038381166024830152600091839186169063dd62ed3e9060440160206040518083038186803b15801561103a57600080fd5b505afa15801561104e573d6000803e3d6000fd5b505050506040513d601f19601f8201168201806040525081019061107291906114b8565b61107c91906116b6565b6040516001600160a01b0385166024820152604481018290529091506110e290859063095ea7b360e01b906064015b60408051601f198184030181529190526020810180516001600160e01b03166001600160e01b031990931692909217909152611131565b50505050565b60606110f78484600085611203565b90505b9392505050565b6040516001600160a01b03831660248201526044810182905261055490849063a9059cbb60e01b906064016110ab565b6000611186826040518060400160405280602081526020017f5361666545524332303a206c6f772d6c6576656c2063616c6c206661696c6564815250856001600160a01b03166110e89092919063ffffffff16565b80519091501561055457808060200190518101906111a49190611440565b6105545760405162461bcd60e51b815260206004820152602a60248201527f5361666545524332303a204552433230206f7065726174696f6e20646964206e6044820152691bdd081cdd58d8d9595960b21b6064820152608401610411565b6060824710156112645760405162461bcd60e51b815260206004820152602660248201527f416464726573733a20696e73756666696369656e742062616c616e636520666f6044820152651c8818d85b1b60d21b6064820152608401610411565b843b6112b25760405162461bcd60e51b815260206004820152601d60248201527f416464726573733a2063616c6c20746f206e6f6e2d636f6e74726163740000006044820152606401610411565b600080866001600160a01b031685876040516112ce91906114d0565b60006040518083038185875af1925050503d806000811461130b576040519150601f19603f3d011682016040523d82523d6000602084013e611310565b606091505b509150915061132082828661132b565b979650505050505050565b6060831561133a5750816110fa565b82511561134a5782518084602001fd5b8160405162461bcd60e51b81526004016104119190611548565b600060208284031215611375578081fd5b81356110fa8161173d565b60006020808385031215611392578182fd5b825167ffffffffffffffff808211156113a9578384fd5b818501915085601f8301126113bc578384fd5b8151818111156113ce576113ce611727565b8060051b604051601f19603f830116810181811085821117156113f3576113f3611727565b604052828152858101935084860182860187018a1015611411578788fd5b8795505b83861015611433578051855260019590950194938601938601611415565b5098975050505050505050565b600060208284031215611451578081fd5b815180151581146110fa578182fd5b600080600060608486031215611474578182fd5b833561147f8161173d565b9250602084013561148f8161173d565b929592945050506040919091013590565b6000602082840312156114b1578081fd5b5035919050565b6000602082840312156114c9578081fd5b5051919050565b600082516114e28184602087016116e5565b9190910192915050565b6001600160a01b038381168252604060208084018290528451918401829052600092858201929091906060860190855b8181101561153a57855185168352948301949183019160010161151c565b509098975050505050505050565b60006020825282518060208401526115678160408501602087016116e5565b601f01601f19169190910160400192915050565b60208082526032908201527f56656e757353747261746567793a206f6e6c792073747261746567697374206f6040820152711c881d1a5b595b1bd8dac8185b1b1bddd95960721b606082015260800190565b6020808252818101527f4f776e61626c653a2063616c6c6572206973206e6f7420746865206f776e6572604082015260600190565b60208082526021908201527f56656e757353747261746567793a206f6e6c79207661756c7420616c6c6f77656040820152601960fa1b606082015260800190565b600060a082018783526020878185015260a0604085015281875480845260c0860191508885528285209350845b818110156116955784546001600160a01b031683526001948501949284019201611670565b50506001600160a01b03969096166060850152505050608001529392505050565b600082198211156116c9576116c9611711565b500190565b6000828210156116e0576116e0611711565b500390565b60005b838110156117005781810151838201526020016116e8565b838111156110e25750506000910152565b634e487b7160e01b600052601160045260246000fd5b634e487b7160e01b600052604160045260246000fd5b6001600160a01b038116811461073357600080fdfea2646970667358221220436c615ba36dea10094130d313accae955960bc91dd0a7536c4a40f851de3a8064736f6c634300080300338be0079c531659141344cd1fd0a4f28419497f9722a3daafe3b4186f6b6457e0",
  "devdoc": {
    "kind": "dev",
    "methods": {
      "owner()": {
        "details": "Returns the address of the current owner."
      },
      "renounceOwnership()": {
        "details": "Leaves the contract without owner. It will not be possible to call `onlyOwner` functions anymore. Can only be called by the current owner. NOTE: Renouncing ownership will leave the contract without an owner, thereby removing any functionality that is only available to the owner."
      },
      "transferOwnership(address)": {
        "details": "Transfers ownership of the contract to a new account (`newOwner`). Can only be called by the current owner."
      }
    },
    "version": 1
  },
  "userdoc": {
    "kind": "user",
    "methods": {},
    "version": 1
  },
  "storageLayout": {
    "storage": [
      {
        "astId": 7,
        "contract": "contracts/strategies/VenusStrategy.sol:VenusStrategy",
        "label": "_owner",
        "offset": 0,
        "slot": "0",
        "type": "t_address"
      },
      {
        "astId": 3153,
        "contract": "contracts/strategies/VenusStrategy.sol:VenusStrategy",
        "label": "pancakeRouter",
        "offset": 0,
        "slot": "1",
        "type": "t_contract(IPancakeRouter)3063"
      },
      {
        "astId": 3156,
        "contract": "contracts/strategies/VenusStrategy.sol:VenusStrategy",
        "label": "vault",
        "offset": 0,
        "slot": "2",
        "type": "t_contract(IVault)2395"
      },
      {
        "astId": 3159,
        "contract": "contracts/strategies/VenusStrategy.sol:VenusStrategy",
        "label": "vToken",
        "offset": 0,
        "slot": "3",
        "type": "t_contract(IVToken)3142"
      },
      {
        "astId": 3162,
        "contract": "contracts/strategies/VenusStrategy.sol:VenusStrategy",
        "label": "unitroller",
        "offset": 0,
        "slot": "4",
        "type": "t_contract(IUnitroller)3106"
      },
      {
        "astId": 3165,
        "contract": "contracts/strategies/VenusStrategy.sol:VenusStrategy",
        "label": "underlying",
        "offset": 0,
        "slot": "5",
        "type": "t_contract(IERC20Metadata)3018"
      },
      {
        "astId": 3168,
        "contract": "contracts/strategies/VenusStrategy.sol:VenusStrategy",
        "label": "xvs",
        "offset": 0,
        "slot": "6",
        "type": "t_contract(IERC20Metadata)3018"
      },
      {
        "astId": 3170,
        "contract": "contracts/strategies/VenusStrategy.sol:VenusStrategy",
        "label": "strategist",
        "offset": 0,
        "slot": "7",
        "type": "t_address"
      },
      {
        "astId": 3179,
        "contract": "contracts/strategies/VenusStrategy.sol:VenusStrategy",
        "label": "withdrawalCap",
        "offset": 0,
        "slot": "8",
        "type": "t_uint256"
      },
      {
        "astId": 3182,
        "contract": "contracts/strategies/VenusStrategy.sol:VenusStrategy",
        "label": "xvsToUnderlyingPath",
        "offset": 0,
        "slot": "9",
        "type": "t_array(t_address)dyn_storage"
      }
    ],
    "types": {
      "t_address": {
        "encoding": "inplace",
        "label": "address",
        "numberOfBytes": "20"
      },
      "t_array(t_address)dyn_storage": {
        "base": "t_address",
        "encoding": "dynamic_array",
        "label": "address[]",
        "numberOfBytes": "32"
      },
      "t_contract(IERC20Metadata)3018": {
        "encoding": "inplace",
        "label": "contract IERC20Metadata",
        "numberOfBytes": "20"
      },
      "t_contract(IPancakeRouter)3063": {
        "encoding": "inplace",
        "label": "contract IPancakeRouter",
        "numberOfBytes": "20"
      },
      "t_contract(IUnitroller)3106": {
        "encoding": "inplace",
        "label": "contract IUnitroller",
        "numberOfBytes": "20"
      },
      "t_contract(IVToken)3142": {
        "encoding": "inplace",
        "label": "contract IVToken",
        "numberOfBytes": "20"
      },
      "t_contract(IVault)2395": {
        "encoding": "inplace",
        "label": "contract IVault",
        "numberOfBytes": "20"
      },
      "t_uint256": {
        "encoding": "inplace",
        "label": "uint256",
        "numberOfBytes": "32"
      }
    }
  }
}